:020000041000EA
:1000000000B5324B212058609868022188439860DF
:10001000D860186158612E4B002199600421596104
:100020000121F02299502B49196001219960352056
:1000300000F044F80222904214D00621196600F024
:1000400034F8196E01211966002018661A6600F04E
:100050002CF8196E196E196E052000F02FF8012189
:100060000842F9D1002199601B49196000215960AB
:100070001A491B48016001219960EB211966A021F2
:10008000196600F012F800219960164914480160C1
:100090000121996001BC002800D000471248134993
:1000A000086003C880F30888084703B5996A0420EC
:1000B0000142FBD001200142F8D103BD02B5186610
:1000C0001866FFF7F2FF186E186E02BD00000240BE
:1000D000000000180000070000035F00212200005C
:1000E000F4000018222000A00001001008ED00E03C
:1000F000000000000000000000000000070B8FD58A
:10010000C02600204D3D00102F7C0010393D00100E
:1001100000000000000000000000000000000000DF
:10012000000000000000000000000000293E001058
:100130000000000000000000B93D00100554001050
:10014000993F0010993F0010993F0010993F00100F
:10015000993F0010993F0010993F0010993F0010FF
:10016000993F0010993F0010993F0010993F0010EF
:10017000993F0010993F0010993F0010993F0010DF
:10018000993F0010993F0010993F0010993F0010CF
:10019000993F0010993F0010993F0010993F0010BF
:0801A000993F0010993F001087
:1001A80002B4714649084900095649008E4402BC08
:1001B8007047C04602B4714649084900095C4900C5
:1001C8008E4402BC7047C04603B4714649084000DB
:1001D8004900095A49008E4403BC7047002934D0AD
:1001E8000123002210B488422CD301242407A14201
:1001F80004D2814202D209011B01F8E7E400A142BE
:1002080004D2814202D249005B00F8E7884201D358
:10021800401A1A434C08A04202D3001B5C08224330
:100228008C08A04202D3001B9C082243CC08A042A1
:1002380002D3001BDC082243002803D01B0901D08D
:100248000909E3E7100010BC704701B5002000F071
:100258005FF802BD0029F8D003B5FFF7C1FF0EBC57
:100268004243891A1847C046002941D010B40400F7
:100278004C40A44601230022002900D54942002809
:1002880000D5404288422CD301242407A14204D23D
:10029800814202D209011B01F8E7E400A14204D21D
:1002A800814202D249005B00F8E7884201D3401A34
:1002B8001A434C08A04202D3001B5C0822438C0856
:1002C800A04202D3001B9C082243CC08A04202D3C0
:1002D800001BDC082243002803D01B0901D00909B0
:1002E800E3E710006446002C00D5404210BC70477C
:1002F80001B5002000F00CF802BDC0460029F7D077
:1003080003B5FFF7B3FF0EBC4243891A1847C0462E
:100318007047C046D0400B00D1409C46203AD3409D
:100328001843524263469340184370471C210123E7
:100338001B04984201D3000C10391B0A984201D3C0
:10034800000A08391B09984201D30009043902A29E
:10035800105C40187047C046040302020101010105
:100368000000000000000000414208401C21012359
:100378001B04984201D3000C10391B0A984201D380
:10038800000A08391B09984201D30009043902A25E
:10039800105C401A7047C0461B1C1D1D1E1E1E1EE9
:1003A8001F1F1F1F1F1F1F1F002B11D1002A0FD136
:1003B800002900D1002802D00021C943080007B451
:1003C800024802A14018029003BDC04645FFFFFF46
:1003D80003B4684601B5029801F067F9019B9E468F
:1003E80002B00CBC7047C0464A02F8B5430244004C
:1003F800C50F500A84464800240E000E5F0AC90F34
:100408009B099209261A8D4200D09EE0002E42DDFB
:100418008021C90400281ED1002A0AD0661E012C9A
:1004280005D19B1801340B4246D1013C01E0FF2C59
:1004380014D15A0704D00F221A40042A00D00433DA
:100448005A0100D42EE101340026FF2C19D09D4E0C
:10045800DB081E4015E0FF2CEBD00A431B2E01DD04
:100468000133E6E72020801B11008240F140501E36
:1004780082410A439B185A01DBD501340026FF2C20
:100488001AD1FF23E005DB057602760A18403043CF
:10049800ED072843F8BD002E2ED08026011BF60458
:1004A800002C14D1002B00D1F3E04C1E01290AD1F5
:1004B8009B1802243342B8D0012283491A405B08B2
:1004C8000B401343B5E7FF2906D11300AEE0FF2820
:1004D80000D1E0E00C0033431B2C02DD531C040068
:1004E800A7E719002026E140341BA3405C1EA34166
:1004F8000B4304009B18BEE7FE20611C01421ED17D
:10050800002C0DD1002B00D1C7E0002A00D190E7C4
:100518009B185A0100D48CE76C4A13400C0088E7FA
:10052800002BD2D0FF24002A00D182E78023DB03EE
:100538009F4202D39C4500D26746FB0076E00C0040
:10054800FF299ED09B185B0873E7002E25DD002845
:100558001CD1002A00D16CE7661E012C06D19B1A1B
:100568005A0100D465E79B019E0975E0FF2C00D174
:100578005FE701211B2E07DC2020801B1100824031
:10058800F140501E824111435B1AE9E7FF2C00D16C
:100598004FE78021C9040A43EBE7002E25D0051B4D
:1005A800002C0DD1002B08D06E1E012D03D10D009B
:1005B800D31A0134D4E7FF2D08D113002C0021E011
:1005C800FF286CD080242E00E404234301241B2E32
:1005D80007DC2025AD1B1C00AB40F4405D1EAB4181
:1005E8001C43131B0D000400BAE7FE26601C3042B2
:1005F8002DD1002C14D1002B06D125002600131E66
:1006080000D13EE70D0014E7002A00D111E79E1A39
:10061800D31A7001F6D4331E00D00AE7350030E74C
:10062800002B05D1002A49D013000D00FF2400E754
:10063800FF24002A00D1FCE68023DB039F4200D27E
:100648007BE79C4500D378E767460D0075E79E1A5F
:10065800700115D50D00D61A3000FFF767FE33007C
:1006680005388340844210DC2022001B0130121A16
:1006780019009340C1405A1E934100240B43D8E609
:10068800002EE9D135003400FBE6104A241A134045
:10069800CFE6130042E7130021E71300C9E6130071
:1006A8000400AFE7DE08FF2C00D0EAE6002E00D1F8
:1006B800E7E68023DB03FF241E43E2E680261500DD
:1006C800F603F6E7FFFF7F1FFFFFFF7DFFFFFFFB3E
:1006D800F0B5C30F85B0440245000F1C640A2D0E07
:1006E800039302930AD0FF2D3BD08023E400DB0460
:1006F8001C4300237F3D019500930EE001230194E4
:100708000093002C09D02000FFF710FE431F9C40E7
:1007180076235B421B1A019300957D027E006D0AC9
:10072800360EFF0F002E23D0FF2E2ED08023ED0093
:10073800DB041D4333007F3B002201980399C31A51
:10074800009879408000104301380E2823D8FFF71D
:1007580031FD4D9973999299734D4D927361616111
:100768005300022301950093002CD6D00133C3E730
:100778002B000122002DE0D02800FFF7D7FD431FF2
:100788009D4076235B421B1AD6E733000222002DD8
:10079800D3D00132D1E764016D01AC4228D31A20CD
:1007A8000122641B0126270052006400002F01DB90
:1007B800A54201D8641B324301380028F3D1601EDA
:1007C8008441144318007F30002838DD620704D0C4
:1007D8000F222240042A00D00434220103D580339A
:1007E80018002B4A1440E508FE281DDD00250FE0FF
:1007F8001B200022013BD5E78023DB031C4203D0EA
:100808001D4201D12C00029780250299ED03254352
:10081800FF2009E00399009A022AE7D0032A2FD083
:1008280000252800012ACDD16D026D0AC005284394
:10083800C907084305B0F0BD2C003900ECE70122D8
:100848000025121A28001B2AEEDC9E3325009C4046
:10085800D540631E9C4125436B0704D00F232B40D2
:10086800042B00D0043580232800DB0418401D42E7
:100878000BD1ED08D8E780240023E4030293C3E7F3
:100888000291C1E700252800CEE700250120CBE72B
:10089800FFFFFFF7F0B5C30F85B047024400029190
:1008A8007F0A240E03930AD0FF2C71D080227F3C4C
:1008B80026000023FF00D204174301930CE0012314
:1008C8003E1E019308D03800FFF730FD7626431FFF
:1008D8009F407642361A0194029B5C025D00DB0F52
:1008E800640A2D0E02935AD0FF2D64D0802328006D
:1008F800E400DB041C437F3800230299039A4A4032
:10090800811901988C46850001311D430A2D00DDAF
:1009180078E0022D55DC013D012D63D9250CA4B2E8
:1009280026003B0CB8B246435C4368436B4300194E
:100938001F00330C1B189C4202D9802040023F182C
:100948001804B6B28619B401601E84411B0CB60E99
:10095800DB1934439B011C431B0168D50123600844
:100968001C40044308007F30002862DD630704D080
:100978000F232340042B00D00434230103D58031F6
:1009880008003E4B1C40E508FE2833DD00254CE0FE
:10099800022326000193002F9ED001338DE720000B
:1009A8000123002CA9D0FFF7C1FC431F9C407623EC
:1009B8005B42181AA0E728000223002C9DD00133BF
:1009C8009BE70120A840A6250600ED002E402842FE
:1009D8001DD19025AD00284247D1B93DFF3D2842A1
:1009E8009CD0029A022BD1D0032B42D0002528009C
:1009F800012BB7D16D026D0AC0052843D2071043F9
:100A080005B0F0BD039A0F2D04D00B2DE9D03C00A2
:100A1800019BE7E78023DB031F4203D01C4201D17F
:100A28002700029A8025ED033D43FF20E2E7614657
:100A380098E7012300251B1A28001B2BDADC9E31BE
:100A480025008C40DD40631E9C4125436B0704D084
:100A58000F232B40042B00D0043580232800DB040F
:100A680018401D4207D1ED08C4E780273200FF0374
:100A7800D8E72700D6E700250120BBE7FFFFFFF7EF
:100A880041024300C20F490A00201B0E7E2B03DDE2
:100A98009D2B02DD084BD0187047802000040843C6
:100AA800952B05DD963B9840002AF5D04042F3E7A8
:100AB8009621CB1AD840F7E7FFFFFF7F002370B5D8
:100AC8000400984209D0FFF731FC9E231B1A962B8D
:100AD80008DC082829D0083884406402D805640A4C
:100AE800204370BD992B1BDD020021001B32914071
:100AF8000A00511E8A410521091ACC4014432200DC
:100B08000B4D2A40610704D00F212140042900D051
:100B18000432510102D59F232A401B1AD408DCE76E
:100B2800421F0528EBD09440E9E79623D5E7C04655
:100B3800FFFFFFFBF0B587B004920593CB0F01933D
:100B4800059B0D034C006D0A410F5F0029431D03EF
:100B58007B0D0293059B6D0ADB0F0393049B049A9C
:100B68005B0F2B43019E029D039F640DC000D200C2
:100B7800651BBE4200D02CE1BB4EB446002D00DC04
:100B880070E0029E002E1ED11E00164300D19BE28B
:100B98006E1E012D13D1821882428041C91840422D
:100BA8000918012410000B0200D472E00224AF4B94
:100BB80042080B40012101400A43D80706E1654578
:100BC8001CD1A94C65E0644563D0382D47DC8026EC
:100BD800360433432E001F2E2FDC20251F00AD1BAB
:100BE800AF4002953D001700F7402F43029DF340A8
:100BF800AA40551EAA411D00174303E00127029D84
:100C0800382EE8DD3F1887428041691840420918AC
:100C180038000B023DD5002501342F006445C6D1AC
:100C2800934B24051C403B031B0B1C43019B2800D2
:100C3800DB071C43210007B0F0BD35001F00203D35
:100C4800EF403D000027202E03D04037BF1BBB409C
:100C58001F0017437B1E9F412F430025D2E7002525
:100C68000127CFE7002D6FD0029D2E1B002C30D11D
:100C78000D00054300D121E2751E012E24D18018F4
:100C880090429241C9185242891801340B0200D58A
:100C98008CE7430709D00F230340042B05D0031D1D
:100CA800834280414042091818006F4B0A0200D461
:100CB80010E2002501342F009C42B1D06B4BC008D4
:100CC8000B405D070543F2E166451DD11900100090
:100CD80077E7029C6445F9D0382E32DC8024350051
:100CE800240421431F2D1ADC20240E00671BBE405C
:100CF80034000600B840EE4034430600E940701E58
:100D0800864126430C0002E00126382DEADDB018A2
:100D180090429241E4185242A118029C79E72C00B3
:100D28000E00203CE64034000026202D03D040363B
:100D3800761BB1400E000643711E8E4126430024E7
:100D4800E5E700240126E2E74A4F661C3E4230D11F
:100D58000D000543002C12D1002D00D1B1E11D007A
:100D6800154396D0821882428041C918404209181A
:100D780010000B028DD53D4B1940340089E7002D3A
:100D8800A4D01D006446154383D080254C07C008B5
:100D9800C9082D032043294206D0DC082C4203D180
:100DA8002100D0085B071843CB00410F1943C0004E
:100DB80007E734002F00664500D131E782188242E8
:100DC8008041CB1840421B18D807520810435908D5
:100DD8005FE7002D65DD029E002E25D11E0016431B
:100DE80000D171E16E1E012D0ED1821A9042804110
:100DF800C91A4042091A012410000B0200D448E71E
:100E0800490206004D0A07E1174FBD4200D1D8E656
:100E18000125029F382E11DD451BA8428041C91BC0
:100E28004042091A2800E8E70F4EB44200D130E7E3
:100E3800382D33DC8026360433432E001F2E1BDC6E
:100E48002027BD1B02951D00029FF340BD40AC4604
:100E580015006746F5403D43029FBA40571EBA4108
:100E68001F001543D8E7C046FF070000FFFF7FFFBC
:100E78000000F07FFE07000035001F00203DEF4016
:100E88003D000027202E03D04037BE1BB3401F0073
:100E980017437B1E9F413D430027BDE700270125DF
:100EA800BAE7002D59D0029D2E1B002C16D10D003B
:100EB80005430FD0751E012E09D1101A82429241A6
:100EC800591A039B5242891A0193013495E78E4FB0
:100ED800BE4221D119001000340050E08A4C029D16
:100EE800A54200D1F2E0382E34DC802435002404F9
:100EF80021431F2D1DDC20260C00761BB440A44680
:100F08000400B040EC406746461EB041E9403C430F
:100F1800044326000C0002E00126382DE9DD901B71
:100F2800824292411C1B039B5242A11A0193029CCC
:100F380063E72C000E00203CE6400024202D03D05F
:100F48004034641BA1400C000443611E8C412643BD
:100F58000024E4E700240126E1E76C4E651C3542D5
:100F68004AD10D001F0005431743002C23D1002D43
:100F780008D13D1E019700D152E619001000039BCD
:100F8800019386E6002F00D183E6861AB042BF415E
:100F9800CD1A7F42ED1B2F0206D5101A82429241CC
:100FA800591A5242891AEAE737002F4300D1A5E0BF
:100FB800290030006DE6002D07D1002F00D194E004
:100FC8001900039B10000193FBE5002F00D1F8E501
:100FD80080254C07C008C9082D032043294200D1A9
:100FE800E2E6DC082C4200D0DEE65B07D0081843B6
:100FF800039B21000193D7E6861AB042BF41CD1A60
:101008007F42ED1B2F0228D5161AB24292415B1A75
:1010180052429D1A039B0193002D25D02800FFF70B
:1010280085F90300083B20223100D21A9D40D140A7
:10103800294335009D409C423BDC1A1B013220238A
:1010480008009B1A2C009D409840D4406B1E9D417F
:10105800D1402043284300241BE637002F43DBD12F
:101068003D003C000197DBE53000FFF75FF9030026
:1010780018331F2BD7DD3100083881409C4212DC21
:101088001B1B5A1C1F2ADADD0C001F3BDC40280002
:10109800202A03D040239B1A99400800431E9841F8
:1010A80000212043D7E7E41A194B0B405D07DF08FE
:1010B800B6E5E41A164B28001940EAE519001000B5
:1010C8005BE619001000E4E52C00E2E519001000C9
:1010D800029C54E74A07C70817433D00C9089C42C9
:1010E8000FD10D4304D12F009AE580210197090300
:1010F8003D0080273F03044C0F4391E53D000197D5
:101108008EE50F008CE5C046FF070000FE070000D3
:10111800FFFF7FFFF0B589B0009201930D03CA0F5E
:101128004B00060004002D0B5B0D0692059244D07F
:101138005B4A93426AD0420FED00154380221204A5
:101148002A430292574AC4009F180026019B019A1D
:101158001D03D20F5B0000982D0B5B0D079265D025
:101168004F4A934200D188E0ED004E49420F2A438E
:1011780080255B189C462D041543C2000021079B5F
:101188000698584063460490B0000843FB1A01389B
:1011980003930E2800D989E0FFF716F87E0028028D
:1011A800D40128021E022802D4017E007E001E02FD
:1011B800D401C701C701C701B5012B00034302933E
:1011C8002CD0002D15D02800FFF7B0F8010003003F
:1011D8000B391D22521A31001800D14008388540B9
:1011E8000A002A433500854002922F4F2C00FF1A2F
:1011F800ABE7FFF79BF801000300153120331C29EA
:10120800E7DD3200083882400292EEE702002A4306
:10121800029207D01F000326029597E7029C012639
:10122800270093E71F000226029C8FE7009A2A43B3
:101238002AD0002D15D02800FFF778F80100020009
:101248000B391D2310005B1A009908388540D940D6
:101258002943009D8540144B9B1A9C462A000D008B
:101268008CE7FFF763F801000200153120321C29D2
:10127800E7DD009908388140EDE7009A2A4307D056
:1012880002009C4603217AE715009446012176E77F
:1012980015009C46022172E700231C00004A22E147
:1012A800FF07000001FCFFFF0DFCFFFF029B9D42B2
:1012B80004D300D022E1A24200D91FE1029BE60735
:1012C800D907630819430C00029B5B0802931302B9
:1012D8002D02170E00932B0C2F4307930799BBB2CF
:1012E80002980593FEF7B6FFBBB243430A04210CEC
:1012F800050011438B4207D9C919013D8F4203D814
:101308008B4201D9851EC919C81A0799FEF7A2FF91
:10131800BAB242430904A4B203000C43A24207D95B
:10132800E419013BA74203D8A24201D9831EE4195C
:101338002D041D43A41A009B009A1B0C120405934C
:10134800120CABB206925A4306980292059A290CDF
:10135800484353435143029A1B18120C9446634462
:10136800984202D9802252028918029A180C120453
:101378001B04120C40189A18844203D302951ED1FC
:1013880096421CD26B1E0293009BF6189E429B410C
:101398005B42DB19E418A74203D310D1009BB34288
:1013A8000DD8A04202D80AD1B24208D9AB1E029386
:1013B800009BF6189E429B415B42DB19E418B51A64
:1013C800AE42B641201A7642801B874200D1BEE069
:1013D8000799FEF73FFFBBB243430A04290C0400F8
:1013E80011438B4207D9C919013C8F4203D88B425C
:1013F80001D9841EC919C81A0799FEF72BFFBBB279
:1014080043430904ADB202000D43AB4207D9ED19BD
:10141800013AAF4203D8AB4201D9821EED19ED1A49
:101428002304059E1343069906981C0C9AB251434F
:1014380060437243744312180E0CB218904202D9DA
:10144800802040022418100C09041204090C001909
:101458005118854204D31C00854219D1002919D09E
:101468007D195C1EBD420ED3854203D310D1009A6C
:101478008A420AD29C1E009B5A009A429B415B42B8
:10148800DB19ED180092854202D1009B994201D0E8
:1014980001231C43039B5B4A9A18002A5ADD630701
:1014A8000BD00F232340042B07D0231DA342A441B4
:1014B8000299644209191C000291029BDB0108D5BC
:1014C800514B029A1A408023DB009C460292039AF1
:1014D80062444E4B9A4200DD8CE0029BE4085B07B5
:1014E8001C43029BDB081B0312051B0B1343049AC6
:1014F8002000D2071343190009B0F0BD039B002652
:10150800013B0393E3E6802302991B03194205D0AC
:101518001D4203D11400079B029505938023029A6C
:101528001B031343059A0492B8E63100069B049303
:1015380002295FD0032956D00129ABD1002423000A
:101548002200D0E7079B140002950493F0E70124DA
:1015580064429FE70121891A3829EFDC1F2926DC1C
:101568002B4A039B9446634420009C40029AC8403F
:101578009A4023000243581E83411A43029B1400D9
:10158800CB40620709D00F222240042A05D0221D31
:10159800A242A44164421B19140080211A000904C4
:1015A8000A400B4229D1E1085C070C439AE71F2344
:1015B8005B429B1A029ADA400023202906D015497B
:1015C800039B8C460299634499400B001C43631E9D
:1015D8009C4100231443D4E700231C000593802377
:1015E8001B0302939AE7049B059397E700231C00CB
:1015F8001A0078E70024230050E6002301221C008B
:1016080071E7C046FF030000FFFFFFFEFE07000072
:101618001E0400003E04000070B50300020006002E
:10162800051E11D0C21785185540C40F2800FEF7B3
:101638007DFE0D4A121A0A280FDC0B232E001B1AF6
:101648001530DE40854023003603360B1205324341
:10165800DB071A432800110070BD0B3885402300B2
:101668002E000025F0E7C0461E040000914003004C
:1016780090409C46203A9340194352426346D340D7
:101688001943704710B5002903D1FEF74FFE2030EB
:1016980002E00800FEF74AFE10BDC0460023C25C07
:1016A8000133002AFBD1581E7047F0B506000F0021
:1016B80015001C0085B08B4263D801D1824260D8E6
:1016C80021002800FFF7DEFF390000903000FFF707
:1016D800D9FF009B21001B1A1A0028000393FFF76B
:1016E800C5FF00900191B94245D801D1B04242D816
:1016F800009B019C01200021039AF61AA741FFF7DD
:10170800B5FF04000D00039B002B2BD0019B009A12
:10171800DB0750081843019B5908039B9C46B942B4
:101728002CD801D1B04229D832003B00121A8B4183
:10173800012692185B410027B6185F4101235B42DE
:101748009C446346002BEAD130003900039AFEF727
:10175800E1FD039AA4197D4106000F00FFF786FFFB
:10176800241A8D410A9B002B01D01E605F60200067
:10177800290005B0F0BD00240025C4E7B6197F4153
:10178800DCE700240025EDE7F0B515001E008DB05C
:1017980083680AAA1B699847204B041E099321D124
:1017A8000B980696FFF738FF00221D4BFFF7B2FC97
:1017B80006000A980F00FFF72FFF02000B00300009
:1017C8003900FFF7B7F9174B0490059102930322EC
:1017D80023002000099903950194009405F0B7FDB2
:1017E8000DB0F0BD030086330BD100200E4B032251
:1017F80002930999030003950190009005F0A7FD55
:10180800EEE704900020094B012202930999030096
:1018180003950190009005F09AFDE1E7388D0010DE
:1018280080842E41988F0010A48F0010BE8F001066
:1018380030B5040085B0A36840212000DB689847D4
:101848001D4D00280FDA039000201C4B0122029343
:10185800290003000190009005F079FD0021184847
:1018680004F0EAFFE7E720000D21164B164AFFF7C0
:101878008BFF20001021154B154AFFF785FF20002C
:101888000E21144B144AFFF77FFF20001121134B40
:10189800134AFFF779FF20004221124B124AFFF743
:1018A80073FF0020114B03220293290003000190CB
:1018B800009005F04CFDD1E7388D0010DA8F00104C
:1018C80050C30000F98F0010FD8F00100990001020
:1018D8000B90001014900010189000102190001028
:1018E800259000102B9000102F9000103E900010B3
:1018F80070B50025344E354B88B0032231002800DE
:10190800029301952B00009505F021FD304B032231
:1019180031002800029301952B00009505F017FD72
:10192800280001F0B3FA0400A8420CD0294B039018
:10193800029301222B00310028000195009505F043
:1019480006FD08B070BD0021234804F075FF200093
:1019580006F0E5FD002809D1204B01220293310051
:1019680003000190009005F0F2FCEAE71C4B03220B
:1019780002933100230020000194009405F0E7FC55
:10198800002200230692079307238022154D16484C
:10199800049403930294019400942B001349D200F9
:1019A800040004F0AFFC12492000FA2406F088FE77
:1019B800002500F07BF8A40000F0CCF820002900F6
:1019C80004F03AFFF8E7C046388D00105B9000102D
:1019D8007A9000108E90001010270000A790001039
:1019E800BF90001039180010F0030020C01100202B
:1019F800E9900010F0B5050089B083685B6C002B96
:101A080040D1AB685B6B002B41D1AB689B69002B65
:101A18003BD01F210122280069449847012834D16E
:101A28006B46DC7F200006F049FF2300002800D128
:101A38002E2303940024184F0493184B3900029363
:101A48000322230020000194009405F08EFC144E1C
:101A58003178FF2914D06A464B1CD07F114ADBB27B
:101A6800337050540A28D0D1D4540F4B03920293A8
:101A780003222300390020000194009405F075FC2E
:101A88003470C2E798470028BBD109B0F0BD2800E0
:101A980098470028F9D0B8E7508D0010FC90001046
:101AA800A0100020A11000201791001070B586B07A
:101AB800214C200006F033FD204D002809D1204B91
:101AC80001220293030001900090290005F04DFCCB
:101AD80017E004A90A001B4B41CB41C2A668F36872
:101AE800002B10D02000984700280FDA0390002020
:101AF800154B01220293290003000190009005F084
:101B080034FC06B070BD58204042EFE7B36C002BA0
:101B180003D0002220000D499847A3689B6A002B38
:101B280001D0200098470020094B0322029301901E
:101B380003000090C9E7C046F08A0010508D0010DD
:101B48002C910010888D001042910010FD19001092
:101B58005F91001030B50C4D85B02B6801332B60B8
:101B6800632B0BDD0024094B032202932000230082
:101B780007490194009405F0F8FB2C6000216420CB
:101B880004F05AFE05B030BD7007002070910010B7
:101B9800508D0010F0B597B0059304230B921A40AE
:101BA8000B9B0A92DA0807231A40013207001C9D92
:101BB80003910D92820700D0C5E1041D002804D0CE
:101BC800072909D81C20404254E1039A1A401300FF
:101BD800A4180822D31A0393059B0426013B0693F5
:101BE800002309930C9304930293013B07930196F6
:101BF800002F01D0059B23600D9B002B00DDF1E039
:101C08009D4B059A9A4203D39C4B9A4200D2E9E035
:101C18000B99E21B9308890700D50DE1049A0F2A56
:101C280000D9BBE0002F00D10EE104990EAA53544D
:101C38000A00079912AB99540C9B01330C93F4E0FA
:101C480008260196069B01330693069B9878002880
:101C580000D105E1029B002B08D12528F2D1079B72
:101C680001330793012302930426EAE77A284AD826
:101C78004B280ED8472846D829282CD825283FD0C5
:101C880041D82028DED0233843425841C3B20293BA
:101C9800D8E74C382E2836D8FEF782FAD4353535B1
:101CA80035353535353535353735353535353535DA
:101CB8003561353737616161D437D235D435183756
:101CC80018353579E63735353735E600002308937A
:101CD8000426029327E0012213002A38C0B2834069
:101CE80067490B42AED1E2211800890508400B4232
:101CF80035D11900114002911342A3D0089013E086
:101D0800079B013B07930023C1E70022069B08922B
:101D18005B7802926C2B07D10426069B01961B78F0
:101D28006C2B01D1B6190196013CA0193100FEF7C0
:101D380055FA70430400002F3BD0019B039ADB1B2C
:101D48001B18934200D93DE7089B002B41D1019B0A
:101D5800042B20D108CD03600423043415E00721A7
:101D680007358D4364188C430CCD002F08D0013102
:101D7800C91B03980919814200D923E722606360CF
:101D88000023082602933300083401935AE7029B84
:101D9800089300239CE7019B082B01D0162012E72B
:101DA800072307359D430CCD0260436008230834A0
:101DB800EBE7089B002B0CD1019B042B01D10435C8
:101DC800CAE7019B082BE9D10735013B9D4308353C
:101DD800ECE7069B023306930D9B013B0D9308CD60
:101DE800059305E70B9B9B0722D50121E21B93086E
:101DF800802080008242D1D2049A0F2ACED8002FA8
:101E08001CD00498DBB20EAA13549C46079B12AA56
:101E18001354002900D10FE780226346524213432E
:101E28000EAA1354099B01330993049B01330493AD
:101E3800069B0434013B07E70021D9E7002903D0BA
:101E4800039B01330393F0E7039B023303930A9B3D
:101E5800002BEAD10598FFF721FC039B1B18F1E73B
:101E68008022E31BD200934298D2002F0AD1039814
:101E78000838C01817B0F0BD208A0010D49A001096
:101E8800DAFF00009B08302238603B706B469B18D5
:101E98000A9A1B78002A0BD0FB70099BBB70002B99
:101EA8001BD100250EAE049BAB421BD1E01BE1E722
:101EB8007B70F2E70EADED560EA9595C002D07DADE
:101EC800039E15190140B54200D97BE62170013403
:101ED800013304999942EDD1E3E7012200237F20E1
:101EE800D21BF6E7099B002B02D033787F2B1BD837
:101EF8000A9B002B1BD012ABEB5C23700023013430
:101F080001930123019ADB1B1B199B18039A934227
:101F180000D957E63378019A2370013420000599D7
:101F280006F0BBFC019B1C1901350136BBE7337871
:101F38009B00FB181A6805920A9A05981A60FFF721
:101F4800ADFB431CDCE70E203DE6C046014B1860A4
:101F58007047C046B0000020F7B504000D001E0011
:101F6800019204F0AFFC030006F042FD054F320079
:101F78003B5001992800A04706F03AFD385801F077
:101F8800FBFEC04608000000F0B585B0019030485F
:101F9800039105F0C1FB061E0AD1040001272D4D4F
:101FA8002D4B9D4206D3019B002B01D0002C21D143
:101FB80005B0F0BD2B7B002B11D02B68DB68002B04
:101FC80001D0280098476B689F712B681B69002B0C
:101FD80008D16B6804222800196805F0B9FB01369E
:101FE8001035DDE7280098470028F2D03B00B340C1
:101FF8001C43F4E727002000FEF7B6F901238340CD
:10200800DA43144E05019C43731901931B7B02921A
:10201800002B0CD0AB591B69002B13D1029B7619EE
:102028001F40736804221968019805F091FB002C81
:10203800E1D1039B002B03D06420002104F0FCFBBA
:102048003C00B3E7019898470028F0D1E6E7C0467E
:102058007C070020788D0010888D0010014B8000CF
:10206800C0587047BC8D0010030010B50800002B45
:1020780005D0044A136000F07BFA002010BD16203A
:102088004042FBE7B40000200023FA210B4A10B5B8
:1020980013700B4A890013600A4A0B481360FFF754
:1020A800E3FF0A4B0A4918008B4200D310BD1A1AE5
:1020B8005C681211013222711033F5E7A11100207A
:1020C800740700207807002011770010788D001021
:1020D800888D001070B50C4D2978002908D1012091
:1020E800FFF752FF094C0A4B9C4202D301232B7085
:1020F80070BD63685B79002B03D0236820009B6860
:1021080098471034EFE7C046A1110020788D0010E1
:10211800888D001010B50400044805F0FDFA002C65
:1021280003D00121024806F0A3FB10BD740700206C
:102138007807002070B50A4B05001B689847094CC2
:10214800A860094B9C4200D370BD63685B79002B83
:1021580004D02368290020001B6898471034F0E752
:10216800B4000020788D0010888D0010044B054ABB
:1021780000209B1ADB08994201D2C9008858704791
:10218800788D0010188D0010F0B589B004AF3E6B43
:102198000400150079603B60002E1CD07B6B102179
:1021A800FB60009300203300FA6AFFF7F3FC8023FA
:1021B80001001B0198420FD300201D4B02220393FC
:1021C8001C4B1D49029301900300009005F0E4FAAE
:1021D800BD4605B0F0BD310007222300154013406D
:1021E800DB00AD011D434B021D43BC6ABB6A1734BB
:1021F8001B051D43631893430333043A9343073382
:10220800D34093406A46D31A9D4604AC002E07D0AB
:1022180020007B6B10300093FA6A3300FFF7BAFC9A
:102228002A0020003B68796805F09DFAD0E7C0468F
:10223800FF070000B7910010208D001040680028AB
:1022480004D0044BC01AC00800B2704701204042B5
:10225800FBE7C046188D00100EB417B5054C05AB4A
:1022680004CB01002000019301F0A2FE1EBC08BCB3
:1022780003B01847DD77001010B5CB0604D48906E3
:1022880003D50349FFF7E8FF10BD0249FAE7C04646
:10229800F0910010EF910010F0B591B0079317ABD3
:1022A8001B7807000C0006920593002B00D1B4E0C0
:1022B80002251B9B1B9A1D4001231A400C921B9A56
:1022C80007331A4008921B9AF8331A4009920026DD
:1022D80005F03CFA0200B04204D038009049FFF7FC
:1022E800BBFF0600002D09D044231B9A1A4235D1A2
:1022F800220038008B49FFF7AFFF36180C9B002BE4
:102308000AD0059A884B9200D258002A00D1874AF1
:1023180038008749FFF7A0FF099B002B5AD0089B7C
:10232800002B77D11C00069B002B05D01A00380023
:102338008049FFF791FF0400189B7F48A419002BE0
:1023480000D0BEE01A9B002B74D11B9BDB0700D585
:10235800E0E038001B99FFF78FFFBEE00020774BC5
:102368001D688542C9D0764B20001968FDF736FFF5
:10237800FA242900FDF76EFFA40061430A900800C3
:102388002900FDF767FF0E91E1210D9009010A98D8
:10239800FDF760FF0B910B983C21FDF71FFFE12132
:1023A8000F9009010A98FDF719FF0A900E98290065
:1023B8006043FDF713FF0D9B02903C210B9801939E
:1023C800FDF748FF380000910F9B0A9A5D49FFF717
:1023D80043FF92E7089B099C002B08D0059A5A4BAB
:1023E800920038005949D258FFF736FF0400069B7F
:1023F800002B05D01A0038004E49FFF72DFF24188E
:10240800079B002B98D01A0038005149FFF724FF8A
:10241800241891E700230793E0E7079B4D48012B19
:1024280000D14548189B059C002B4AD11A9B002BCC
:1024380053D000241A9E102E00D9102638001B995C
:10244800FFF71AFF0025AC4252DC199B38001A78B6
:102458004149FFF701FF012507231D4203D1380039
:102468003E49FFF7F9FEAE4248D9199B38005A5D3C
:102478003949FFF7F1FE0135102DEDD1002538005F
:102488003749FFF7E9FE2B00199AD25C1300203B6D
:102498005E2B00D92E2238003249FFF7DDFE0135C8
:1024A800102D30D007231D4203D138002B49FFF7E8
:1024B800D3FE2B00AE42E7D838002849FFF7CCFE00
:1024C800EDE7189B3A00284905F049F81A9B002BBC
:1024D800B0D1059B002B00D037E77A68B9680CCAE1
:1024E800386805F068F900227B681A6011B0F0BD01
:1024F80038001A49FFF7B0FE0135A4E738001B4938
:10250800FFF7AAFEB7E7199B9B1919931A9B9B1B08
:102518001A93DCE73800054A0549FFF79DFE18E7DE
:10252800F7910010FB910010CC8D0010F291001073
:102538002991001020920010DD77001084070020F8
:102548008007002004920010E08D001024920010F3
:102558002A920010F57700102F9200103792001081
:10256800399200103B920010B93F001035920010CC
:10257800012310B500211C00074A904207D8074ADA
:10258800002900D101231360054B186010BD2100FC
:1025980040085B00F1E7C04640420F00800700207A
:1025A8008407002070B50D0004004618B44201D11C
:1025B800280070BD21780348013483685B68984718
:1025C800F4E7C046D08A0010F7B5FF270D4B0E4C34
:1025D8005E6A0E4B0194019CA34202D386204042BE
:1025E8000CE05D68B5420AD31C69002C07D0AD78B1
:1025F800AC4685883D40AC4501D1A047FEBD24339B
:10260800E9E7C046AC070020F0030020CC03002017
:10261800F8B505000E001700114C124B9C4202D36E
:102628008620404212E0104B62685B6A9A4215D3DA
:10263800A369002B12D09178FF208C46A98801400D
:102648008C4504D13A00310028009847F8BD5279EA
:10265800012A03D13A003100280098472434DCE7E6
:10266800CC030020F0030020AC070020F8B50500DB
:102678000E001700094C0A4B9C4202D386204042A8
:102688000AE06369002B01D12434F4E73A003100F1
:10269800280098470028F7D1F8BDC046CC03002091
:1026A800F003002010B508220021024806F0FEF8C9
:1026B80010BDC0466708002030B50A4B0A4CA3423B
:1026C80001D3002030BD1A7F196AD20052189142F6
:1026D80001D12433F3E708310D1F2D788542F6D157
:1026E8000120EFE7CC030020F003002010B5084CD0
:1026F80023785B069B0F0A339B001B59181E05D0D5
:102708002000044A04499847C043C00F10BDC04682
:10271800AC070020B4070020BC0700201FB57F22AB
:102728007023024018420ED000240C4B03900293F1
:102738002000230001220A490194009405F0C8F8FA
:10274800200004B010BD012143B208009040002BC6
:10275800F7DA103291400800F3E7C046789200108B
:10276800688D001030B585B0050005F0EBFA030060
:102778000400783313D10020114B0222029311492F
:10278800030003950190009005F0A2F82800FFF7D8
:10279800C5FF0D4A00241368834313600CE000282A
:1027A800F4D00020094B0122029306490300039547
:1027B8000190009005F08CF8200005B030BDC046AF
:1027C80093920010688D001070080020B4920010D9
:1027D800F0B585B004000191042813D0012828D150
:1027E800204B1B78002B24D000F010FF1E4E1F4BEF
:1027F8009E421BD20025336A0293337FAB4204D832
:102808002436F4E7FFF74EFFEAE7029BEF00DF19F3
:10281800387905F097FA03903879FFF77FFF144A63
:10282800136883431360039B002B0FDA00220D4BC0
:102838001A700D4D0D4B9D420BD30E4B1B6A002B8E
:1028480002D020000199984705B0F0BD0135EDB2DE
:10285800D3E7EB68002B03D021002800019A9847A2
:102868002435E7E765080020CC030020F0030020AA
:1028780070080020AC070020F0B5172687B0C5B255
:102888006E440C0035706B0609D02800FFF714FF62
:1028980000281CD00020184B1B78834217D0174FF4
:1028A80017490395002C14D00020164B03220293DD
:1028B80001900300009005F00BF8307801F08CFFD0
:1028C800FB69002B02D0310008209847012007B08F
:1028D800F0BD0D4B032220000293019423000094C5
:1028E80004F0F6FF307805F009FAFB69002BEDD00B
:1028F80031000920E9E7C04666080020AC0700203F
:10290800688D0010D6920010E9920010F0B505000D
:1029180087B0807804AC20706B792A791B02134346
:1029280003226380EB7813402371FFF7F7FE2C4BEB
:1029380007001B682B4E03420DD0AD78280000F02D
:102948004BFE2800FFF70EFF05F0B4FE002802D169
:10295800963005F023FF200005F0C0F90200237827
:10296800783225D1002003931F4B022202931F497E
:1029780003000190009004F0ABFF207801F054FFB1
:102988000300783324D10020237802220393184BC4
:102998001649029301900300009004F099FF330058
:1029A8000120B933C436187033683B4333600DE0F7
:1029B8000028E2D003930D490E4B002002930190AA
:1029C80003000090012204F083FF002007B0F0BD4F
:1029D8000028E4D0237805490393074BEDE7C04668
:1029E80070080020AC070020FE920010688D0010CF
:1029F800459300102193001065930010F0B5AB4F7C
:102A08000600BB690C00150085B0002B18D1317881
:102A1800C806C00E012800D178E0022800D1E6E0FF
:102A2800002820D12A6873787F2931D9062B0CD049
:102A3800082B28D0002B16D113705370023311E1E4
:102A480098470028E3D100200FE071880A0A131F75
:102A5800D6B2012B07D9072A05D8CBB201937B6AD6
:102A68001F78002F03D11620404205B0F0BD5978D9
:102A7800B14204D10199814200D1EBE00130DB1968
:102A8800EEE71B78EEE0BA373B7813700123E9E0F4
:102A9800052B11D0092BE6D173887C6A002B32D123
:102AA800FFF700FE39007388BA310B70FB69002B01
:102AB800C9D003209847C6E7B07801F039FE00284E
:102AC800C1D0D0E76378042B09D0052B11D0022B95
:102AD80007D165797388AB4203D1012001E0E3781F
:102AE80001932378E4182378002BEBD10028BAD07F
:102AF800D6E77388AB42F4D1019B002BF1D12000BB
:102B0800FFF704FFEDE7FF250195ECE72B6802933B
:102B18003B00BA331B78002BA5D0B388DAB29446B1
:102B28007A6A01921578002D9DD05078039002287A
:102B380003D11079604500D996E05219F2E7029B5B
:102B48001A705A70039B8DE001998A18019295E0DA
:102B58000B2A00D087E70024FF25039402950AE09A
:102B6800019B5B78042B14D0052B28D0019B019A7C
:102B78001B78D3180193019B1B78002BF0D1FB69BC
:102B8800002B02D0072003999847002C00D05AE761
:102B980069E7019BDB780293019B9D78B3889D428E
:102BA800E4D17388029A9A42E0D1019B00240393EE
:102BB800072DDBD87B19BB331A700134D6E7B388ED
:102BC800AB42D3D1B378029A93420BD0019B9C7845
:102BD800200000F001FD2000FFF7C4FD43425841EA
:102BE800C4B2C3E70198FFF791FE0400BEE773780B
:102BF8007F2918D9002B00D035E736792D68730660
:102C08000AD03000FFF758FD002800D12BE7BA376B
:102C18003B78002B00D126E72900300005F083F827
:102C280000236B700AE7012B09D0032B00D01AE7A9
:102C38007388002B00D016E70121B08804E0718862
:102C4800002900D00FE7B088FFF716FE002800D053
:102C5800F9E608E72B60022A00D012E79A78DB78B9
:102C68001B0213432360EEE672787F2900D86FE7D2
:102C7800002A00D163E70A2A00D0F4E6019A127804
:102C8800002A00D1EFE601994978042900D05BE7D2
:102C9800019989788B4200D056E70022072B02D889
:102CA800FB18BB331A78029B1A70EFE6AC070020BA
:102CB800F0B505001F00042687B0049105923B007B
:102CC8002800059A049901F0D7FD030004000B338E
:102CD8000FD10020084B02220293084903000395F4
:102CE8000190009004F0F4FD013E03F029FD002E50
:102CF800E5D1200007B0F0BD86930010688D001064
:102D080013B5154C237D002B1ED1E26801AB802042
:102D1800A1680192FFF7CCFF019AA3689B18A360F2
:102D2800E3689B1AE3600ED1002A0CD02069E3887F
:102D3800834208DD2300C8331978FDF7DFFA00293C
:102D480001D10123237513BD002180200B000A0047
:102D5800217501F091FDF6E7AC070020002330B59E
:102D680089B005000C000593984266D1994240D17C
:102D78000B000822200006A905F001F8002804DA53
:102D8800802001F029FD09B030BD6B46304D069A10
:102D9800DB8B2A60079A2C756A602E4A2C61AA6020
:102DA8006A46127EEC6052B2002A15DB802B0ED9DF
:102DB800294B012220002949029301942300009401
:102DC80004F086FD802001F007FD2000D9E7002BE4
:102DD80002D02B61EB60D6E7FFF788FC0028CFD044
:102DE8002A69EB88934200DD1300EB60FFF788FF48
:102DF800C9E7174C05ABE268A168002A05DC0200A8
:102E080004F0BDFF0028BEDABAE704F0B8FF0028D6
:102E180004DA802001F0E0FC2800B2E7059AA368F4
:102E28009B18A360E3689B1AE360ACD1094BA360CD
:102E3800FFF75CFC0028D9D1A2E78028A3D1044B76
:102E4800DA68002AD2D11B7D002BCFD19BE7C04680
:102E5800AC070020E4070020AD930010688D001037
:102E6800054B064A58629A62054A0020DA62054A0A
:102E78001A63054A9A617047AC070020052A0010BA
:102E8800D12500107526001019260010F0B5040091
:102E980089B0554B0593059801225242D31702F089
:102EA80063FF524B524D1B78002B11D00020514B21
:102EB80002220293504903000190009004F008FD9B
:102EC80078246442059802F0C7FF200009B0F0BDDD
:102ED8006B6A002B11D100F0D7F8FFF7C1FF686AC1
:102EE80000280AD1454B012202934349030001906F
:102EF800009004F0EDFC0124E3E741482C62E8610E
:102F08006E6A01F00FFC01F067FB041EDADB00F0CB
:102F18009DFB041ED6DB7378012B02D1F379002BBD
:102F28000BD10020374B0122029333490300019053
:102F3800009004F0CDFC1624C3E72A00002706AE53
:102F4800C8323000137073803771377004F0C6FED2
:102F58000400B842B6DB80233000337004F0BEFEB4
:102F68000400B842AEDB284E3800310004F0AAFE57
:102F78000400B842A6DB3100802004F0A3FE234EF3
:102F88000400B8429EDB224B9E421AD3002001F077
:102F98004BFC041E00DA95E72E000127C43633687F
:102FA80080203B43336001F03FFC041E00DA89E7D0
:102FB800802332685B021343B835002433602F70D6
:102FC80080E70024376A337FA34201D82436DAE742
:102FD800E300FB181879196804F074FE00288AD1F8
:102FE8000134E4B2EFE7C046EC0200206408002098
:102FF800AC070020C6930010688D0010E9930010FC
:10300800D92700100E940010652D0010CC03002065
:10301800F0030020F0B58BB01122194905A805F07E
:103028003CFC1022002101A805F040FC154C12229E
:103038000021200005F03AFC102101A804F0F6FF59
:1030480000281ADD082800DA0820083801AB1B1808
:103058000F2021000022844614276D46985CED1944
:103068000609AE5D654628406D46ED19285C0132BB
:103078000E7048700231082AEED120000BB0F0BD66
:1030880048940010A4110020F0B5934B8FB01B7822
:103098000793002B02D091480FB0F0BD8F4C904B96
:1030A800069300231D000993089305932378002BAA
:1030B80007D18C4B02349C42F1D10122864B1A7005
:1030C800E9E7607805281ED8FDF77EF8B700060006
:1030D8000401B70020005300079B0CAE3370402357
:1030E8007380079B3000337101F050FB002808D033
:1030F80008233000738001F049FB002801D0079BAA
:1031080073807388E3712378E418CFE7E378002BA2
:10311800F9D1A378002B22D0089B0133DBB20893A6
:10312800F1E76A6894421DD024359D42F9D3002006
:103138006D4B012202936D490300039401900090A6
:1031480004F0D4FB00246A4B2000029301222300E0
:1031580066490194009404F0C9FB20009CE7654D82
:10316800654BE2E7AB68002BD6D02000089998475A
:10317800D2E7002D5FD1614B0122029328002B007A
:103188005A490195009504F0B1FBDBE72A6AFB0078
:10319800D3180A93A2781B799A423FD101260321BA
:1031A800F3B20B93E3780CAA0B401371637921797E
:1031B8001B020B435380A3787F2B22D933000122B3
:1031C80010339A401300069A1A4224D180230B9A8E
:1031D800134308AA13740CA801F0D8FA00281AD1CE
:1031E80008AB1B7C0A9AA37013715BB2002B0FDA31
:1031F80001230B9F1037FFB2BB40069A1A43069271
:1032080081E70123B340069A1A4204D1F3B2E0E7FA
:103218000123B340F1E70136102EC0D101372B7FCF
:103228009F42B3D30020364B012202932F4903005B
:1032380001900090A7E70027F1E7099B032B28D10D
:10324800FFF7E8FE071E17D0FEF728FA061E13D070
:10325800102809D000202B4B022202932349030097
:103268000190009004F042FB3200A01C102E00DDFB
:103278001022390005F011FB2378E2185B08E318E7
:10328800911E121B032A13D5099B0133DBB2099344
:1032980039E7099B002BEFD1059B002B0FD11A4B67
:1032A80001220293059B11491800019300936AE7D4
:1032B800079A013B4A705A780A700A00E0E7059BB2
:1032C800059AE31A93709BB21B0AD3701300089AED
:1032D8001A71D9E7059416E7A311002028030020E6
:1032E80001000100CB03002059940010608D0010EC
:1032F8003F950010CC030020F003002079940010C3
:10330800BA940010D794001022950010094A00239F
:10331800110010B51478844205D15468002C02D0ED
:103328009B01C81810BD01334032042BF2D1002094
:10333800F8E7C04678080020F0B504002C3C636824
:10334800060025788BB0103330D1E16B02230F00D3
:10335800E2681F4019423BD0002A07D1DB18194206
:1033680002D00023636021E00B43E3632800A168D7
:1033780009ABFFF79DFC00280ED003900020314BCD
:10338800012202930300304904950190009004F053
:10339800E8FA16235B42E5E7099AA3689B18A3603D
:1033A800E3689B1AE36023699B1823616368103301
:1033B8000CD0236967690693A369079305F07AF926
:1033C800002833D03100214805F05CF90BB0F0BD7E
:1033D8002800A16809AB01F0B7FA00280AD0194BF8
:1033E8000390029301223B00380017490495019786
:1033F8000097CCE7099FA368DB19A360E368DB1B90
:10340800E3602369DB192361002FAAD0280004F0A8
:10341800C9FC01003800FCF71DFF0029A1D1E368B1
:10342800002B9ED0280001F01BFBBFE76061300035
:10343800103802F05DFD002FC8D02800079A0699C1
:10344800B847C3E76D950010708D00106004002028
:1034580070B54B1E06000D0086B0012B18D8FFF77B
:1034680055FF041E16D1012D12D11321012230005F
:1034780005AB694401F068FA05980028F5D10D4BB1
:10348800012202930C4903000190009004F069FAAC
:1034980006B070BD05F00EF921002C31002801D0CE
:1034A800012D03D10800FFF747FFF1E7034805F0B6
:1034B800E9F8EDE78A950010708D0010600400208F
:1034C800F0B58BB0060009910692079304F058FAFC
:1034D800002800D06EE0EFF31083089372B607005F
:1034E800364B059300220023059802F033FD00288F
:1034F80014D1334BBA019C1865682900103128D1C2
:10350800304B01220293304903000396019000904A
:1035180004F027FA059802F0EBFC11E0059B01374F
:1035280040330593042FDDD10020284B012202935C
:103538000C25030024490190009004F012FA6D4212
:10354800089B002B02D162B6BFF36F8F28000BB027
:10355800F0BDD654099B2061A360069B3000E36050
:10356800109B6361079BE363119BA36110235B427C
:10357800636004F017FC00280CD0300004F012FC43
:1035880001000698FCF766FE002903D00423E26BCD
:103598001343E363079B9B0707D50D4BB9010D4800
:1035A800C91805F06FF80025CAE7300001F058FA8D
:1035B8000500C5E710256D42C8E7C04694080020FD
:1035C80078080020BF950010708D0010A495001099
:1035D800A40800206004002010B5EFF3108472B630
:1035E800FFF794FE011E09D04368103306D18C23DF
:1035F8005B4243602C31044805F044F8002C02D1AA
:1036080062B6BFF36F8F10BD6004002070B500254F
:103618000C4CEFF3108672B66368103307D18C2315
:1036280021005B42084863602C3105F02BF8002E1E
:1036380002D162B6BFF36F8F01354034042DE8D153
:1036480070BDC046780800206004002070B50025D1
:103658000126084C2000084904F0FCFF2000320035
:1036680031001038013504F0B9FF4034042DF1D190
:10367800002070BDA40800204133001010B5016976
:1036880001220B004B331A700B68002B08D00B007B
:1036980049331B78002B03D00248083104F0F2FFAD
:1036A80010BDC0466004002010B5036901211A004E
:1036B8004A3211701A68002A08D0190048331B785A
:1036C8000831002B02D0024804F0DCFF10BDC046D0
:1036D8006004002070B50569EFF3108672B62B0000
:1036E8009033186803F0CCFF0400002E02D162B6B4
:1036F800BFF36F8F002C06D0290000220023034857
:10370800183102F09DFD200070BDC0466004002005
:10371800130070B514000D001100012248331A700F
:1037280023680831002B07D023004A331B78002B6D
:1037380002D00D4804F0A6FF230090331B685A8975
:10374800DB889A4206D1002D0DD121001831FA22CA
:10375800920004E0210000221831002DF7D0002348
:10376800014802F06DFD70BD6004002070B50600D0
:103778000D0001791248140004F0D1F800281BD07C
:10378800327873787F2A10D8202B03D0222B08D0C8
:10379800862012E007222168103805F07EF8002004
:1037A80070BD738809380370F9E7212BF0D1103800
:1037B8001A3B20602B60F2E713204042F0E7C04636
:1037C80078090020054B010010B5180004F0B4F882
:1037D800002802D001230738037010BD78090020A3
:1037E800030070B50025040048331D8007220949ED
:1037F800943005F052F8230020009C331D70013BE3
:103808001D70033329001D809D7040224C3005F047
:103818004DF870BD908D001010B50469002223008A
:10382800A43318605A600B4A0433516800290DD13B
:103838005360136020000849083004F00BFF200093
:103848000649183004F02AFF002010BD0B605360B1
:10385800F0E7C04678090020B97900102539001032
:1038680030B50B000E4985B0019180218902029183
:1038780001A90B810023046942689D342370126AF0
:10388800084D10790A22FFF713FA2378002B05D187
:103898000120013D04F034FE002DF6D105B030BD05
:1038A800A1200000A186010073B56B460469DD1DE7
:1038B8002300002248331A702970EFF3108672B67D
:1038C8002300903301222900186803F0D9FE002E46
:1038D80002D162B6BFF36F8F01280ED004F0EAFE62
:1038E800002804D12300A1331B78002B0DD1094BEC
:1038F8001A78002A01D101321A7021000A22002305
:103908001831054802F09CFC73BD00210A2002F022
:1039180093FFD2E7B6110020600400207FB50300B2
:103928008C331B6805005B681B6A1E7D300004F041
:1039380027F800282FD12B0086331B78002B2AD09C
:10394800A86F4289C3889B1A80229BB2D2009342F7
:1039580000D91300010003AA0A3103F041FE002830
:1039680019D02B00002230331A703F2303405A42EB
:103978005341C41A2B00183B0193074B22000399AB
:10398800009330000223FFF79BFDA86F220001007F
:103998000A3103F05CFE7FBD1937001073B50500CE
:1039A8001400002925DD16000A0021008C36306835
:1039B8004C3103F065FE2300012249331A70236855
:1039C800002B09D023004B331B78002B04D0210097
:1039D8001048083104F056FE3268938891891269BC
:1039E8005B1A9BB2D31A3F2B03D80123A034237050
:1039F80073BD23009E331B78002BF9D02100064BA2
:103A080040220093280001234C310194FFF758FD10
:103A1800EEE7C04660040020A53900101D4BF7B53D
:103A28000F000100180003F06FFF041E23D00500EB
:103A38000368781E5E68A43D05281CD8FCF7BAFB0D
:103A48001C1B031C2024A31F1978002913D1012251
:103A58001A70336A2A00187B5C3CFFF79FFF2178B5
:103A6800002908D1336A0A00187D0B4B0195009391
:103A78000223FFF725FDF7BD2800FFF7B1FEFAE79F
:103A88000123053C2370F6E7053C2378002BF2D090
:103A98000023F7E7780900201937001037B501230C
:103AA80000258022064C0749200000955B42D20081
:103AB80002F080FB2000044904F002FE28003EBD0D
:103AC80060040020C015002003960010F0B5070020
:103AD8000D0087B0002939D000248B68264E059345
:103AE8004B68012204930B6820000393234B310099
:103AF800029301942300009404F080F86B6901227A
:103B080005932B6931000493EB68200003931C4B49
:103B1800019402930094230004F070F8EB690122E9
:103B28000393184B31002000029301942300009462
:103B380004F064F8AB6901220393134B310002933C
:103B4800200023000194009404F058F8012F0DD1AF
:103B5800EFF305830020103B03930C4B3A000293CC
:103B6800054903000190009004F048F82900380046
:103B780001F0DAFE07B0F0BD408D00100C96001081
:103B88003B9600106A96001079960010A7960010D0
:103B980030BFFDE7F7B50A4B0A4D0600EF18CC1BFE
:103BA8002A0020000849019304F077FE60190021DB
:103BB800019A04F07BFE3800083C74660830FEBDAC
:103BC8000400000000000000888D0010054B5A69B1
:103BD8009B689A4205D08023034A5B0551680B43D2
:103BE800536070476810002000ED00E0F0B53E4BD0
:103BF80091B05F680400FB05DB0D079362B6BFF365
:103C08006F8F3A4E130EFF2B0DD1F33B1340082B49
:103C18004AD10020364B0122029331000300019063
:103C2800009004F006F800252C00079B032B41D1D7
:103C38000020304B012202933100030001900090D4
:103C480003F0F7FFA3692C4A934202D32B4A93420D
:103C580005D32B4A934241D32A4A93423ED2023B90
:103C68001A88294B9A4239D10020236831000393DE
:103C7800264B0122029301900300009003F0D9FF24
:103C880026682022210008A804F007FE0F9B002DBB
:103C980026D0DA0502D11E4A13430F93300008A933
:103CA800FFF714FF11B0F0BD01251207BDD50C00B8
:103CB8000025BAE7F8235B00164A1F4200D0164ACF
:103CC8000020079B0392103B0493144B012202939C
:103CD800310003000190009003F0ABFF0026D0E70D
:103CE8005B0A5B02D9E7C04600ED00E0408D00109A
:103CF800E896001013970010A8010010188A001009
:103D0800000000200000002002DF00002A970010B9
:103D1800FF010000BA960010CF96001046970010D9
:103D28000821024A53698B435361704700ED00E054
:103D3800EFF30880EFF3098101B57246FFF756FFEC
:103D480001BDC046094880F3088872B60848094989
:103D5800401880F30988EFF314800221084380F3A8
:103D68001488BFF36F8F03F079FF0000C02600208E
:103D7800C01D00200004000010B50A4B9B68834258
:103D88000DD1EFF30583002B09D08022064B520595
:103D980059680A435A605A6A04490A405A6202F04A
:103DA80097FD10BD6810002000ED00E0FF7FFFFFC9
:103DB80015498A6815481044EFF3098CF0C043464A
:103DC8004C4655465E466746F8C072B6104F114ECF
:103DD8004A698A603E60104C141920680F4C2060B4
:103DE800906E00239366002800D162B6074C101924
:103DF8001030F8C89846A146AA46B346BC462438AF
:103E0800F0C88CF309887047681000203000000063
:103E180004ED00E0000000086400000080090020B4
:103E280004207146014202D0EFF3098001D1EFF37B
:103E380008808169023909780229FFD001B57246E4
:103E480003F0EBFE01BDC04643B2000605D41F22B5
:103E58001A4001239340014A1360704700E100E0D3
:103E680043B2000609D41F221A4001239340034A93
:103E7800D367BFF34F8FBFF36F8F704704E100E044
:103E880030B5FF2503220B00290040B20240D200C2
:103E980091409B012B40C943934000280ADBC02472
:103EA8000A4A800880008018A40002590A40134377
:103EB800035130BD0F2210400838054A80088000A1
:103EC8008018C26911401943C161F2E700E100E0BE
:103ED80000ED00E0FF22044B9343044A9360BFF3D4
:103EE8004F8FBFF36F8F70470001001000ED00E0A7
:103EF80010B5203A1360029B01245360039B0649C6
:103F08009360049BA143D36080235B04D3610023A7
:103F180091610265836610BD611F001070B5094B81
:103F280015009860426E084B0E001A602C1C86F330
:103F380009880020054B9847201C002100220023F7
:103F4800034C204768100020800900207B7C00106B
:103F5800611F00101022014B1A61704700ED00E04C
:103F6800F0B5C02400220326FF25A40010002F006E
:103F78003040C0008740054993089B005B181959D9
:103F88000132B94319511A2AF0D1F0BD00E100E01D
:103F980010B5EFF30583054A103BDB00D1184968DB
:103FA80098588847FFF712FE10BDC046508B001086
:103FB800F0B587B007000E001400002110226846F3
:103FC8001D0004F073FC6A4602239370054B2A0017
:103FD8002100684601930497059602F04FFF07B049
:103FE800F0BDC0469B7C001010B5024B1B6898477B
:103FF800002010BD84090020034B044A18600223E6
:1040080091780B43937070478409002000010020C9
:1040180010B5044803F0D9FA62B6BFF36F8F0423D2
:10402800181C02DF59970010072310B50449054AE8
:1040380099430548521A03F03CFA002010BDC046C7
:104048003F4300200020042088090020020080212E
:1040580003008A4300200F2A08DC5AB20448002AC9
:1040680000DA04482C228B435343C0187047C046DB
:1040780098090020580C002070B50400FFF7E6FFEF
:10408800036A05001B685B0526D566B201F07CFB58
:10409800012816D9114B64001C40F343DB0F1C4365
:1040A8000123A3400E4A0F4913664A6E1A409A42EA
:1040B800FBD1296A0C480A6802400A600B4A136659
:1040C80004E02A6A084913680B401360002E03DADB
:1040D80028000C3001F00CFF70BDC046FEFEFFFF4B
:1040E8000020115000001150FFFBFFFF003011505D
:1040F800F0B585B006000F001500FFF7A7FF036AAB
:1041080004001B685B050AD500201C4B02220293A1
:104118001B49030003960190009003F0C5FD76B299
:10412800002E24DA402D25D8002F1AD180231B0217
:104138001D4321002831087803005A1E93410122AB
:1041480042400A70226A5B032B431360C046C04694
:10415800C04680220020216AD20013430B6005B0BC
:10416800F0BD2A003900606A04F097FBDEE70023FF
:10417800A360DEE70C204042F1E7C04662970010DA
:10418800588D0010F0B589B00E22524200240392D7
:10419800002600278022104D0696079728000F4B0F
:1041A8000F490494029401940094D20002F0AAF8F2
:1041B8000C49280004F084FA0B4883681B68A34262
:1041C80005D007219847A04204DC09B0F0BD58206B
:1041D8004042FAE72000F8E7F004002035420010DA
:1041E800C01900207E970010908A001010B50100B9
:1041F800024C200001F006FD10BDC046000300205F
:104208001FB500246B461C71062302936B460022DF
:104218001C7301A80023FFF7E9FF024B024A9C54D4
:104228001FBDC046940900208B050000F0B580250D
:1042380001267642F71785B06D0011483B0001A9A9
:10424800320001F035FD6B461979002910D01C7B2E
:104258002000FFF7FBFE0299002902D1094B0A4A08
:104268009D524368002BE8D02000C9B29847E4E784
:10427800044B1B68002BE0D00298C0B29847DCE7DB
:10428800000300209409002084050000F0B5BD4B10
:104298008DB01F68BC4B1F4206D0BC4BBC4A9B5C10
:1042A800002B01D0FFF7ACFF10233C001C401F423D
:1042B8000BD000250126B74B9B6D0593059B002B62
:1042C80002D0202D00D01FE1102480235B021F4262
:1042D8002ED080221C43B04B92021A658020FFF733
:1042E800CBFEAA4D6B6A1B685B050CD50020FFF757
:1042F800C3FE0020A94B02220293A94903000190A2
:10430800009003F0D1FC0123A64A2420AB54BB2221
:104318009200AB54002202A909180A702C350A929F
:1043280002AA13772B700022002309A8FFF75EFF6B
:1043380080239B011F4219D01C4380230021964AE9
:1043480002A85B021365017601749249086D184250
:1043580000D00DE10420079093480068002800D0A1
:1043680009E10022002306A8FFF740FF3B0511D50D
:104378000121894B8C4A19651268002A07D0854AA1
:10438800106D80225202084200D0884BDA648023E4
:104398001B011C4380267601374228D00025844B18
:1043A8000222029328002B007D490195009503F015
:1043B8007BFC80223443B026774B12031A65754B79
:1043C800B6001D607B4B0593059B58192C3501F0F1
:1043D8008FFDB542F8D1002302AA13760122079275
:1043E80002AA137406A800220023FFF7FFFE802309
:1043F800DB011F4211D010221C43674B24211A6590
:10440800002302AA137705220A9202AA52181370EF
:1044180009A800220023FFF7E9FE80231B021F42A0
:1044280006D080221C435C4B12011A65FFF7E8FE98
:1044380020252F420ED000205F4B022202935849BC
:1044480003000190009003F02FFC8022524B1206CB
:104458001A652C4340252F420ED00020574B0222CC
:1044680002934F4903000190009003F01DFC802245
:10447800494B12051A652C4380252F420ED0002087
:104488004F4B02220293464903000190009003F02B
:104498000BFC8022404BD2041A652C4380256D000A
:1044A8002F420ED00020474B022202933C490300C2
:1044B8000190009003F0F8FB8022374B92041A65B4
:1044C8002C438025AD002F420ED000203E4B012208
:1044D8000293334903000190009003F0E5FB80222A
:1044E8002D4B52041A652C43A7420BD00020374BA2
:1044F8007C40029301220300294903940190009013
:1045080003F0D2FB0DB0F0BD059B33422DD0224BFA
:104518006C109E650123E4B21D4216D1002D09D10D
:104528001A4B2B4A995C002904D09D54294A9B5C5C
:10453800184A136080235B421C43E4B22000FFF753
:1045480085FD0C3001F0D4FC0223242102AA521864
:104558001470233902AA117709A80A9300220023AC
:10456800FFF744FE059BB343059376000135A5E6A6
:1045780002230793F5E6096DC90700D5F1E6D36470
:10458800EFE6C04698001150100001009409002081
:104598008B05000000001150003011508697001064
:1045A800588D001084050000200F002000201150B5
:1045B800B3970010640C0020BD970010C697001038
:1045C800D1970010DD970010ED970010F7970010B5
:1045D800860500008A050000F0B5424E89B03068B3
:1045E80000281BD0002107AA03F038FD041E07DBB2
:1045F800079B00221979186803F043FD041E0DD0AB
:104608000020394B0122029338490300039401909A
:10461800009003F049FB200009B0F0BD8023344A24
:104628005B041360334A344913601D000A689543DC
:10463800FBD1324C9C222900200004F037F980225B
:1046480029002F48520104F031F9092363673368C0
:10465800002B01D10C33A3670123236480239B051E
:10466800E364284A284B294E1A600023284D294F15
:1046780005933B1F77626B61059B002B2AD03B009B
:10468800803B3362043B2B61059B234ADB019A186C
:10469800B262224A9B18AB6101222800110003F084
:1046A8009DFF059B0837013305932C362C35102BBD
:1046B800DFD1236DDB0703D58022194B5202DA6460
:1046C800002203210520FFF7DBFB0520FFF7BCFBD9
:1046D8000024A0E7BA21114B0C4A89009362535079
:1046E800DAE7C046200F00200B980010588D001004
:1046F80000E0004000F0004008C0004000001150F9
:1047080000001050F0FB01009000115094090020A7
:10471800640C00208400105040011050000110501B
:1047280000201150014B18607047C04694090020C2
:104738000121034B034A9954034A985400207047B7
:1047480094090020860500008A0500001FB543B2C1
:104758000A00002B0EDA039000200A4B0190029306
:10476800009003000122084903F09EFA16204042F7
:1047780005B000BD402900D940220021FFF7B8FC50
:10478800F6E7C04626980010588D00101FB502782D
:10479800007900280ED153060CD00C4B0C4902931B
:1047A800030001900090012203F07EFA01204042AC
:1047B80005B000BD0023702118000A42F8D0054A50
:1047C8000349029201930093EDE7C0463898001020
:1047D800588D00105798001070B50400FFF736FC8C
:1047E800051E1CD080231B01620613D164B20D4A3A
:1047F800002C07DB02219166026A13600123002066
:10480800EB7070BD01219166026A13600020FFF70A
:1048180033FCF3E7026A1360802CEFD1F6E7162029
:104828004042EEE70020115010B50400FFF70EFCDF
:1048380000281BD00023026A13600200283213707C
:10484800C169994209D0426A0A4B5340827892065C
:104858001343A022120613430B60002063B2834265
:1048680003DD40212000FFF771FF10BD16204042F4
:10487800FBE7C04600001050F0B587B005001400F3
:104888001E000591FFF7E2FB002802D06BB2002B57
:104898000DDB0020284B03950293012203002749D2
:1048A8000190009003F000FA16256D420AE0802D71
:1048B8000ED1234B234A9B5C002B06D0002E00D040
:1048C80034600025280007B0F0BD4027BC4203D85B
:1048D8000788A74200D927000C30040000220023D3
:1048E80001F038FB002825D103F0E4FE002802D1AE
:1048F8000530FFF7B5FA28003A000599FFF7F8FBED
:10490800051E0ADB03F0D6FE002802D10530FFF7AA
:104918009BFA002ED6D03760D4E7200001F0E8FAE1
:1049280003F0C8FE002801D00525BEE70520FFF7E3
:104938008BFAF9E70B25B8E726980010588D001078
:104948009409002084050000F0B589B00500140022
:1049580006910793FFF77AFB071E0DD1384B01220A
:1049680002930300374903950190009003F09CF9E6
:104978001620404209B0F0BD6BB2002B09DA0020C6
:10498800314B012202932F490300039501900090B7
:10499800ECE7002D31D12D4B2D4A9B5C002B2CD000
:1049A800082C16D1069B2600002B3AD0274B284A04
:1049B8009B5C002B2ED0220026492600069803F087
:1049C8006CFFBB681B19BB60079B002B34D1002010
:1049D800D0E70826204B0222029328002B00194911
:1049E800049403960195009503F05EF9069B002B4D
:1049F80015D0B442DAD93400D8E7280003F0B7F963
:104A0800BE68069B861B002B09D0B44200D934002F
:104A1800002DCBD0796ABB682200C918CDE7002CDD
:104A2800D2D000200D4B01220293064903000190C9
:104A3800009003F039F9C7E7079B1E60C7E7C04637
:104A48007B980010588D00108F9800109409002052
:104A58008505000000001050B0980010FF98001065
:104A6800F0B585B00400FFF7F1FA061E02D063B274
:104A7800002B0EDA00201F4B0190029300900300D8
:104A880001221D49039403F00FF91620404205B096
:104A9800F0BD002C26D1194D194B1A4FEA5C002A9B
:104AA8000ED0FA88002A08D0B122D200AC52EC54B9
:104AB80040212000FFF74AFEE9E7EA540020E6E734
:104AC800200003F054F93B787F2BF7D8B122D200AD
:104AD800B168AB5AFE885B18B342EFD28842EDD179
:104AE800AB52E5E7200003F042F9B3688342E5D111
:104AF800DEE7C0460F990010588D00109409002079
:104B0800850500000000105049B24368102916DCE2
:104B18000A290BD00B2910D00C224A431B689B187A
:104B2800802292019B188022120103E09B68054AAB
:104B38009B182D2200201A607047DB68F7E71620C3
:104B48004042F9E70430000049B24368102916DCF6
:104B58000A290BD00B2910D00C224A431B689B183A
:104B6800C02292019B188022120103E09B68054A2B
:104B78009B182D2200201A607047DB68F7E7162083
:104B88004042F9E704200000802310B5084A5B047E
:104B98001360084A94691C4202D01620404210BD96
:104BA80001609269100018401A42F8D0F5E7C04633
:104BB8001830064000000640030010B508000B2915
:104BC80007D8FBF7F7FA090909091220282C2C2C19
:104BD80033330120404210BD1A680C234B439B58C5
:104BE800134ADB051B0FD056F5E7124A0E2013684F
:104BF800116803220C0014401142ECD00E4A02380E
:104C0800022CEED1E7E70D4A0420136812689207D8
:104C1800E1D00B4AE5E70B4B0B4A1B68E1E70C2395
:104C28004B430A4A9B181B68094ADAE70C20D2E76B
:104C38004699001030800040439900103C800040A5
:104C48003D990010488000403699001000800040CF
:104C580030990010F8B506000C007568210028008E
:104C6800376903F0A9F8002800D16DE00E2C00D9AF
:104C78006AE02000FBF79EFA0808080808082A08D6
:104C8800080830306A626600210028002F68FFF7A4
:104C980093FF01003000FFF7DDFF0C236343FB188F
:104CA8005E68051C5868C0B2FBF708FF2849FBF787
:104CB8000FFD041C300AFBF701FF011C201CFBF749
:104CC80093FB011C281CFBF703FDF8BD06212800F7
:104CD800FFF772FF0400C0E70A2C2DD1AF6821004E
:104CE8002800FFF769FF01003000FFF7B3FF061C3B
:104CF800B868FBF7E3FE311CFBF7CCFD061C3F2030
:104D08003D68FC682840FBF7D9FE011C301CFBF706
:104D1800DFFC0725061C200C2840FBF7CFFE011CF2
:104D2800301CFBF7D5FCFF68041C380B2840FBF748
:104D3800C5FE011C201CC6E7EF68D0E73868FBF702
:104D4800BDFEC2E77868FAE70020BEE70148BCE785
:104D580000007F43001B374BF0B544688FB0A36851
:104D680022220393E3685F4905A80493256827690D
:104D780003F093FD5C4B5D4A1A605D4B5D4A13601E
:104D88001E005D4A12689643FAD10C21300000F0EB
:104D9800F3FCAE6700F0DCFC0321584BDA6B8A4366
:104DA800DA635A6C012AFCD103211A6B8A431A630D
:104DB8009A6B012AFCD1E269514B03985A43636A02
:104DC8000093236AA16900F05DFCE26A4C4B0498E9
:104DD8005A43636B0093A16A236B00F053FC1121C3
:104DE80005A803F033F8730005AA9956C8B2092834
:104DF80067D90136112EF6D1C0239B01EA1880230A
:104E08001B0113603F4A3800AA1813603E4A143049
:104E1800AA1813603D4AAD182B602300AA25D83381
:104E280019682D012943FFF7AFFE002855DB230041
:104E3800DC331B68364938001943FFF7A5FE002804
:104E48004BDB2300E0331B68002B48D029001F2BC5
:104E580000D8591938001030FFF796FE00283CDBBF
:104E68002600E43631682B4D89B22943381DFFF7F7
:104E78008BFE002831DB380031680830090C2943E3
:104E8800FFF782FE002828DB234B1A4A13601A4BCF
:104E98001B68DB43DB01DD09002BF8D129006069C1
:104EA80002AA03F0DBF8002807DB029B2A00197925
:104EB800186803F0E6F8002801DA831C0DD10020F9
:104EC8000BE0090161180B6C00934B6CCA6B896B82
:104ED80003F0C7FA00288CD116380FB0F0BD0F497F
:104EE800B8E7C046978D001000E00040BFCDFBFE3C
:104EF800FE7F3C0000F0004008C0004000800040F9
:104F0800001BB7000C3000001830000024300000EF
:104F180000B0FA0000009696FFFFFF01A10A00000A
:104F280010B5084803F0FBFA002808D0064C20000A
:104F3800FFF762F82000FDF709F8002010BD1320E4
:104F48004042FBE7D08A0010554F001070B50400AE
:104F5800074D0A2804D1AB680D2128005B689847E3
:104F6800AB6828005B68E1B29847200070BDC04676
:104F7800D08A0010D0231B061B685A4253412F22A7
:104F88005B429343064A9B181A001068002804D114
:104F98000432D11A0C29F8D970470120FCE7C04621
:104FA80050410140F7B50600002403690193E30866
:104FB800144A08339B009B58072222409200D34092
:104FC8000F22134203D101341E2CF0D1F7BD0F215B
:104FD800200000F057FC019B59680029F3D00127F5
:104FE800A7400D680029EED08B681A003A403B4272
:104FF80002D030004B6898472B1E00D02B68290040
:105008001D00EFE700410140F8B50D00141E0669C8
:1050180010D11100280000F0E3FB274BAD00EB187E
:105028001A6880235340C0221340244AAD182B60CD
:105038000020F8BD01275209210928003A403940CB
:1050480000F0CEFB0521280000F0B2FB80232100F0
:105058005B0219401C4218D0D023AF401B069F6248
:10506800A303E5D50123F268AB40A10718D51A437D
:10507800F260D0223169120660070AD519433161FE
:10508800936164030AD55362D2E7280000F028FC34
:10509800E6E79943316153612403F4D49362C7E787
:1050A8009A43F260D0221206210301D55361EAE740
:1050B8006403E8D59361E6E704C0014004D00140E9
:1050C800436803491A68936B0B4093637047C04663
:1050D8007FF8FFFFF0B5436887B004930369029136
:1050E800059203931B7A0500002B00D09FE0002A4D
:1050F8000BD00121049B1A68136B8B43136343681D
:105108000F311A68D36A8B43D362EE226B681B682F
:10511800DC6A9443029A1279012A06D0022A16D030
:10512800002A04D0862040426AE002221443029AF0
:105138005279012A03D0032AF4D105321443029A82
:1051480090790328EED8FBF735F80604181A0622DA
:10515800ECE720221443029AD279002A11D0012ABE
:10516800E0D18022196BD2010A431A636B681A686E
:105178008023116B1B020B430CE04022EAE76022FC
:10518800E8E71A6B2B490A401A636B682A491A68C0
:10519800136B0B401363039B40267642F717D868BE
:1051A800029B810E1A68800100231201FBF7FCF8AC
:1051B80000900191009A019BB6185F41002F34D1ED
:1051C8001E498E4231D8019B69689806009B096880
:1051D8009B0903434B623F216B68009A1B680A4096
:1051E8009A62BFF35F8F6B6802991B680398DA6A4B
:1051F800DA626B6808221B68DC6203F04EFB380039
:10520800059B002B0FD0049B1B7F002B05D16B68DF
:105218001A681023D16A0B43D3626B681A6801239A
:10522800116B0B43136307B0F0BD16207BE7862094
:105238004042F8E7FFBFFFFFFF7FFFFF80FF3F000F
:10524800F7B5456804000669A868002861D128698F
:10525800002867D1377A002F32D13900686801AA4F
:1052680002F0FCFE00285CDB019B3A001979186803
:1052780002F007FF002854D16B6A002B00D0984732
:10528800012163681A68136B8B43136363680F31DA
:105298001A68D36A8B43D3622B6A002B53D100223E
:1052A80031002000FFF716FF63681A681023536364
:1052B8002A7F002A04D162681268D16A0B43D3623C
:1052C800002263681B689A636368264A1B685A64ED
:1052D800337A002B13D1626812689364BFF36F8F1F
:1052E800022163681A68136B8B43136363681A6837
:1052F800C023116B9B000B431363BFF36F8FAB6924
:10530800200098470123327A3374002A21D00020E4
:1053180007E0E9688368DB68002B20D098470028FD
:1053280095D0FEBD836869691B68002B00D098473B
:1053380032002869696983680C32DB68002B00D168
:1053480088E7984786E72000F16898470028A6D0A4
:10535800E7E762681268116B0B431363D7E75820BD
:105368004042DEE7FF07000070B580251049114B69
:105378008C681B680E6810488A686D02002C08D17A
:10538800002A11D11A002E4209D100681818801A73
:1053980070BD002A0AD02E4201D1A242F5D9046874
:1053A800E41804600968F0E71C00F4E71A00F2E763
:1053B80010E000E03C0F0020380F00200020094AD0
:1053C800136A1B021B0A1362074B084A1A60084B30
:1053D800084A1860084B5A600722986019680A43FF
:1053E8001A60704700ED00E03C0F0020D430000048
:1053F800380F0020D330000010E000E0F8B500249A
:10540800FFF7B2FF0F4E230031680F4D0A002868DE
:10541800696880185941286069600C4D34600C49EE
:105428002E686F68801BFAF7D9FE094923004143AB
:105438000A0092197B412A606B6001F06BFCFEF751
:10544800C5FBF8BD380F0020680500206005002066
:10545800D4300000F0B53B4B3B4D87B000295FD0FE
:10546800421C08D101212A688A432A60FF221206B9
:105478001A6007B0F0BD1B6803930023029301284C
:1054880053DCEFF31083059372B6FFF76DFF00222C
:105498001100AB6804932D4B1E685F6836184F41A6
:1054A8003000390018605960294B009601971A603E
:1054B800284B1C68009B1B1B93423DDB264F029820
:1054C800264A78438018C0183900FAF787FE009BEF
:1054D8007843E41A80232018DB00984200D2180091
:1054E8001F4B984200D91800164B1849186001380C
:1054F800AB6868600020A860049AD41A9A421ED249
:10550800039D621903000C684D6812196B410A600B
:105518004B60059B002BACD162B6BFF36F8FA8E739
:105528001B680393431CA8D10E480F4B984200DD1B
:105538001800431E0293A4E78020C000D4E722008D
:10554800E0E7C0463C0F002010E000E068050020BE
:10555800380F002060050020D4300000D330000050
:1055680084C6FF003D0500003E05000070B5EFF35E
:10557800108572B6084A094B14681B68E41AFFF7CD
:10558800F3FE0019002D02D162B6BFF36F8F0449F4
:10559800FAF724FE70BDC0466805002060050020AB
:1055A800D430000070B5EFF3108572B6054B1C6857
:1055B800FFF7DAFE2018002D02D162B6BFF36F8F15
:1055C80070BDC04668050020F7B50C24444301931C
:1055D8002A4B0092E4186368089A05000E0093426B
:1055E80000D26260C0232F1F9B01FFB2E318012F76
:1055F8001BD8012E19D103221A60A3683342FCD0AC
:10560800009B22685B015340E02213408022520134
:10561800A21813600321236873400B401360012311
:10562800B340A2681342FCD01BE0802212011A602A
:10563800134BAA00D158002907D05869FAF7CEFDB4
:10564800431C032058430338FDD2009B22685B01AA
:105658005340E022134080225201A2181360012F08
:10566800D8D9802380229B01E31812011A60089B75
:10567800019A6360024BAD00EA50F7BD008000401C
:10568800400F0020F8B51700040029480D001E003F
:10569800FAF7A4FD274B0100FA18274B9A4201D9C3
:1056A80002F0F4FA3800FAF799FD02009823103A4C
:1056B8005B009A42F4D8731E062BF1D8069B013B77
:1056C800062BEDD8069B32041E0323681643002BD5
:1056D8000FDA3F2223681340AB420AD1A3681B05A7
:1056E8001B0D834205D1EE22E368D2021340B34278
:1056F8001CD0124B1249E21853425A4101230C3272
:105708009340104A1360104A13601F000A689743B9
:105718003A1EFAD10D4B2132E3182560A0601A60B9
:105728002268002AFCDA0822E6601A60F8BDC04642
:10573800001BB70080E84BD380F8A9320040FDBFBA
:1057480008C0004000E0004000F0004004300000C5
:10575800AA22064B12011A602F220549DA60054A6F
:1057680011605A68002AFCDA7047C04600400240BF
:1057780000B0FA00006002408023024A9B000B43FD
:10578800D362704700800540802310B5DB05186898
:105798000649030B02059BB2120D8A4201D002F0A2
:1057A80075FA022BFBD1000F10BDC0462709000077
:1057B80010B5084B8200D3181C6840236340C024EE
:1057C8002340054CC00012191360044BC0184160F7
:1057D80010BDC04604C0014004D001400040014053
:1057E800064B8000C3181B68C90092000A435A4040
:1057F8000C231A40024BC0180260704704C00140D5
:1058080004D00140064BC000C3181B680903594067
:10581800C0239B011940034BC01801607047C04664
:10582800044001400450014002238000002903D0B5
:10583800024A801803607047014AFAE704E0014011
:1058480004F00140054B8000C3181B685940012330
:105858001940034BC01801607047C04604C001409E
:1058680004D00140054B8000C3181B68090159404A
:1058780030231940024BC0180160704704C0014032
:1058880004D001400722C308104080008140024A2A
:105898003C339B009950704700400140F8B5D02335
:1058A8001B061C68050063425C412F2364429C432D
:1058B8000A4B0F00E4181600FFF7E4FF07232B40FC
:1058C800ED089B00AD009F4064198023002E00D195
:1058D800C0239B01E4182760F8BDC0463041014051
:1058E80040238000002903D0024A801803607047D3
:1058F800014AFAE704E0014004F001401FB5040042
:10590800FCF7E8FB0020064B01900293009003008F
:105918000122044902F010FE200002F01CFEC046DD
:10592800AD990010408D0010F0B505000E0089B04B
:10593800EFF31083079372B6264A274B976804281B
:1059480002D8264B8100CB58002425492000069117
:10595800127C0493234B05920293012223000395A2
:105968000194009402F0E8FDA6420DD0F369DB052E
:10597800A34209D01C4B0122029320002300069960
:105988000194009402F0D8FD002F07D0380002F0EF
:105998009AFE002802D00378002B00D11348049007
:1059A8000020134B012206990293019003000090F6
:1059B800039702F0C1FD31002800FFF79FFF079B06
:1059C800002B02D162B6BFF36F8F3800FEF7D4F90F
:1059D80009B0F0BD68100020BC990010648F001059
:1059E800408D0010D2990010FA990010CA99001041
:1059F8001B9A0010F8B501270A4E83009D59013003
:105A080084003359AB4200D8F8BD6868002806D036
:105A1800037F3B4201D102F0A2FD0835F1E72B6874
:105A28009847FAE7788F0010012270B5234B0320BE
:105A380086B01A70FFF7DEFF01F0F2F90420FFF7D5
:105A4800D9FF1F4C26001F4DAC420ED300F02EFE8E
:105A5800AE4220D300F03AFEFBF74AFF01211A4A72
:105A6800137B8B43137306B070BD636A0593236A77
:105A78000493E3690393A369029363690193236918
:105A88000093E368A2686168206800F001FC23685D
:105A98005C653034D7E7B26AF36A511C01D1591CEE
:105AA80005D011003068194303D100F0EBFE303601
:105AB800CEE70649183001F099F8F8E7B811002048
:105AC800208C0010208C0010E00500209987001021
