:020000041000EA
:1000000000B5324B212058609868022188439860DF
:10001000D860186158612E4B002199600221596106
:100020000121F02299502B49196001219960352056
:1000300000F044F80222904214D00621196600F024
:1000400034F8196E01211966002018661A6600F04E
:100050002CF8196E196E196E052000F02FF8012189
:100060000842F9D1002199601B49196000215960AB
:100070001A491B48016001219960EB211966A021F2
:10008000196600F012F800219960164914480160C1
:100090000121996001BC002800D000471248134993
:1000A000086003C880F30888084703B5996A0420EC
:1000B0000142FBD001200142F8D103BD02B5186610
:1000C0001866FFF7F2FF186E186E02BD00000240BE
:1000D000000000180000070000035F00212200005C
:1000E000F4000018222000A00001001008ED00E03C
:1000F00000000000000000000000000074B24E7A12
:1001000000200420F7010010C3010010C5010010F9
:10011000C1010010C1010010C1010010C101001097
:10012000C1010010C1010010C1010010C701001081
:10013000C1010010C1010010C9010010CB01001065
:10014000CD010010CD010010CD010010CD01001037
:10015000CD010010CD010010CD010010CD01001027
:10016000CD010010CD010010CD010010CD01001017
:10017000CD010010CD010010CD010010CD01001007
:10018000CD010010CD010010CD010010CD010010F7
:10019000CD010010CD010010CD010010CD010010E7
:1001A000CD010010CD010010CD010010CD010010D7
:1001B000CD010010CD010010CD010010CD010010C7
:1001C00000BE00BE00BE00BE00BE00BEEFF3058054
:1001D000103800BEF2EB8871582601107426011009
:1001E0003802001090A31AE71E481F49086006C88D
:1001F00081F3088810471D480068002801D019487D
:10020000F3E70DA40ECC002902D000F012F8F9E7B4
:100210001749184A002000E001C19142FCD116495B
:100220008847164988471649884700BEFDE701C937
:1002300001C29A42FBD3704774260110C00000200F
:10024000980800204C2E011000000420000004201B
:100250004C2E0110001004200010042000000000AB
:10026000704700000000000008ED00E0000000D032
:1002700098080020A80E00205D4A00108109001097
:100280001D4A0010F8B5C04606480749091A8B10E8
:10029000C90FC91810B5491003D0044B002B00D06A
:1002A000984710BD98080020980800200000000022
:1002B000054B10B5002B03D00449054800E000BFF2
:1002C000FFF7E2FF10BDC046000000006C0E0020EA
:1002D000D0A50010F0B58FB005A800F0F7FD0028FC
:1002E0000AD06B46597D062903D84F4A8B00D35854
:1002F0009F464E4804F0EEFD0FB0F0BD4C4804F0B0
:1003000061FD062000F02AFDF6E76B469B7D012B80
:10031000F2D96B4647481A7ED97D04F0DBFDEBE746
:100320006B469B7D002BE7D06B464348D97D04F09C
:10033000D1FDE1E76B469B7D082BDDD96B46D97D6E
:10034000069C079D062965D83C4A8B00D3589F46DA
:100350006B46DB7D012BCFD102AC210005A800F05C
:10036000D7FE0028C8D0364B23CC23C301F0B4FB02
:10037000002953D0FA220023920001F09DFF314B57
:100380001860012000F0EAFCB6E7281C02F061FECC
:100390000500201C02F05DFE2B4B01002A00180016
:1003A00004F098FD032000F0D9FCA5E7281C02F01A
:1003B00050FE0500201C02F04CFE244B01002A00D8
:1003C000180004F087FDEDE7201C02F079FE06001E
:1003D0000F001F4C281C02F073FE320000900191A8
:1003E0003B00200004F076FDDCE7201C02F068FEF4
:1003F000184C06000F00EDE7201C02F061FE164CC1
:1004000006000F00E6E7201C02F05AFE134C06001F
:100410000F00DFE7124804F05DFDC3E7FA21890011
:1004200001F00CFFABE7C046B8A7001094A700107E
:1004300078A7001040A700101CA70010D4A7001038
:10044000580E0020640E0020DCA60010B8A6001094
:1004500048A6001080A60010D0A500100CA6001021
:1004600000A7001010B504F013FCFA20C00001F042
:1004700089FA192000F08AFED02380221B069204FC
:100480005A6210BD10B5037804008CB0002B0AD05E
:10049000020019004139192920D8203313705378EC
:1004A0000132002BF5D12000594906F025FD002826
:1004B0001ED02000574906F01FFD002834D0200030
:1004C000554906F019FD00282CD00422200053497C
:1004D00004F00CFD00280ED000200AE05378013211
:1004E000002BD6D120004A4906F006FD0028E0D1B5
:1004F00001200CB010BD03AB00934949201D08AB8F
:1005000004AA04F027FD0328E6D1464B049A9A4238
:1005100022D0454A049B934236D0444A934205D0A8
:100520000420E6E70320E4E70620E2E76B461B7DB4
:10053000002BF5D1039802F08CFD3D4A089B010089
:1005400093425DD03B4A9342EAD13B4B18803B48F3
:1005500004F0C0FC0420CCE76B469B8A742BD8D1F6
:10056000374B089A9A4227D0364B089A9A42D7D1ED
:10057000354B0398186002F0A3FD02000B003348CE
:1005800004F0A8FC0420B4E76A46127D002AC4D116
:100590002B4B089A9A4221D02A4B089A9A42BFD1F3
:1005A0002B4B0398186002F08BFD02000B002948CA
:1005B00004F090FC04209CE76B4624229B181B78D7
:1005C000002BD1D1244B0398186002F079FD020072
:1005D0000B00224804F07EFC04208AE76B462422AC
:1005E0009B181B78002BD7D11D4B0398186002F085
:1005F00067FD02000B001B4804F06CFC042078E748
:10060000194B1880194804F065FC042071E7C046B6
:1006100058AA001060AA001068AA001070AA001062
:1006200078AA00106C69676874656D70736F696C87
:1006300064727900776574009801002078AB00102F
:10064000686967686C6F7700A4010020C0AA001079
:100650009C0100201CAB0010A801002094AA0010EF
:10066000A0010020F0AA00109A01002054AB001055
:10067000D0B582B001F030FA002965D0FA2200230B
:10068000920001F019FE0400384804F09BFB384B3F
:10069000384A1B68E31A934263D8374804F092FB48
:1006A000364E3748718804F015FCB188354804F09F
:1006B00011FCF188344804F00DFCB06802F000FD34
:1006C00002000B00314804F005FC2A4B9C4241D843
:1006D000002200232E4804F0FDFB00212D4804F0E9
:1006E000F9FB2D4804F06EFB2C4B186802F0E8FC77
:1006F0002B4B060018680F0002F0E2FC294C320078
:10070000009001913B00200004F0E4FB264B1868A8
:1007100002F0D6FC254B060018680F0002F0D0FC52
:10072000234C0090019132003B00200004F0D2FBEA
:10073000204B21481A88214B198804F0CBFB204814
:1007400004F040FB02B0D0BDFA21890001F076FD33
:10075000040099E71B4804F035FB1B4804F032FB0A
:10076000BFE71A4804F02EFBAFE7C046D4AB001039
:10077000640E00200F270000F8AB0010580E002078
:1007800008AC001014AC001020AC001030AC00100D
:1007900060AC001078AC0010CCAC0010A4010020BC
:1007A000A8010020E8AC00109C010020A00100205E
:1007B00004AD00109801002024AD00109A01002023
:1007C0003CAA001090AC0010ACAC001040AC001083
:1007D00010B5002086B004F05DFA831C0BD04C4CA1
:1007E00023680D2809D00A2807D0082810D07F28B0
:1007F0000ED07E2B2DD906B010BD00224548C25424
:10080000002B0DDC00234448236004F063FBF2E777
:10081000002BF0DD013B4148236004F05BFBEAE77D
:10082000FFF730FE042845D006DC01281CD0032841
:100830003CD1FFF71DFFE5E7062837D1384804F023
:10084000C1FA00F0E9FA00280AD0364804F0BAFAF2
:10085000D8E75A1C22602F4AD05404F067FACAE73E
:10086000314804F0AFFACDE7304804F0ABFA304835
:1008700004F0A8FA2F4804F0A5FA2F4804F0A2FAD1
:100880002E4804F09FFA2E4804F09CFA2D4804F0FC
:1008900099FA2D4804F096FA2C4804F093FA2C4863
:1008A00004F090FA2B4804F08DFAABE72A4804F0E4
:1008B00089FAA7E7294B2A491B682A4A00932A4B41
:1008C00012881B6829480193294B1B680293294B06
:1008D0001B6803930B8809781B0A09020B43110A52
:1008E000090403400B431B0212061B0A134369460B
:1008F00014220220049300F029F9002803D01E4896
:1009000004F060FA7EE71D4804F05CFA7AE7C0461E
:10091000980D0020A00D0020BCAD0010C0AD00104F
:1009200040AD001060AD00106CAD0010F0A70010DD
:100930000CA8001044A800107CA80010B8A8001053
:10094000F8A8001034A9001078A90010BCA9001064
:10095000FCA900103CAA001084AD0010A8010020E2
:100960009A01002098010020A4010020FFFF00FF51
:10097000A00100209C01002098AB0010B8AB001033
:10098000F8B5DE46474680B5FFF76CFD514804F0E8
:1009900019FA514804F016FA504804F013FA504876
:1009A00004F010FAE121092308224E48490200F020
:1009B000ADF8002800D188E04B4804F003FA4B481A
:1009C00004F000FA01F088F8494B4A4A984600239F
:1009D000801859410B008021020009068B4202D386
:1009E0000122454B524241460A604B6001F074F8C7
:1009F0000023424A424F801859410B0080210200D7
:100A000009068B4202D301223B4B52427B6080237A
:100A10001B069B4600253B4E364C3A602DE001F00C
:100A20005BF83A687B68121A8B41002B34DD01F0C9
:100A300053F843461A685B68121A8B41002B19DC85
:100A400040D033785A425A413270002B1ED1D02305
:100A500080221B0692045A6101F03EF80019694198
:100A600002000B00594502D30122234B524241465A
:100A70000A604B600A2000F085FFFFF7A9FE00F036
:100A80001BFA0028CBD0FFF725FCC8E7D023802233
:100A90001B0692049A61DFE7002B01D1002AC6D120
:100AA00000F0BAF901F018F80023144A80185941EF
:100AB00002000B00594502D301220F4B52423A600B
:100AC0007B60B4E7002ABCD0D4E70F4804F07AF981
:100AD00072E7C046C4AD0010F4AD001014AE0010B3
:100AE00044AE0010008003408CAE0010A0AE001099
:100AF000180A002020A10700FFFFFF7F404B4C0099
:100B0000200A0020A40E002068AE0010F8B51500E1
:100B10001E000C000B4F386001F02CF82800022159
:100B200000F01AFB3000022100F016FB38680121AA
:100B300001F0AEF833002A002100034804F0CAF99E
:100B40000120F8BDA00E0020C4AE0010F0B5C646CE
:100B5000AA2300B58AB001AC8046170023706070EC
:100B6000A270002900D1E8E0002A66D10023AA255E
:100B70009C4645402323E554754B764A1B687649CD
:100B80009A18504242415200565EAA2E4ED0202260
:100B900099690A42FCD1AA221A6046453FD0202218
:100BA00099690A42FCD142461A60664530D020223B
:100BB00099690A42FCD162461F60A7180D2290462F
:100BC000624620002021002A09D0C478A64213D012
:100BD0009A691142FCD101301C60B842F5D1202144
:100BE000AE420FD020219A691142FCD101201D6034
:100BF0000AB080BCB846F0BD9A691142FCD14246A9
:100C00001A60E5E79A691142FCD10D221A60E9E702
:100C100020219A691142FCD10D221A60C7E72021D8
:100C20009A691142FCD10D221A60B8E720219A6915
:100C30001142FCD10D221A60A9E76B464546D81D2A
:100C400002F0EAFAAA23BC467D405D400121002F54
:100C500000DD3900092F78DDE37801396B40029A15
:100C60008D08012D19D003985040022D63D0049AAD
:100C70005040032D5FD0059A5040042D5BD0069A5A
:100C80005040052D57D0079A5040062D53D0089A52
:100C90005040072D4FD0099A424010045340000E97
:100CA00043401002000E120E43405340DDB20322B7
:100CB0000B00934301330A4200D15BE7E218D2787C
:100CC00055405A1CBA4200DB54E7A218D27855406E
:100CD0009A1CEDB2974200DC4CE7A218D27855403E
:100CE000DA1C974200DC45E7A218D27855401A1D5D
:100CF000974200DC3EE7A218D27855405A1D974231
:100D000000DC37E7A218D27855409A1D974200DCE4
:100D100030E7A218D2785540DA1D974200DC29E767
:100D2000A218D278083355409F4200DC22E7E3182E
:100D3000DB785D401EE70200AFE70500AA235540BF
:100D400094465D40002A81D114E70023B6E7C046EF
:100D5000A00E00200080FCBF9C0E002030B5AF2507
:100D60002A4B2B4A1B6804009A18454050424241C6
:100D700028495200505EAA2841D020219A69114288
:100D8000FCD1AA221A60042832D020219A6911428B
:100D9000FCD104221A60012823D020219A69114233
:100DA000FCD101221A60A04214D020219A6911427C
:100DB000FCD11C60A84206D020219A691142FCD1C6
:100DC00001201D6030BD20219A691142FCD10D2205
:100DD0001A60F1E720219A691142FCD10D221A60B4
:100DE000E3E720219A691142FCD10D221A60D4E771
:100DF00020219A691142FCD10D221A60C5E72021F9
:100E00009A691142FCD10D221A60B6E7A00E0020AB
:100E10000080FCBF9C0E0020244B254A1B682549FE
:100E20009A1850424241520010B5545EAA2C35D057
:100E300020219A691142FCD1AA221A60062C26D0E0
:100E400020219A691142FCD106221A60002C17D089
:100E5000202108009A6910401142FAD11860AC2C88
:100E600007D020219A691142FCD1AC2201201A60DE
:100E700010BD20219A691142FCD10D221A60F0E7C1
:100E800020219A691142FCD10D221A60E0E720214D
:100E90009A691142FCD10D221A60D1E720219A698A
:100EA0001142FCD10D221A60C2E7C046A00E0020FC
:100EB0000080FCBF9C0E00200120034B1B689B6937
:100EC0001B0998437047C046A00E0020F8B5CE46D7
:100ED00047468E4D040028681022836980B5DB06E2
:100EE00000D5A4E083691A4207D183691A42FCD174
:100EF0000368DBB2AA2BF5D12370FA21890000F038
:100F0000F5FE002800D192E01022286883691A4279
:100F1000FCD1FA2103688900637000F0E7FE002825
:100F200000D184E01022286883691A42FCD103684A
:100F3000DBB2A370202B7AD8002B12D0270010260A
:100F4000FA21890000F0D2FE002870D02868836959
:100F50001E42FCD103680137BB70A2783B1B9A424A
:100F6000EEDCFA21890000F0C1FE00285FD01021DC
:100F70002A6893691942FCD113682322DBB2A35477
:100F800022789946AA2A52D1A578202D4FD8617887
:100F900069405140002D44D00320E21C52426E1E95
:100FA00010400A2E00D8AEE0002800D1A9E0E67873
:100FB0007140920700D4A2E022795140032800D06A
:100FC0009BE00326627951402B1A033020184268B7
:100FD00098469446674602689B087A40022B00D1E7
:100FE0007EE087687A40032B26D0C7687A40042BBE
:100FF00022D007697A40052B1ED047697A40062B1C
:101000001AD087697A40082B16D1C0694240100473
:10101000000E504041401002000E4140120E51405F
:10102000C9B24B46581A43425841C0B200E00020B2
:10103000C0BCB946B046F8BD1004000E5040414057
:101040001002000E4140120E51400320424643461A
:101050008243C9B292191842E3D0A018C078414027
:10106000501CA842DDDA2018C0784140901CC9B25B
:101070008542D6DD2018C0784140D01C8542D0DDA5
:101080002018C0784140101D8542CADD2018C07864
:101090004140501D8542C4DD2018C0784140901D5C
:1010A0008542BEDD2018C0784140D01D8542B8DDA4
:1010B0002018C0784140100008308542B1DD20186A
:1010C000C0784140100009308542AADD2018C07860
:1010D0000A3241409542A4DDA418E2785140A0E7CD
:1010E0001004000E504041401002000E120E41400C
:1010F00051403200C9B20832AFE7022664E7012648
:1011000062E7002660E70022A7E7C046A00E0020A5
:10111000427803000020012A05D19A780A2A02D9D0
:10112000DA78012A00D070470A705A7918791202C9
:10113000024352BA4A80DA7998791202024352BACB
:101140008A805A7A187A12020A3302431B6852BA0A
:101150000120CA808B60E6E7094A83009A1810B51F
:1011600014684022544080322240064CC000A446FD
:1011700063441A60044B9C466044416010BDC04605
:1011800004C0014004D00140004001400123D022AE
:101190008340120693629361094A83009A1811688A
:1011A0004022514080320A400649C0008C466344C8
:1011B0001A60054B9C460523604443607047C04657
:1011C00004C0014004D00140004001400FB400B50C
:1011D000084883B003F0F6FD049B002B07D005A957
:1011E0001800019103F0E6FB034803F0EBFD01203A
:1011F00003F0F8FB04AF0010D8A6001070B5EFF3B1
:10120000108C72B60D4D2B68002BFCD0BFF35F8F96
:101210000724CB08C618C05C01230C40A3401C0067
:101220000440034207D118433070BFF35F8F2C6036
:101230008CF3108870BD1000FFF7C8FF2C0100D0A0
:10124000044A1078431CDBB2172B00D9102313700B
:101250007047C046AC0100200021044B044ABFF394
:101260005F8F02C39342FAD17047C046000100D09D
:10127000800100D0054B064A1360064A1360536094
:101280009360D36013615361936170478080808065
:1012900000E400E004E400E01F2318401E3B83400C
:1012A000002905D0C021044A4900535013607047FB
:1012B000802201498B50FAE700E100E070B50D0093
:1012C000EFF3108672B60F4A1368002BFCD0BFF301
:1012D0005F8F0D4B10309B6884001B590B4A934263
:1012E00003D09D4201D000F0A3FE074B9B681D5127
:1012F000BFF35F8FBFF35F8F0022024B1A6086F34C
:10130000108870BD240100D000ED00E0CD01001078
:10131000024B9C46614489000160704740000034E4
:10132000F0B5FF23C646144D144F2C00984600B567
:10133000BD420DD31DE0FFF783FF01002800FFF73A
:10134000E7FF4346B380BFF35F8FBC4211D2250055
:10135000236826000834002BEDD1FFF771FF010050
:101360002800FFF7D5FF43463371BFF35F8FBC42C0
:10137000EDD380BCB846F0BD90080020980800204E
:101380000A4B1968EFF3108072B60A68002AFCD085
:10139000BFF35F8F1B68BFF35F8F00221A6080F37B
:1013A000108840BF002000217047C046980E0020E2
:1013B000F0B5DE4657464E464546E0B585B0EFF3FC
:1013C000058203231340B54A9900575801229A40D9
:1013D00088469346B24B1A60B24B02935B46B248C2
:1013E00043630823FE5E002E35DABB881BB2002B58
:1013F00000DBA8E0BB79002B00D0E9E00823F85E11
:1014000000281EDB43007A691B18DB00D3189D6897
:10141000DC686B1C00D108E1A34801004144826AEA
:101420000B69AE1A9B1A9E4213D35A46036A1A429C
:101430000FD09D4800F048FB8C4202DCCED18542A3
:10144000CCD940BF05B0F0BCBB46B246A946A046C9
:10145000F0BD0D61EDE77A69730091469B19DB00E1
:1014600099444B469C68DD6800F02EFB8D42BCDC45
:1014700000D1FCE0002D00DAE1E04A464B4652691B
:101480001B699246029A934200D1D2E04A46082153
:10149000785E5288000451461043984700900191AD
:1014A0000099019A0B001000134300D1C7E013000C
:1014B0000A00002800DBDEE020002900801A9941A4
:1014C0004B469860D96000229A5E002A00DA8CE7C9
:1014D00053009C187D69E4002C190093A368E4680C
:1014E0009A468C4200DD80E702D1834200D97CE736
:1014F00008239C46BC443A8103976746009BB44648
:101500003E000EE08C4200D1C3E01E000023F25EDC
:10151000002A0BDB53009C18E4002C19A768E46830
:10152000BA469B18DB00EB188C42EBDD33006646B5
:101530009C464B461A806346039F1E80BB881BB2A5
:10154000002B00DA56E73A69EFF3108172B61368A0
:10155000002BFCD0BFF35F8F0123BE885B42BB80B2
:1015600036B23B69BFF35F8F00221A6081F31088A7
:10157000002E00DA3EE73B0008333A0099467D69C9
:1015800073009B19DB00EB189968DC688C46082017
:10159000115E4846002910DB009306E0A34240D0CC
:1015A0000023F95E3800002906DB4F007F18FF009A
:1015B000EF19FB68A342F1DD009B068000201E5E50
:1015C0001980002EDCDA1700BB79002B00D115E75B
:1015D0000023BB713D000823F95E08354B1C00D188
:1015E0002FE77C690800A44603E035004B1C00D1BE
:1015F00006E74B005B180A006146DB00CE18C95EA7
:1016000073881BB2002BF0DA01235B42DC17B36056
:10161000F4608242EAD029803B89100033803A810D
:10162000E4E7BB686345BBD9C6E7631C00D0F3E6BB
:10163000FFE6534650461B699847002823D14B4686
:101640001B883A693B81EFF3108372B61168002959
:10165000FCD0BFF35F8F49467A880A803A697E8062
:10166000BFF35F8F0021116083F31088BDE68442D1
:1016700000D8FFE6B9E60C4800F026FA009B019C72
:10168000C01861411CE753461A685B6800920193D9
:1016900006E7824500D838E748E7C046840E0020B8
:1016A0003C700540B11300100040054070B52E4C51
:1016B0002569002D04D00A212C48FFF729FE70BDB2
:1016C0002B4E0321300000F0F5F9E660FFF7B8FD7E
:1016D000284B03229C46D02322701B061B68012145
:1016E0006370254B6044A3600F23800020610220BB
:1016F000638063694942A1801980023119864731AC
:101700001D83585218315A5275325C399952183229
:1017100001319952183201319952183201319952DE
:10172000083518329D52023118329952183201315F
:1017300099521832013199521832013199521832A6
:10174000013199521832013199520C4B0C49DC602D
:1017500001303562FFF7B2FD01210320FFF79CFD48
:10176000084B1D60A7E7C046B0010020980E00207E
:101770000040054040000034FFFF1000840E0020B0
:10178000B11300103860054070B501000469EFF333
:10179000108C72B620680028FCD0BFF35F8F022047
:1017A0000D5E4C6968004019C0002418002D37DB1D
:1017B000208848800869BFF35F8F002606608CF39D
:1017C0001088E36063880498013320615B04059806
:1017D0005B0CA26060611A1C002B1FD093B228041E
:1017E000628018430A69EFF3108C72B61368002BFD
:1017F000FCD0BFF35F8F8B8823808D800B69BFF394
:101800005F8F00221A608CF310880B7801329A40A7
:10181000CB6808498C4663441A6070BD0122DDE73D
:101820000B69BFF35F8F00221A608CF310880120D0
:101830004042F2E73C20000010B543890A1493426D
:101840001ADD53009B184269DB00D3180469EFF3DB
:10185000108C72B62268002AFCD0BFF35F8F5A88C2
:10186000090494B2090C8A4208D00369BFF35F8F60
:1018700000221A608CF31088002010BD8022120212
:1018800014435C80012302698371BFF35F8F0021E1
:1018900011608CF31088044902788C469340C2682A
:1018A000012062441360E8E73C200000F0B504002A
:1018B0000D0006267642F717C64636196F4100B569
:1018C00082B08F4214D811D000F006F932003B00EC
:1018D000121A8B41002B17DC002B47D02000290067
:1018E00000F038F902B080BCB846F0BD8642EBD9B2
:1018F0000022002316001F0000F0EEF832003B002B
:10190000121A8B41002BE7DD00F0E6F832003B00B5
:10191000121A8B41002B0ADB00230193154B320076
:10192000009315483B00FFF72FFF0028D6DB00236C
:101930009C46B046114A124E736A9F4204D8B16A5F
:101940004145CBD29F42C9D11168EFF3108072B6E6
:101950000B68002BFCD0BFF35F8F1368BFF35F8F62
:101960006146196080F3108820BFE5E7002AB5D0F2
:10197000CAE7C04681130010B0010020980E002075
:101980000040054070B5060000F0A6F8FA220400F9
:101990000D00002330000021920001F041FB802364
:1019A000001969411B06994202D3012002494042B5
:1019B000FFF77CFF70BDC046FFFFFF7FF0B5D64646
:1019C0004F464646C0B504000D0082B0EFF30587D0
:1019D0008946002F0ED0344900204B6AAB4203D316
:1019E0008A6A0130A24226D302B0E0BCBA46B146B0
:1019F000A846F0BD2D4B9846DB689A4643465046B4
:101A00001E7800F061F80B00514602000436B60063
:101A1000715820008E1A2900801A99418F4211DCDA
:101A20000ED020BF204A0020536A4B45DCD3926A77
:101A30000130A242D8D25B1B5A1E9341D8B2D3E7E1
:101A40008642EED900F048F822002B00121A8B4192
:101A5000002B1ADB00230193154B22000093404614
:101A60002B00FFF791FE011E0FDD0F4B5A6A4A450E
:101A700017D39B6AA34212D34046FFF7DDFE0A4A02
:101A80000020536A4B45AFD3D1E7074A0020536A81
:101A90004B45A9D3926A0120A242A5D2CBE74A4581
:101AA000EAD120BFE8E7C04600400540B001002071
:101AB0008113001010B5024A0248FFF79FFB10BDCA
:101AC00014AF00109C0D00200300416A0A00986AC0
:101AD000596A8A42FAD17047034B596A0A00986AD8
:101AE000596A9142FAD170470040054070B5040030
:101AF0000D00174A536A1900966A536A8B42FAD14D
:101B00003000190024184D41AB4216D813D0104BA9
:101B10002A005B6A9D4203D90D494B6A9342FCD36C
:101B2000934207D10A4A02E0516A994202D1916A6E
:101B3000A142F9D370BDA642E9D9054B5B6A1C00EE
:101B40005A1CEFD0012201246442E5175242E3E718
:101B500000400540064A536A9942FCD807D1044B1D
:101B600002E05A6A914202D19A6A8242F9D37047DE
:101B700000400540F8B5040006200D0000F0B2F961
:101B8000002842D0364B3749E21853425A4180234D
:101B9000DB039C469205344B62441A60334B1A6057
:101BA00010000B689843FBD12D4B314AE318594282
:101BB0004B4180215B0049000620995200F092F9C8
:101BC0002900C00000F03AFB0130C3091ED14027B4
:101BD00001226262A362266BF30722D4E36A254BDB
:101BE0000620E51800232B60266300F07BF93900FE
:101BF000800000F023FB7023E26A5A400E3313404A
:101C00002B601D4B23630323A364F8BD1B4A93423F
:101C10001ED900231A4A1B4F6262A362266BF30788
:101C2000DCD5194B144AE3181A60656AA36A0620CA
:101C3000AD01ED1800F056F9144900F0FFFAAD02BD
:101C40000100280000F0FAFA0021FFF74FFFC5E776
:101C50004006800E9F011A003F180300B9E7C046F6
:101C60000080FCBF08C0004000E0004000F00040E1
:101C70009C0E00202C10000001030000FEFF00005D
:101C8000FFFF0000C0FF3F00303000004E0E00009C
:101C9000F8B5066B04000D01F30708D41021E36AC0
:101CA0006B4019400D4BE31819602663F8BD0C4BCF
:101CB0000C4AC3181A60476A836ABF010620FF18DE
:101CC00000F010F9084900F0B9FABF02010038002D
:101CD00000F0B4FA0021FFF709FFDFE72C10000045
:101CE00030300000010300004E0E0000074A30B5FE
:101CF0001024956A03E0936A5B1B8B4204D88369C6
:101D00001C42F8D1012030BD0020FCE70040054016
:101D1000F8B5DE464E4657464546E0B58B460500CB
:101D20000A991800160000F089FA0A9B6C001F023D
:101D3000314B64199C46A4006444636881469F4209
:101D400000D967602B1FDBB29846C02342469B0137
:101D5000E318012A2DD9802212011A60274BAD0009
:101D600059599A4600291BD17301E0262268534035
:101D70001E40802342465B01E3181E60012A2DD9D4
:101D8000802380229B01E31812011A6053464A46C1
:101D900067605A51F0BCBB46B246A946A046F8BDA2
:101DA000586900F04BFA013043001B18033BFDD289
:101DB000DAE75A46012ACED102321A60023AA36803
:101DC0001A42FCD07301E0262268AD0053401E4049
:101DD00080230A4A5B019246E3181E605A46216836
:101DE000514003220A401A6001225B469A40A368D0
:101DF0001A42FCD0C4E7C04600800040200E0020FC
:101E0000F0B546464F46D646C0B51F00334B44009A
:101E10009C462418A4006444636888461600FF2B7F
:101E200002D880235B006360031FDBB29A46C023A5
:101E300052469B01E318012A2DD9802212011A6013
:101E4000274B85005959994600291BD17301E0267B
:101E5000226853401E40802352465B01E3181E60F7
:101E6000012A2DD9802380229B01E31812011A60D8
:101E700080235B0063604B465F51E0BCBA46B146CD
:101E8000A846F0BD586900F0D9F9013043001B188D
:101E9000033BFDD2DAE74246012ACED102321A6074
:101EA000023AA3681A42FCD07301E026226885003A
:101EB00053401E4080230A4A5B019146E3181E608E
:101EC00042462168514003220A401A6001234246DB
:101ED0009340A2681342FCD0C4E7C0460080004093
:101EE000200E0020014B8000C0587047200E0020BB
:101EF000F8B5040020481D0017000E0000F09EF900
:101F00000100380000F09AF9069B29041B031943CD
:101F10002368002B1EDB194B194DE21853425A411E
:101F200080235B019C461203164B62441A60164BD9
:101F30001A6017002B689F43FBD1144B2660E218F0
:101F40002123A06013602368002BFCDA0823E160E2
:101F50001360F8BD3F2322681340B342DBD1A3686E
:101F60001B051B0D8342D6D1EE22E368D20213403B
:101F70008B42D0D1EDE7C046001BB7000040FDBF4B
:101F800008C0004000E0004000F0004004300000C5
:101F90008023024A9B000B43D362704700800540B8
:101FA000142310B50100188804331B88984710BD0E
:101FB000162310B50100188802331B88984710BDFE
:101FC000F8B54746CE4680B50F1E19D01423994662
:101FD000043304000025012698464B4618884346E2
:101FE00021681B88984701C4431E9841013540422F
:101FF0000640AF42F1D13000C0BCB946B046F8BD92
:102000000126F8E7AA23064A1B0113608D235B0013
:10201000D3600449044B19605368002BFCDA704705
:102020000040024000B0FA00006002407047C04625
:1020300010B50148FFF7CAF838AF001070B5074D6A
:10204000074EB54209D20024013E761BB60808CDE2
:10205000984723000134B342F9D170BD90A5001018
:10206000CCA50010054B064A06491A60064A074BE4
:102070001A6010000B689843FBD1704700E00040E5
:10208000BFCDFBFE08C00040FE7F3C0000F00040DA
:10209000044BDB6C002B03D18022034BD2021A606D
:1020A0007047C046000011504C201150044A054BA7
:1020B0001A60054A1368DB018033FBD17047C046C4
:1020C000FFFFFF0100F0004008C000404022034B2A
:1020D0009A675A671A67DA667047C04600F001408F
:1020E00010B5FFF7B9F810BD70B5044D044CA968E0
:1020F000C022200001F090F8AC6070BD00ED00E05F
:1021000000000020002310B5294C82B0A367FFF720
:1021100079FF0122274B1A60636C012BFCD103224B
:10212000254B1A60224A936B012BFCD1013300939B
:102130000121224A22480433FFF7DAFE0523012158
:102140000093204A2048FFF7D3FE002202210420FA
:102150001E4BFFF755FE0022012105201C4BFFF707
:102160004FFE0022002107201A4BFFF749FE0022F4
:1021700000210820174BFFF743FE8023DB0000936C
:10218000002200210920134BFFF7C2FD0022104B53
:1021900000210620FFF734FE0420FFF7A3FE0E49BE
:1021A00000F04CF801000020FFF7F2FE02B010BD75
:1021B000008000403CB0004030B00040002F685923
:1021C00000800240008C864700C00240001BB70020
:1021D00040597307006CDC0240420F0001480421A3
:1021E000014B1847D0010020C11F0010124A936F05
:1021F0009B0815D29066D166002905D0FFE7FFE75E
:10220000FFE7516F106F704704B580210906C217B0
:102210005140002800D0C84308F0AAF9002104BDAD
:10222000F0B5146E556E576F166FFFF7E3FF146627
:10223000556657671667F0BD000000D0114A936FCE
:102240009B0813D210665166002905D0FFE7FFE70F
:10225000FFE7516F106F704704B5002801D00020D0
:10226000C04308F085F9002104BDC046F0B5146EE6
:10227000556E576F166FFFF7E5FF14665566576783
:102280001667F0BD000000D094464A4A926F92084B
:10229000624601D228E0C046F0B5464E346E756EF7
:1022A000776F366F00F020F89446424A1466556600
:1022B000576716676246F0BD94463E4A926F920891
:1022C000624601D254E0C046F0B53A4E346E756EA7
:1022D000776F366F00F04CF89446364A14665566B0
:1022E000576716676246F0BD002B24DB11D000292A
:1022F0003EDA00B5C943404200D1013100F038F860
:10230000C943404200D10131DB43524200D1013385
:1023100000BD002AEBD1002801D1002905D0002002
:10232000C90FC90701D1C043410800B508F018F929
:102330000022002300BD00B500290ADBDB43524226
:1023400000D1013300F014F8C943404200D10131FB
:1023500000BDC943404200D10131DB43524200D1AC
:10236000013300F005F8DB43524200D1013300BDD8
:10237000002923D1002B18D1002A0CD0BC460D4FC8
:1023800038667A6600210023FFE7FFE7FFE77A6FF0
:10239000386F67467047002801D00748010000B534
:1023A00008F0DEF80022002300BD02000B00002030
:1023B00000217047000000D0FFFFFFFF002B00D07E
:1023C000BFE0130C28D1002AE7D080B4114F396642
:1023D0007A66FFE7FFE730B4040C7B6F396F1B04AC
:1023E00023433B667A66FFE7FFE7FFE7C04684B218
:1023F0007B6F3D6F1B0423433B667A66FFE7FFE775
:10240000C04600232C042D0C7A6F386F00196941E7
:10241000B0BC7047000000D0F0B594460025140E03
:1024200001D112020835140F01D112010435940FA5
:1024300001D192000235D40F01D152000135D40BE5
:102440000134254F7C66254C3C660E0C93B2FFE7A9
:10245000FFE7FFE73C6F6643360C7703BE467343E6
:10246000DF0B5B04C01AB941130C7343DB18C91AA4
:10247000CE086643360CB64493B273431F0F1B015C
:10248000C01AB941130C73431F0B1B05C01AB94185
:10249000860D8F023E436643360C092D24DB520A1B
:1024A0007243801A7703460A6643360C16235B1B79
:1024B000DE40DF40BF1964466643821B7046043528
:1024C00006330100D940A840C01900D30131A2420F
:1024D00006D20023F0BD0000000000D0FFFFFFFF88
:1024E000121B0130F3D3F1E709277F1BFE4064463E
:1024F000A2B27243801A00D20139220C7243130C2B
:102500001204821A99410B007046043513370100FA
:10251000F940A840801900D30131002B02D1A2421A
:102520000AD2F0BD013000D30131121BFAD2013BB7
:10253000F8D1A24200D2F0BD013000D30131121B0C
:10254000F7E7F0B51C0C00D080E00CB400251C0AA5
:1025500004D11B02160E3343120208351C0B04D1A2
:102560001B01160F3343120104359C0B04D19B0051
:10257000960F334392000235DC0B02D192185B4177
:1025800001351C00971864410134464F7C66464C67
:102590003C660E0CFFE7FFE7FFE7C0463C6F664373
:1025A000360C7703BE4697B27743C01B00D2013981
:1025B000C01B00D201399FB27743C91BC91B170C3E
:1025C00077437E04FF0B801BB941CE086643360C6F
:1025D0000C2D33DBB644120B1F053A431B0B97B28D
:1025E0007743C01B00D201399FB27743C91B170C38
:1025F00077433E043F0C801BB941860D8F023E435A
:10260000664329277F1BFE400C3D7746AF40BF192C
:1026100030BCA2B2ABB272437343801A9941220C10
:102620007243130C1204801A994102000B00013707
:10263000001BA941F9D2781E0021F0BD0C277F1B99
:10264000FE4077467F0BAF40FF19E0E700245D1C9A
:1026500007D0144F7D663966FFE7FFE7FFE7FFE726
:102660003C6F95B29EB265436643401BB141150C69
:102670001E0C6543664336042F0C3E432D04401B5D
:10268000B141994204D202000B0020000021F0BDAC
:1026900001D19042F7D3801A994101349942F2D383
:1026A000F6E70000000000D0FFFFFFFF4840414078
:1026B000484018B41B4B5B68FC46019308BD04DF1F
:1026C000EF29001018B4174B1B68FC46019308BD96
:1026D00000DFF92900109446134A926F920809D23C
:1026E000624618B40F4BDB68FC46019308BD0CDF53
:1026F000B12C00100C4AF0B5146E556E576F166F62
:102700006246FFF7EEFF084A14665566576716677C
:10271000F0BD18B4034B9B68FC46019308BD08DF6D
:10272000552B0010280A0020000000D0FFB55040B3
:102730004240504059404B40594000E0FFB5154FD2
:102740004C00640D03D0BC4204D10C0314D800200B
:10275000090D09055C00640D03D0BC4204D11C03C3
:102760000AD800221B0D1B0501264B4009D44B4003
:1027700003D58B4200D18242FFBD9942FCD19042E9
:10278000FFBD0B43DB1803431343F5D0C94349187E
:10279000FFBD0000FF07000000B5FFF7CFFF01D02D
:1027A000002000BD012000BD00B5FFF7C7FF80413C
:1027B00000BDC04600B5FFF7C1FF01D9002000BD34
:1027C000012000BD00B5FFF7B1FF01D9002000BD19
:1027D000012000BD00B5FFF7A9FF804100BD012029
:1027E00040054A00121804D85A00121801D80020D7
:1027F00070470120704700000021002805D1704774
:10280000C1174840401AFAD0C90713B5064B1B68D8
:1028100098470CBC441CA2401005120B0349091B2D
:1028200009051943114310BD940E00201F04000038
:1028300010B54C00620D8023D218DB00D21A5B0564
:102840007E2A10DD9E3A13DACC1709034908194392
:102850005242D140640001341532202A05DAD040BA
:102860000843604310BD002010BD0846604310BD02
:10287000C80FC018013810BD18B4044B5B6AFC4681
:10288000019308BD24DF612E00100000280A0020FB
:1028900018B4044BDB6DFC46019308BD5CDF6D2F63
:1028A00000100000280A0020C94211D300B54900D9
:1028B0004908002200F018F8002904D40022404200
:1028C0008A41114600BD80210906002000BD00009C
:1028D00018B4044BDB6EFC46019308BD6CDF6F2E11
:1028E00000100000280A002018B4044B9B6FFC461F
:1028F000019308BD78DF8B2E00100000280A00200D
:1029000018B4044BDB6FFC46019308BD7CDFF92E45
:1029100000100000280A0020132370B51D78012D37
:1029200019D014DD1F48FFF743FB06001E48FFF7D0
:102930003FFB1E4C80223100200000F06DFC022D78
:102940002DD01B48FFF72CFB1A4B186070BD1A4B9B
:10295000164CA364F5E7184B144C23606360A36026
:10296000E36023616361A361E36123626362A36245
:10297000E36223636363A363E36323646364A36425
:10298000E36423656365A365E36523666366A36605
:10299000E36623676367A367E367A364D1E7064B36
:1029A000A364CEE75344000053460000280A0020E9
:1029B0004C330000940E0020BD29001007B560467E
:1029C00001880A0A0230DF2AFAD1C9B2820804D388
:1029D000028840880004104300E00068014A50501B
:1029E000039007BD280A00200FB403BC0CBCF0B54F
:1029F0000124E407634000E0F0B50C0DCF0F661E24
:102A00003605891B640503D3C943404200D3013115
:102A1000640D03D0661CF60A07D0E41B00207F007B
:102A2000791C89078912803C24031D0DDF0F6E1E5F
:102A300036059B1B6D0503D3DB43524200D30133A4
:102A40006D0D03D06E1CF60A07D0ED1B00227F002F
:102A50007B1C9B079B12803D2D032F1B661B58D4AC
:102A6000A446202E46DA20371400BC401D00BD408D
:102A7000F24033412A4380185941CB0F05D0C94356
:102A8000C043002264425041514162464D0D28D15D
:102A90000D0D07D100281FD0241940414941013AAA
:102AA0000D0DF9D0640006D3013000D30131002CA4
:102AB00001D140084000013A0BD4941CE40A04D12F
:102AC00012051144DB071944F0BDD907204B194307
:102AD00000E0D9070020F0BD0029DDD1002CDBD1BA
:102AE000F0BD0132C6074008CD0728434908002E33
:102AF000E1D0D9E73C2E29DA203E40371400BC4013
:102B000000D00124F24014431A00BB401C43D317E9
:102B1000ACE7AC46202F08DA20360400B4400D00A4
:102B2000B540F84039412843A5E73C2F0CDA203F57
:102B300040360400B44000D00124F84004430800AB
:102B4000B1400C43C117EAE710001900002494E7D4
:102B50000000F07FF0B50C0D661E3605891BE60AF5
:102B60006405640D02D0651CED0A04D0002001212B
:102B70000905803C2403A4461C0D671E3F05DB1B92
:102B8000E70A6405640D02D0651CED0A04D000223A
:102B900001231B05803C24037740644497B484B22E
:102BA00096B27443070C7E43150C6F4380B26843A2
:102BB000361802D3012000043F183004350C0019E8
:102BC0007D41844688B29AB250430C0C62431F0C7C
:102BD0007C438EB27E43921902D301263604A41997
:102BE0001604170C3618674101BC81B29AB25143E2
:102BF000040C62431B0C5C4380B25843121802D38E
:102C00000120000424181004130C401863412D18EF
:102C10005E410020474106BC88B293B258430C0C79
:102C20006343120C544389B251435B1802D3012110
:102C30000904641819041A0C091862416D185641E8
:102C40000020474118BCF902720D1143F0026A0DD1
:102C50001043ED020A0D03D16D1940414941013B7A
:102C6000124E9B1B7600B3420ED26D0007D301308B
:102C7000002671416646354301D1400840001B05DE
:102C8000C918E4072144F0BD0BDA013306D1013045
:102C900004D101314F0D01D04908F2E7E1070020CE
:102CA000F0BD013631050020EBE70000FF03000016
:102CB000F0B51C0D671E3F05DB1BE70A6405640DBC
:102CC00002D0661CF60A04D0002201231B05803CBA
:102CD0002403D0252D060026F6432E661E096E66B7
:102CE000CE0FF619B44649004F0D02D07E1CF60AED
:102CF00003D000200021403F3F033E1BB600B444F8
:102D0000013F7F05C91B49082E6F013676089C02DA
:102D1000950D25437543ED137543AD1301356D10C6
:102D2000F603761B0CB4CC02450D2C43A2B2B3B211
:102D30005A43270C7B43350C6F43A4B26C431B19D9
:102D400002D3012424043F191C041D0CA4187D4146
:102D500024196D41009A91B2ACB26143170C7C43C7
:102D60002B0C5F4392B25A43A41802D301221204DF
:102D7000BF182204230C52187B41019C6C431B1981
:102D8000520ED9010A434401A01A81B2B2B2514392
:102D900003145A43360C734387B27743D617D219BC
:102DA00000277E4136049B191704160C7F185E41DC
:102DB0007316ED18F301002680337541A90F06D173
:102DC0006400690AE8055B0A184309D22FE004226F
:102DD000944480337541A90AA8059B0A184326D359
:102DE000404149412404009A019B0D005543641B56
:102DF0004343E41A95B286B27543170C7E43030C25
:102E00005F4392B25A43B61802D301221204BF188C
:102E10003204330C52197B4152429C41002C02D4A3
:102E20000022013051414008CA071043490802B04E
:102E30006246D7079210084BD218084B9A4203D229
:102E400012058918C919F0BD0020002A01DC3900DB
:102E5000F0BD01331905F5E7FD030000FE07000092
:102E6000002200B5203200F010F8080000BD00225A
:102E700000B500F00CF8CA179A4200D100BDD84343
:102E80000121C907414000BD00220B150AD410B52D
:102E9000944600F0A7F81414013400DA0021CB178F
:102EA000144C20470020002170476244343A0CD46F
:102EB0000C2A07DA04009140904052422032D4405C
:102EC000214310BDD843D94310BD203207D40C464E
:102ED0009440524220321141D040204310BD08009E
:102EE000C917203203D452422032104110BD1800BD
:102EF000190010BDAB2E00104A00520D144BD21A0F
:102F000013DDFF2A1EDAD205CB0FDB071A43C300FD
:102F1000400F0903490A084310435B0001D301D065
:102F2000013070474308FBD2704702D0C80FC0077A
:102F300070470A0312130132F8D1420F072AF5D164
:102F4000012200E0FF22C80F00028018C005704770
:102F50008003000000210A00002104E000210A0093
:102F6000C11704E00022002306E0C0460022CB1770
:102F700058405940C01A994130B5184CA21A00293E
:102F800003D1010010D00020203A4C1512D104D2F8
:102F9000013A001849414C0DFAD3114CA24204D217
:102FA00012058918DB07C91830BDD243520D002025
:102FB0000021F5E703D4013A00184941FBD50B3253
:102FC0004405C00A4D052843C90A640003D0002403
:102FD00060416141E1E7E0D34408F8E732040000D2
:102FE000FE0700000A0DCC0F531E1B05C91A52051F
:102FF00003D3C943404200D30131520D03D0531CC7
:10300000DB0A07D0121B00206400611C89078912AB
:10301000803A1203014BD21A70470000FF030000F0
:1030200051434343C9188C46110C83B24B4310B42F
:10303000040C614392B280B2504362431C041B0CE7
:10304000001910BC59411304120CC01851416144BD
:10305000704741000A0E80231B067E2A0BDD9E3A34
:103060000BDAC1174002400818435242D0404900D1
:1030700001314843704700207047C00FC018013825
:103080007047C0420CD300B540004008002100F05A
:1030900011F8002801D4404200BD8020000600BD88
:1030A000034BDB69FC4618471CDF6531001000004C
:1030B000280B0020014B5B6A18470000280B0020FA
:1030C000034BDB6FFC4618477CDF7D3100100000AE
:1030D000280B0020132310B512481C78FEF768FF58
:1030E0000100012C0AD003DD80220F4800F094F883
:1030F0000E48FEF755FF0E4B186010BD0A4C5422C7
:10310000200000F089F80B4B6365A365E365236637
:103110006366A366E36623676367A367E367236267
:10312000E361E5E753460000280B00204C33000024
:10313000940E00203931001007B5604601880A0A54
:103140000230DF2AFAD1C9B2820804D3028840884B
:103150000004104300E00068014A5050039007BD8E
:10316000280B00200021C2158032803201D0024A93
:103170001047002070470000CD2A0000C30FDB0776
:1031800041000A0E07D0FF2A08D00909054A89180C
:103190001943400770471900002070470249C918B9
:1031A000FAE70000000000380000F07F10B50400CE
:1031B00003F064FB002804D0034B04199C4200D8A0
:1031C00010BD0248FEF702F80000042044AF0010D2
:1031D00010B50C0003F038FF002804D0034B04198D
:1031E0009C4200D810BD0248FDF7F0FF000004200B
:1031F00044AF001010B503F04BFB10BD0148042193
:10320000014B1847E0010020C11F0010014B1B6853
:1032100018470000E0010020014B5B6818470000E0
:10322000E00100209A4200D2885470477047C0469F
:10323000F8B557464546DE464E46E0B598460A9BE9
:1032400006009A460D9B0F00934615009B0710D170
:103250000B9B0C9A93420CD213005C460B9A9D1A5E
:103260005D4422004346013439002020B047A54286
:10327000F7D10B9C6319002C09D01D0053462A1B63
:10328000013C185D39004346B047002CF6D10D9B38
:103290009B070ED55B46EC1A0C9BA34209D99946B5
:1032A0002A004346390020200134B0470135A145AA
:1032B000F6D82800F0BCBB46B246A946A046F8BDE9
:1032C000F0B54F464646D646C0B584B098460EABDC
:1032D0001B7894469946129B0D9C109F119E9A074D
:1032E00024D4002E6AD1BC4220D201221A40924638
:1032F000202C00D1D2E00C9A551E302201E0202C67
:1033000030D001342A55A742F9D85246002A0DD0B0
:10331000B4420BD20C9A551E3022202C02D126E04A
:10332000202C63D001342A55B442F9D1DA0634D5C1
:103330005A0564D4002C5ED10F9A102A00D197E070
:10334000022A00D1A8E030220C9C227001244A46B7
:10335000002A5ED15A0700D483E02B220C9D2A5507
:1033600001341CE05246002A02D0202E3ED92024EF
:10337000DA0614D55A0512D4202F00D1A1E0202E50
:103380003DD120261F2234000F9D102D00D18BE04F
:10339000022D52D030250C9FBD54202CD7D1039341
:1033A0000C9B62460093029643460194FFF740FF50
:1033B00004B0E0BCBA46B146A846F0BD01221500F3
:1033C0001D40AA461A4229D04A46002A39D10C3259
:1033D0001A4236D1BC429BD2202C00D08BE710225F
:1033E0001A40202EC3D8002AA2D1D8E72024DA061A
:1033F000D5D55A0503D4A74225D0B44223D00F9A7D
:10340000102A25D0022A14D0202CC8D02200013442
:10341000C0E72D220C9D2A550134C0E7BC4200D3E1
:1034200084E7202C00D066E710221A40002AE0D161
:10343000B5E7202CB3D02200013462250C9FBD5487
:10344000E2E7013EC6E7621E012C00D174E79BE76C
:103450009A0616D4202CA2D078220C9D2A5501342D
:10346000D2E71A079BD520220C9D2A55013496E7F6
:103470009A060FD478220C9C2270302262700224AB
:1034800065E7202C00D18AE758250C9A121915708F
:103490000134B9E75822EEE76222ECE710225546E4
:1034A0001A40002D9FD1C1E7023C9D0604D4782527
:1034B0000C9F3D551400A9E758250C9F3D5514005D
:1034C000A4E71F2260E7C04610B5002800D110BD58
:1034D00001F02CFCFBE7C0460B0010B5002802D021
:1034E00049681B68984710BDF0B557464E4645469B
:1034F000DE46E0B599B08246894690460893229A06
:10350000239B10001900FFF76AF9002800D0CDE0D6
:10351000229823990122D94B5242FFF75BF90028E8
:1035200000D0C3E0229823990122D54B5242FFF7E5
:103530003BF9002800D0B9E022982399002200230B
:10354000FFF732F9002800D0F1E1229E239F80236B
:10355000269ADB001A400D92269A1A4201D10623C0
:1035600024938023269A1B011A403B009346099618
:10357000334300D0B3E0002A00D0C2E1002300248E
:103580000A930B94002304250993259B0024AB4246
:1035900000D95C1B0223269A1A400C92269A1342E9
:1035A00003D06B426B415B421C40099B002B07D050
:1035B0000A9A0B9B30003900FFF78DF806000F00C8
:1035C0002298239900220023FFF7EEF8002803D069
:1035D000802109067B181F00269AAA4B00960197A6
:1035E0001340089E0493249B0394029342463300A5
:1035F0004946504600F0AAF90400002D67D020206B
:10360000269A4946024013005A4253415B42621CCB
:1036100018400A92330022004530D047099A6F1EA5
:10362000D317D4185C40D30F9B46002501E0202D12
:1036300013D008AA94461F23200063440A210135B1
:103640005E19FEF7FBFD3031317020000A21FEF7D4
:10365000F5FD26000400092EE9D805230693002372
:1036600004930A3303935B46089E029310AB0A9AB5
:10367000009349463300504605970195FFF720FE19
:103680000C9A0400002A22D04246851A259AAA42A2
:103690001DD9B04657461600220043464946202011
:1036A0000135B8470134AE42F6D810E0269B4246B9
:1036B0000493259B49460393249B50460293229BE7
:1036C000239C00930194089B00F040F90400200023
:1036D00019B0F0BCBB46B246A946A046F0BD6A4B45
:1036E00078009C46400D6044FFF78AF8674A684BB3
:1036F000FFF70FF8674A684BFEF7E4FF674A3B03A2
:103700001B0B1A4304000D0009981100644B0022A2
:10371000FEF7CFFF634A644BFEF7FBFF02000B008E
:1037200020002900FEF7CEFFFFF782F80990FFF78F
:1037300067F85E4A5E4B04000D00FEF7EAFF0022C8
:103740005C4BFEF7BFFFFFF773F85B4A5B4B29004A
:103750000C902000FEF7DDFF04000C980D00FFF731
:103760004FF8574A574BFEF7D4FF02000B002000DA
:103770002900FEF79EFF04000D0002000B000A94D2
:103780000B95FEF7C6FF04000D000A980B99020086
:103790000B00FEF797FF00220E900F914A4B20007E
:1037A0002900FEF798FF0022484BFEF78BFF02002E
:1037B0000B0020002900FEF78EFF0022444BFEF78D
:1037C00081FF02000B0020002900FEF784FF0A9A07
:1037D0000B9B0D0080210400C9050020FEF769FF46
:1037E00002000B0020002900FEF76CFF02000B0016
:1037F0000E980F99FEF76FFF0022284BFEF762FF2D
:10380000344B0C9C9C46644423050022FEF781FF48
:1038100004000D0002000B00300039000A940B95E3
:10382000FEF7C2FF00285DD123002A00C6250999B2
:1038300063318D42AD4159466D420435002900D1B6
:10384000A3E6134363D030003900234A234BFEF72D
:10385000B9FF002807D0002230003900204BFEF7C6
:10386000A3FF002853D1249B002B00D18DE60D9B94
:103870005A1E9341249AD31A249386E6FFFFEF7FC2
:10388000FFFFEFFFFFF7FFFF01FCFFFFFB799F50FA
:103890001344D33FB3C8608B288AC63F0000F03F73
:1038A0000000F83F61436F63A787D23F71A3790996
:1038B0004F930A400000E03F1655B5BBB16B024084
:1038C000EF39FAFE422EE63F00002C400000244073
:1038D00000001840FF0300002D431CEBE2361A3FA6
:1038E00080842E41099B0022013B09932000164B46
:1038F0002900FEF7F0FE0A00010003000A910B9276
:1039000094E7002300240A930B9400230993249A3C
:10391000099B9A4214DDD31A013B24938023269AF3
:10392000DB001A4300230025269209932DE680220E
:1039300012069446229B1E00239B63441F0006E64A
:1039400000232493EAE7C04600002440F0B5454632
:10395000DE464E465746E0B595B08B4690469946B2
:103960001E9A1F9B0A9019001000209DFEF737FF3A
:10397000002800D0B0E11E981F990122C74B524287
:10398000FEF712FF002800D037E11E981F99012290
:10399000C34B5242FEF71EFF002800D0A7E01E983E
:1039A0001F990022BF4BFEF715FF002800D088E0CA
:1039B0001E981F990022BC4BFEF7F6FE002800D08F
:1039C0007FE01E981F9900220023FEF7EDFE0028DD
:1039D00000D0FAE000230B938023229C229ADB0084
:1039E0001C401A4200D102E1092D00D87EE106A94F
:1039F0008C462C00172200233021093C62440133FD
:103A0000D154EF1A202B00D132E1A342F7D100228A
:103A1000A44B069207931E981F99FEF709FF050015
:103A2000FEF7EEFE02000B001E981F99FEF741FE06
:103A3000069A079BFEF76DFE08900991FEF71CFFA2
:103A40000600FEF7D9FE02000B0008980999FEF760
:103A500030FE0022954B08900991FEF7BBFE00282E
:103A600000D1D2E001363000FEF7C6FE069A079B71
:103A7000FEF7A8FE002801D000260135AA46002F37
:103A800000D098E02800FEF7BBFE02000B001E9855
:103A90001F99FEF70EFE854B002206000F00FEF771
:103AA00083FE0CAB9A46002845D100223000390035
:103AB0007E4BFEF78FFE00283DD1EB073BD501354D
:103AC00039E0229B42460493219B594603930A986E
:103AD0001E9B1F9C0295009301944B46FFF704FD2B
:103AE00015B0F0BCBB46B246A946A046F0BD229B2D
:103AF0005B0767D403226E4B2299019203912199AF
:103B00000291009342464B4659460A98FFF790FBB4
:103B1000E6E706AA94461723280063440A210134E5
:103B20001E19FEF763FB3031280031700A21FEF7C1
:103B30005DFB051E76D0202CEBD10323229A134087
:103B4000012B1DD1219B002B1AD00B9B002B00D0E9
:103B5000BBE0229A0C33134200D0B6E0219BA34273
:103B600000D887E006AB9C4617223023624404E06D
:103B70002199013413558C4259D0202CF8D120249E
:103B8000229B01940393219B02935346B9E706AA13
:103B9000944617230A216344300001341D19FEF7AF
:103BA0004DFB3031297030000A21013FFEF746FB02
:103BB000092E46D90600202CE9D155460CAB20240D
:103BC0009A46B8E704223B4B96E71E9A1F9B0020BB
:103BD0000021FEF76EFD01230B938023229C229A85
:103BE000DB001E901F911C401A4200D0FCE6002210
:103BF000314B0627069207930DE7229B0393219BE7
:103C00000293042301932D4B7BE700220898099926
:103C1000264BFEF7C9FD002800D02FE7002E4FD11C
:103C200001362BE70323229A1340012B68D0202C66
:103C3000A6D00B9B002B1FD02D23524613550134C9
:103C40009EE75546202CB9D030223B19002F4BD08F
:103C5000172006A9013409180A55202CAED09C4221
:103C6000F6D10CAA92462E2251465C1CCA5462E739
:103C70002024CCE6202C83D0229B5B0708D4229BF7
:103C80001B0700D47CE7202352461355013477E705
:103C90002B2352461355013472E7C046FFFFEFFF56
:103CA000FFFFEF7F65CDCD4165CDCDC10000E03F89
:103CB000F0AF0010E8AF001080842E41F8AF001084
:103CC000F30700D4DAE60136D8E6219B013B2193C5
:103CD000A34200D946E7AAE7229B0393219B0293C4
:103CE00003230193084B0CE72300BAE7074BEA00D4
:103CF0009B185C681B682F000693079400248AE6D3
:103D0000219B002B93D020E7F4AF0010A0B100104E
:103D1000F0B54546DE4657464E46E0B5A1B01D001B
:103D20002A9B90460B93D04AD04B83468A461A6012
:103D3000002900D1A4E1002328789946002800D169
:103D4000A6E1CB4B5E460993CA4B4C46D346474649
:103D50000D930AE0631C984622003B005946B04789
:103D600044462878002800D1CDE001352528F1D13E
:103D700008239A46043B9946023B9846013B0022A1
:103D80009C460C942878691C0300203BDBB2102B66
:103D900003D8099C9B00E3589F460300303B0C9CD2
:103DA0000A92092B7FD9002398462A2800D1C1E026
:103DB00000239A462E2800D190E00300683BDBB236
:103DC000122B1ED8AC4A9B00D3589F4663460D0069
:103DD0001A43D7E743460D001A43D3E74B460D007D
:103DE0001A43CFE710230D001A43CBE753460D00CB
:103DF0001A43C7E780235B000A9A68781A430A923D
:103E000001310D0067280AD82428A3D90300253BD7
:103E1000DBB2422B9ED80D9A9B00D3589F460100DF
:103E20006939C9B20F2995D801238B409C46934B21
:103E3000994663464A4613400C9362464B461A42E3
:103E400000D05EE20A2900D124E1072982D10B9B30
:103E500002CB9846002900D19BE121200A9A024317
:103E6000914610AB9C461F220F23404662440B959F
:103E70009C46A04615000C9B0A9002E0202B0CD01B
:103E8000110064460C4020003730092C00D8073858
:103E90000133E8540A090F29F0D80C930A9B4446D1
:103EA0000B9D984685E1002398460A9B45469C4613
:103EB00000E00131AB005B195B001D180878303D54
:103EC0000300303B092BF4D963460A930023A8462C
:103ED0009A460D0001312E2800D06EE780200A9A04
:103EE000C00002430A9230225242944668780B0086
:103EF00084446246092A00D82EE12A2800D13DE1F7
:103F00000D00013159E7DA46A146B346B846C84527
:103F100003D801235B424344994643464A465146EF
:103F20000020D847200021B0F0BCBB46B246A946CD
:103F3000A046F0BD0B9B04CB9046002A04DB6878BA
:103F40000B930D00013133E70A9A283802430A9295
:103F500042465242687890460D000B93013127E7A4
:103F6000672800D1C7E1472800D114E2452800D1D5
:103F700016E20A9A0721049242460B9B03920733EA
:103F800052468B43190002920CC9300000920193F3
:103F90000B9122003B005946FFF7A6FA0400E0E629
:103FA00080239B0028E76878682800D11BE28023E3
:103FB0000A9A01311A430A9223E768786C2800D1E3
:103FC00009E280230A9A5B001A430A92013118E73A
:103FD000462800D18AE10A9A0721049242460B9BA7
:103FE0000392073352468B43190002920CC93000EA
:103FF000009201930B9122003B005946FFF7A6FC6B
:104000000400AEE6631C984622003B00594625207A
:10401000B0474446A5E60B9B04330C93631C9946BA
:104020000A9B9A0700D4E7E10B9B220018785946B7
:104030003B00B04743464444012B00D8B8E22B0074
:10404000B84625005F464C46994622004346013457
:1040500039002020B047AC42F7D12C00BB464D467A
:1040600047460C9B0B937CE6113D0010680E002028
:1040700000B0001090B0001044B00010419000005B
:10408000DC4B28789B4600239946002800D058E650
:1040900000243CE70B9B02CB12930B789C46180044
:1040A0005346002B00D09CE0002812D002235B4234
:1040B0000133994689444A460B008946110001E0C4
:1040C0008B4203D05A780133002AF9D149465B1A52
:1040D0000C938023DB0099460A9A13400B934B46BE
:1040E0001A4204D00C9B534501D953460C9302232A
:1040F00099460A9A13400A934B46134200D1B5E100
:104100006346002B00D197E10B9B002B00D14CE1C3
:10411000D1460B1B9A462B00A1444D462200B946BE
:104120005F469B4609E04B463900541CB047534656
:10413000185D002800D158E122009542F3D15B467A
:10414000BB464F46A9461D004C460A9B002B00D09B
:1041500072E1129B0B9304E655460A9AA90049198D
:10416000490001330D181878303D01003039092914
:10417000F4D9AA460A921D00591C1EE60B9BA8788A
:1041800004CB0235D143C9170A4092460B93691CF0
:1041900013E60A9B10211A008A43100011310843CC
:1041A000814680201A00C00002401100034200D165
:1041B00057E64B460822069353460592083203926F
:1041C000002204930C9B0292019318AB22000093EF
:1041D00059463B003000FFF773F8434604000B9349
:1041E000BFE5002800D174E75346013B60E7622831
:1041F00000D1DFE1582800D1ECE10A9980230A00C0
:10420000DB001A4010000A00194200D1BDE1112361
:104210009A430C920C9A802311009B0019408C4603
:104220001A4200D046E1802311005B001940894604
:104230000B9904310A911A4200D08FE213005B06F9
:1042400000D59EE113001B0600D426E30B9B002241
:104250009B5ED9175A184A4092B2D90F0B91002B86
:1042600000D177E2100010AA944642461F23129212
:1042700052466344AA4614944D460400B946B046DB
:104280001F00139201E0202D0FD020000A21FDF71E
:10429000D5FF01357E193031317020000A21FDF73C
:1042A000CDFF26000400092EEDD8129B4646984605
:1042B000139B4F46A94655469A46149C0C9B069361
:1042C00043460593534604930A2303930B9B02939F
:1042D0004B46019318AB2200009359463B00300037
:1042E000FEF7EEFF0A9B04000B933AE520230A9A9F
:1042F0001A430A926FE680230A9A1B011A430A9214
:1043000037E6782800D0AFE10A9880230200DB006E
:104310001A4011000200184200D1D0E20D239A4346
:10432000100003330A93802302009B001A40944636
:10433000184200D0ACE1802302005B001A40914695
:104340000B9A04320C92184200D04AE2430600D481
:1043500093E20B9B1B780893002B00D04BE11033AA
:104360009843002900D146E100239946434605932E
:10437000534604930A9B06900393002302934B46F3
:10438000019318AB2200009359463B003000FEF722
:1043900097FF040065E680230A9A1B011A430A92DC
:1043A00020230A9A1A430A92E3E50B1B9A460C9BB8
:1043B00099462B005D469B4622003B002900B047F2
:1043C00053460134185D0028F6D14B460C935B46EA
:1043D000AB461D00B9E6C0239B000A9AA8781A4391
:1043E0000A92E91C0DE5C023F7E75D46BB464F4640
:1043F000ABE6C0462D3200104346012B00D8D1E079
:10440000631E4344B9461D005F46A2468B46220008
:104410004B46013439002020B047AC42F7D15D460D
:10442000BB464F46A14654460B9B4A461878594610
:104430003B004444B04714E60C9BA146984500D885
:1044400087E64444E41A2B00B84625005F464C46F4
:10445000994622004346013439002020B047AC423F
:10446000F7D12C00BB464D46474672E60C98804576
:1044700000D81CE243461A19131A99462B004D46E0
:10448000B9465F469B460C9122004B4601343900E9
:104490002020B047AC42F7D143460C9901330C932E
:1044A0000B785D469C46BB464F466046002800D0D0
:1044B0002AE64EE607220B9B0733934301329446CC
:1044C0009C4462460B920CCBD90F0A911100194300
:1044D0005FD0D9171191109151400E911199594007
:1044E0000F910E980F99109A119B801A99410E9076
:1044F0000F9110AA002394464246994612925246C2
:104500001F336344B046AA464E461494B9460E9CE7
:104510000F9D1F00139201E0202E10D020002900D3
:104520000A220023FDF7C8FE013630322B00BA55AF
:104530000D0022000400002BEED1092AECD8129BBA
:104540004F46B14646469846139B0E940F955546E6
:104550009A46149C0C9B069343460593534604933A
:104560000A2303930A9B02934B46019318AB220044
:10457000009359463B003000FEF7A2FE0400FFF70F
:10458000F0FB0B9B1B781A0067E610239A430C92F2
:1045900040E6002399460028DCD1002200230E9239
:1045A0000F93A6E70B9B2200187859463B00B047B3
:1045B0004C4656E50A9880230200DB001A401100A1
:1045C000184200D15FE102000D239A430B3B10001B
:1045D0000A93A8E60A9880230200DB001A40110023
:1045E0000200184200D166E10D2320209A430333D4
:1045F00010430A9397E66123820600D54123DBB27C
:104600000A3B0B93434610A91F228C461293534634
:104610006244AA46149415974C468046B14617004A
:104620000A9E089D139308E03033DBB201343B55FA
:10463000B5420ED3202C0CD0050031002800FDF728
:10464000FDFDCBB20929EFD90B9A94466344DBB246
:10465000ECE7129B40469846139B4E465546A146B2
:104660009A46149C159F81E66F2800D037E10A997D
:104670000C230A009A43802310000A00DB001A4032
:1046800011000A9A1A4200D021E108230A934AE64F
:104690000B9AFA3BFF3B07329A4301339C46944402
:1046A00063460B93136852680893134312921A1EC1
:1046B00005D10023103299469043002941D161224F
:1046C000810600D54122D2B20A3A0C92424600231A
:1046D00010A9139252468C46994614921F330A9A97
:1046E0006344AA46159417964C469046B946089ED0
:1046F0001F00129D16900AE03032D2B2002301341E
:104700003A55AB4211D0202C11D006000D00424684
:10471000002330002900FDF7CFFDD2B2092AEBD9E2
:104720000C9B9C466244D2B2E8E7B045EBD9139BA0
:1047300055469846149B4F469A46A1461698179E92
:10474000159C43460593534604930A9B0690039396
:10475000002308E7002800D0B0E584E50B9B1B6828
:10476000DA0F1100002B00D194E0DA1798185040AE
:1047700010AA914642461F23129252464B44A0462D
:10478000AA4614970400B14665461F000B91139288
:1047900001E0202D0FD020000A21FDF74FFD01354B
:1047A0007E193031317020000A21FDF747FD2600C7
:1047B0000400092EEDD8129B444698460B9BAC464C
:1047C0001900139B55464E469A46149F0C9B029126
:1047D000069343460593534604930A230393634683
:1047E00077E50B9B1B680893002B03D1103398438C
:1047F000002937D16123820600D54123DBB20A3B71
:104800000B93434610A989461F22129353464A44EC
:10481000AA46B14614941597644680461700089D31
:104820000A9E139308E03033DBB201343B55B542A6
:104830000ED3202C0CD0050031002800FDF7FEFC23
:10484000CBB20929EFD90B9A94466344DBB2ECE76B
:10485000129B40469846139B55464E469A46A446A0
:10486000159F149C43460593534604930A9B069058
:10487000039300230293634682E5030613D50B9B43
:104880001B88089368E502000C239A430A3B10003A
:104890000A9348E5002899D16AE70B9B1B68D91752
:1048A0005A184A40D9E40B9B1B68089354E503004F
:1048B00001330C93F9E520230A9A1A430A920C2338
:1048C0000A9A00219A43043310000A932BE50A9BAD
:1048D0000C9308230A930D230C98984323E5102387
:1048E0000A9A9A430C9269280AD10A9980230A00ED
:1048F000DB001A4010000A00194200D18AE486E465
:104900000A991C230A009A43802310000A00DB0046
:104910001A4011000A9A1A4202D10A230A9302E5A8
:104920000A230A93D7E7C0460EB4012230B584B0FB
:1049300007AC08CC064D01000094280052420394B5
:10494000FFF7E6F904B030BC08BC03B01847C04616
:104950002532001000B585B003910121029000932B
:10496000034813004A4202A9FFF7D2F905B000BD7F
:10497000D93400100FB430B50C4985B008AA08CA64
:104980000D680392002D0CD000920122084C524277
:10499000200002A9A847012005B030BC08BC04B023
:1049A0001847180000F00EFA0020F5E7680E002006
:1049B000C934001010B5094A0300146884B0002CF3
:1049C00008D0012200910648524203A9A0470120C5
:1049D00004B010BD00F0F6F90020F9E7680E0020E1
:1049E000C934001000BEFDE7094A03001068002822
:1049F00005D00849C3188B4207D813607047064892
:104A00000449C31810608B42F7D901204042F5E7F2
:104A1000540E002000000420A80E002010B5FFF75F
:104A2000E1FFC04630B50D0083B01900002A0BD05D
:104A3000074B084C0192009302002B002000FFF767
:104A400099FF0120FFF7CEFF034B1A00F1E7C046A4
:104A5000F0B1001000B200103CA7001070B5FDF7D7
:104A6000EDFA074D074EB54209D20024013E761BF0
:104A7000B60808CD984723000134B342F9D170BD80
:104A8000CCA50010D0A50010030010B5080011003F
:104A90001B68984710BDC046F0B5C64600B5437DBB
:104AA00007000D001600002B38D0002A2EDD002153
:104AB0006A1E90466A5C037D4C1C00200A2A0CD0BA
:104AC000A64216D043461B5D21000D3B5A4253417E
:104AD0006A5CDBB24C1C0A2AF2D1002BF0D1814275
:104AE00017DC022110483B689847A64207D02000F7
:104AF000E8E7864203DD311A3B6828189847AD196C
:104B0000013D2B780D3B5A4253413B7580BCB84662
:104B1000F0BD091A3B6828189847E2E703681100BE
:104B200028009847F2E7C04630B20010F0B5C646FC
:104B30000B6806000C0000B5802B06D05A1C2260C2
:104B4000E418267180BCB846F0BD0F4B1D68002DDF
:104B500016D00B1D98460D4F02E02D69002D0FD089
:104B60002B68002BF9D03B68002B01D0AB42F4D16D
:104B7000280041462268FFF78FFF2D69002DEFD1F5
:104B800001220023DBE7C046480E0020500E002023
:104B9000F0B5DE4657464E464546E0B585B01700AF
:104BA0001C0006000D00FCF797FF0023314A121885
:104BB0004B41802109068B4202D301222E4B5242E7
:104BC0002E4908008A4605F0DBFC01906B1C03D1DE
:104BD000300002F045FA0500002C26D0284B9846FC
:104BE000284B1C68002C15D0002F21D1264F02E045
:104BF0002469002C0ED02368002BF9D03B68002BD1
:104C000001D0A342F4D120002A003100C04724691A
:104C1000002CF0D1019B002B28D1280005B0F0BC5E
:104C2000BB46B246A946A046F0BD184B9846D7E70A
:104C3000154B994602ABDF1D0A239B4602E024690F
:104C4000002CE7D02368002BF9D04B461B68002BC3
:104C500001D0A342F3D12A0031002000C0475B46B7
:104C60000122390020003B70C047E8E7504605F0BC
:104C70006FFCD2E740420F00FFFFFF7F900800204B
:104C8000994A0010480E0020500E0020894A00105A
:104C900000207047F0B5CE464746040080B583B08B
:104CA000FCF71AFF26000027802336184F411B0609
:104CB0009F4202D30126194F7642194BB9469846B6
:104CC000184D43461C68002C03D116E02469002CC3
:104CD00013D02B68002B01D0A342F7D1A368002B7F
:104CE000F4D0012101A898470028EFDD6B46187920
:104CF00003B0C0BCB946B046F0BD0B4B5A6A9145F3
:104D000007D89B6AB34202D302204042F0E79145A4
:104D1000FAD101200021FCF7E9FED2E7FFFFFF7F77
:104D2000480E0020500E002000400540F0B5CE4651
:104D3000474680B583B06B460600DD1D2870FCF742
:104D4000CBFE00231A4A12184B41802109068B42E0
:104D500002D30122174B524217490800884605F03A
:104D60000FFC164B81461C68002C14D0144F02E037
:104D70002469002C0FD02368002BF9D03B68002B4E
:104D800001D0A342F4D1200001222900FFF784FEC4
:104D90002469002CEFD14B46002B05D1300003B025
:104DA000C0BCB946B046F0BD404605F0D1FBF5E7C2
:104DB00040420F00FFFFFF7F90080020480E0020B8
:104DC000500E002070B5040002F04AF901230100E2
:104DD000050001222000FFF7DBFE084B1C68002CB9
:104DE00006D06368002B05D098472469002CF8D1C1
:104DF000280070BD2469002CF3D1F9E7480E00208B
:104E0000F0B5CE46474680B5A3B004000D00FCF7D0
:104E100063FE0023294A12184B41802109068B4268
:104E200002D30122264B5242264F380005F0A8FB40
:104E300000230600019322002B00234801A9FFF75D
:104E400089FD019B8046002B14D1204B1C68002C4F
:104E500006D06368002B0BD098472469002CF8D14A
:104E6000002E25D1404623B0C0BCB946B046F0BDA7
:104E70002469ECE7154B1D689946002D1CD0144C95
:104E800002E02D69002D0FD02B68002BF9D023688C
:104E9000002B01D0AB42F4D12800019A02A9FFF700
:104EA000FBFD2D69002DEFD14B4601951C68CEE727
:104EB000380005F04DFBD5E70195D1E740420F00E2
:104EC000FFFFFF7F900800202D4B0010480E0020B0
:104ED000500E00200FB400B583B004A901C90191A0
:104EE000FFF78EFF03B008BC04B0184730B5002AA6
:104EF00028D003000B439B0713D1032A11D9134D6C
:104F00000BE0043A002A1DD0114C1C199C432C4282
:104F100018D104300431032A03D903680C68A34272
:104F2000EFD004780D78A5420ED1012A0AD00123D2
:104F300006E0C45CCD5CAC4206D101339A4201D09C
:104F4000002CF6D1002030BD601BFCE78080808003
:104F5000FFFEFEFE0EB430B581239CB06A461FAC46
:104F60009B0020CC93820290069002F079F80B4BC4
:104F70006A460A9300230E931393013BD382084B96
:104F8000039007902A00186802A92300019400F0FA
:104F90000BF81CB030BC08BC03B01847A54F00107C
:104FA0006C07002000207047F0B557464E46DE469D
:104FB0004546E0B5654C0E00A54402AFBB63B8653D
:104FC000FA650C23CA5E80239B011A4205D1134364
:104FD0008B815F4A4B6E13404B66602008231B1881
:104FE000D81908220021FEF711F900239A467B62A6
:104FF000FB643B627B64BB64564B3B65564BFB6377
:10500000564BFB6253467B65E4233A6DD45801F05E
:1050100059FF602108225218D2190092043103006E
:10502000FA6DB86D7918A047002827DBFB6D0500E5
:105030009C4684446346FB657B6E002B59D0012857
:105040002CD0252B34D00028DED0796DFA6D441891
:10505000A0460C00521A7368551B002B39DD3268CC
:105060002B5D1178994244D173680132013B0134C0
:10507000736032604445F0D17C65C5E7384B6020F1
:105080007B6608231B18D81908220021FEF7BEF8FA
:10509000FB6D0133FB657B6E002B2AD0FA6AD25C74
:1050A000120701D500F0DAFD01250120252BCCD116
:1050B000FB6D00241A78002384469A46FB6D591C28
:1050C0001300253BDBB2552B33D8F86B9B00C3583C
:1050D0009F463100B86D04F097FB0028BFD0BB6C31
:1050E000002B01D101F067F9B3895B0601D501F00E
:1050F00062F9FB6C002B05D0FB6C1868002801D00E
:10510000FEF778F8BD46B86CB9239B009D44F0BC0F
:10511000BB46B246A946A046F0BD2307E9D1FB6DC8
:10512000F9655A78FB6D591C1300253BDBB2552BF2
:10513000CBD9FB6C002BE0D1E4E72307D9D10223C4
:105140001C43FB6DF9655A78B8E7C04614FDFFFFB4
:10515000FFDFFFFF000600203CB2001075B6001014
:10516000FDFF000001231C43402300251C43F9657B
:105170007368002B00DCDFE0630600D4E6E0032D5B
:1051800000D111E1042D00D1F4E2012D00D11AE289
:10519000022D00D046E15346002B01D1013B9A4637
:1051A000102323401A007B63E30701D400F073FD52
:1051B000002A01D000F03BFFBB6B04CB934698461E
:1051C000240601D401F06FFA002A00D191E7802073
:1051D000FDF7ECFF8146002801D101F0ECF85B46B9
:1051E0001860FB6CDA883A649C88A24201D301F013
:1051F00034F918683A6CF96C531CCB805B46950007
:105200002B504346BB634B463B6320233B643368D0
:10521000A84A1B78D35C1B076FD400253A6001F0C5
:1052200051FEA84200D15AE7902149008C46C0396E
:105230008846B844C444614633686C1C1A7801330C
:105240004A55726833603B6A013AB9627260032B57
:1052500001D001F05BF9182360229B18DD19BB6FA8
:10526000042B04D0082200212800FDF7CFFF009571
:1052700023004946BA6AB86D01F0F6FD3862431C56
:1052800000D12CE7002801D001F0C7F94A46106090
:10529000002004F00BF9002801D001F07BFA7B6DAF
:1052A0009C46A44463467B6501235B429C46E244E2
:1052B0007B6B002B01D001F0E5F904339C465B4683
:1052C000E144002B01D101F0DDF94B463A6B00259A
:1052D0009C1A3A6CA310934201D301F07EFA7368D2
:1052E000002B01DC01F028FA33683A681B78D35CA4
:1052F0001B0702D45346002B91D17B6B002B00D0AF
:1053000082E64A4613605B46002B09D04B463A6B57
:10531000991A8B103A6C01339A4201D901F04FF976
:10532000BB6C0133BB646FE601231C437368022529
:10533000F965002B00DD1FE73100B86D04F064FA59
:10534000002800D0CBE6630600D518E7326859493B
:105350001378CB5C1B0700D411E70823AB46A046AB
:1053600099460D007C6D06E04946013232601378A3
:10537000EB5C194212D073680134013B7360002B5F
:10538000F2DC3100B86D04F03FFA002800D0A6E648
:10539000494632681378EB5C1942ECD15D467C6576
:1053A0004446032D00D0EDE6D8231B011C43534691
:1053B000AE220021013B8B465200934205D93E4B61
:1053C00053449B465E23FF339A460023994621337C
:1053D000FF339C46C03B9846B844C4446346BB6216
:1053E000364B55469846E246326811780B002B3B07
:1053F000DBB24D2B00D9ADE340469B00C3589F461E
:1054000001231C432E4B03257B620A23F9657B6431
:10541000AEE601231C432B4B03257B620823F96571
:105420007B64A5E65346D046002B01D10133984654
:10543000102323409B46E30701D400F086FC5B4623
:10544000002B01D000F0CFFDBB6B04CB9946BA63B3
:10545000240601D401F01FF9002A00D149E680207A
:10546000FDF7A4FE8246002801D100F0A4FFBB6B2B
:10547000FA6C1860D18839649388994201D301F09D
:105480000EF810683A6CF96C531CCB809300BA6B21
:105490001A5053463B6320237B63902360225B00BA
:1054A0009B18DC195B4600253B644B46A946BB6252
:1054B0003D6A2FE075B60010A3FEFFFF94B3001005
:1054C00065870010018F00107B6D5B447B650123B5
:1054D0005B429C463B6CE044002B5ED1524613601D
:1054E000BB6B002B09D053463A6B9B1A7A6B9946DB
:1054F0009B10934201D300F084FE04239C460023BA
:105500009946E2447368002B4CDD4346002B01D1E1
:1055100000F070FF01F0D6FC484500D1DFE5012224
:1055200033684A4493461A78013333601823494656
:10553000994648339C4662547268BC44013A726092
:10554000E144032D02D1BB6F042B04D008220021BB
:105550004846FDF75BFE4B46009322005B465146F2
:10556000B86D01F081FC0500431C00D1B7E50028AF
:10557000AAD0831C01D100F02CFE7B6D5B447B65BF
:10558000032803D14B461B68042B03D001235B4245
:105590009C46E0443B6C002BA2D0002399467368E4
:1055A000002BB2DC3100B86D04F02EF90028ACD02D
:1055B0003D624D463B6C9B46BB6A9946002D01D12E
:1055C00000F01DFF8BE55346002B01D1013B9A46AD
:1055D000102323401A007B63E30701D400F0FBFB98
:1055E000BB6B9846002A01D000F0F5FC04CB98462E
:1055F000BA63240601D401F05EF8002A00D178E5F0
:105600008020FDF7D3FD051E01D100F0D4FEBB6B59
:105610001860FB6CDA883A649C88A24201D300F0DF
:105620002DFF18683A6CF96C531CCB809300BA6B51
:10563000BD621A5020233B6300244346D346FB61DE
:10564000AA4625003C6A54E05346002518606020B5
:1056500018231B1808220021D819FDF7D7FDE023D5
:105660003A6D6021D258C83B3A6460229B18B86DED
:105670002A00DB193D6C7918A8470025012802D1C2
:105680006023FB181D78202360229B18DB195B5DCB
:10569000002B01D101F016F87B6D4B447B65032C88
:1056A00001D100F06CFD01235B429C46E3447B6B1F
:1056B000002B01D000F02EFD04339C46BB6BE2446E
:1056C000002B01D100F026FD5346BA6A00259B1A33
:1056D0003A6B98469B10934201D300F080FD7368AB
:1056E000002B01DC00F01CFD5B46002B01D100F01B
:1056F0008FFF01F0E7FBA84200D1F0E433686A1C99
:1057000091461A7801333360102390216020984627
:1057100050339C4649000918C9194A557268BC445F
:10572000013A7260E044032C02D13B6F042B04D099
:10573000082200214046FDF769FD90224346602182
:105740005200009352184B465146B86DD21901F0E1
:105750008BFB0400431C00D1C1E4002800D173E797
:10576000831C01D100F038FD53461D686B1C00D02E
:105770006DE788E7B86D01F0ADFB0368AE22FB6111
:10578000F023DB00234399465346013B52009342EA
:1057900001D800F061FD5D3BFF3BFB605E23FF3302
:1057A0009A46002398463B643B617B613B63BB6147
:1057B0002133FF339C46C03B9B46BB44DC446346DD
:1057C000C346E046BB62D44B7C6D7B633268117884
:1057D0000B002B3BDBB24E2B03D8786B9B00C358DE
:1057E0009F464B469B0569D5F86903788B4265D186
:1057F00053467B6043467B654B4600258046BB6035
:1058000006E043460132326011785B5D99421AD15D
:105810004346AA4601355B5DA1460134002B01D108
:1058200000F001FD7368013B7360002BE9DC31007F
:10583000B86D03F0E9FF002805D1434632685B5D8F
:1058400011789942E4D04B467D6D7B65BB68D846A4
:105850009946D3465446AA46FD69295D3200B86D83
:1058600003F094FF013CF8D25A467B6D55469B1AD3
:105870007B6526E04B461B0520D53B6C5B44002B2B
:105880001CD14A46A54B1A40002391469B463B64D7
:105890004346197001235B429C460233E2449C4616
:1058A000E04473680134013B7360002B00DC2BE1A2
:1058B0003368013333605346002B87D14546D846C1
:1058C0007C653B6B002B00D005E13B6C013B012B61
:1058D00001D800F070FF4346013B062B01D800F0D1
:1058E00013FD4B46DB0520D54B465B0501D500F08B
:1058F00085FF7B6D6C1E21785A1E904665290DD060
:1059000045290BD03200B86D03F040FF022252420D
:1059100094467B6DAC1E6344984621783200B86D86
:1059200003F034FF434625007B6510234A46494671
:105930001A400B4201D0FFF767FBC0232A70802278
:10594000DB000B40D200934200D1F4E27B69002BD4
:1059500001D000F08DFE0022B96AB86D02F00AFD98
:10596000BA6B0400131D98464B460D00DB0701D4AB
:1059700000F0F7FC13681C605D60BB6C0133BB6416
:105980004346BB63FFF740FB5B46072B96D10823DA
:105990009B467DE798234A461B0113408022520014
:1059A00093428BD13B6B012B88D14A465C4B1A400A
:1059B0001300802212011A4391463023424613708D
:1059C000313B9C460233E2449C460023E0443B6367
:1059D0005EE75B46062B00D070E707239B4657E740
:1059E0004B461B0500D469E7A0224B46D20013406A
:1059F000013AFF3A934206D04B46134200D15DE78D
:105A00003B6B002B4FD04B469B0505D43B6BBA69D3
:105A10009B1A7B6143463B614A46424B1A40130046
:105A2000C02252001A43002391463B6330E73B6C8F
:105A3000002B00D061E23B6B002B07D1E0234A46EC
:105A4000DB001A409A4201D100F091FE5B46012B27
:105A500002D0042B00D031E75B460133DBB29B461A
:105A600016E74B461B0500D54EE23B6C012B00D0E0
:105A700024E702233B640BE780234A46134200D10C
:105A80001CE79A43914603E75B46002B00D02BE2CC
:105A90003B6B002B1CD1E0234A46DB001A409A42A4
:105AA00001D100F05CFE002345467C65D8463B638F
:105AB0000BE74B461B0500D510E25B46022B00D0DE
:105AC000FCE603239B46E3E64B461B058CD5D4E658
:105AD0004546D8467C654A46114B1A409146F4E645
