:020000041000EA
:1000000000B5324B212058609868022188439860DF
:10001000D860186158612E4B002199600221596106
:100020000121F02299502B49196001219960352056
:1000300000F044F80222904214D00621196600F024
:1000400034F8196E01211966002018661A6600F04E
:100050002CF8196E196E196E052000F02FF8012189
:100060000842F9D1002199601B49196000215960AB
:100070001A491B48016001219960EB211966A021F2
:10008000196600F012F800219960164914480160C1
:100090000121996001BC002800D000471248134993
:1000A000086003C880F30888084703B5996A0420EC
:1000B0000142FBD001200142F8D103BD02B5186610
:1000C0001866FFF7F2FF186E186E02BD00000240BE
:1000D000000000180000070000035F00212200005C
:1000E000F4000018222000A00001001008ED00E03C
:1000F00000000000000000000000000074B24E7A12
:1001000000200420F7010010C3010010C5010010F9
:10011000C1010010C1010010C1010010C101001097
:10012000C1010010C1010010C1010010C701001081
:10013000C1010010C1010010C9010010CB01001065
:10014000CD010010CD010010CD010010CD01001037
:10015000CD010010CD010010CD010010CD01001027
:10016000CD010010CD010010CD010010CD01001017
:10017000CD010010CD010010CD010010CD01001007
:10018000CD010010CD010010CD010010CD010010F7
:10019000CD010010CD010010CD010010CD010010E7
:1001A000CD010010CD010010CD010010CD010010D7
:1001B000CD010010CD010010CD010010CD010010C7
:1001C00000BE00BE00BE00BE00BE00BEEFF3058054
:1001D000103800BEF2EB8871F44A0010144B001086
:1001E0003802001090A31AE71E481F49086006C88D
:1001F00081F3088810471D480068002801D019487D
:10020000F3E70DA40ECC002902D000F012F8F9E7B4
:100210001749184A002000E001C19142FCD116495B
:100220008847164988471649884700BEFDE701C937
:1002300001C29A42FBD37047144B0010C00000204B
:10024000F0010020444C00100000042000000420B5
:10025000444C001000100420001004200000000096
:10026000704700000000000008ED00E0000000D032
:10027000F0010020DC0500203D3D0010D5020010FB
:10028000353D0010F8B5C04606480749091A8B10DD
:10029000C90FC91810B5491003D0044B002B00D06A
:1002A000984710BDF0010020F00100200000000080
:1002B000054B10B5002B03D00449054800E000BFF2
:1002C000FFF7E2FF10BDC04600000000AC050020B3
:1002D000B8440010F0B5DE4657464E464546E0B5F8
:1002E00089B003F045FEFA20C00000F0F5FE444856
:1002F00003F08CFE434C4449200004F02FF8032106
:10030000042000F0DFFA0321052000F0DBFA0022D0
:100310000121042000F0F0FA00220121052000F064
:10032000EBFA3A4803F072FE200000F019F90028B9
:100330005AD0102000F080F8022000F0C7F83448AE
:1003400003F064FE04AB9C460E27324B67449B4689
:10035000314B07AE0393314B0593314B04930CE0C3
:100360000022304B03980092019322002B0003F0EF
:10037000D5FEFA20C00000F0AFFE3900300000F0DA
:1003800093F900282CD03988308800F041FA33885E
:10039000804699463B889A4602F0ACF852464B4656
:1003A00004000D009B1A49465846009401959BB2E3
:1003B00003F0B4FE40461C4902F06AF80028CFD191
:1003C00040461A4902F06AF80028D2D00022184BA1
:1003D00005980092019322002B0003F09FFEC8E7CE
:1003E000049803F013FEC4E7124803F00FFE012047
:1003F000404209B0F0BCBB46B246A946A046F0BD9B
:10040000B8440010E0010020A0860100D84400108C
:100410002C4500104845001084450010C0450010D0
:10042000FC450010000034400000A04100007A4468
:1004300000408F4000450010F0B5C64600B584B0BE
:100440006B46A1271F7301231C4E0500292130682C
:1004500003AA009303F0ACFF012807D0184803F06B
:10046000D5FD002004B080BCB846F0BD0B240023AD
:100470006C4498463068220000932921013303F030
:10048000A1FF0128EAD130222378306893436A46DD
:100490002B4353732370434617732921009303AAF8
:1004A000023303F085FF022803D1064B01201D70A3
:1004B000D8E7054803F0AAFDD3E7C046A40500200D
:1004C000284600109901002054460010F0B5C64699
:1004D00000B584B06B46A1271F7301231C4E050095
:1004E0002921306803AA009303F062FF012807D096
:1004F000184803F08BFD002004B080BCB846F0BD66
:100500000B2400236C449846306822000093292174
:10051000013303F057FF0128EAD10722237830681E
:1005200093436A462B435373237043461773292121
:10053000009303AA023303F03BFF022803D1064BCA
:1005400001201D70D8E7054803F060FDD3E7C046E1
:10055000A4050020284600109801002054460010F1
:10056000F0B5CE46474680B585B0B2236A46434CC7
:100570001373B13B20602921009303AA03F018FFF5
:10058000012809D03E4803F041FD0024200005B0B9
:10059000C0BCB946B046F0BD00260A22206801233F
:1005A000292100966A4403F00DFF05000128E9D1D6
:1005B0006B46997A502903D0324803F0AFFDE4E747
:1005C000A0236A4620689381292100969E3B03AAB6
:1005D00003F0EEFE022841D12B4F20683B78292101
:1005E0009946A12398466B4642461A73012300950B
:1005F00003AA03F0DDFE012806D0244803F006FD1F
:10060000234803F003FDC0E70B256D442068012358
:100610002A002921009603F0D5FE0128EDD13022D1
:100620002B78414693434A4613436A462B70117315
:100630005373206802232921009603AA03F0B8FE11
:10064000022817D14B463B70124B1878FFF73EFF3C
:10065000041E0BD0104803F0D9FC97E70F4C200084
:1006600003F0D4FC200003F0D1FC8EE70C4803F02B
:10067000CDFC8AE70B4803F0C9FCC1E7A4050020C4
:1006800080460010A4460010990100202846001062
:10069000F04600109801002034470010CC460010AE
:1006A0000C47001054460010F0B5E82385B06A46A8
:1006B0009B00938100234E4C06000D0020682921E9
:1006C000009303AA023303F073FE02281CD1494BA6
:1006D0006C301B78052B03D8474A5B00985A0A30C8
:1006E00000F0FAFCB4236A461373B33B2068292157
:1006F000009303AA03F05CFE01280CD03F4803F0EE
:1007000085FC002005B0F0BD3D4803F07FFC3D486E
:1007100003F07CFCF5E700270123206829210097DE
:1007200002AA03F04FFE03000128E7D1B522694673
:1007300020680A732921009303AA03F039FE0128D7
:10074000DCD1092201232068292100976A4403F0A3
:1007500039FE03000128D1D1B622694620680A7308
:100760002921009303AA03F023FE0128C6D10A22FF
:1007700001232068292100976A4403F023FE030027
:100780000128BBD1B722694620680A73292100934A
:1007900003AA03F00DFE0128B0D10B22206801232B
:1007A000292100976A4403F00DFE0128A6D1A02359
:1007B0006A4620689381292100979E3B03AA03F093
:1007C000F7FD02280DD16B465A7A1B7A12021343A9
:1007D00033806B46DA7A9B7A1202134301202B8016
:1007E00090E7094803F012FC084803F00FFC88E783
:1007F000A40500209801002000480010AC4700101C
:10080000584700107C470010CC460010D04700101D
:10081000F8B5234B0C001B78052B36D8214A5B001A
:100820009F5A214B1B78202B34D0302B36D0102BE5
:1008300032D0FE25AD051D4B984224D09C4222D0DB
:1008400001F031FE061C200001F02DFE011C301CC1
:1008500001F0D5FD041C380001F02AFE144901F016
:10086000D4FD291C01F0E5FD124901F0CEFD011C6B
:10087000201C01F0CAFD0021041C01F009FE002823
:1008800001D1201CF8BD0024FBE7074B64271B782F
:10089000202BCAD1084DCEE7084DCCE7084DCAE75A
:1008A000980100200048001099010020FFFF00007F
:1008B0000000C8420000CC430000D6430000C841FD
:1008C00000501A46094A83009A1810B5146840224D
:1008D000544080322240064CC000A44663441A6053
:1008E000044B9C466044416010BDC04604C00140BA
:1008F00004D0014000400140074B8000C3181B6832
:10090000C90092000A435A400C231340034A9446FC
:10091000604403607047C04604C0014004D00140F9
:100920000FB400B5084883B003F070FB049B002BA4
:1009300007D005A91800019103F0E2F9034803F07C
:1009400065FB012003F0F4F90C480010BC450010D1
:1009500070B5EFF3108C72B60D4D2B68002BFCD0E8
:10096000BFF35F8F0724CB08C618C05C01230C407F
:10097000A3401C000440034207D118433070BFF36A
:100980005F8F2C608CF3108870BD1000FFF7C8FFDC
:100990002C0100D0044A1078431CDBB2172B00D97D
:1009A000102313707047C0469A0100200021044BA9
:1009B000044ABFF35F8F02C39342FAD17047C04627
:1009C000000100D0800100D0054B064A1360064AA2
:1009D000136053609360D3601361536193617047F8
:1009E0008080808000E400E004E400E01F231840E1
:1009F0001E3B8340002905D0C021044A49005350C2
:100A000013607047802201498B50FAE700E100E053
:100A100070B50D00EFF3108672B60F4A1368002B05
:100A2000FCD0BFF35F8F0D4B10309B6884001B59C7
:100A30000B4A934203D09D4201D000F0A1FD074B29
:100A40009B681D51BFF35F8FBFF35F8F0022024B86
:100A50001A6086F3108870BD240100D000ED00E01C
:100A6000CD010010024B9C46614489000160704733
:100A700040000034F0B5FF23C646144D144F2C003F
:100A8000984600B5BD420DD31DE0FFF783FF01007E
:100A90002800FFF7E7FF4346B380BFF35F8FBC42F8
:100AA00011D22500236826000834002BEDD1FFF772
:100AB00071FF01002800FFF7D5FF43463371BFF3F4
:100AC0005F8FBC42EDD380BCB846F0BDE80100208A
:100AD000F00100200A4B1968EFF3108072B60A6823
:100AE000002AFCD0BFF35F8F1B68BFF35F8F00222B
:100AF0001A6080F3108840BF002000217047C04674
:100B0000D8050020F0B5DE4657464E464546E0B5CE
:100B100085B0EFF3058203231340B54A9900575877
:100B200001229A4088469346B24B1A60B24B029318
:100B30005B46B24843630823FE5E002E35DABB886D
:100B40001BB2002B00DBA8E0BB79002B00D0E9E052
:100B50000823F85E00281EDB43007A691B18DB00BF
:100B6000D3189D68DC686B1C00D108E1A348010024
:100B70004144826A0B69AE1A9B1A9E4213D35A46AD
:100B8000036A1A420FD09D4800F048FB8C4202DCF9
:100B9000CED18542CCD940BF05B0F0BCBB46B246F1
:100BA000A946A046F0BD0D61EDE77A697300914654
:100BB0009B19DB0099444B469C68DD6800F02EFBD6
:100BC0008D42BCDC00D1FCE0002D00DAE1E04A46B9
:100BD0004B4652691B699246029A934200D1D2E079
:100BE0004A460821785E52880004514610439847CF
:100BF000009001910099019A0B001000134300D15D
:100C0000C7E013000A00002800DBDEE02000290016
:100C1000801A99414B469860D96000229A5E002A5A
:100C200000DA8CE753009C187D69E4002C190093CE
:100C3000A368E4689A468C4200DD80E702D18342D3
:100C400000D97CE708239C46BC443A810397674659
:100C5000009BB4463E000EE08C4200D1C3E01E0073
:100C60000023F25E002A0BDB53009C18E4002C19D1
:100C7000A768E468BA469B18DB00EB188C42EBDDF2
:100C8000330066469C464B461A806346039F1E808F
:100C9000BB881BB2002B00DA56E73A69EFF31081EC
:100CA00072B61368002BFCD0BFF35F8F0123BE88A0
:100CB0005B42BB8036B23B69BFF35F8F00221A6094
:100CC00081F31088002E00DA3EE73B0008333A003B
:100CD00099467D6973009B19DB00EB189968DC6805
:100CE0008C460820115E4846002910DB009306E080
:100CF000A34240D00023F95E3800002906DB4F00F4
:100D00007F18FF00EF19FB68A342F1DD009B06800E
:100D100000201E5E1980002EDCDA1700BB79002B44
:100D200000D115E70023BB713D000823F95E0835AB
:100D30004B1C00D12FE77C690800A44603E0350076
:100D40004B1C00D106E74B005B180A006146DB0034
:100D5000CE18C95E73881BB2002BF0DA01235B4208
:100D6000DC17B360F4608242EAD029803B8910002E
:100D700033803A81E4E7BB686345BBD9C6E7631CAF
:100D800000D0F3E6FFE6534650461B69984700281B
:100D900023D14B461B883A693B81EFF3108372B62F
:100DA00011680029FCD0BFF35F8F49467A880A801A
:100DB0003A697E80BFF35F8F0021116083F3108852
:100DC000BDE6844200D8FFE6B9E60C4800F026FAFA
:100DD000009B019CC01861411CE753461A685B6880
:100DE0000092019306E7824500D838E748E7C046FD
:100DF000C40500203C700540050B00100040054074
:100E000070B52E4C2569002D04D00A212C48FFF71F
:100E100029FE70BD2B4E0321300000F0F5F9E6608D
:100E2000FFF7B8FD284B03229C46D02322701B06F7
:100E30001B6801216370254B6044A3600F23800071
:100E400020610220638063694942A18019800231D8
:100E5000198647311D83585218315A5275325C3900
:100E6000995218320131995218320131995218327F
:100E700001319952083518329D5202311832995277
:100E80001832013199521832013199521832013118
:100E900099521832013199521832013199520C4B42
:100EA0000C49DC6001303562FFF7B2FD01210320FF
:100EB000FFF79CFD084B1D60A7E7C0469C01002082
:100EC000D80500200040054040000034FFFF10001E
:100ED000C4050020050B00103860054070B5010006
:100EE0000469EFF3108C72B620680028FCD0BFF3C1
:100EF0005F8F02200D5E4C6968004019C000241805
:100F0000002D37DB208848800869BFF35F8F0026FB
:100F100006608CF31088E3606388049801332061D5
:100F20005B0405985B0CA26060611A1C002B1FD04B
:100F300093B22804628018430A69EFF3108C72B6EA
:100F40001368002BFCD0BFF35F8F8B8823808D80CC
:100F50000B69BFF35F8F00221A608CF310880B7847
:100F600001329A40CB6808498C4663441A6070BDD0
:100F70000122DDE70B69BFF35F8F00221A608CF35B
:100F8000108801204042F2E73C20000010B5438960
:100F90000A1493421ADD53009B184269DB00D318F0
:100FA0000469EFF3108C72B62268002AFCD0BFF3FC
:100FB0005F8F5A88090494B2090C8A4208D00369E9
:100FC000BFF35F8F00221A608CF31088002010BDE1
:100FD0008022120214435C80012302698371BFF3F3
:100FE0005F8F002111608CF31088044902788C46D1
:100FF0009340C268012062441360E8E73C2000008F
:10100000F0B504000D0006267642F717C6463619DD
:101010006F4100B582B08F4214D811D000F006F9AC
:1010200032003B00121A8B41002B17DC002B47D0FB
:101030002000290000F004F902B080BCB846F0BDE1
:101040008642EBD90022002316001F0000F0EEF8C4
:1010500032003B00121A8B41002BE7DD00F0E6F86E
:1010600032003B00121A8B41002B0ADB0023019354
:10107000154B3200009315483B00FFF72FFF002867
:10108000D6DB00239C46B046114A124E736A9F423B
:1010900004D8B16A4145CBD29F42C9D11168EFF360
:1010A000108072B60B68002BFCD0BFF35F8F136803
:1010B000BFF35F8F6146196080F3108820BFE5E7BA
:1010C000002AB5D0CAE7C046D50A00109C0100200E
:1010D000D80500200040054070B5060000F0A6F8D5
:1010E000FA2204000D00002330000021920001F0DC
:1010F00069F98023001969411B06994202D3012036
:1011000002494042FFF77CFF70BDC046FFFFFF7FF2
:10111000F0B5D6464F464646C0B504000D0082B035
:10112000EFF305878946002F0ED0344900204B6A23
:10113000AB4203D38A6A0130A24226D302B0E0BC9C
:10114000BA46B146A846F0BD2D4B9846DB689A4694
:10115000434650461E7800F061F80B0051460200ED
:101160000436B600715820008E1A2900801A994161
:101170008F4211DC0ED020BF204A0020536A4B451D
:10118000DCD3926A0130A242D8D25B1B5A1E934133
:10119000D8B2D3E78642EED900F048F822002B00FF
:1011A000121A8B41002B1ADB00230193154B2200EE
:1011B000009340462B00FFF791FE011E0FDD0F4B01
:1011C0005A6A4A4517D39B6AA34212D34046FFF797
:1011D000DDFE0A4A0020536A4B45AFD3D1E7074AE8
:1011E0000020536A4B45A9D3926A0120A242A5D29E
:1011F000CBE74A45EAD120BFE8E7C04600400540BA
:101200009C010020D50A001010B5024A0248FFF7E1
:101210009FFB10BD1C480010700500200300416AB0
:101220000A00986A596A8A42FAD17047034B596A90
:101230000A00986A596A9142FAD170470040054005
:10124000064A536A9942FCD807D1044B02E05A6A15
:10125000914202D19A6A8242F9D370470040054018
:10126000F8B5DE464E4657464546E0B58B46050086
:101270000A991800160000F089FA0A9B6C001F02F8
:10128000314B64199C46A4006444636881469F42C4
:1012900000D967602B1FDBB29846C02342469B01F2
:1012A000E318012A2DD9802212011A60274BAD00C4
:1012B00059599A4600291BD17301E02622685340F0
:1012C0001E40802342465B01E3181E60012A2DD98F
:1012D000802380229B01E31812011A6053464A467C
:1012E00067605A51F0BCBB46B246A946A046F8BD5D
:1012F000586900F04BFA013043001B18033BFDD244
:10130000DAE75A46012ACED102321A60023AA368BD
:101310001A42FCD07301E0262268AD0053401E4003
:1013200080230A4A5B019246E3181E605A462168F0
:10133000514003220A401A6001225B469A40A3688A
:101340001A42FCD0C4E7C04600800040740500206B
:10135000F0B546464F46D646C0B51F00334B440055
:101360009C462418A4006444636888461600FF2B3A
:1013700002D880235B006360031FDBB29A46C02360
:1013800052469B01E318012A2DD9802212011A60CE
:10139000274B85005959994600291BD17301E02636
:1013A000226853401E40802352465B01E3181E60B2
:1013B000012A2DD9802380229B01E31812011A6093
:1013C00080235B0063604B465F51E0BCBA46B14688
:1013D000A846F0BD586900F0D9F9013043001B1848
:1013E000033BFDD2DAE74246012ACED102321A602F
:1013F000023AA3681A42FCD07301E02622688500F5
:1014000053401E4080230A4A5B019146E3181E6048
:1014100042462168514003220A401A600123424695
:101420009340A2681342FCD0C4E7C046008000404D
:1014300074050020014B8000C058704774050020DF
:10144000F8B5040020481D0017000E0000F09EF9BA
:101450000100380000F09AF9069B29041B03194388
:101460002368002B1EDB194B194DE21853425A41D9
:1014700080235B019C461203164B62441A60164B94
:101480001A6017002B689F43FBD1144B2660E218AB
:101490002123A06013602368002BFCDA0823E1609D
:1014A0001360F8BD3F2322681340B342DBD1A36829
:1014B0001B051B0D8342D6D1EE22E368D2021340F6
:1014C0008B42D0D1EDE7C046001BB7000040FDBF06
:1014D00008C0004000E0004000F000400430000080
:1014E0008023024A9B000B43D36270470080054073
:1014F000142310B50100188804331B88984710BDC9
:10150000162310B50100188802331B88984710BDB8
:10151000F8B54746CE4680B50F1E19D0142399461C
:10152000043304000025012698464B46188843469C
:1015300021681B88984701C4431E984101354042E9
:101540000640AF42F1D13000C0BCB946B046F8BD4C
:101550000126F8E7AA23064A1B0113608D235B00CE
:10156000D3600449044B19605368002BFCDA7047C0
:101570000040024000B0FA00006002407047C046E0
:1015800010B50148FFF7CCF94048001070B5074D81
:10159000074EB54209D20024013E761BB60808CD9D
:1015A000984723000134B342F9D170BD784400104C
:1015B000B4440010054B064A06491A60064A074B18
:1015C0001A6010000B689843FBD1704700E00040A0
:1015D000BFCDFBFE08C00040FE7F3C0000F0004095
:1015E000044BDB6C002B03D18022034BD2021A6028
:1015F0007047C046000011504C201150044A054B62
:101600001A60054A1368DB018033FBD17047C0467E
:10161000FFFFFF0100F0004008C000404022034BE4
:101620009A675A671A67DA667047C04600F0014049
:1016300010B5FFF7BBF910BD70B5044D044CA96897
:10164000C022200000F0C8FFAC6070BD00ED00E0DB
:1016500000000020002310B5294C82B0A367FFF7DB
:1016600079FF0122274B1A60636C012BFCD1032206
:10167000254B1A60224A936B012BFCD10133009356
:101680000121224A22480433FFF7DAFE0523012113
:101690000093204A2048FFF7D3FE002202210420B5
:1016A0001E4BFFF755FE0022012105201C4BFFF7C2
:1016B0004FFE0022002107201A4BFFF749FE0022AF
:1016C00000210820174BFFF743FE8023DB00009327
:1016D000002200210920134BFFF7C2FD0022104B0E
:1016E00000210620FFF734FE0420FFF7A3FE0E4979
:1016F00000F04CF801000020FFF7F2FE02B010BD30
:10170000008000403CB0004030B00040002F6859DD
:1017100000800240008C864700C00240001BB700DA
:1017200040597307006CDC0240420F00014804215D
:10173000014B1847C001002011150010124A936F89
:101740009B0815D29066D166002905D0FFE7FFE718
:10175000FFE7516F106F704704B580210906C2176B
:101760005140002800D0C84302F076FE002104BD9D
:10177000F0B5146E556E576F166FFFF7E3FF1466E2
:10178000556657671667F0BD000000D0114A936F89
:101790009B0813D210665166002905D0FFE7FFE7CA
:1017A000FFE7516F106F704704B5002801D000208B
:1017B000C04302F051FE002104BDC046F0B5146ED6
:1017C000556E576F166FFFF7E5FF1466556657673E
:1017D0001667F0BD000000D094464A4A926F920806
:1017E000624601D228E0C046F0B5464E346E756EB2
:1017F000776F366F00F020F89446424A14665566BB
:10180000576716676246F0BD94463E4A926F92084B
:10181000624601D254E0C046F0B53A4E346E756E61
:10182000776F366F00F04CF89446364A146655666A
:10183000576716676246F0BD002B24DB11D00029E4
:101840003EDA00B5C943404200D1013100F038F81A
:10185000C943404200D10131DB43524200D1013340
:1018600000BD002AEBD1002801D1002905D00020BD
:10187000C90FC90701D1C043410800B502F0E4FD1A
:101880000022002300BD00B500290ADBDB435242E1
:1018900000D1013300F014F8C943404200D10131B6
:1018A00000BDC943404200D10131DB43524200D167
:1018B000013300F005F8DB43524200D1013300BD93
:1018C000002923D1002B18D1002A0CD0BC460D4F83
:1018D00038667A6600210023FFE7FFE7FFE77A6FAB
:1018E000386F67467047002801D00748010000B5EF
:1018F00002F0AAFD0022002300BD02000B00002020
:1019000000217047000000D0FFFFFFFF002B00D038
:10191000BFE0130C28D1002AE7D080B4114F3966FC
:101920007A66FFE7FFE730B4040C7B6F396F1B0466
:1019300023433B667A66FFE7FFE7FFE7C04684B2D2
:101940007B6F3D6F1B0423433B667A66FFE7FFE72F
:10195000C04600232C042D0C7A6F386F00196941A2
:10196000B0BC7047000000D0F0B594460025140EBE
:1019700001D112020835140F01D112010435940F60
:1019800001D192000235D40F01D152000135D40BA0
:101990000134254F7C66254C3C660E0C93B2FFE764
:1019A000FFE7FFE73C6F6643360C7703BE467343A1
:1019B000DF0B5B04C01AB941130C7343DB18C91A5F
:1019C000CE086643360CB64493B273431F0F1B0117
:1019D000C01AB941130C73431F0B1B05C01AB94140
:1019E000860D8F023E436643360C092D24DB520AD6
:1019F0007243801A7703460A6643360C16235B1B34
:101A0000DE40DF40BF1964466643821B70460435E2
:101A100006330100D940A840C01900D30131A242C9
:101A200006D20023F0BD0000000000D0FFFFFFFF42
:101A3000121B0130F3D3F1E709277F1BFE406446F8
:101A4000A2B27243801A00D20139220C7243130CE5
:101A50001204821A99410B007046043513370100B5
:101A6000F940A840801900D30131002B02D1A242D5
:101A70000AD2F0BD013000D30131121BFAD2013B72
:101A8000F8D1A24200D2F0BD013000D30131121BC7
:101A9000F7E7F0B51C0C00D080E00CB400251C0A60
:101AA00004D11B02160E3343120208351C0B04D15D
:101AB0001B01160F3343120104359C0B04D19B000C
:101AC000960F334392000235DC0B02D192185B4132
:101AD00001351C00971864410134464F7C66464C22
:101AE0003C660E0CFFE7FFE7FFE7C0463C6F66432E
:101AF000360C7703BE4697B27743C01B00D201393C
:101B0000C01B00D201399FB27743C91BC91B170CF8
:101B100077437E04FF0B801BB941CE086643360C29
:101B20000C2D33DBB644120B1F053A431B0B97B247
:101B30007743C01B00D201399FB27743C91B170CF2
:101B400077433E043F0C801BB941860D8F023E4314
:101B5000664329277F1BFE400C3D7746AF40BF19E7
:101B600030BCA2B2ABB272437343801A9941220CCB
:101B70007243130C1204801A994102000B000137C2
:101B8000001BA941F9D2781E0021F0BD0C277F1B54
:101B9000FE4077467F0BAF40FF19E0E700245D1C55
:101BA00007D0144F7D663966FFE7FFE7FFE7FFE7E1
:101BB0003C6F95B29EB265436643401BB141150C24
:101BC0001E0C6543664336042F0C3E432D04401B18
:101BD000B141994204D202000B0020000021F0BD67
:101BE00001D19042F7D3801A994101349942F2D33E
:101BF000F6E70000000000D0FFFFFFFF4840414033
:101C0000484018B41B4B5B68FC46019308BD04DFD9
:101C1000971E001018B4174B1B68FC46019308BDB3
:101C200000DFA11E00109446134A926F920809D259
:101C3000624618B40F4BDB68FC46019308BD0CDF0D
:101C4000592100100C4AF0B5146E556E576F166F7F
:101C50006246FFF7EEFF084A146655665767166737
:101C6000F0BD18B4034B9B68FC46019308BD08DF28
:101C7000FD1F001070030020000000D0FFB5504091
:101C80004240504059404B40594000E0FFB5154F8D
:101C90004C00640D03D0BC4204D10C0314D80020C6
:101CA000090D09055C00640D03D0BC4204D11C037E
:101CB0000AD800221B0D1B0501264B4009D44B40BE
:101CC00003D58B4200D18242FFBD9942FCD19042A4
:101CD000FFBD0B43DB1803431343F5D0C943491839
:101CE000FFBD0000FF07000000B5FFF7CFFF8041F8
:101CF00000BDC04600B5FFF7C1FF01D9002000BDFF
:101D0000012000BD00B5FFF7B9FF804100BD0120F3
:101D100040054A00121804D85A00121801D80020B1
:101D200070470120704700000021002805D170474E
:101D3000C1174840401AFAD0C90713B5064B1B68B3
:101D400098470CBC441CA2401005120B0349091B08
:101D500009051943114310BDD40500201F040000DC
:101D600010B54C00620D8023D218DB00D21A5B053F
:101D70007E2A10DD9E3A13DACC170903490819436D
:101D80005242D140640001341532202A05DAD04095
:101D90000843604310BD002010BD0846604310BDDD
:101DA000C80FC018013810BD18B4044B5B6AFC465C
:101DB000019308BD24DF09230010000070030020F8
:101DC000132370B51D78012D19D014DD1F48FFF7BE
:101DD00097FB06001E48FFF793FB1E4C8022310044
:101DE000200000F0F9FB022D2DD01B48FFF780FBEF
:101DF0001A4B186070BD1A4B164CA364F5E7184BCC
:101E0000144C23606360A360E36023616361A3619A
:101E1000E36123626362A362E36223636363A36398
:101E2000E36323646364A364E36423656365A36578
:101E3000E36523666366A366E36623676367A36758
:101E4000E367A364D1E7064BA364CEE753440000E5
:101E500053460000700300204C330000D4050020DE
:101E6000651E001007B5604601880A0A0230DF2AA5
:101E7000FAD1C9B2820804D3028840880004104312
:101E800000E00068014A5050039007BD7003002035
:101E90000FB403BC0CBCF0B50124E407634000E0C0
:101EA000F0B50C0DCF0F661E3605891B640503D3F4
:101EB000C943404200D30131640D03D0661CF60AC9
:101EC00007D0E41B00207F00791C89078912803C21
:101ED00024031D0DDF0F6E1E36059B1B6D0503D3FE
:101EE000DB43524200D301336D0D03D06E1CF60A62
:101EF00007D0ED1B00227F007B1C9B079B12803DBF
:101F00002D032F1B661B58D4A446202E46DA2037FB
:101F10001400BC401D00BD40F24033412A438018EC
:101F20005941CB0F05D0C943C04300226442504100
:101F3000514162464D0D28D10D0D07D100281FD00B
:101F4000241940414941013A0D0DF9D0640006D3EE
:101F5000013000D30131002C01D140084000013A8A
:101F60000BD4941CE40A04D112051144DB07194474
:101F7000F0BDD907204B194300E0D9070020F0BD80
:101F80000029DDD1002CDBD1F0BD0132C6074008AD
:101F9000CD0728434908002EE1D0D9E73C2E29DAA5
:101FA000203E40371400BC4000D00124F2401443CE
:101FB0001A00BB401C43D317ACE7AC46202F08DA0D
:101FC00020360400B4400D00B540F84039412843A4
:101FD000A5E73C2F0CDA203F40360400B44000D087
:101FE0000124F84004430800B1400C43C117EAE75C
:101FF00010001900002494E70000F07FF0B50C0DEC
:10200000661E3605891BE60A6405640D02D0651C50
:10201000ED0A04D0002001210905803C2403A446D8
:102020001C0D671E3F05DB1BE70A6405640D02D02B
:10203000651CED0A04D0002201231B05803C24030B
:102040007740644497B484B296B27443070C7E43DD
:10205000150C6F4380B26843361802D30120000488
:102060003F183004350C00197D41844688B29AB27D
:1020700050430C0C62431F0C7C438EB27E4392197A
:1020800002D301263604A4191604170C361867412A
:1020900001BC81B29AB25143040C62431B0C5C43F5
:1020A00080B25843121802D30120000424181004EF
:1020B000130C401863412D185E410020474106BCB7
:1020C00088B293B258430C0C6343120C544389B248
:1020D00051435B1802D301210904641819041A0C36
:1020E000091862416D1856410020474118BCF90299
:1020F000720D1143F0026A0D1043ED020A0D03D177
:102100006D1940414941013B124E9B1B7600B34281
:102110000ED26D0007D3013000267141664635436B
:1021200001D1400840001B05C918E4072144F0BD57
:102130000BDA013306D1013004D101314F0D01D04A
:102140004908F2E7E1070020F0BD01363105002023
:10215000EBE70000FF030000F0B51C0D671E3F0514
:10216000DB1BE70A6405640D02D0661CF60A04D086
:10217000002201231B05803C2403D0252D060026C8
:10218000F6432E661E096E66CE0FF619B446490058
:102190004F0D02D07E1CF60A03D000200021403FE4
:1021A0003F033E1BB600B444013F7F05C91B4908ED
:1021B0002E6F013676089C02950D25437543ED136D
:1021C0007543AD1301356D10F603761B0CB4CC02CC
:1021D000450D2C43A2B2B3B25A43270C7B43350CB6
:1021E0006F43A4B26C431B1902D3012424043F198A
:1021F0001C041D0CA4187D4124196D41009A91B254
:10220000ACB26143170C7C432B0C5F4392B25A4330
:10221000A41802D301221204BF182204230C52185E
:102220007B41019C6C431B19520ED9010A434401A6
:10223000A01A81B2B2B2514303145A43360C73430D
:1022400087B27743D617D21900277E4136049B19EF
:102250001704160C7F185E417316ED18F301002663
:1022600080337541A90F06D16400690AE8055B0A4D
:10227000184309D22FE00422944480337541A90AFF
:10228000A8059B0A184326D3404149412404009ADB
:10229000019B0D005543641B4343E41A95B286B27B
:1022A0007543170C7E43030C5F4392B25A43B61832
:1022B00002D301221204BF183204330C52197B419D
:1022C00052429C41002C02D400220130514140086E
:1022D000CA071043490802B06246D7079210084B5C
:1022E000D218084B9A4203D212058918C919F0BDB9
:1022F0000020002A01DC3900F0BD01331905F5E7A3
:10230000FD030000FE070000002200B5203200F0AF
:1023100004F8080000BD000000220B150AD410B517
:10232000944600F031F81414013400DA0021CB1780
:10233000144C20470020002170476244343A0CD4EA
:102340000C2A07DA04009140904052422032D440D7
:10235000214310BDD843D94310BD203207D40C46C9
:102360009440524220321141D040204310BD080019
:10237000C917203203D452422032104110BD180038
:10238000190010BD3B2300100A0DCC0F531E1B0576
:10239000C91A520503D3C943404200D30131520D3B
:1023A00003D0531CDB0A07D0121B00206400611C01
:1023B00089078912803A1203014BD21A7047000034
:1023C000FF03000051434343C9188C46110C83B2EC
:1023D0004B4310B4040C614392B280B25043624349
:1023E0001C041B0C001910BC59411304120CC0181A
:1023F00051416144704700004840414048400E4B05
:102400005B6818470C4B1B6818470C4A936F9B0876
:1024100002D2094BDB681847F0B5146E556E576F42
:10242000166FFFF7F6FF054A14665566576716677D
:10243000F0BD014B9B68184770040020000000D0DD
:1024400007B548404140484001E0C04607B542005A
:10245000120E03D0FF2A03D1420218D8C00DC005C6
:102460004A00120E03D0FF2A03D14A020FD8C90D29
:10247000C9050122414005D4414001D5814207BD33
:10248000884207BD0143491801D0C043001807BD69
:1024900000B5FFF7DBFF804100BDC04600B5FFF788
:1024A000CFFF804100BD491A002807D10846704778
:1024B000C10FC90700D54042002817D0F44603B425
:1024C0000B4B1B68984706BC81409E3840428031C8
:1024D00007D20B0607D04900490AC005104308433C
:1024E00060470130F8E7490A8902F5E770470000C4
:1024F000D4050020034BDB6FFC4618477CDF992591
:102500000010000070040020132310B512481C783E
:10251000FEF7F6FF0100012C0AD003DD80220F48F0
:1025200000F05AF80E48FEF7E3FF0E4B186010BD9E
:102530000A4C5422200000F04FF80B4B6365A36552
:10254000E36523666366A366E36623676367A36741
:10255000E3672362E361E5E753460000700400206F
:102560004C330000D40500206D25001007B56046EF
:1025700001880A0A0230DF2AFAD1C9B2820804D3DC
:10258000028840880004104300E00068014A50506F
:10259000039007BD70040020C30FDB0741000A0E43
:1025A00007D0FF2A08D00909054A891819434007AE
:1025B00070471900002070470249C918FAE7000067
:1025C000000000380000F07F01480421014B18474B
:1025D000D001002011150010014B5B681847000066
:1025E000D00100207047C046F8B557464546DE4644
:1025F0004E46E0B598460A9B06009A460D9B0F0092
:10260000934615009B0710D10B9B0C9A93420CD25A
:1026100013005C460B9A9D1A5D4422004346013428
:1026200039002020B047A542F7D10B9C6319002C3C
:1026300009D01D0053462A1B013C185D3900434652
:10264000B047002CF6D10D9B9B070ED55B46EC1ACC
:102650000C9BA34209D999462A0043463900202001
:102660000134B0470135A145F6D82800F0BCBB467F
:10267000B246A946A046F8BDF0B54F464646D646F6
:10268000C0B584B098460EAB1B7894469946129B11
:102690000D9C109F119E9A0724D4002E6AD1BC4233
:1026A00020D201221A409246202C00D1D2E00C9A6E
:1026B000551E302201E0202C30D001342A55A7428B
:1026C000F9D85246002A0DD0B4420BD20C9A551EAE
:1026D0003022202C02D126E0202C63D001342A5550
:1026E000B442F9D1DA0634D55A0564D4002C5ED14F
:1026F0000F9A102A00D197E0022A00D1A8E03022D8
:102700000C9C227001244A46002A5ED15A0700D44C
:1027100083E02B220C9D2A5501341CE05246002AEE
:1027200002D0202E3ED92024DA0614D55A0512D420
:10273000202F00D1A1E0202E3DD120261F223400E1
:102740000F9D102D00D18BE0022D52D030250C9F13
:10275000BD54202CD7D103930C9B62460093029664
:1027600043460194FFF740FF04B0E0BCBA46B146CF
:10277000A846F0BD012215001D40AA461A4229D0E4
:102780004A46002A39D10C321A4236D1BC429BD279
:10279000202C00D08BE710221A40202EC3D8002A0C
:1027A000A2D1D8E72024DA06D5D55A0503D4A7420A
:1027B00025D0B44223D00F9A102A25D0022A14D053
:1027C000202CC8D022000134C0E72D220C9D2A55B0
:1027D0000134C0E7BC4200D384E7202C00D066E778
:1027E00010221A40002AE0D1B5E7202CB3D02200F5
:1027F000013462250C9FBD54E2E7013EC6E7621E2C
:10280000012C00D174E79BE79A0616D4202CA2D0A5
:1028100078220C9D2A550134D2E71A079BD5202235
:102820000C9D2A55013496E79A060FD478220C9C09
:10283000227030226270022465E7202C00D18AE7E2
:1028400058250C9A121915700134B9E75822EEE791
:102850006222ECE7102255461A40002D9FD1C1E7B5
:10286000023C9D0604D478250C9F3D551400A9E731
:1028700058250C9F3D551400A4E71F2260E7C04671
:1028800010B5002800D110BD01F074FBFBE7C04675
:102890000B0010B5002802D049681B68984710BD8E
:1028A000F0B557464E464546DE46E0B599B08246FD
:1028B000894690460893229A239B10001900FFF73F
:1028C00026FA002800D0CDE0229823990122D94B86
:1028D0005242FFF717FA002800D0C3E0229823994C
:1028E0000122D54B5242FFF7FFF9002800D0B9E092
:1028F0002298239900220023FFF7F6F9002800D040
:10290000F1E1229E239F8023269ADB001A400D923C
:10291000269A1A4201D1062324938023269A1B016A
:102920001A403B0093460996334300D0B3E0002A97
:1029300000D0C2E1002300240A930B940023042555
:102940000993259B0024AB4200D95C1B0223269AE5
:102950001A400C92269A134203D06B426B415B42A1
:102960001C40099B002B07D00A9A0B9B30003900B2
:10297000FFF759F906000F0022982399002200233F
:10298000FFF7B2F9002803D0802109067B181F0049
:10299000269AAA4B009601971340089E0493249B05
:1029A00003940293424633004946504600F0AAF988
:1029B0000400002D67D02020269A494602401300CB
:1029C0005A4253415B42621C18400A923300220073
:1029D0004530D047099A6F1ED317D4185C40D30FE7
:1029E0009B46002501E0202D13D008AA94461F2302
:1029F000200063440A2101355E19FEF7C7FE30311D
:102A0000317020000A21FEF7C1FE26000400092EC5
:102A1000E9D805230693002304930A3303935B4606
:102A2000089E029310AB0A9A009349463300504621
:102A300005970195FFF720FE0C9A0400002A22D08A
:102A40004246851A259AAA421DD9B0465746160015
:102A500022004346494620200135B8470134AE42A2
:102A6000F6D810E0269B42460493259B49460393E3
:102A7000249B50460293229B239C00930194089B25
:102A800000F040F90400200019B0F0BCBB46B2468B
:102A9000A946A046F0BD6A4B78009C46400D6044B4
:102AA000FFF746F9674A684BFFF7DBF8674A684B60
:102AB000FFF7B0F8674A3B031B0B1A4304000D00F5
:102AC00009981100644B0022FFF79BF8634A644B9E
:102AD000FFF7C7F802000B0020002900FFF79AF863
:102AE000FFF73EF90990FFF723F95E4A5E4B0400B9
:102AF0000D00FFF7B6F800225C4BFFF78BF8FFF7ED
:102B00002FF95B4A5B4B29000C902000FFF7A9F8D6
:102B100004000C980D00FFF70BF9574A574BFFF7CD
:102B2000A0F802000B0020002900FFF76AF804005B
:102B30000D0002000B000A940B95FFF792F80400B9
:102B40000D000A980B9902000B00FFF763F80022B2
:102B50000E900F914A4B20002900FFF764F80022E5
:102B6000484BFFF757F802000B0020002900FFF741
:102B70005AF80022444BFFF74DF802000B002000EA
:102B80002900FFF750F80A9A0B9B0D0080210400E2
:102B9000C9050020FFF735F802000B0020002900CE
:102BA000FFF738F802000B000E980F99FFF73BF87B
:102BB0000022284BFFF72EF8344B0C9C9C466444B3
:102BC00023050022FFF74DF804000D0002000B0062
:102BD000300039000A940B95FFF786F800285DD184
:102BE00023002A00C625099963318D42AD4159461B
:102BF0006D420435002900D1A3E6134363D03000B1
:102C00003900234A234BFFF775F8002807D000222C
:102C100030003900204BFFF767F8002853D1249B80
:102C2000002B00D18DE60D9B5A1E9341249AD31A96
:102C3000249386E6FFFFEF7FFFFFEFFFFFF7FFFF25
:102C400001FCFFFFFB799F501344D33FB3C8608B57
:102C5000288AC63F0000F03F0000F83F61436F63E1
:102C6000A787D23F71A379094F930A400000E03F44
:102C70001655B5BBB16B0240EF39FAFE422EE63F66
:102C800000002C400000244000001840FF0300001A
:102C90002D431CEBE2361A3F80842E41099B002213
:102CA000013B09932000164B2900FEF7BCFF0A00E8
:102CB000010003000A910B9294E7002300240A9379
:102CC0000B9400230993249A099B9A4214DDD31A8A
:102CD000013B24938023269ADB001A43002300251E
:102CE000269209932DE6802212069446229B1E000E
:102CF000239B63441F0006E600232493EAE7C046B3
:102D000000002440F0B54546DE464E465746E0B545
:102D100095B08B46904699461E9A1F9B0A901900C3
:102D20001000209DFEF7F3FF002800D0B0E11E98B0
:102D30001F990122C74B5242FEF7D6FF002800D050
:102D400037E11E981F990122C34B5242FEF7DAFF6A
:102D5000002800D0A7E01E981F990022BF4BFEF765
:102D6000D1FF002800D088E01E981F990022BC4B9C
:102D7000FEF7BAFF002800D07FE01E981F990022BE
:102D80000023FEF7B1FF002800D0FAE000230B93E8
:102D90008023229C229ADB001C401A4200D102E1CF
:102DA000092D00D87EE106A98C462C0017220023AD
:102DB0003021093C62440133D154EF1A202B00D159
:102DC00032E1A342F7D10022A44B069207931E984A
:102DD0001F99FEF7C5FF0500FEF7AAFF02000B00D2
:102DE0001E981F99FEF70DFF069A079BFEF739FF05
:102DF00008900991FEF7D8FF0600FEF795FF020044
:102E00000B0008980999FEF7FCFE0022954B0890EC
:102E10000991FEF777FF002800D1D2E0013630009B
:102E2000FEF782FF069A079BFEF764FF002801D099
:102E300000260135AA46002F00D098E02800FEF7B2
:102E400077FF02000B001E981F99FEF7DAFE854BF4
:102E5000002206000F00FEF747FF0CAB9A46002841
:102E600045D10022300039007E4BFEF74BFF002891
:102E70003DD1EB073BD5013539E0229B4246049317
:102E8000219B594603930A981E9B1F9C0295009311
:102E900001944B46FFF704FD15B0F0BCBB46B246AB
:102EA000A946A046F0BD229B5B0767D403226E4B68
:102EB00022990192039121990291009342464B4637
:102EC00059460A98FFF790FBE6E706AA94461723AF
:102ED000280063440A2101341E19FEF72FFC30310B
:102EE000280031700A21FEF729FC051E76D0202C1F
:102EF000EBD10323229A1340012B1DD1219B002BE0
:102F00001AD00B9B002B00D0BBE0229A0C3313424B
:102F100000D0B6E0219BA34200D887E006AB9C46D8
:102F200017223023624404E02199013413558C4266
:102F300059D0202CF8D12024229B01940393219B6B
:102F400002935346B9E706AA944617230A2163441D
:102F5000300001341D19FEF719FC303129703000A2
:102F60000A21013FFEF712FC092E46D90600202C4B
:102F7000E9D155460CAB20249A46B8E704223B4BD6
:102F800096E71E9A1F9B00200021FEF73AFE0123C0
:102F90000B938023229C229ADB001E901F911C40E1
:102FA0001A4200D0FCE60022314B06270692079316
:102FB0000DE7229B0393219B0293042301932D4B46
:102FC0007BE7002208980999264BFEF78DFE002822
:102FD00000D02FE7002E4FD101362BE70323229A92
:102FE0001340012B68D0202CA6D00B9B002B1FD0A8
:102FF0002D235246135501349EE75546202CB9D057
:1030000030223B19002F4BD0172006A90134091894
:103010000A55202CAED09C42F6D10CAA92462E2204
:1030200051465C1CCA5462E72024CCE6202C83D095
:10303000229B5B0708D4229B1B0700D47CE720233C
:1030400052461355013477E72B235246135501346A
:1030500072E7C046FFFFEFFFFFFFEF7F65CDCD4179
:1030600065CDCDC10000E03FF0480010E8480010F9
:1030700080842E41F8480010F30700D4DAE60136C8
:10308000D8E6219B013B2193A34200D946E7AAE75A
:10309000229B0393219B029303230193084B0CE78C
:1030A0002300BAE7074BEA009B185C681B682F00F7
:1030B0000693079400248AE6219B002B93D020E7F7
:1030C000F4480010A04A0010F0B54546DE465746C9
:1030D0004E46E0B5A1B01D002A9B90460B93D04A06
:1030E000D04B83468A461A60002900D1A4E1002310
:1030F00028789946002800D1A6E1CB4B5E4609937B
:10310000CA4B4C46D34647460D930AE0631C98468B
:1031100022003B005946B04744462878002800D199
:10312000CDE001352528F1D108239A46043B994684
:10313000023B9846013B00229C460C942878691C6F
:103140000300203BDBB2102B03D8099C9B00E35803
:103150009F460300303B0C9C0A92092B7FD9002329
:1031600098462A2800D1C1E000239A462E2800D193
:1031700090E00300683BDBB2122B1ED8AC4A9B00E8
:10318000D3589F4663460D001A43D7E743460D00C8
:103190001A43D3E74B460D001A43CFE710230D0027
:1031A0001A43CBE753460D001A43C7E780235B0061
:1031B0000A9A68781A430A9201310D0067280AD8E2
:1031C0002428A3D90300253BDBB2422B9ED80D9ABD
:1031D0009B00D3589F4601006939C9B20F2995D881
:1031E00001238B409C46934B994663464A461340C5
:1031F0000C9362464B461A4200D05EE20A2900D187
:1032000024E1072982D10B9B02CB9846002900D1EB
:103210009BE121200A9A0243914610AB9C461F2253
:103220000F23404662440B959C46A04615000C9B1C
:103230000A9002E0202B0CD0110064460C402000C4
:103240003730092C00D807380133E8540A090F2910
:10325000F0D80C930A9B44460B9D984685E10023C9
:1032600098460A9B45469C4600E00131AB005B193D
:103270005B001D180878303D0300303B092BF4D962
:1032800063460A930023A8469A460D0001312E2872
:1032900000D06EE780200A9AC00002430A923022D2
:1032A0005242944668780B0084446246092A00D84A
:1032B0002EE12A2800D13DE10D00013159E7DA461F
:1032C000A146B346B846C84503D801235B424344F0
:1032D000994643464A4651460020D847200021B02F
:1032E000F0BCBB46B246A946A046F0BD0B9B04CB42
:1032F0009046002A04DB68780B930D00013133E718
:103300000A9A283802430A92424652426878904606
:103310000D000B93013127E7672800D1C7E147284B
:1033200000D114E2452800D116E20A9A072104923E
:1033300042460B9B0392073352468B43190002927D
:103340000CC93000009201930B9122003B005946BA
:10335000FFF7A6FA0400E0E680239B0028E76878E0
:10336000682800D11BE280230A9A01311A430A928D
:1033700023E768786C2800D109E280230A9A5B0071
:103380001A430A92013118E7462800D18AE10A9AC5
:103390000721049242460B9B0392073352468B430C
:1033A000190002920CC93000009201930B91220087
:1033B0003B005946FFF7A6FC0400AEE6631C9846A6
:1033C00022003B0059462520B0474446A5E60B9B0A
:1033D00004330C93631C99460A9B9A0700D4E7E1D7
:1033E0000B9B2200187859463B00B04743464444A3
:1033F000012B00D8B8E22B00B84625005F464C46AA
:10340000994622004346013439002020B047AC429F
:10341000F7D12C00BB464D4647460C9B0B937CE6F0
:10342000C9300010A8050020004900109049001084
:103430004449001041900000DC4B28789B46002353
:103440009946002800D058E600243CE70B9B02CBAD
:1034500012930B789C4618005346002B00D09CE03A
:10346000002812D002235B420133994689444A4620
:103470000B008946110001E08B4203D05A780133DA
:10348000002AF9D149465B1A0C938023DB00994648
:103490000A9A13400B934B461A4204D00C9B534597
:1034A00001D953460C93022399460A9A13400A9372
:1034B0004B46134200D1B5E16346002B00D197E1A2
:1034C0000B9B002B00D14CE1D1460B1B9A462B00E5
:1034D000A1444D462200B9465F469B4609E04B4653
:1034E0003900541CB0475346185D002800D158E1FC
:1034F00022009542F3D15B46BB464F46A9461D00CC
:103500004C460A9B002B00D072E1129B0B9304E601
:1035100055460A9AA9004919490001330D1818782F
:10352000303D010030390929F4D9AA460A921D001C
:10353000591C1EE60B9BA87804CB0235D143C91752
:103540000A4092460B93691C13E60A9B10211A004D
:103550008A43100011310843814680201A00C000C0
:1035600002401100034200D157E64B460822069361
:103570005346059208320392002204930C9B029258
:10358000019318AB2200009359463B003000FFF72F
:1035900073F8434604000B93BFE5002800D174E79D
:1035A0005346013B60E7622800D1DFE1582800D193
:1035B000ECE10A9980230A00DB001A4010000A009F
:1035C000194200D1BDE111239A430C920C9A802339
:1035D00011009B0019408C461A4200D046E180231E
:1035E00011005B00194089460B9904310A911A4277
:1035F00000D08FE213005B0600D59EE113001B068E
:1036000000D426E30B9B00229B5ED9175A184A4030
:1036100092B2D90F0B91002B00D177E2100010AAC3
:10362000944642461F23129252466344AA4614947B
:103630004D460400B946B0461F00139201E0202D0C
:103640000FD020000A21FEF7A1F801357E19303194
:10365000317020000A21FEF799F826000400092E97
:10366000EDD8129B46469846139B4F46A9465546B1
:103670009A46149C0C9B0693434605935346049329
:103680000A2303930B9B02934B46019318AB220032
:10369000009359463B003000FEF7EEFF0A9B040002
:1036A0000B933AE520230A9A1A430A926FE6802385
:1036B0000A9A1B011A430A9237E6782800D0AFE134
:1036C0000A9880230200DB001A4011000200184211
:1036D00000D1D0E20D239A43100003330A938023D4
:1036E00002009B001A409446184200D0ACE18023AF
:1036F00002005B001A4091460B9A04320C92184269
:1037000000D04AE2430600D493E20B9B1B78089357
:10371000002B00D04BE110339843002900D146E143
:103720000023994643460593534604930A9B06900B
:103730000393002302934B46019318AB220000939E
:1037400059463B003000FEF797FF040065E68023F2
:103750000A9A1B011A430A9220230A9A1A430A92D0
:10376000E3E50B1B9A460C9B99462B005D469B4656
:1037700022003B002900B04753460134185D002861
:10378000F6D14B460C935B46AB461D00B9E6C02311
:103790009B000A9AA8781A430A92E91C0DE5C023F7
:1037A000F7E75D46BB464F46ABE6C046E525001051
:1037B0004346012B00D8D1E0631E4344B9461D00A7
:1037C0005F46A2468B4622004B460134390020203A
:1037D000B047AC42F7D15D46BB464F46A146544682
:1037E0000B9B4A46187859463B004444B04714E6C0
:1037F0000C9BA146984500D887E64444E41A2B0068
:10380000B84625005F464C4699462200434601349F
:1038100039002020B047AC42F7D12C00BB464D46C2
:10382000474672E60C98804500D81CE243461A19B8
:10383000131A99462B004D46B9465F469B460C919C
:1038400022004B46013439002020B047AC42F7D16A
:1038500043460C9901330C930B785D469C46BB465E
:103860004F466046002800D02AE64EE607220B9B12
:1038700007339343013294469C4462460B920CCB2F
:10388000D90F0A91110019435FD0D91711911091E6
:1038900051400E91119959400F910E980F99109A1D
:1038A000119B801A99410E900F9110AA0023944603
:1038B00042469946129252461F336344B046AA4686
:1038C0004E461494B9460E9C0F9D1F00139201E0C2
:1038D000202E10D0200029000A220023FDF794FF9B
:1038E000013630322B00BA550D0022000400002BA7
:1038F000EED1092AECD8129B4F46B146464698466F
:10390000139B0E940F9555469A46149C0C9B069358
:1039100043460593534604930A2303930A9B029359
:103920004B46019318AB2200009359463B003000F0
:10393000FEF7A2FE0400FFF7F0FB0B9B1B781A00BA
:1039400067E610239A430C9240E60023994600282C
:10395000DCD1002200230E920F93A6E70B9B2200DE
:10396000187859463B00B0474C4656E50A988023E4
:103970000200DB001A401100184200D15FE1020092
:103980000D239A430B3B10000A93A8E60A98802364
:103990000200DB001A4011000200184200D166E16B
:1039A0000D2320209A43033310430A9397E66123A3
:1039B000820600D54123DBB20A3B0B93434610A994
:1039C0001F228C46129353466244AA4614941597BC
:1039D0004C468046B14617000A9E089D139308E0A6
:1039E0003033DBB201343B55B5420ED3202C0CD022
:1039F000050031002800FDF7C9FECBB20929EFD937
:103A00000B9A94466344DBB2ECE7129B404698461F
:103A1000139B4E465546A1469A46149C159F81E637
:103A20006F2800D037E10A990C230A009A438023BB
:103A300010000A00DB001A4011000A9A1A4200D056
:103A400021E108230A934AE60B9AFA3BFF3B07322F
:103A50009A4301339C46944463460B93136852681F
:103A60000893134312921A1E05D10023103299466F
:103A70009043002941D16122810600D54122D2B272
:103A80000A3A0C924246002310A9139252468C46E1
:103A9000994614921F330A9A6344AA4615941796BE
:103AA0004C469046B946089E1F00129D16900AE0AB
:103AB0003032D2B2002301343A55AB4211D0202C1F
:103AC00011D006000D004246002330002900FDF70A
:103AD0009BFED2B2092AEBD90C9B9C466244D2B21F
:103AE000E8E7B045EBD9139B55469846149B4F46E3
:103AF0009A46A1461698179E159C43460593534631
:103B000004930A9B06900393002308E7002800D043
:103B1000B0E584E50B9B1B68DA0F1100002B00D188
:103B200094E0DA179818504010AA914642461F2395
:103B3000129252464B44A046AA4614970400B1463E
:103B400065461F000B91139201E0202D0FD020003D
:103B50000A21FDF71BFE01357E193031317020003E
:103B60000A21FDF713FE26000400092EEDD8129B52
:103B7000444698460B9BAC461900139B55464E464F
:103B80009A46149F0C9B0291069343460593534615
:103B900004930A230393634677E50B9B1B68089302
:103BA000002B03D110339843002937D161238206BB
:103BB00000D54123DBB20A3B0B93434610A989464B
:103BC0001F22129353464A44AA46B14614941597AD
:103BD000644680461700089D0A9E139308E0303320
:103BE000DBB201343B55B5420ED3202C0CD005007E
:103BF00031002800FDF7CAFDCBB20929EFD90B9A95
:103C000094466344DBB2ECE7129B40469846139B14
:103C100055464E469A46A446159F149C4346059326
:103C2000534604930A9B0690039300230293634632
:103C300082E5030613D50B9B1B88089368E50200F9
:103C40000C239A430A3B10000A9348E5002899D1B7
:103C50006AE70B9B1B68D9175A184A40D9E40B9B9B
:103C60001B68089354E5030001330C93F9E5202306
:103C70000A9A1A430A920C230A9A00219A4304339F
:103C800010000A932BE50A9B0C9308230A930D233B
:103C90000C98984323E510230A9A9A430C926928BA
:103CA0000AD10A9980230A00DB001A4010000A009A
:103CB000194200D18AE486E40A991C230A009A4337
:103CC000802310000A00DB001A4011000A9A1A42F1
:103CD00002D10A230A9302E50A230A93D7E7C046D2
:103CE00000B585B0039101210290009303481300B1
:103CF0004A4202A9FFF7E8F905B000BD912800107B
:103D000010B5094A0300146884B0002C08D00122C1
:103D100000910648524203A9A047012004B010BDFB
:103D200000F074F90020F9E7A805002081280010B0
:103D300000BEFDE710B5FFF7FBFFC04670B5FDF70D
:103D400025FC074D074EB54209D20024013E761BE3
:103D5000B60808CD984723000134B342F9D170BDAD
:103D6000B4440010B8440010030010B5080011005E
:103D70001B68984710BDC046F0B5C64600B5437DE8
:103D800007000D001600002B38D0002A2EDD002180
:103D90006A1E90466A5C037D4C1C00200A2A0CD0E7
:103DA000A64216D043461B5D21000D3B5A425341AB
:103DB0006A5CDBB24C1C0A2AF2D1002BF0D18142A2
:103DC00017DC022110483B689847A64207D0200024
:103DD000E8E7864203DD311A3B6828189847AD1999
:103DE000013D2B780D3B5A4253413B7580BCB84690
:103DF000F0BD091A3B6828189847E2E703681100EC
:103E000028009847F2E7C046F04A0010F0B5C646D1
:103E10000B6806000C0000B5802B06D05A1C2260EF
:103E2000E418267180BCB846F0BD0F4B1D68002D0C
:103E300016D00B1D98460D4F02E02D69002D0FD0B6
:103E40002B68002BF9D03B68002B01D0AB42F4D19A
:103E5000280041462268FFF78FFF2D69002DEFD122
:103E600001220023DBE7C0469C050020A0050020BE
:103E7000F0B5DE4657464E464546E0B585B01700DC
:103E80001C0006000D00FDF7D1F90023314A12187D
:103E90004B41802109068B4202D301222E4B524214
:103EA0002E4908008A4600F0DFFA01906B1C03D10E
:103EB000300000F091FA0500002C26D0284B9846DF
:103EC000284B1C68002C15D0002F21D1264F02E072
:103ED0002469002C0ED02368002BF9D03B68002BFE
:103EE00001D0A342F4D120002A003100C047246948
:103EF000002CF0D1019B002B28D1280005B0F0BC8C
:103F0000BB46B246A946A046F0BD184B9846D7E737
:103F1000154B994602ABDF1D0A239B4602E024693C
:103F2000002CE7D02368002BF9D04B461B68002BF0
:103F300001D0A342F3D12A0031002000C0475B46E4
:103F40000122390020003B70C047E8E7504600F0EE
:103F500073FAD2E740420F00FFFFFF7FE801002025
:103F6000793D00109C050020A0050020693D00104F
:103F700000207047F0B5CE46474680B583B06B460B
:103F80000600DD1D2870FDF751F900231A4A1218AA
:103F90004B41802109068B4202D30122174B52422A
:103FA00017490800884600F05FFA164B81461C68E6
:103FB000002C14D0144F02E02469002C0FD0236889
:103FC000002BF9D03B68002B01D0A342F4D1200094
:103FD00001222900FFF7D0FE2469002CEFD14B46C7
:103FE000002B05D1300003B0C0BCB946B046F0BDCF
:103FF000404600F021FAF5E740420F00FFFFFF7F47
:10400000E80100209C050020A005002070B50400F8
:1040100000F0E2F901230100050001222000FFF772
:1040200027FF084B1C68002C06D06368002B05D0C6
:1040300098472469002CF8D1280070BD2469002C11
:10404000F3D1F9E79C050020F0B5CE46474680B590
:10405000A3B004000D00FDF7E9F80023294A121867
:104060004B41802109068B4202D30122264B52424A
:10407000264F380000F0F8F90023060001932200D3
:104080002B00234801A9FFF72BFE019B8046002B44
:1040900014D1204B1C68002C06D06368002B0BD079
:1040A00098472469002CF8D1002E25D1404623B032
:1040B000C0BCB946B046F0BD2469ECE7154B1D689D
:1040C0009946002D1CD0144C02E02D69002D0FD014
:1040D0002B68002BF9D02368002B01D0AB42F4D120
:1040E0002800019A02A9FFF747FE2D69002DEFD1A4
:1040F0004B4601951C68CEE7380000F09DF9D5E7E6
:104100000195D1E740420F00FFFFFF7FE80100204B
:104110000D3E00109C050020A00500200FB400B546
:1041200083B004A901C90191FFF78EFF03B008BC59
:1041300004B01847F0B5DE4657464E464546E0B552
:10414000070083B00CA80192027800203C689B46CF
:10415000E066616001219146E166002B34DD5A1E64
:10416000904680225200944680264025616F102997
:10417000FCD00021002801D13979890280451DD069
:10418000624611432161A159616B0D420BD00120A0
:10419000636D40424B463B7103B0F0BCBB46B24638
:1041A000A946A046F0BDA16F0029ECD02169019B72
:1041B000195401308345EDD03C68D7E74B460122C6
:1041C0005A4053021943DBE70020E3E7F0B55746B6
:1041D0004E46DE4645468446E0B583B01F000CAB34
:1041E00018786346914600221B680190DA66013216
:1041F0005960DA66002F4FDD7A1E904662461279CA
:1042000001269202802493463A0046407602802599
:104210003700002046461021A2469046AD00341AD1
:10422000624254414A4664423C4000945C46125CFF
:104230002243009C22431A615A6B1142FCD0524621
:104240009C58002C10D1864221D000220130934688
:104250008045E4D16346019A1A7103B0F0BCBB46B5
:10426000B246A946A046F0BD5A6D012293465A6B4C
:104270002A42FCD01A6E5A46002AE6D0002C03D0FF
:10428000E30701D42407E5D401204042E2E7019A84
:10429000002ADAD19346EAE70020DBE7F8B5DE46EC
:1042A00057464E4645468346E0B505200C00FDF7CF
:1042B000C1F80600600821008019FDF767FA430085
:1042C00098468044070005214046FDF75FFA3B1AF7
:1042D0009A461E4B8146700080199C4231D81C4979
:1042E000FDF754FA451C5B461C680023E366226810
:1042F00004335A400233134080225201A218136043
:104300005346E3614B462362434601204F2B03D9BA
:1043100050214046FDF73AFAA023E050E36F390000
:104320005D400C4B2D042D0CE3181D600123300063
:10433000E366FDF72BFAF0BCBB46B246A946A046A1
:10434000F8BD0549FDF722FA451CCCE73F420F00B6
:10435000809698007C10000040787D01104A70B56E
:10436000821A53425A41072352429A430D4B10324C
:104370001A600D4B0D4C1A60150023689D432B1ECF
:10438000FAD166240268FF340571D5661460633C77
:104390008833FF3CD5639563D450FFF77FFF70BD32
:1043A000E001002000E0004000F0004008C00040B4
:1043B00010B582B004AC24780094FFF707FF02B078
:1043C00010BDC04610B582B004AC24780094FFF74D
:1043D000B1FE02B010BDC04610B583070AD003007D
:1043E000032102E001330B4205D01A78002AF9D1EB
:1043F000181A10BD030019680C4A0D4C8A188A431C
:1044000022420FD15968094A04338A188A4322424A
:1044100008D15968054A04338A188A432242F1D0E8
:1044200000E001331A78002AFBD1E1E7FFFEFEFE2F
:1044300080808080F8B5C04601B40248844601BC43
:10444000604700BF5D01002001B40248844601BC02
:10445000604700BF8501002001B40248844601BCCA
:10446000604700BF8501002001B40248844601BCBA
:10447000604700BFC1000020B5150010E115001015
:104480002D170010C9250010C11D001009250010AE
:1044900055160010FD1500101D16001031160010E5
:1044A000750A001039160010010E00107D1500105D
:0844B000C9090010B10200105F
:1044B8004C696768742053656E736F72204E6F6421
:1044C80065207374617274696E672E2E2E00000069
:1044D800496E697469616C697A696E672054534CD6
:1044E80032353931206C696768742073656E736F73
:1044F800722E2E2E000000004661696C65642074DF
:104508006F20696E697469616C697A652054534CCF
:1045180032353931206C696768742073656E736F42
:10452800722100004C696768742073656E736F723E
:10453800206E6F6465207265616479210000000057
:104548004C696768742072656164696E67733A20A4
:1045580046756C6C3A2025752C2049523A202575F1
:104568002C2056697369626C653A2025752C204C9D
:1045780075783A20252E32660A000000414C4552D3
:10458800543A204C69676874206C6576656C2062C3
:10459800656C6F77207468726573686F6C64202827
:1045A800252E3266206C7578203C20252E32662018
:1045B8006C7578290A000000414C4552543A204C49
:1045C80069676874206C6576656C2061626F7665D2
:1045D800207468726573686F6C642028252E3266B3
:1045E800206C7578203E20252E3266206C7578293F
:1045F8000A0000004661696C656420746F2072656A
:1046080061642066726F6D206C69676874207365D9
:104618006E736F7200000000080052501A520A00B0
:1046280054534C323539313A204661696C656420FF
:10463800746F207265616420636F6E74726F6C2092
:1046480072656769737465720000000054534C32D8
:104658003539313A204661696C656420746F20777A
:104668007269746520636F6E74726F6C207265670F
:10467800697374657200000054534C323539313A0D
:10468800204661696C656420746F207265616420DE
:1046980073656E736F7220494400000054534C32A6
:1046A8003539313A20556E657870656374656420D4
:1046B80073656E736F722049443A20307825303222
:1046C800580A000054534C323539313A2046616952
:1046D8006C656420746F2064697361626C65207313
:1046E800656E736F7200000054534C323539313A9D
:1046F800204661696C656420746F20736574206757
:1047080061696E0054534C323539313A204661693B
:104718006C656420746F2073657420696E746567B6
:10472800726174696F6E2074696D650054534C3200
:104738003539313A20496E697469616C697A656402
:10474800207375636365737366756C6C790000001C
:1047580054534C323539313A204661696C656420CE
:10476800746F20656E61626C652073656E736F721D
:104778000000000054534C323539313A2046616903
:104788006C656420746F20656E61626C652073656A
:104798006E736F7220666F722072656164696E67EE
:1047A8000000000054534C323539313A20466169D3
:1047B8006C656420746F2072656164206368616E43
:1047C8006E656C730000000054534C323539313A31
:1047D800204661696C656420746F20646973616246
:1047E8006C652073656E736F7220616674657220E4
:1047F80072656164696E67006400C8002C019001ED
:10480800F40158020A2A2A2A2050414E4943202AF4
:104818002A2A0A00486172647761726520616C61B6
:10482800726D20256420616C726561647920636C07
:1048380061696D656400000048617264206173738A
:104848006572740052656C6561736500626F6F74A0
:10485800325F77323571303830000000322E312E19
:10486800310000007069636F000000006C696768C0
:10487800745F73656E736F725F6E6F6465000000BE
:1048880041707220323220323032350006005250E8
:10489800D3F075424C48001006005250E182887FE0
:1048A8005448001006005250ABB3605364480010DF
:1048B80006005250BBFF3CB66C4800100600525030
:1048C800861C030274480010060052505422A29D10
:1048D8008848001005005250DE65F468444C00100A
:1048E800666E692B00000000666E69006E616E00DE
:1048F800666E692D00000000A431001052310010CE
:10490800523100109C310010523100105231001009
:104918005231001052310010523100105231001043
:104928005231001094310010523100108C310010B7
:104938005231001052310010843100105E330010E3
:10494800BA31001058330010BA3100107233001019
:10495800BA310010BA310010BA310010BA31001063
:10496800BA310010BA310010BA310010AC31001061
:10497800BA310010BA310010BA310010BA31001043
:10498800BA310010AC310010BC3300100C310010EB
:104998000C3100100C3100100C3100100C310010DB
:1049A8000C3100100C3100100C3100100C310010CB
:1049B8000C3100100C3100100C3100100C310010BB
:1049C8000C3100100C3100100C3100100C310010AB
:1049D8000C3100100C3100100C3100100C3100109B
:1049E8000C3100100C3100100C3100100C3100108B
:1049F8000C3100100C3100100C3100100C3100107B
:104A08000C3100100C3100101833001088330010DE
:104A1800183300100C3100100C3100100C3100104C
:104A28000C3100100C3100100C3100100C3100104A
:104A38000C3100100C3100100C3100100C3100103A
:104A48000C3100100C3100100C3100100C3100102A
:104A58000C310010A63500100C3100100C3100107C
:104A68000C3100100C3100100C3100100C3100100A
:104A78000C3100100C3100100C310010A63500105C
:104A8800CE330010A63500101833001088330010FC
:104A98001833001000000000000000000000F03F84
:104AA8000000000000002440000000000000594001
:104AB8000000000000408F40000000000088C34054
:104AC80000000000006AF8400000000080842E41C9
:104AD80000000000D01263410000000084D7974115
:0C4AE8000000000065CDCD410D0A00006B
:104AF4002046001094480010A0480010AC48001054
:104B0400B8480010C4480010D0480010DC48001019
:104B1400F0B5C646150000B504001E000268EFF3A8
:104B2400108172B61368002BFCD0BFF35F8F04238F
:104B3400E356002B2DDB2268BFF35F8F002010604B
:104B440081F31088D0221206127852B290469A420B
:104B540003D1002080BCB846F0BD00270BE02368D9
:104B6400BFF35F8F1F6081F310882800310000F0CD
:104B740033F80028EDD12268EFF3108172B6136880
:104B8400002BFCD0BFF35F8F23797F2BE7D94346FB
:104B940002E0D0231B061B6823712368BFF35F8FD9
:104BA40000221A6081F310880120D3E70268EFF332
:104BB400108172B61368002BFCD0BFF35F8FFF2304
:104BC40003710368BFF35F8F00221A6081F31088BA
:104BD40040BF70477047C04601B40248844601BCD8
:104BE400604700BF11110010021010000000000007
:104BF40000000000000000000000000000000000B1
:104C0400F00100200000000000000000000000008F
:104C1400503300004C330000543300005233000082
:104C24004D5300004D430000533400004334000052
:104C340000400440000000000000000000000000EC
:04000005100001E9FD
:00000001FF
