:020000041000EA
:1000000000B5324B212058609868022188439860DF
:10001000D860186158612E4B002199600421596104
:100020000121F02299502B49196001219960352056
:1000300000F044F80222904214D00621196600F024
:1000400034F8196E01211966002018661A6600F04E
:100050002CF8196E196E196E052000F02FF8012189
:100060000842F9D1002199601B49196000215960AB
:100070001A491B48016001219960EB211966A021F2
:10008000196600F012F800219960164914480160C1
:100090000121996001BC002800D000471248134993
:1000A000086003C880F30888084703B5996A0420EC
:1000B0000142FBD001200142F8D103BD02B5186610
:1000C0001866FFF7F2FF186E186E02BD00000240BE
:1000D000000000180000070000035F00212200005C
:1000E000F4000018222000A00001001008ED00E03C
:1000F000000000000000000000000000070B8FD58A
:10010000D0240020E53D001057840010D13D0010A0
:1001100000000000000000000000000000000000DF
:10012000000000000000000000000000E13E0010A0
:100130000000000000000000713E00107962001015
:100140005D4000105D4000105D4000105D400010FB
:100150005D4000105D4000105D4000105D400010EB
:100160005D4000105D4000105D4000105D400010DB
:100170005D4000105D4000105D4000105D400010CB
:100180005D4000105D4000105D4000105D400010BB
:100190005D4000105D4000105D4000105D400010AB
:0801A0005D4000105D400010FD
:1001A80002B4714649084900095649008E4402BC08
:1001B8007047C04602B4714649084900095C4900C5
:1001C8008E4402BC7047C04603B4714649084000DB
:1001D8004900095A49008E4403BC7047002934D0AD
:1001E8000123002210B488422CD301242407A14201
:1001F80004D2814202D209011B01F8E7E400A142BE
:1002080004D2814202D249005B00F8E7884201D358
:10021800401A1A434C08A04202D3001B5C08224330
:100228008C08A04202D3001B9C082243CC08A042A1
:1002380002D3001BDC082243002803D01B0901D08D
:100248000909E3E7100010BC704701B5002000F071
:100258005FF802BD0029F8D003B5FFF7C1FF0EBC57
:100268004243891A1847C046002941D010B40400F7
:100278004C40A44601230022002900D54942002809
:1002880000D5404288422CD301242407A14204D23D
:10029800814202D209011B01F8E7E400A14204D21D
:1002A800814202D249005B00F8E7884201D3401A34
:1002B8001A434C08A04202D3001B5C0822438C0856
:1002C800A04202D3001B9C082243CC08A04202D3C0
:1002D800001BDC082243002803D01B0901D00909B0
:1002E800E3E710006446002C00D5404210BC70477C
:1002F80001B5002000F00CF802BDC0460029F7D077
:1003080003B5FFF7B3FF0EBC4243891A1847C0462E
:100318007047C0461C2101231B04984201D3000CDE
:1003280010391B0A984201D3000A08391B09984260
:1003380001D30009043902A2105C40187047C04676
:100348000403020201010101000000000000000096
:10035800414208401C2101231B04984201D3000C90
:1003680010391B0A984201D3000A08391B09984220
:1003780001D30009043902A2105C401A7047C04634
:100388001B1C1D1D1E1E1E1E1F1F1F1F1F1F1F1F84
:10039800002B15D1002A13D1002906DB01DC002827
:1003A80006D00020C043410802E080210906002051
:1003B80007B4024801A14018029003BD55FFFFFF92
:1003C80003B4684601B5029800F02DFF019B9E46D4
:1003D80002B00CBC7047C046002B11D1002A0FD1C7
:1003E800002900D1002802D00021C943080007B421
:1003F800024802A14018029003BDC04615FFFFFF46
:1004080003B4684601B5029800F09EFE019B9E4623
:1004180002B00CBC7047C0464A02F8B5430244001B
:10042800C50F500A84464800240E000E5F0AC90F03
:100438009B099209261A8D4200D09EE0002E42DDCB
:100448008021C90400281ED1002A0AD0661E012C6A
:1004580005D19B1801340B4246D1013C01E0FF2C29
:1004680014D15A0704D00F221A40042A00D00433AA
:100478005A0100D42EE101340026FF2C19D09D4EDC
:10048800DB081E4015E0FF2CEBD00A431B2E01DDD4
:100498000133E6E72020801B11008240F140501E06
:1004A80082410A439B185A01DBD501340026FF2CF0
:1004B8001AD1FF23E005DB057602760A184030439F
:1004C800ED072843F8BD002E2ED08026011BF60428
:1004D800002C14D1002B00D1F3E04C1E01290AD1C5
:1004E8009B1802243342B8D0012283491A405B0882
:1004F8000B401343B5E7FF2906D11300AEE0FF28F0
:1005080000D1E0E00C0033431B2C02DD531C040037
:10051800A7E719002026E140341BA3405C1EA34135
:100528000B4304009B18BEE7FE20611C01421ED14C
:10053800002C0DD1002B00D1C7E0002A00D190E794
:100548009B185A0100D48CE76C4A13400C0088E7CA
:10055800002BD2D0FF24002A00D182E78023DB03BE
:100568009F4202D39C4500D26746FB0076E00C0010
:10057800FF299ED09B185B0873E7002E25DD002815
:100588001CD1002A00D16CE7661E012C06D19B1AEB
:100598005A0100D465E79B019E0975E0FF2C00D144
:1005A8005FE701211B2E07DC2020801B1100824001
:1005B800F140501E824111435B1AE9E7FF2C00D13C
:1005C8004FE78021C9040A43EBE7002E25D0051B1D
:1005D800002C0DD1002B08D06E1E012D03D10D006B
:1005E800D31A0134D4E7FF2D08D113002C0021E0E1
:1005F800FF286CD080242E00E404234301241B2E02
:1006080007DC2025AD1B1C00AB40F4405D1EAB4150
:100618001C43131B0D000400BAE7FE26601C304281
:100628002DD1002C14D1002B06D125002600131E35
:1006380000D13EE70D0014E7002A00D111E79E1A09
:10064800D31A7001F6D4331E00D00AE7350030E71C
:10065800002B05D1002A49D013000D00FF2400E724
:10066800FF24002A00D1FCE68023DB039F4200D24E
:100678007BE79C4500D378E767460D0075E79E1A2F
:10068800700115D50D00D61A3000FFF743FE330070
:1006980005388340844210DC2022001B0130121AE6
:1006A80019009340C1405A1E934100240B43D8E6D9
:1006B800002EE9D135003400FBE6104A241A134015
:1006C800CFE6130042E7130021E71300C9E6130041
:1006D8000400AFE7DE08FF2C00D0EAE6002E00D1C8
:1006E800E7E68023DB03FF241E43E2E680261500AD
:1006F800F603F6E7FFFF7F1FFFFFFF7DFFFFFFFB0E
:10070800F0B5C30F85B0440245000F1C640A2D0ED6
:10071800039302930AD0FF2D3BD08023E400DB042F
:100728001C4300237F3D019500930EE001230194B3
:100738000093002C09D02000FFF7ECFD431F9C40DC
:1007480076235B421B1A019300957D027E006D0A99
:10075800360EFF0F002E23D0FF2E2ED08023ED0063
:10076800DB041D4333007F3B002201980399C31A21
:10077800009879408000104301380E2823D8FFF7ED
:1007880019FD4D9973999299734D4D9273616161F9
:100798005300022301950093002CD6D00133C3E700
:1007A8002B000122002DE0D02800FFF7B3FD431FE6
:1007B8009D4076235B421B1AD6E733000222002DA8
:1007C800D3D00132D1E764016D01AC4228D31A209D
:1007D8000122641B0126270052006400002F01DB60
:1007E800A54201D8641B324301380028F3D1601EAA
:1007F8008441144318007F30002838DD620704D094
:100808000F222240042A00D00434220103D5803369
:1008180018002B4A1440E508FE281DDD00250FE0CE
:100828001B200022013BD5E78023DB031C4203D0B9
:100838001D4201D12C00029780250299ED03254322
:10084800FF2009E00399009A022AE7D0032A2FD053
:1008580000252800012ACDD16D026D0AC005284364
:10086800C907084305B0F0BD2C003900ECE70122A8
:100878000025121A28001B2AEEDC9E3325009C4016
:10088800D540631E9C4125436B0704D00F232B40A2
:10089800042B00D0043580232800DB0418401D42B7
:1008A8000BD1ED08D8E780240023E4030293C3E7C3
:1008B8000291C1E700252800CEE700250120CBE7FB
:1008C800FFFFFFF7F0B5C30F85B047024400029160
:1008D8007F0A240E03930AD0FF2C71D080227F3C1C
:1008E80026000023FF00D204174301930CE00123E4
:1008F8003E1E019308D03800FFF70CFD7626431FF3
:100908009F407642361A0194029B5C025D00DB0F21
:10091800640A2D0E02935AD0FF2D64D0802328003C
:10092800E400DB041C437F3800230299039A4A4001
:10093800811901988C46850001311D430A2D00DD7F
:1009480078E0022D55DC013D012D63D9250CA4B2B8
:1009580026003B0CB8B246435C4368436B4300191E
:100968001F00330C1B189C4202D9802040023F18FC
:100978001804B6B28619B401601E84411B0CB60E69
:10098800DB1934439B011C431B0168D50123600814
:100998001C40044308007F30002862DD630704D050
:1009A8000F232340042B00D00434230103D58031C6
:1009B80008003E4B1C40E508FE2833DD00254CE0CE
:1009C800022326000193002F9ED001338DE72000DB
:1009D8000123002CA9D0FFF79DFC431F9C407623E0
:1009E8005B42181AA0E728000223002C9DD001338F
:1009F8009BE70120A840A6250600ED002E402842CE
:100A08001DD19025AD00284247D1B93DFF3D284270
:100A18009CD0029A022BD1D0032B42D0002528006B
:100A2800012BB7D16D026D0AC0052843D2071043C8
:100A380005B0F0BD039A0F2D04D00B2DE9D03C0072
:100A4800019BE7E78023DB031F4203D01C4201D14F
:100A58002700029A8025ED033D43FF20E2E7614627
:100A680098E7012300251B1A28001B2BDADC9E318E
:100A780025008C40DD40631E9C4125436B0704D054
:100A88000F232B40042B00D0043580232800DB04DF
:100A980018401D4207D1ED08C4E780273200FF0344
:100AA800D8E72700D6E700250120BBE7FFFFFFF7BF
:100AB80041024300C20F490A00201B0E7E2B03DDB2
:100AC8009D2B02DD084BD018704780200004084396
:100AD800952B05DD963B9840002AF5D04042F3E778
:100AE8009621CB1AD840F7E7FFFFFF7F002370B5A8
:100AF8000400984209D0FFF70DFC9E231B1A962B81
:100B080008DC082829D0083884406402D805640A1B
:100B1800204370BD992B1BDD020021001B32914040
:100B28000A00511E8A410521091ACC4014432200AB
:100B38000B4D2A40610704D00F212140042900D021
:100B48000432510102D59F232A401B1AD408DCE73E
:100B5800421F0528EBD09440E9E79623D5E7C04625
:100B6800FFFFFFFBF0B589B0009201930D03CA0F98
:100B78004B00060004002D0B5B0D0692059244D035
:100B88005B4A93426AD0420FED001543802212045B
:100B98002A430292574AC4009F180026019B019AD3
:100BA8001D03D20F5B0000982D0B5B0D079265D0DB
:100BB8004F4A934200D188E0ED004E49420F2A4344
:100BC80080255B189C462D041543C2000021079B15
:100BD8000698584063460490B0000843FB1A013851
:100BE80003930E2800D989E0FFF7EEFA7E00280269
:100BF800D40128021E022802D4017E007E001E02B3
:100C0800D401C701C701C701B5012B0003430293F3
:100C18002CD0002D15D02800FFF77CFB0100030025
:100C28000B391D22521A31001800D140083885406E
:100C38000A002A433500854002922F4F2C00FF1AE4
:100C4800ABE7FFF767FB01000300153120331C29D0
:100C5800E7DD3200083882400292EEE702002A43BC
:100C6800029207D01F000326029597E7029C0126EF
:100C7800270093E71F000226029C8FE7009A2A4369
:100C88002AD0002D15D02800FFF744FB01000200F0
:100C98000B391D2310005B1A009908388540D9408C
:100CA8002943009D8540144B9B1A9C462A000D0041
:100CB8008CE7FFF72FFB01000200153120321C29B9
:100CC800E7DD009908388140EDE7009A2A4307D00C
:100CD80002009C4603217AE715009446012176E735
:100CE80015009C46022172E700231C00004A22E1FD
:100CF800FF07000001FCFFFF0DFCFFFF029B9D4268
:100D080004D300D022E1A24200D91FE1029BE607EA
:100D1800D907630819430C00029B5B08029313026E
:100D28002D02170E00932B0C2F4307930799BBB284
:100D380002980593FFF78EFABBB243430A04210CCD
:100D4800050011438B4207D9C919013D8F4203D8C9
:100D58008B4201D9851EC919C81A0799FFF77AFA73
:100D6800BAB242430904A4B203000C43A24207D911
:100D7800E419013BA74203D8A24201D9831EE41912
:100D88002D041D43A41A009B009A1B0C1204059302
:100D9800120CABB206925A4306980292059A290C95
:100DA800484353435143029A1B18120C9446634418
:100DB800984202D9802252028918029A180C120409
:100DC8001B04120C40189A18844203D302951ED1B2
:100DD80096421CD26B1E0293009BF6189E429B41C2
:100DE8005B42DB19E418A74203D310D1009BB3423E
:100DF8000DD8A04202D80AD1B24208D9AB1E02933C
:100E0800009BF6189E429B415B42DB19E418B51A19
:100E1800AE42B641201A7642801B874200D1BEE01E
:100E28000799FFF717FABBB243430A04290C0400D9
:100E380011438B4207D9C919013C8F4203D88B4211
:100E480001D9841EC919C81A0799FFF703FABBB25A
:100E580043430904ADB202000D43AB4207D9ED1973
:100E6800013AAF4203D8AB4201D9821EED19ED1AFF
:100E78002304059E1343069906981C0C9AB2514305
:100E880060437243744312180E0CB218904202D990
:100E9800802040022418100C09041204090C0019BF
:100EA8005118854204D31C00854219D1002919D054
:100EB8007D195C1EBD420ED3854203D310D1009A22
:100EC8008A420AD29C1E009B5A009A429B415B426E
:100ED800DB19ED180092854202D1009B994201D09E
:100EE80001231C43039B5B4A9A18002A5ADD6307B7
:100EF8000BD00F232340042B07D0231DA342A4416A
:100F08000299644209191C000291029BDB0108D571
:100F1800514B029A1A408023DB009C460292039AA6
:100F280062444E4B9A4200DD8CE0029BE4085B076A
:100F38001C43029BDB081B0312051B0B1343049A7B
:100F48002000D2071343190009B0F0BD039B002607
:100F5800013B0393E3E6802302991B03194205D062
:100F68001D4203D11400079B029505938023029A22
:100F78001B031343059A0492B8E63100069B0493B9
:100F880002295FD0032956D00129ABD100242300C0
:100F98002200D0E7079B140002950493F0E7012490
:100FA80064429FE70121891A3829EFDC1F2926DCD2
:100FB8002B4A039B9446634420009C40029AC840F5
:100FC8009A4023000243581E83411A43029B14008F
:100FD800CB40620709D00F222240042A05D0221DE7
:100FE800A242A44164421B19140080211A0009047A
:100FF8000A400B4229D1E1085C070C439AE71F23FA
:101008005B429B1A029ADA400023202906D0154930
:10101800039B8C460299634499400B001C43631E52
:101028009C4100231443D4E700231C00059380232C
:101038001B0302939AE7049B059397E700231C0080
:101048001A0078E70024230050E6002301221C0040
:1010580071E7C046FF030000FFFFFFFEFE07000028
:101068001E0400003E04000070B5030002000600E4
:10107800051E11D0C21785185540C40F2800FFF768
:1010880049F90D4A121A0A280FDC0B232E001B1AE5
:101098001530DE40854023003603360B12053243F7
:1010A800DB071A432800110070BD0B388540230068
:1010B8002E000025F0E7C0461E040000D0400B00BB
:1010C800D1409C46203AD34018435242634693404D
:1010D800184370479140030090409C46203A934043
:1010E800194352426346D3401943704710B500294B
:1010F80003D1FFF70FF9203002E00800FFF70AF9E3
:1011080010BDC046F7B5040C0D0091B20F00614345
:101118008C460600019383B2100C5F434443584346
:101128003B0C60441B18994202D98021490264187B
:10113800019955437143180C04191B04BFB249198E
:10114800D819091903B0F0BDF0B506000F00150055
:101158001C0085B08B4263D801D1824260D821003F
:101168002800FFF7C3FF390000903000FFF7BEFFEB
:10117800009B21001B1A1A0028000393FFF7AAFFFF
:1011880000900191B94245D801D1B04242D8009BA4
:10119800019C01200021039AF61AA741FFF79AFF44
:1011A80004000D00039B002B2BD0019B009ADB074A
:1011B80050081843019B5908039B9C46B9422CD8F8
:1011C80001D1B04229D832003B00121A8B410126C6
:1011D80092185B410027B6185F4101235B429C448B
:1011E8006346002BEAD130003900039AFFF766FF07
:1011F800039AA4197D4106000F00FFF76BFF241A1C
:101208008D410A9B002B01D01E605F6020002900E1
:1012180005B0F0BD00240025C4E7B6197F41DCE71E
:1012280000240025EDE7F7B517001E0004000D00A7
:1012380000F011F802000B00009001913800310015
:10124800FFF760FF241A8D41089B009801991C60E4
:101258005D6003B0F0BDF0B504000D00100019008A
:1012680085B0002D11DB002B00DA82E026002F006C
:1012780014001D00BD4204D800D080E0B44200D85C
:101288007DE00020002105B0F0BD00236242AB41A3
:10129800002968DB16001F0004000D00BD4278D845
:1012A80001D1B44275D801235B4229002000039381
:1012B800FFF71CFF390002903000FFF717FF029B71
:1012C80029001B1A1A0020000293FFF703FF0400ED
:1012D8000D00B94255D801D1B04252D801200021A1
:1012E800029AFFF7F7FE361BAF4100900191029B6F
:1012F800002B2CD0EB0760081843029B69089C461A
:1013080001240025B94241D801D1B0423ED832006B
:101318003B00121A8B4192185B4112196B4116005F
:101328001F0001235B429C446346002BEAD1009CCA
:10133800019D029A30003900FFF7C0FE029AFFF7BC
:10134800C9FEA4197D41241A8D4100940195009885
:101358000199039B002B00D195E703000C000021A5
:101368005842A1418FE716001F00002544428D41D5
:1013780080E726002F00002544428D418EE7002398
:1013880093E70022002300920193B0E7B6197F414A
:10139800C7E700200021E0E70023C25C0133002AF0
:1013A800FBD1581E70470000F0B56D48A1B006F09B
:1013B80040FE6C4806F03DFE0025002001F0F0FAE2
:1013C800041E11D001352900674806F032FE0021BD
:1013D800664805F0FDFE032DEFD1654806F029FEAD
:1013E8000120404221B0F0BD624806F022FE62486A
:1013F80007F0A3FC002835D0604806F01AFE002547
:1014080000215F4805F0E4FE5E4C5F4B2100280098
:10141800029303222B000195009506F010FD5B4B0B
:1014280021002800029303222B000195009506F065
:1014380006FD574B0322029321002B00280001953B
:10144800009506F0FCFC534807F077FCA84215D13C
:10145800514B01220293210003000190009006F0F5
:10146800EEFCBDE7013421004C4806F0E2FD002106
:101478004B4805F0ADFE0A2CB9D1C0E7494B032211
:10148800029321002B0028000195009506F0D7FC57
:10149800404883689B69002B43D040220FA9984796
:1014A80000283EDD3422002602AB9B180CAD31002B
:1014B8001E54283A280007F062FE3B4F0FA8390057
:1014C80006F034FC00283CD0032E30D10C98FFF7EE
:1014D800CBFD0022354BFFF745FB0A900B9168685E
:1014E800FFF7C2FD0022314BFFF73CFB0600A8685E
:1014F8000F00FFF7B9FD00222C4BFFF733FB0A9AC8
:101508000B9B08900991002004920593284B032215
:10151800029321000300069607970190009006F0B9
:101528008EFCFA200021800005F052FEB0E707F09B
:101538002EFEB300E8503900002006F0F7FB013614
:10154800C0E7032EC2D00FAB03931A4B03220293BA
:10155800210003000190009006F071FCE1E7C0460D
:1015680014980010399800104E98001010270000A9
:10157800A998001079980010C8920010D09800100F
:1015880050C30000409400100999001028990010D9
:101598004D990010E092001066990010E69800102E
:1015A800881300007C9900109199001000005940A0
:1015B80093990010CB990010F0B597B005930423C8
:1015C8000B921A400B9B0A92DA0807231A40013241
:1015D80007001C9C03910D92820700D0CBE1061DE9
:1015E800002804D0072909D81C20404255E1039A55
:1015F8001A401300161D0822D31A0393059B0425CD
:10160800013B0693002309930C9304930293013B37
:1016180007930195002F01D0059B33600D9B002B8C
:1016280000DDF2E09E4B059A9A4203D39D4B9A4205
:1016380000D2EAE00B99F21B9308890700D50EE166
:10164800049A0F2A00D9BCE0002F00D10FE10499B9
:101658000EAA53540A00079912AB99540C9B0133F4
:101668000C93F5E008250195069B01330693069B2C
:101678009878002800D106E1029B002B08D1252884
:10168800F2D1079B01330793012302930425EAE76C
:101698007A284AD84B280ED8472846D829282CD843
:1016A80025283FD041D82028DED02338434258414E
:1016B800C3B20293D8E74C382E2836D8FEF770FD0F
:1016C800D435353535353535353535353735353521
:1016D800353535353561353737616161D437D235C0
:1016E800D43518371835357AE63735353735E600C5
:1016F800002308930425029327E0012213002A38C7
:10170800C0B2834068490B42AED1E2211800890576
:1017180008400B4235D11900114002911342A3D061
:10172800089013E0079B013B07930023C1E70022C1
:10173800069B08925B7802926C2B07D10425069BC6
:1017480001951B786C2B01D16D190195013E70191B
:101758002900FEF743FD68430600002F3CD0019B9B
:10176800039ADB1B1B18934200D93DE7089B002B0B
:1017780042D1019B042B21D108CC036004230436F9
:1017880016E0072207349443B318934303CC002F81
:1017980008D00132D21B039ED218B24200D923E7E7
:1017A8001860596008331E000825002302932B0097
:1017B800019359E7029B089300239BE7019B082BA1
:1017C80001D0162011E7072307349C430CCC026094
:1017D800436008230836EBE7089B002B0CD1019BDC
:1017E800042B01D10434C9E7019B082BE9D1073444
:1017F800013B9C430834ECE7069B023306930D9BA0
:10180800013B0D9308CC059304E70B9B9B0722D55E
:101818000121F21B9308802080008242D1D2049AD1
:101828000F2ACED8002F1CD00498DBB20EAA13546E
:101838009C46079B12AA1354002900D10EE7802268
:101848006346524213430EAA1354099B013309936A
:10185800049B01330493069B0436013B06E70021F1
:10186800D9E7002903D0039B01330393F0E7039BD7
:10187800023303930A9B002BEAD10598FFF78CFDEE
:10188800039B1B18F1E78022F31BD200934298D2E6
:10189800002F0BD103980838C01817B0F0BDC04608
:1018A800209200106CB40010DAFF00009B08302270
:1018B80038603B706B469B180A9A1B78002A0BD03D
:1018C800FB70099BBB70002B1BD100240EAD049B41
:1018D800A3421BD1F01BE0E77B70F2E70EACE456A5
:1018E8000EA9595C002C07DA039DB4180140AC42DC
:1018F80000D979E631700136013304999942EDD166
:10190800E3E7012200237F20D21BF6E7099B002B87
:1019180002D02B787F2B1ED80A9B002B1ED012AB2F
:10192800E35C33700023013601930123019ADB1B2A
:101938009B18039AF318934200D955E6731C029337
:101948002B78019A33700599029807F00FFC029BD7
:10195800019E9C46664401340135B8E72B789B000C
:10196800FB181A6805920A9A05981A60FFF714FD81
:10197800431C0193D9E70E2037E6C046F7B50400AB
:101988000D001E00019205F041FC030007F032FC37
:10199800054F32003B5001992800A04707F02AFC68
:1019A800385802F02FFAC04608000000F0B585B09C
:1019B80001902F48039106F0F3FB061E0AD104009C
:1019C80001272C4D2C4B9D4206D3019B002B01D0A7
:1019D800002C1FD105B0F0BD2B7B002B10D02B683D
:1019E800DB68002B01D0280098472B681B69002B67
:1019F80008D16B6804222800196800F0A1F80136A4
:101A08001035DFE7280098470028F2D03B00B340A4
:101A18001C43F4E727002000FEF79AFC01238340CB
:101A2800DA43144E05019C43731901931B7B029200
:101A3800002B0CD0AB591B69002B13D1029B7619D4
:101A48001F40736804221968019800F079F8002C87
:101A5800E1D1039B002B03D06420002105F0B8FBE3
:101A68003C00B5E7019898470028F0D1E6E7C04662
:101A78003806002090940010909400100023054A26
:101A88001370054A1360054A1360054B054A1A602E
:101A98007047C046B80F00203006002034060020EA
:101AA800B00000209981001070B50C4D29780029EC
:101AB80008D10120FFF77AFF094C0A4B9C4202D358
:101AC80001232B7070BD63685B79002B03D02368FA
:101AD80020009B6898471034EFE7C046B80F0020F5
:101AE800909400109094001010B50400044806F07B
:101AF80057FB002C03D00121024807F008FB10BD5A
:101B0800300600203406002070B50A4B05001B681B
:101B18009847094CA860094B9C4200D370BD636884
:101B28005B79002B04D02368290020001B689847A4
:101B38001034F0E7B000002090940010909400104A
:101B4800084B10B5C31A44681B110133237143684D
:101B58009A7101224368196043685A7106F039FB8B
:101B680010BDC04690940010F0B50400002087B066
:101B780002AF7B603B6B0E001500834207D07B6B86
:101B88001021FB6000933B6BFA6AFFF715FD0722F3
:101B9800230015401340DB001549AD011D434302E6
:101BA8000B401D43BC6ABB6A17341B051D43231831
:101BB80093430333043A93430733D34093406A462D
:101BC800D31A9D463B6B02AC002B08D001002000C5
:101BD8007B6B103000933B6BFA6AFFF7EDFC2A0031
:101BE800310020007B6806F0F5FABD4605B0F0BD6F
:101BF80000FE0F0010B508220021024807F0BFFAC6
:101C080010BDC046F706002030B50A4B0A4CA34267
:101C180001D3002030BD1A7F196AD20052189142B0
:101C280001D12433F3E708310D1F2D788542F6D111
:101C38000120EFE76403002088030020F0B5254C5D
:101C48008BB025786D06AD0F2B000A339B001B590E
:101C5800002B10D1204A18000392204A20490292F2
:101C68000822049501920093043A06F0DDFA002355
:101C780018000BB0F0BD20001A4A1B4998470123F1
:101C88000028F5DA082704950025134B144E039312
:101C9800164B31002800029304222B00019700956F
:101CA80006F0C2FAE38804220893A3883100079358
:101CB8006388280006936378059323780197049333
:101CC8000B4B009503930B4B02932B0006F0ACFAD9
:101CD800CDE7C0463C060020C89F00101F9A0010A0
:101CE80078940010440600204C0600203D9A00100D
:101CF800B89F0010529A0010F0B5838887B00593FA
:101D0800437804000493184B00200393174B0E00EC
:101D18000293082317001649042201930090030038
:101D280006F082FA01F000FF002806D1114D124B8F
:101D38009D420CD38620404207E03A003100200043
:101D480001F0AEFE0028F1D1002007B0F0BD6B69AC
:101D5800002B01D12435EAE73A00310020009847EA
:101D68000028F7D1F0E7C046EFA00010959A0010C0
:101D7800789400106403002088030020F0B583885D
:101D880087B005934378040004931A4B002003930B
:101D9800194B0E0002930823170001930422030035
:101DA8001649009006F040FA154D164B9D4202D395
:101DB8008620404212E0144B6A685B6A934216D848
:101DC800AB69002B13D09178FF208C46A188014085
:101DD8008C4505D13A0031002000984707B0F0BD86
:101DE8005279012A03D13A0031002000984724355E
:101DF800DBE7C046FEA00010959A0010789400100A
:101E080064030020880300203C0600201FB57F22C1
:101E18007023024018420ED000240C4B039002930A
:101E28002000230001220A490194009406F0FCF9DD
:101E3800200004B010BD012143B208009040002BDF
:101E4800F7DA103291400800F3E7C046B89A00105C
:101E58007894001030B585B0050002F091FE0300BB
:101E68000400783313D10020114B02220293114948
:101E7800030003950190009006F0D6F92800FFF7BB
:101E8800C5FF0D4A00241368834313600CE0002843
:101E9800F4D00020094B0122029306490300039560
:101EA8000190009006F0C0F9200005B030BDC04692
:101EB800D39A00107894001000070020F49A0010BC
:101EC800F0B589B007918388040005934378002012
:101ED8000493154B15490393154B0090029308235F
:101EE800160001930422030006F09EF9FF20114B0F
:101EF800114D596A114BAB4202D3862040420FE084
:101F08005A6891420ED81F69002F0BD092789446D8
:101F1800A2880240944505D1320020000799B847AD
:101F280009B0F0BD2433E6E7E1A000107894001072
:101F3800959A00103C0600208803002064030020C6
:101F4800F0B585B004000191042813D0012828D1E8
:101F5800204B1B78002B24D001F016FB1E4E1F4B84
:101F68009E421BD20025336A0293337FAB4204D8CA
:101F78002436F4E7FFF73EFEEAE7029BEF00DF199D
:101F8800387902F0FDFD03903879FFF73FFF144AD6
:101F9800136883431360039B002B0FDA00220D4B59
:101FA8001A700D4D0D4B9D420BD30E4B1B6A002B27
:101FB80002D020000199984705B0F0BD0135EDB277
:101FC800D3E7EB68002B03D021002800019A98473B
:101FD8002435E7E7F5060020640300208803002085
:101FE800000700203C060020F0B5172687B0C5B2D0
:101FF8006E440C0035706B0609D02800FFF704FE0C
:1020080000281CD00020184B1B78834217D0174F8C
:1020180017490395002C14D00020164B0322029375
:1020280001900300009006F0FFF8307802F0D4FC2D
:10203800FB69002B02D0310008209847012007B027
:10204800F0BD0D4B0322200002930194230000945D
:1020580006F0EAF8307802F0FBFCFB69002BEDD0C3
:1020680031000920E9E7C046F60600203C060020BA
:1020780078940010169B0010299B0010032330B59C
:1020880019400E4B87B003930D4B04000490029344
:10209800002008230B4D0422059101932900030019
:1020A800009006F0C1F8200001F054FA2000FFF774
:1020B800D1FE43425841C0B207B030BD73A00010F2
:1020C8003E9B001078940010F0B581788DB00AAD71
:1020D8002970437902791B0213436B80C27804008C
:1020E800032002402A710693334B00200393334B9D
:1020F800334F029308230592049104223900019377
:102108000090030006F090F8A078FFF77FFE2D4BB3
:102118002D4E1B68099003420AD0E178A078FFF79A
:10212800ADFF06F032FE002802D1963006F0F1FE2F
:10213800280002F023FC02002B78783226D10020F8
:102148000393224B0222029339000300019000906E
:1021580006F06AF8287802F0CFFC0300783325D11E
:1021680000202B7802220393194B39000293019027
:102178000300009006F058F833000120B933C43644
:10218800099A18703368134333600DE00028E1D0D2
:102198000393104B0020029301900300009001224A
:1021A800390006F041F800200DB0F0BD0028E3D05A
:1021B8002B780393084BEDE782A00010609B00107A
:1021C80078940010000700203C060020859B001032
:1021D800CC9B0010A89B0010EC9B0010F0B58BB0B6
:1021E80007000691089201F001FC00283FD0380052
:1021F800089A069901F024FC002838D0AF4CA3694E
:10220800002B2ED13B78DD06ED0E012D00D111E11A
:10221800022D00D1F1E1002D00D085E0089A126866
:102228000992A74A7E7807927F2B5ED9062E20D086
:10223800082E48D0002E00D0E6E0A24B04220393DB
:10224800A14B3000029308230799019300963300AD
:1022580005F0EAFF099B1E705E700223069A136060
:1022680005E03800089A069998470028CAD1002046
:102278005CE0964B964E029308230422079901933B
:1022880028002B000396009505F0CEFF79880B0AED
:10229800DAB294461A1F012A46D9072B44D8626A33
:1022A800CFB21078002803D18A4B0491039694E0AA
:1022B8005478644503D1AF4200D1D4E101351218F6
:1022C800EFE71378CAE7844B04220393834B280073
:1022D800029307992B0001960095BA3405F0A4FFE4
:1022E8002378099A13700123B8E7701E082800D9CB
:1022F8008AE0FDF75FFF7C899B89058989891D0034
:102308007B8800200493744B00900393744B042241
:102318000293082307990193030005F085FFB87815
:1023280002F08EFA0028A2D0162040420BB0F0BD71
:102338007B88656A04936B4B0026089303936A4B6A
:102348000422029308233000019307993300009672
:1023580005F06AFF7B88B34236D1FFF74BFC2100BA
:102368007B88BA310B70E369B34200D17FE7032061
:1023780098477CE76B78042B09D0052B1AD0022BE1
:1023880007D16E797B88B34203D1012001E0EB7855
:1023980006932B78ED182B78002BEBD1002817D05B
:1023A800FFF728FC21007B88BA310B70E369002B0A
:1023B800DDD15CE77B88B342EBD1069B002BE8D1EB
:1023C8002800FFF781FEE4E73000FF260696E2E7E3
:1023D8007B880493089B0393444B029308230422AD
:1023E800019307990300009005F01EFF9CE73A4B04
:1023F80003933F4B0020029308230422019307997B
:102408000300009005F010FF7B78002005933B78CF
:1024180004220493304B07990393364B00900293A0
:1024280008230193030005F0FFFE7DE72A4B039381
:10243800314BDFE7089A10682200BA321278002A76
:1024480000D171E7BA88646AD1B28C4621000D7850
:102458000795002D00D167E74E78022E03D10D793C
:10246800654500D909E1079D4919F0E7069B057004
:1024780045701E60FBE6E4182378002B00D153E773
:1024880061780429F7D1A1788A42F4D10023072A78
:1024980001D81A4BD35C03700593BB8800200493C2
:1024A800174B04220393174B054902930823009006
:1024B8000193030005F0B8FE15E7C0463C0600206E
:1024C80078940010B8A000100D9C0010249C0010F7
:1024D800A5A000109D9D0010C7A000103F9C0010F3
:1024E8005D9C00108FA00010789C0010999C001033
:1024F800B99C0010EB9C0010D39C0010F70600203C
:1025080044A00010209D00100B2D00D0C0E07B8857
:1025180000250593654BFF260393654B04920293B0
:1025280008230422019328002B006249009505F036
:102538007BFE069607952378002B0AD15E4BDB6954
:10254800002B02D0072007999847002D00D08EE66F
:10255800EAE66378042B04D0052B24D02378E4180A
:10256800E9E7E378A6780693BB889E420AD17B8880
:10257800069A9A4206D100250794072E02D84F4B97
:102588000135F254069B00200593484B042203931F
:102598004B4B48490293082304960193009003008B
:1025A80005F042FEDAE7BB88B342D7D1A278B87803
:1025B800444B069D3F4904920393A8420FD0424BD7
:1025C800002002930823009001930422030005F0E1
:1025D8002BFEE178A078FFF751FD0500BEE73B4BE5
:1025E800002002930823009001930422030005F0C1
:1025F8001BFE2000FFF768FDEFE759B27A78002943
:1026080018DA002A1AD1089B3E791D6873060AD089
:102618003000FFF7F9FA002800D185E6BA342378AC
:10262800002B00D180E62900300002F03DFA00239B
:102638006B7012E6012A06D0032A0ED004931D49B6
:10264800234B059228E079880029F7D1B888FFF74D
:10265800CBFC002800D00AE666E679880029EDD18F
:10266800B8880131F3E708990A60022B00D028E600
:10267800D37891781B020B43F0E559B27D78002995
:1026880000DB41E7002D00D1F0E60A2D00D1F3E68A
:10269800049308490F4B059503930F4B00200293B1
:1026A80008230422019300900300BCE632A0001026
:1026B800449D0010789400103C060020F706002086
:1026C800209D00101EA00010669D0010829D001025
:1026D80002A0001056A00010EB9C0010F0B50500F9
:1026E8001F00042687B0049105923B002800059A34
:1026F800049902F071FA030004000B330FD1002093
:10270800084B0222029308490300039501900090A8
:1027180005F08AFD013E04F0C1FC002EE5D1200041
:1027280007B0F0BDB49D00107894001070B51E4C31
:1027380088B0237D002B2ED1E26807AB8020A168EA
:102748000792FFF7CBFF079AA3689B18A360E3687B
:102758009B1AE3601DD1002A1BD0E6882569AE428A
:1027680017DD2300C83328001978FDF7C7FD081EB8
:102778000FD10E4B042203930D4B0E4902930823ED
:102788000595019304960300009005F04DFD012383
:10279800237508B070BD002180200B000A00217548
:1027A80002F01AFAF5E7C0463C060020A79F001081
:1027B800DB9D001078940010F0B505000826002075
:1027C800614B8DB00793614F614B0C0005910293EB
:1027D8000422030007990495039701960090099035
:1027E80005F022FD002D00D0A2E0002C57D12300D7
:1027F800320020000AA905F05DFE00280CDA554BCE
:10280800042202932000230007990397019600945D
:1028180005F00AFD802022E020214F4D0A9A02ABE4
:10282800DB8C2A600B9A2C756A604C4A2C61AA6072
:1028380002AA52181278EC6052B2002A18DB802BD8
:1028480011D9474B012220000799029301942300D4
:10285800009405F0E9FC802002F0BEF8200002F0A8
:10286800BBF80DB0F0BD002B02D02B61EB60F8E790
:10287800FFF7E4F9002809D13A4B0397029308239C
:1028880001930300042207990090C1E72A69EB88A5
:10289800934200DD1300EB60FFF748FFE1E72E4CA1
:1028A80009ABE268A168002A0FDC2A00280005F0BD
:1028B80001FE0028D5DA2C4B0422029328002B00B5
:1028C8000799039701960095A2E7280005F0F2FD05
:1028D80000280FDA244B0422280007990293039753
:1028E8002B000196009505F09FFC802002F074F8FB
:1028F8002800B4E7099AA368E5689B18AD1AA36095
:10290800E560AED1154BA360FFF798F9039700284F
:1029180003D1164B01960293B3E7154B0422029399
:1029280028002B0007990196009505F07DFCB3E778
:10293800802D00D095E7084BDA68002AACD11B7DC2
:10294800002B00D18DE7A7E778940010DB9F0010DB
:10295800FE9D00101B9E00103C06002074060020FF
:10296800389E0010519E00106F9E00108B9E001024
:10297800AA9E0010054B064A58629A62054A002032
:10298800DA62054A1A63054A9A6170473C060020D4
:10299800E5210010C91E0010011D0010851D001042
:1029A800F0B5614F8BB07B6A002406935F4B604D96
:1029B8000393604B07900293082304220193290094
:1029C80023002000009405F02FFC01225242D31767
:1029D800594804F007FD3B00B8331E78A6421DD0C5
:1029E800564B2000029301942300009402222900F0
:1029F80005F01AFC783C4D4B00200393504B042201
:102A0800029308234A4901930090030005F00CFC47
:102A1800494804F0E1FD20000BB0F0BD079B494890
:102A28003B62F86101F006FF01F074FE041EE2DB70
:102A380000F0E0FD041EDEDB069B5B78012B03D172
:102A4800069BDB79002B0CD100203F4B012202931F
:102A5800290003000190009005F0E6FB162464426B
:102A6800C9E73A0008ADC832280013706B802E7190
:102A78002E7001F083FF041EBDDB802328002B701D
:102A880001F07CFF041EB6DB304D3000290001F058
:102A9800ABFE041EAFDB2900802001F0A5FE2C4D03
:102AA800041EA8DB2B4B9D4219D3002002F024F80A
:102AB800041EA0DB3D000126C4352B68802033436B
:102AC8002B6002F019F8041E00DA94E780232A68C4
:102AD8005B021343B83700242B603E708BE7002459
:102AE8002B6A06932B7FA34201D82435DAE7069B8D
:102AF800E6009E19337900200493174B0C49039381
:102B0800164B00900293082304220193030005F05A
:102B18008BFB3079316801F067FE002802D101345F
:102B2800E4B2DFE701249AE73C060020F79F001093
:102B380078940010C59E001064020020E49E0010E6
:102B48004B9F0010491F0010079F0010C12700105D
:102B58006403002088030020919F0010369F001016
:102B68001FB50E4B1C78002C16D100F06FF800280A
:102B78000BD10B4B019002930090030001220949ED
:102B880005F052FB0120404204E0FFF7F3FE20006D
:102B9800FFF706FF04B010BD7820F4E7F406002024
:102BA8006C9F001078940010F0B591B01122214963
:102BB8000BA806F0DBFA1022002107A806F0DFFABE
:102BC8001D4C12220021200006F0D9FA102107A876
:102BD80005F037FE002829DD082800DA0820083823
:102BE80007AB1D18154B04220493154B1549039385
:102BF800154B002002930823019300932B0005F046
:102C080022FB0F21220000238C462C276846E95C12
:102C1800C0190E09865D604601406846C019415CCE
:102C28000133167051700232082BEED1200011B01A
:102C3800F0BDC0462DA10010B90F002018A100104A
:102C48002EA500107094001026A10010F0B50027E2
:102C58000826BD4B93B0BD4DBD4C09930393BD4BA6
:102C6800042229003800029304943B00019600973F
:102C780005F0E9FAB84B04220493099B2900039351
:102C8800B64B380002933B000196009705F0DBFA3B
:102C9800B34B0C9300230B930D9309930A9320785D
:102CA800002810D1AC4B02349C4200D106E2AD4B57
:102CB80004220393AC4BA54902930823049401937F
:102CC80000900300E2E760780B284ED8FDF77CFA05
:102CD80070010C003E0070015600AC004D004D0024
:102CE8004D004D004D0050009E4B042203939F4B16
:102CF800964902930823019300230494180000972F
:102D080005F0A1FA402310AD28002F706B802F71B9
:102D180001F0F6FD002807D0082328006B8001F099
:102D2800EFFD002800D06F8010AB9B788749E371D6
:102D380004938F4B03938F4B029308230193002333
:102D480004221800009705F07EFA0EE0854B042255
:102D58000393894B7D49029308230193002304942C
:102D68001800009705F06FFA0A942378E41896E79C
:102D78007C4B764903930494804BDDE7804B734D7D
:102D88000293082301930023764E18000422290099
:102D980004940396009705F056FAE378002B0CD0BC
:102DA800784B04220293082301930023290018007A
:102DB8000396009705F047FAD7E7A378002B27D0AA
:102DC8000D9B0133DBB20D93CFE7099A5268944209
:102DD80022D0099A24320992099A9A42F5D30020FE
:102DE800694B01220293290003000394019000908B
:102DF80005F029FA0024654B2000029301222300E4
:102E080052490194009405F01EFA200013B0F0BD59
:102E18005F4B09935F4BDFE7099B9B68002BCFD083
:102E280020000D999847CBE7099B4849002B07D10B
:102E38000122594B0293099B01930093180019E052
:102E4800484B04220393554B04940293082301939F
:102E580000230097180005F0F6F90026099B1B7F50
:102E68009E420AD300204E4B0122029303003749A9
:102E78000190009005F0E7F9BCE7099AF300126A9F
:102E8800D3180E93A2781B799A4201D00136E5E750
:102E980001250321EBB20F93E37810AA0B401371BD
:102EA800637921791B020B435380A3787F2B3DD98B
:102EB8002B00012210339A4013000C9A1A423ED17B
:102EC80080230F9A1343202108AA5218137010A8C0
:102ED80001F016FD002832D1202608AB9B191B787B
:102EE80004220593A378194904932E4B0090039369
:102EF8002D4B029308230193030005F0A4F908ABB6
:102F08009B1918780E9BA070187143B20122002BF0
:102F180013DA0F9B1033DBB29A400C9B0B49134317
:102F28000C93204B04900393204B05E70123AB40FF
:102F38000C9A1A4203D1EBB2C5E7AA40EDE7013576
:102F4800102DA6D1A2E7C04614A500107094001059
:102F5800A00200203EA10010630300205CA1001025
:102F68000100010001A50010BDA3001078A1001008
:102F7800ECA4001091A10010ACA10010CCA100108D
:102F8800EAA1001006A2001023A20010E2A300107C
:102F9800640300208803002043A2001084A20010CC
:102FA800D0A20010D3A400109FA20010BEA200104F
:102FB8000B9B434E032B40D1FFF7F6FD051E0FD0A8
:102FC800FEF7EAF9021E0BD0102831D000203D4B45
:102FD80001220293310003000190009005F033F9BB
:102FE80025780422EB1E6E080E93A31C0693B31ECD
:102FF8000593EB1E0493344B31490393334B0097ED
:103008000293082301930023180005F01CF90223FA
:103018005B421B1BA61965190F930F9B023D9A195A
:103028000E9B002B17DA0B9B0133DBB20B939CE64C
:103038002900A01C06F09AF8D2E70B9B002BCFD1F1
:103048000A9B002B22D1224B012202930A9B3100BA
:1030580001930093F2E633780E98059304931A4B84
:10306800079003931B4B06920293082301930023B6
:10307800042218001249009705F0E5F86F703378BC
:10308800013E2B700E9B023B0E93C6E70A9B04225F
:10309800E51A114B04950393104B31000293082352
:1030A80001930B9B1800009305F0CDF80A9B0D9A2D
:1030B8009D70ADB22D0ADD701A71B4E70848A5E617
:1030C80070940010EDA20010C1A4001038A30010E5
:1030D80080A3001061A3001001A500109DA300109B
:1030E800A002002010B5006886B0002806D0043879
:1030F80003685B68994212D04068F6E7094B0024E0
:103108000393094B09480293082304910193010092
:10311800230020000422009405F095F8200006B052
:1031280010BDC046A9A4001001A40010709400109E
:103138000B0010B5006886B0002808D00438026873
:103148005268526892789A4211D04068F4E7049322
:10315800084B00240393084B200002930823042201
:10316800019306492300009405F06DF8200006B08D
:1031780010BDC0468FA4001026A400107094001043
:1031880010B50C00006886B0002811D00438036818
:103198005B681A6A1B7FDB009B189A4201D1406862
:1031A800F2E70832111F0978A142F6D106B010BD26
:1031B800084B04940393084B00240293082320002F
:1031C8000193042223000549009405F03CF82000EF
:1031D800ECE7C04678A4001054A4001070940010C6
:1031E800094A0023110010B51478844205D15468A7
:1031F800002C02D09B01C81810BD01334032042BAB
:10320800F2D10020F8E7C04608070020F0B5040016
:103218002C3C6368060025788FB0103321D0594BB9
:1032280000200393584B0422029308235749019323
:1032380004950300009005F015F8636810330ED06C
:103248006369099323690A93A3690B9305F09DFDAC
:10325800071E00D175E031004D4805F018FF0FB08A
:10326800F0BDE16B02230F00E2681F4019423AD01B
:10327800002A16D1042708003840394202D000231A
:103288006360DAE73F4B3A000393424B3F490293AE
:10329800082300900193030004F0E4FFE36B1F434D
:1032A800E7632800E268A1680DABFFF717FA00286A
:1032B8000ED003900020384B0122029303003349BB
:1032C80004950190009004F0CDFF16235B42D7E7E8
:1032D8000D9AA3689B18A360E3689B1AE3602369AF
:1032E8009B182361A9E72800A1680DAB01F0F4FC45
:1032F80000280AD0284B0390029301223B00380093
:103308002249049501970097DDE70D9FA368DB1913
:10331800A360E368DB1BE3602369DB192361002FEB
:10332800ADD0280005F0D9F801003800FCF792FF6D
:103338000029A4D1E368002BA1D0280001F068FD82
:103348007BE7236904220693636810490593237871
:10335800009004930B4B0393104B029308230193A3
:10336800030004F07FFF67613000103804F0A2F911
:10337800099B002B00D172E728000B9A0A999847FD
:103388006DE7C046C0A600105DA500108894001027
:10339800900300208CA500109DA50010BAA5001070
:1033A80070B54B1E06000D0086B0012B18D8FFF72C
:1033B80017FF041E16D1012D12D11321012230004E
:1033C80005AB694401F088FC05980028F5D10D4B40
:1033D800012202930C4903000190009004F042FF7F
:1033E80006B070BD05F0D1FC21002C31002801D0B9
:1033F800012D03D10800FFF709FFF1E7034805F0A5
:1034080046FEEDE7ECA5001088940010900300201C
:10341800F0B58FB005000B9109920C9304F031FFC1
:10342800071E00D080E0424B04220A93099B0A99A8
:1034380006930B9B049505933E4B009003933E4BDC
:10344800029308230193030004F00CFFEFF31083A9
:1034580072B60D93394B089300220023089804F0A4
:103468004BF9002814D1364BBA019C186668310014
:10347800103128D1334B012202930A990300039596
:103488000190009004F0EEFE089804F013F911E0A2
:10349800089B013740330893042FDDD100202A4BC5
:1034A800012202930C2603000A990190009004F06F
:1034B800D9FE76420D9B002B02D162B6BFF36F8F07
:1034C80030000FB0F0BDD5540B9B2061A360099B61
:1034D8002800E360149B63610C9BE363159BA36165
:1034E80010235B42636004F0F8FF00280CD028002A
:1034F80004F0F3FF01000998FCF7ACFE002903D0A3
:103508000423E26B1343E3630C9B9B0707D50F4B24
:10351800B9010F48C91805F0BAFD0026CAE7280006
:1035280001F076FC0600C5E710267642C8E7C046DB
:1035380088940010B3A6001006A6001024070020E7
:103548000807002052A6001037A6001034070020F4
:103558009003002010B5EFF3108472B6FFF740FE19
:10356800011E09D04368103306D18C235B424360A7
:103578002C31044805F08BFD002C02D162B6BFF354
:103588006F8F10BD9003002070B50025144C86B0D5
:10359800EFF3108672B66368103316D18C232100BE
:1035A8005B4263602C310F4805F071FD23780020E1
:1035B80004930D4B042203930C4B0D4902930823EB
:1035C80000900193030004F04DFE002E02D162B674
:1035D800BFF36F8F01354034042DD9D106B070BDCB
:1035E80008070020900300209EA600107BA600106C
:1035F8008894001070B500250126084C2000084961
:1036080005F02DFD2000320031001038013505F09D
:10361800EAFC4034042DF1D1002070BD34070020AD
:103628001532001070B506000D000179124814001B
:10363800FFF77EFD00281BD0327873787F2A10D8D8
:10364800202B03D0222B08D0862012E007222168E5
:10365800103805F08BFD002070BD738809380370A1
:10366800F9E7212BF0D110381A3B20602B60F2E7E4
:1036780013204042F0E7C04608080020054B01002F
:1036880010B51800FFF77CFD002802D00123073889
:10369800037010BD0808002010B5016901220B0055
:1036A8004B331A700B68002B08D00B0049331B787A
:1036B800002B03D00248083105F0E9FC10BDC046D4
:1036C8009003002010B5036901211A004A321170D5
:1036D8001A68002A08D0190048331B780831002BD3
:1036E80002D0024805F0D3FC10BDC046900300206C
:1036F800130070B514000D001100012248331A7030
:1037080023680831002B07D023004A331B78002B8D
:1037180002D00D4805F0BBFC230090331B681A69E2
:103728009B689A4206D1002D0DD121001831FA224A
:10373800920004E0210000221831002DF7D0002368
:10374800014804F041F970BD9003002070B5046988
:1037580023009E331B78181E14D0230000209F33AB
:103768001B7883420ED1230048331870986C04F0FC
:103778009CFC21000500002200230348183104F0B6
:1037880023F9280070BDC04690030020030070B5DF
:103798000025040048331D8007220949943005F0AC
:1037A800E5FC230020009C331D70013B1D70033392
:1037B80029001D809D7040224C3005F0E0FC70BD52
:1037C800909400100300F0B58C331B6804005B680C
:1037D80085B01B6A1E7D300004F053FD071E23D1FF
:1037E800230086331B78002B1ED08022A06FD200C6
:1037F80003A904F079FC002816D0230030331F7089
:103808003F2303405A425341C51A2300183B0193F2
:10381800064B039900932A0002233000FFF7F8FDB6
:103828002900A06F04F07CFC05B0F0BDF93600104B
:1038380010B5046900222300A43318605A600B4AAB
:103848000433516800290DD15360136020000849E2
:10385800083005F004FC20000649183005F023FC68
:10386800002010BD0B605360F0E7C0460808002038
:10387800BB820010CD37001037B56B460469DD1DDB
:103888002300002248331A70297023009033012244
:103898002900186804F009FC002803D105F075FA1E
:1038A800002807D021000A2200231831064804F016
:1038B8008BF837BD2300A1331B78002BF2D00021F1
:1038C8000A2003F085FCE0E79003002073B50500AB
:1038D8001400002924DD16000A0021008C36306807
:1038E8004C3104F0E2FB2300012249331A702368AB
:1038F800002B09D023004B331B78002B04D0210068
:103908000F48083105F0C3FB33685A685969DB6909
:10391800521A9B1A3F2B03D80123A034237073BD7E
:1039280023009E331B78002BF9D02100054B402241
:103938000093280001234C310194FFF769FDEEE75D
:1039480090030020D53800101D4BF7B50F0001007B
:103958001800FFF7C7FB041E23D005000368781E74
:103968005E68A43D05281CD8FCF724FC1C1B031C1E
:103978002024A31F1978002913D101221A70336A51
:103988002A00187B5C3CFFF7A1FF2178002908D1A9
:10399800336A0A00187D0B4B019500930223FFF749
:1039A80037FDF7BD2800FFF7F1FEFAE70123053CD4
:1039B8002370F6E7053C2378002BF2D00023F7E7C5
:1039C80008080020F93600107FB50BAB0593039368
:1039D800054B002002930823042201930090030062
:1039E800FEF7C2F807B000BDEDA600107FB543880A
:1039F8000D0016001B0A0F2B15D10C4B0024039346
:103A08000B4B042202930823200001930949230049
:103A18000094FFF7D9FF2000074A084B32609B1A31
:103A28002B6004B070BD86204042FAE705A700105D
:103A3800EDA6001068940010880300208D03002074
:103A4800F0B5134F0D003B68160085B0002B1CD055
:103A580043881A0A032A18D1DBB2EE2B15D10D4B75
:103A6800002403930C4B2000029308230132019396
:103A78000A492300009404F0C5FC20003B681A683A
:103A880032605B682B6005B0F0BD86204042FAE7E3
:103A9800100800207FA700101CA7001080940010B9
:103AA800F0B51C4B8BB0089109920793437800241A
:103AB8000493194B194F029308230500019304221C
:103AC8002300200007990397009404F09BFC144EF0
:103AD8003368A3421BD06A781B7A9A4217D1AA8806
:103AE800042A14D10F4B200002930823079901934D
:103AF80003972300009404F085FC2000336809999B
:103B0800DA680A601B69089A13600BB0F0BD86205A
:103B18004042FAE7809400103DA7001064A7001007
:103B2800100800204FA70010024B1868431E984148
:103B3800C0B270471008002037B501230025802245
:103B4800064C0749200000955B42D20003F0FEFEB8
:103B58002000044905F01FF928003EBD900300200D
:103B6800D00F00209EA70010F0B507000D0087B009
:103B7800002939D000248B681E4E05934B6801221A
:103B880004930B68200003931B4B310002930194AC
:103B98002300009404F046FC6B69012205932B690D
:103BA80031000493EB6820000393144B01940293B3
:103BB8000094230004F036FCEB6901220393104BB8
:103BC80031002000029301942300009404F02AFCA1
:103BD800AB69012203930B4B3100029320002300B1
:103BE8000194009404F01EFC2900380002F0BCFD8A
:103BF80007B0F0BD48940010A7A70010D6A7001082
:103C080005A8001014A8001030BFFDE7F0B5144B4C
:103C1800144C85B00700181903910138210001934D
:103C2800FCF7DCFA104E114D444370192900013895
:103C3800FCF7D4FA45432B190293029A039B0C49CB
:103C48009D1A2800019A05F091FA281932000021DE
:103C580005F095FA0298083D08307D6605B0F0BD7C
:103C680000000000010000000C000000040000003B
:103C780090940010044B99685869884202D003490F
:103C8800034A0A6070470000800F002004ED00E03E
:103C980000000010F0B53E4B91B05F680400FB05D2
:103CA800DB0D079362B6BFF36F8F3A4E130EFF2BEF
:103CB8000DD1F33B1340082B4AD10020364B01228B
:103CC8000293310003000190009004F0C6FB002528
:103CD8002C00079B032B41D10020304B012202937B
:103CE800310003000190009004F0B7FBA3692C4A4F
:103CF800934202D32B4A934205D32B4A934241D392
:103D08002A4A93423ED2023B1A88294B9A4239D119
:103D18000020236831000393264B0122029301906F
:103D28000300009004F099FB26682022210008A8CF
:103D380005F01CFA0F9B002D26D0DA0502D11E4A89
:103D480013430F93300008A9FFF70EFF11B0F0BD21
:103D580001251207BDD50C000025BAE7F8235B0042
:103D6800164A1F4200D0164A0020079B0392103BB8
:103D78000493144B01220293310003000190009038
:103D880004F06BFB0026D0E75B0A5B02D9E7C0466C
:103D980000ED00E04894001070A800109BA80010E7
:103DA800A801001018920010000000200000002058
:103DB80002DF0000B2A80010FF01000042A80010B6
:103DC80057A80010CEA80010EFF30880EFF3098180
:103DD80001B57246FFF75EFF01BDC04672B60748DF
:103DE8000749401880F30988EFF31480022108433B
:103DF80080F31488BFF36F8F00F0C6F8D017002047
:103E08000008000010B50A4B9B6883420DD1EFF300
:103E18000583002B09D08022064B520559680A43B6
:103E28005A605A6A04490A405A6205F083F810BD7C
:103E3800800F002000ED00E0FF7FFFFF0B21084A04
:103E480049429368D9669866802306495B054868A5
:103E580003434B6062B6BFF36F8F9368D86E7047A9
:103E6800800F002000ED00E015498A6815481044CD
:103E7800EFF3098CF0C043464C4655465E4667460C
:103E8800F8C072B6104F114E4A698A603E60104CF5
:103E9800141920680F4C2060906E00239366002848
:103EA80000D162B6074C10191030F8C89846A146E0
:103EB800AA46B346BC462438F0C88CF30988704734
:103EC800800F00203000000004ED00E00000000832
:103ED800640000001408002004207146014202D04A
:103EE800EFF3098001D1EFF308808169023909787D
:103EF8000229FFD001B504F0A4FA01BD43B20006BF
:103F080005D41F221A4001239340014A13607047C9
:103F180000E100E043B2000609D41F221A40012341
:103F28009340034AD367BFF34F8FBFF36F8F704738
:103F380004E100E030B5FF2503220B00290040B260
:103F48000240D20091409B012B40C9439340002876
:103F58000ADBC0240A4A800880008018A40002599D
:103F68000A401343035130BD0F2210400838054A58
:103F7800800880008018C26911401943C161F2E7C6
:103F880000E100E000ED00E0FF22084B10B593438C
:103F9800074A9360BFF34F8FBFF36F8F02F08EFC19
:103FA80003F03AFD00F03EF802F0CEFC00010010EC
:103FB80000ED00E010B5203A1360029B0124536025
:103FC800039B06499360049BA143D36080235B0451
:103FD800D361002391610265836610BD85190010C5
:103FE800074B9860074B406E1860101C81F30988D6
:103FF800002162B6BFF36F8F00220023FDF7BEFCDD
:10400800800F002014080020014910220A60704720
:1040180010ED00E0BFF34F8F30BF62B6BFF36F8F74
:104028007047C046F0B5C02400220326FF25A4002F
:1040380010002F003040C0008740054993089B00BE
:104048005B1819590132B94319511A2AF0D1F0BD38
:1040580000E100E001B5EFF305800549401AC00012
:104068000449014409C9984709BC9E4602490847C2
:1040780010000000409300107D3C0010072310B58D
:104088000449054A99430548521A03F07CFF002069
:1040980010BDC0464F310020002004201808002021
:1040A8000200802103008A4300200F2A08DC5AB24C
:1040B8000448002A00DA04482C228B435343C018D2
:1040C8007047C04628080020E80A002070B50400A0
:1040D800FFF7E6FF036A05001B685B0526D566B295
:1040E80002F088FA012816D9114B64001C40F343EA
:1040F800DB0F1C430123A3400E4A0F4913664A6E87
:104108001A409A42FBD1296A0C480A6802400A60A0
:104118000B4A136604E02A6A084913680B401360C7
:10412800002E03DA28000C3003F0C4FA70BDC04634
:10413800FEFEFFFF0020115000001150FFFBFFFFA3
:1041480000301150F0B58BB006000F001500FFF7D6
:10415800A7FF036A04001B685B050AD50020244BEF
:10416800022202932349030003960190009004F071
:104178008AF973B2002B30DA402D35D8002F26D1BA
:1041880084231B022B430993270028373B78059586
:104198000693194B00250393184B04220293082316
:1041A80028001449019304962B00009504F06BF93C
:1041B800397828000B005A1E9341099A5B03134370
:1041C80001224A403A70226A13600BB0F0BD2A00FF
:1041D8003900606A04F0CAFFD2E78023DB002B4372
:1041E80009930023A360CFE70C204042EDE7C046C7
:1041F800E5A8001060940010CFAD001001A90010D0
:10420800F0B589B00E2252420024039200260027FE
:104218008022114D069607972800104B10490494E8
:10422800029401940094D20002F04CFC0D4928003D
:1042380004F0B1FD0C48072183681B689847A04229
:1042480008DB220003210520FFF774FE0520FFF795
:1042580055FE200009B0F0BD20040020DD4200100A
:10426800D01300201FA900109892001010B501006B
:10427800024C200002F0E2FF10BDC0467802002088
:1042880010B588B000246B461C75062306936B4650
:104298001C770B4B200003930A4B0B49029308230E
:1042A800042201930094230004F0EDF80022002377
:1042B80005A8FFF7DBFF054B054A9C5408B010BD65
:1042C80093AC001027A90010609400102408002067
:1042D8008B050000F0B5802501267642F71785B0DA
:1042E8006D0011483B0001A9320002F0F5FF6B4652
:1042F8001979002910D01C7B2000FFF7D1FE029904
:10430800002902D1094B0A4A9D524368002BE8D084
:104318002000C9B29847E4E7044B1B68002BE0D0A3
:104328000298C0B29847DCE77802002024080020F1
:1043380084050000F0B5D14B93B01F68D04B1F42E5
:1043480006D0D04BD04A9B5C002B01D0FFF798FFDA
:1043580010233C001C401F4217D0CC4B00249E6DFC
:10436800CB4B04220393CB4B200002930823CA496A
:10437800019304962300009404F085F80125002E8B
:1043880002D0202C00D033E1102480235B021F428E
:1043980030D080221C43C14B92021A658020FFF75F
:1043A80095FEB84D6B6A1B685B050CD50020FFF7BE
:1043B8008DFE0020BA4B02220293B74903000190F8
:1043C800009004F060F80123B64A2C20AB54BB22BD
:1043D8009200AB54002206A909180A7024211092F1
:1043E80006AA52182C3513702B70002200230FA830
:1043F800FFF73CFF8026B60137422FD0C422C321E5
:10440800A04B890092009A585B5812681B680025D7
:104418000593A54BA0490393A44B04920293082348
:104428000422019328002B00009504F02CF8802228
:1044380020219A4B52021A6506AB5B181D7006AB19
:104448001D76924B3443196D0223114200D0DB18BC
:104458000D93002200230CA8FFF708FF80267601A1
:1044680037422AD00025924B0222029328002B00C3
:1044780089490195009504F006F880223443B02656
:10448800864B12031A65814BB6001D60894B079352
:10449800079B58192C3503F00DF9B542F8D12021A6
:1044A800002306AA5218137001220D9206AA137649
:1044B8000CA800220023FFF7D9FE8023DB011F424E
:1044C8001FD0102200201C43744B73491A65143204
:1044D80006AB9B18187005230832109306AB9B187F
:1044E8001870754B00900393744B283A0293082375
:1044F8000193030003F0C7FF002200230FA8FFF772
:10450800B5FE80231B021F4206D080221C43634B4A
:1045180012011A65FFF7B4FE20252F420ED00020A5
:10452800674B022202935C4903000190009003F05C
:10453800AAFF8022594B12061A652C4340252F42A8
:104548000ED000205F4B02220293534903000190D2
:10455800009003F098FF8022504B12051A652C43F7
:1045680080252F420ED00020574B022202934A4941
:1045780003000190009003F086FF8022474BD2048D
:104588001A652C4380256D002F420ED000204F4B1A
:1045980002220293404903000190009003F073FF48
:1045A80080223E4B92041A652C438025AD002F4291
:1045B8000ED00020464B0122029337490300019098
:1045C800009003F060FF8022344B52041A652C439C
:1045D800A7420BD000203F4B7C40029301220300EE
:1045E8002D4903940190009003F04DFF13B0F0BDE6
:1045F8002E4200D18BE0294B9D65012323400A936D
:104608000123A3430B93631007936B461B7F079308
:1046180001231C422BD1079A7F331A4310000792BB
:10462800FFF73EFD0223089009930B9B002005939A
:1046380063100493164B04220393274B16490293E5
:10464800082300900193030003F01DFF002C49D1BB
:104658000C4B224A995C002904D09C54204A9B5C4C
:104668000A4A136008980C3003F024F83DE00798D4
:10467800FFF716FD01230890D6E7C04698001150B1
:1046880010000100240800208B05000000001150D4
:10469800C2AC001032A90010609400100030115014
:1046A80057A9001084050000DDAC001084A9001093
:1046B80095A90010F40A0020A9AC00109FA90010C9
:1046C800ADA90010B6A90010C1A90010CDA900100D
:1046D800DDA90010E7A9001041A900108605000017
:1046E8008A0500000A9B002BBCD02C2206AB9B1825
:1046F800079A0FA81A70242206AB9B18233A1A703F
:10470800099B002210930023FFF7B0FDAE436D0014
:10471800013434E6F8B58023264A5B041360264A40
:10472800264913601C008A689443FBD1244D9C22BF
:104738002100280004F023FD802221005201214895
:1047480004F01DFD09236B670333AB670B3B2B6438
:1047580080239B05EB641C4A1C4B1D4E1D4D1E4FB0
:104768001A603B1F77626B61002C1BD07C3B336265
:104778001A4A043B2B61E3019A18B262184A9B1843
:10478800AB61012228001100013404F02CFC083729
:104798002C362C35102CE4D18022124B52020020EA
:1047A800DA64F8BDBA210E4B094A89009362535066
:1047B800E7E7C04600E0004000F0004000C00040CD
:1047C8000000115000001050F0F30100900011504B
:1047D80024080020F40A00208400105040011050E2
:1047E800000110500020115070B5040086B00E0072
:1047F800FFF756FC0C4B049403930C4B00240293D4
:10480800082305000193042223002000084900948E
:1048180003F039FEA54203D020006E6006B070BDDB
:1048280016204042FAE7C0460AAE0010FBA9001065
:1048380060940010014B18607047C046240800209F
:1048480030B50D4B87B003930C4B0025029308231A
:10485800040005900490019328002B0004220849C5
:10486800009503F010FE01212800064B064A9954D2
:10487800064A9C5407B030BDF7AD001009AA0010D5
:104888006094001024080020860500008A050000B6
:10489800F0B5174B87B00393164B002502930823F6
:1048A8000600154F0591049001930C002B0004227B
:1048B80039002800009503F0E6FD73B2AB420EDA2A
:1048C8000E4B2800029301222B0039000396019514
:1048D800009503F0D8FD1620404207B0F0BD220035
:1048E800402C00D9402200213000FFF72BFCF4E7D0
:1048F800E2AD00101EAA00106094001033AA001048
:1049080070B5037988B00678069343880400059348
:10491800154B00200393154B154D02930823009067
:104928000193042203002900049603F0ACFD2079CA
:1049380000280ED173060CD00E4B01900293030091
:1049480000900122290003F09EFD0120404208B09A
:1049580070BD0023702218001642F8D0064A019351
:1049680002920093EDE7C046BBAD001045AA0010C7
:104978006094001060AA00107FAA001070B5047837
:10498800050088B02000FFF78BFB061E1BD02B7993
:10499800042207936B880D490693038804940593B2
:1049A8000B4B002403930B4B200002930823009425
:1049B8000193230003F067FD20006B8833802B7977
:1049C800B37008B070BD16204042FAE7609400103A
:1049D800A7AD0010A3AA001030B587B00400FFF7F8
:1049E8005FFB174B05000393164B00200293082327
:1049F80004220193144903000494009003F043FD3A
:104A0800002D1AD08022120163060ED163B20F491D
:104A1800002B08DB02238B662B6A1A600123002017
:104A2800EB7007B030BD01238B662B6A1A60802CAF
:104A3800F4D10020FFF74AFBF0E716204042F0E7E8
:104A480093AD0010FBA900106094001000201150D5
:104A580070B586B00500FFF723FB104B00260393C3
:104A68000F4B040002930823042201933000330003
:104A78000C490495009603F006FDB4420BD06D0670
:104A880002D1002006B070BD226A1368DBB2136041
:104A9800E670A660F5E716204042F3E77DAD00100A
:104AA800FBA900106094001070B5040086B00D00DA
:104AB800FFF7F6FA0D4B049403930D4B0024029371
:104AC80008230600019304222300200009490094CA
:104AD80003F0D9FCA64206D0A54204D02000F37802
:104AE8002B7006B070BD16204042FAE768AD001082
:104AF800FBA900106094001070B588B00500FFF79E
:104B0800CFFA041E30D083782A00069380239A4374
:104B1800174B00260393174B174902930823059256
:104B280001930422330030000495009603F0ABFC97
:104B3800236A1E60230028331E70E169B14209D040
:104B4800626A0E4B5340A27892061343A0221206C3
:104B580013430B6000206BB2834203DD4021280021
:104B6800FFF796FE08B070BD16204042FAE7C0462F
:104B780057AD0010D3AA0010609400100000105028
:104B880030B587B00500FFF78BFA104B040003938C
:104B98000F4B002002930823042201930D490300C0
:104BA8000495009003F06FFC002C0CD0E369002BF7
:104BB80006D02800FFF78AFAE2691368DBB21360AF
:104BC800002007B030BD16204042FAE745AD00107E
:104BD800FBA9001060940010F0B589B0150004001E
:104BE8001E000791FFF75CFA354B06900393354B8F
:104BF800002002930823344F019304220300390054
:104C080005950494009003F03EFC069B002B02D00F
:104C180063B2002B0DDB00202C4B0394029301227E
:104C2800030039000190009003F02DFC1624644223
:104C38000AE0802C0ED1264B264A9B5C002B06D01E
:104C4800002E00D035600024200009B0F0BD4027B8
:104C5800BD4204D8069B1F88AF4200D92F00069D8D
:104C68000C3500220023280002F046FD002824D13C
:104C780004F08BF8002802D10530FFF74BF920002B
:104C88003A000799FFF75EFA041E0ADB04F07DF884
:104C9800002802D10530FFF731F9002ED4D0376053
:104CA800D2E7280002F006FD04F06FF8002802D1D0
:104CB8000530FFF723F90524B9E70B24B7E7C04609
:104CC80035AD0010F5AA00106094001033AA00104A
:104CD8002408002084050000F0B58FB00F00040000
:104CE8000B920C93FFF7DCF93F49051E0CD13F4BA3
:104CF80001220293030003940190009003F0C3FB88
:104D0800162040420FB0F0BD63B2002B08DA002035
:104D1800374B012202930394030001900090EDE7C2
:104D2800002C46D1334B344A9B5C002B41D00B9B63
:104D3800082B30D108262C4B089707960D93AB68A3
:104D4800002006930B9B042205932C4B0D9903938B
:104D58002B4B04940293082300900193030003F063
:104D680092FB0B9B002F2FD09E4200D91E00002CD7
:104D780025D1204B204A9B5C002B20D032002149B2
:104D8800380004F0F3F9AB689B19AB600C9B002B5F
:104D980027D10020B6E70B9B022204930823039334
:104DA800194B2000029301942300009403F06BFB3D
:104DB800C0E7200003F076FBAE68861BBBE7696A94
:104DC800AB683200C918DBE7002BDFD00F4B01229C
:104DD800029338003B000D990197009703F053FBAD
:104DE800D4E70C9B1E60D4E7609400100BAB001056
:104DF8001FAB0010240800208505000021AD00101D
:104E08008FAB00100000105040AB0010B2AB001088
:104E1800F0B58BB00400FFF743F94D4B051E09931D
:104E280002D063B2002B0EDA00204A4B01900293A5
:104E38000090030001220999039403F024FB162033
:104E480040420BB0F0BD002C69D1434E434FF35D97
:104E5800002B40D00023424D0422EB562000DB43B8
:104E6800DB0F0593EB88099904933E4B0094039359
:104E78003D4B029308230193230003F004FBEB88C6
:104E8800002B16D0B123DB00F452F455374B002029
:104E98000393374B09990293082300900193042246
:104EA8000300049403F0EFFA40212000FFF7F0FC20
:104EB800C7E7F4552D4B049403932E4B002402931B
:104EC800082320000193042223000999009403F089
:104ED800DAFA2000B5E7200003F0E4FAAB6807002F
:104EE8000593204B04900393234B2000029308233F
:104EF8000422019309992300009403F0C4FA184886
:104F080003787F2BD6D8B122D200B35AA968C088BB
:104F18005B188342CED28F42CCD1B352B6E7200081
:104F280003F0C0FAAB6806000693104B0590039394
:104F3800124B0020029308230422019309990300CD
:104F48000494009003F09FFAAB689E42B2D19DE7AB
:104F580060940010C2AB00102408002085050000F2
:104F680000001050E9AC0010DBAB001009AD0010D8
:104F780059AC001074AC001007AC00102EAC001037
:104F8800802310B5084A5B041360084A94691C42E0
:104F980002D01620404210BD0160926910001840EE
:104FA8001A42F8D0F5E7C04618300640000006401F
:104FB800CBB210B5032B08D80C234B4302689B587F
:104FC800194ADB051B0FD0560AE0081F072805D829
:104FD800FBF7F0F807151D21212128280120404260
:104FE80010BD124A0E201368116803220C001440E9
:104FF8001142F5D00E4A0238022CE2D1F0E70D4AF0
:105008000420136812689207EAD00B4AD9E70B4BC1
:105018000B4A1B68D5E70C234B430A4A9B181B68AD
:10502800094ACEE70C20DBE73FAE00103080004095
:105038003CAE00103C80004036AE00104880004076
:105048002FAE00100080004029AE0010F8B5050012
:105058000C006E68210030002F6903F06EFA0028FA
:1050680000D16EE00E2C00D96BE02000FBF7A2F80F
:105078000808080808082A08080831316B6367001F
:10508800210030003768FFF793FF01002800FFF781
:10509800DDFF0C236343FB185E68051C5868C0B22B
:1050A800FBF724FD2949FBF72BFB041C300AFBF70F
:1050B8001DFD011C201CFBF7AFF9011C281CFBF788
:1050C8001FFBF8BD224B234A1B68DB051B0FD45678
:1050D800BFE70A2C2DD1B76821003000FFF768FF21
:1050E80001002800FFF7B2FF061CB868FBF7FEFCBA
:1050F800311CFBF7E7FB061C3F203D68FC68284095
:10510800FBF7F4FC011C301CFBF7FAFA0725061C18
:10511800200C2840FBF7EAFC011C301CFBF7F0FAD6
:10512800FF68041C380B2840FBF7E0FC011C201C1E
:10513800C5E7F768D0E73868FBF7D8FCC1E77868B7
:10514800FAE70020BDE70448BBE7C04600007F43FC
:10515800488000402FAE0010001B374BF0B5446864
:105168008FB0A36822220393E3685F4905A80493DC
:105178002568276903F0FAFF5C4B5D4A1A605D4BAE
:105188005D4A13601E005D4A92689643FAD18322F5
:105198005B4B9200DA62AE6701F018FA0321594BB3
:1051A800DA6B8A43DA635A6C012AFCD103211A6B41
:1051B8008A431A639A6B012AFCD1E269524B03981D
:1051C8005A43636A0093236AA16901F099F9E26A74
:1051D8004D4B04985A43636B0093A16A236B01F00B
:1051E8008FF9112105A803F0F2F9730005AA995661
:1051F800C8B2092868D90136112EF6D1C0239B01FF
:1052080019008022294312010A6029000C31194330
:105218000A6029002435183119432B430A601A60A3
:105228002300AA253800D83319682D0129431430E2
:10523800FFF7A6FE002853DB2300DC331B68334945
:1052480038001943FFF79CFE002849DB2300E033B0
:105258001B68002B46D029001F2B00D8591938008D
:105268001030FFF78DFE00283ADB2600E43631685F
:10527800274D89B22943381DFFF782FE00282FDB0E
:10528800380031680830090C2943FFF779FE0028F7
:1052980026DB204B184A1360184B9B68DB43DB0165
:1052A800DD09002BF8D12900606902AA03F0FAFA97
:1052B800002805DB029B2A001979186803F005FB12
:1052C80000280DDD00200BE0090161180B6C00932C
:1052D8004B6CCA6B896B01F09FF800288BD116388C
:1052E8000FB0F0BD0C49BAE79794001000E00040F9
:1052F800BFCDFBFEFE3F3C0000F0004000C0004078
:105308000080054000800040001BB70000B0FA0094
:1053180000009696FFFFFF01A10A0000F7B50600FE
:10532800002403690193E308144A08339B009B583F
:10533800072222409200D3400F22134203D10134A6
:105348001E2CF0D1F7BD0F21200001F0BBF9019B05
:1053580059680029F3D00127A7400D680029EED02D
:105368008B681A003A403B4202D030004B6898479D
:105378002B1E00D02B6829001D00EFE700410140DB
:1053880070B5436802691C680723480851620340E6
:10539800450707D40625284225D1012B0CD0162015
:1053A800404232E0042BFAD113003B331B78002B28
:1053B800F5D02000A43018E020009C25A030036818
:1053C800AD000733AB420CD903680833FA26D386FD
:1053D8000568760005353300B54213D303680633F4
:1053E80010E00C4BF2E72000A03005686D2307356C
:1053F8006C2D01D903680833D38605685D2305350C
:105408005C2DEBD800209BB29386236C10230B43B2
:10541800536270BD71020000F0B547680500066967
:10542800386989B0002809D10021F86807AA03F073
:1054380039FA041E0CDA200009B0F0BD79698368D6
:10544800DB68002B00D192E09847041EECD0F2E70D
:10545800079B00221979186803F037FA041EEAD16D
:10546800012201005242300003F0BDFD300010302F
:1054780003F0B2FD01216B683E481B680490DA6EA8
:105488003D488A43DA661A00FC3211683B4A0590A7
:1054980091420ED03A4B03900293082304220193C1
:1054A800200023000499009403F0EDF905246442D8
:1054B800C1E706221B681340934240D1059B200098
:1054C8000393304B00940293082304990193023A02
:1054D800230003F0D8F9012432003B3214707B68B2
:1054E80028009847BB68284A0624934213D034D82A
:1054F800264A043C93420ED0254A023493420AD0ED
:105508000024244B012202932000230004990194D3
:10551800009403F0B8F91021214328007162FFF7C5
:105528002FFF041E1FD0059B002003931A4B042253
:10553800029308230499019300900300B4E7059BA4
:1055480004220393154B2000029308230499019326
:105558000094230003F097F9BEE7114A0824934208
:10556800D9D0104AC9E733003833187063E7582494
:105578009DE7C046289400105DB0001040015744D4
:1055880076AE0010CBAE001040420F00A08601009E
:10559800801A06000BAF001026AF0010E9AE00100D
:1055A80040E13300404B4C00F0B593B00F9300231B
:1055B80009900A910B920793002A00D13FE14368B2
:1055C80007691B6808933B0010330E93012252426F
:1055D800D3170E9801F006FF0790002800D02EE19F
:1055E8000121089B1B6F0B4200D050E13B000825AE
:1055F80038331A782A4200D049E11A782A431A70B7
:10560800099B1E695B681C68E36E8B43E366206335
:10561800236C736ADB0646D59E4B04220D939E4B82
:105628000D99109303939D4B0195029300900300ED
:1056380003F029F9612301210C93736A0B420DD001
:10564800109B04220393964B0D990293079B019597
:105658001800009303F017F979230C93736A042256
:105668005B081900072511401D400D9113421ED1FA
:1056780006218C46080087491840109186491191E7
:1056880061460B4200D0DDE0012D2AD0824B00207C
:105698000393844B0422029308237E4901930090CC
:1056A800030003F0F0F816235B420793C0E0042DD3
:1056B800ECD133003B331B78002BF4D0764B002021
:1056C8000393794B2A0002930823724901930090AF
:1056D800030003F0D8F8F38E0325A362B38E636248
:1056E8000EE0119B10990393704B009002930823CE
:1056F8000193030003F0C7F8F38EA361B38E6361CF
:1057080006230C9A6D009A4313002B430C93F38ED7
:1057180000250493604B5F4910930393644B042264
:10572800029308232800019300952B000D9103F0A4
:10573800AAF8B38E109A04935E4B0392029308233F
:105748000422019328002B000D99009503F09BF883
:105758000C9B2360A563E56363682268D20700D4C5
:1057680082E00F9A9B0A9205920D9B021343726A7C
:10577800D10605D5D20700D479E08022520113431F
:1057880063600124089B089ADB6E09982343D3665B
:1057980002F039FD04253B0000260A9A3A331268C4
:1057A8001878BA620A9A5168F962127A50401A70E7
:1057B8003E63204201D02A431A700B9A012A03D172
:1057C8001878013202431A703B00032038331A78E4
:1057D80082431A703A003A3212781000204022426E
:1057E80048D11A7822431A703B0039331870089B45
:1057F8001B68234244D0304B089A1363012252425B
:10580800D317380001F078FF3B0038331B782B4260
:1058180039D1FB6A002B36D10A9B0C330A930B9BB8
:10582800013BDBB20B93002BB5D1099802F0F3FCD6
:105838003B00002238331A700E9801F0CDFE07980D
:1058480013B0F0BD1D48119B0290082003930D9BD7
:10585800019000931800109903F015F8F38E0225B3
:105868002362B38EE3614BE70F9AA2607FE7144A85
:10587800134085E70222187802431A70C8B2B3E7CA
:1058880098239B00B8E705235B420793CDE71023D5
:105898000AE7C046289400107AB0001050AF0010F4
:1058A8007AAF0010FAAF0010DFAF001098AF001009
:1058B8001BB000102EB000105F020000B7AF001040
:1058C800FFEFFFFFF0B5036989B005930400436853
:1058D800082500201B6804220693DB6A7F4907938A
:1058E8007F4B019503937F4B00900293030002F0D6
:1058F800CAFF069B1B68DB070FD54B2207990423B9
:1059080011420CD0059F38373B700022636820692C
:105918001B681A631B6C01F0CDFE09B0F0BD6A4626
:10592800117F079A1A421ED0626823691668306F81
:10593800DA6A284215D0002A0DD030699A6A1070A8
:105948009A6A186B01329A62DA6A0138013ADA62A5
:105958001863002AEBD1022038331A7882431A7070
:1059680001E0002AF7D0059A3A321378DB0705D50B
:10597800069B186B102303430698036310252942DE
:1059880005D1079B9B05C8D5069B1B6EBDE7137801
:1059980001209C466646616823690968064246D12B
:1059A800DE6A002E0DD00222944660460A6F02423B
:1059B80016D1059BDB6A002BE3D1059B3A331B7894
:1059C8000BE00E6B3833AE430E63197881431970C0
:1059D800059BDB6A002BD4D113789B07D1D494E7BD
:1059E800DD6A002DE5D01E0004273A369A6A307821
:1059F8001278384205D08027FF003A430427B8437D
:105A08003070012D08D1180065463A3000782842D8
:105A180002D08020800002430A61DA6A013ADA6221
:105A28009A6A01329A62CA6A5206BED56DE71800B0
:105A380039300078002803D10B6BAB430B63C7E701
:105A48000A00F43212681F6B8D6F1604360E013689
:105A5800ED19751B05D5059BDB6A002B91D16346B3
:105A6800BBE74F6FBC46B04200DD3000A84200DD06
:105A7800280065461202120E0132521B824200DDD6
:105A880002008020800004268446002A91DD1D0043
:105A98003A35287830421DD0B0432870A020C00085
:105AA80002272D783D4206D01D0039352D78012D6D
:105AB80001D16546284310270D6B013ABD430D639C
:105AC8001D000861186B39350130186328780138D2
