:020000041000EA
:1000000000B5324B212058609868022188439860DF
:10001000D860186158612E4B002199600421596104
:100020000121F02299502B49196001219960352056
:1000300000F044F80222904214D00621196600F024
:1000400034F8196E01211966002018661A6600F04E
:100050002CF8196E196E196E052000F02FF8012189
:100060000842F9D1002199601B49196000215960AB
:100070001A491B48016001219960EB211966A021F2
:10008000196600F012F800219960164914480160C1
:100090000121996001BC002800D000471248134993
:1000A000086003C880F30888084703B5996A0420EC
:1000B0000142FBD001200142F8D103BD02B5186610
:1000C0001866FFF7F2FF186E186E02BD00000240BE
:1000D000000000180000070000035F00212200005C
:1000E000F4000018222000A00001001008ED00E03C
:1000F000000000000000000000000000070B8FD58A
:10010000882C0020B935001047730010A535001069
:1001100000000000000000000000000000000000DF
:10012000000000000000000000000000B5360010D4
:100130000000000000000000453600101D480010BF
:1001400031380010313800103138001031380010CB
:1001500031380010313800103138001031380010BB
:1001600031380010313800103138001031380010AB
:10017000313800103138001031380010313800109B
:10018000313800103138001031380010313800108B
:10019000313800103138001031380010313800107B
:0801A000313800103138001065
:1001A80002B4714649084900095649008E4402BC08
:1001B8007047C04602B4714649084900095C4900C5
:1001C8008E4402BC7047C046002934D00123002267
:1001D80010B488422CD301242407A14204D28142BE
:1001E80002D209011B01F8E7E400A14204D28142CE
:1001F80002D249005B00F8E7884201D3401A1A434B
:100208004C08A04202D3001B5C0822438C08A04281
:1002180002D3001B9C082243CC08A04202D3001B37
:10022800DC082243002803D01B0901D00909E3E7B1
:10023800100010BC704701B5002000F05FF802BD47
:100248000029F8D003B5FFF7C1FF0EBC4243891A55
:100258001847C046002941D010B404004C40A446B9
:1002680001230022002900D54942002800D5404238
:1002780088422CD301242407A14204D2814202D20D
:1002880009011B01F8E7E400A14204D2814202D22D
:1002980049005B00F8E7884201D3401A1A434C082A
:1002A800A04202D3001B5C0822438C08A04202D360
:1002B800001B9C082243CC08A04202D3001BDC0888
:1002C8002243002803D01B0901D00909E3E71000E5
:1002D8006446002C00D5404210BC704701B5002090
:1002E80000F00CF802BDC0460029F7D003B5FFF7AF
:1002F800B3FF0EBC4243891A1847C0467047C04630
:100308001C2101231B04984201D3000C10391B0A3D
:10031800984201D3000A08391B09984201D3000901
:10032800043902A2105C40187047C0460403020258
:1003380001010101000000000000000041420840E6
:100348001C2101231B04984201D3000C10391B0AFD
:10035800984201D3000A08391B09984201D30009C1
:10036800043902A2105C401A7047C0461B1C1D1DB0
:100378001E1E1E1E1F1F1F1F1F1F1F1F002B11D1F8
:10038800002A0FD1002900D1002802D00021C9433A
:10039800080007B4024802A14018029003BDC046F5
:1003A8005DFFFFFF03B4684601B5029800F0D0FB7B
:1003B800019B9E4602B00CBC7047C0464A02F8B585
:1003C80043024400C50F500A84464800240E000E1C
:1003D8005F0AC90F9B099209261A8D4200D09EE038
:1003E800002E42DD8021C90400281ED1002A0AD02F
:1003F800661E012C05D19B1801340B4246D1013CE5
:1004080001E0FF2C14D15A0704D00F221A40042A05
:1004180000D004335A0100D42EE101340026FF2C09
:1004280019D09D4EDB081E4015E0FF2CEBD00A4387
:100438001B2E01DD0133E6E72020801B11008240DE
:10044800F140501E82410A439B185A01DBD5013402
:100458000026FF2C1AD1FF23E005DB057602760A79
:1004680018403043ED072843F8BD002E2ED08026D3
:10047800011BF604002C14D1002B00D1F3E04C1E14
:1004880001290AD19B1802243342B8D0012283499A
:100498001A405B080B401343B5E7FF2906D1130048
:1004A800AEE0FF2800D1E0E00C0033431B2C02DD56
:1004B800531C0400A7E719002026E140341BA34081
:1004C8005C1EA3410B4304009B18BEE7FE20611C81
:1004D80001421ED1002C0DD1002B00D1C7E0002A0B
:1004E80000D190E79B185A0100D48CE76C4A13405E
:1004F8000C0088E7002BD2D0FF24002A00D182E725
:100508008023DB039F4202D39C4500D26746FB0051
:1005180076E00C00FF299ED09B185B0873E7002E3D
:1005280025DD00281CD1002A00D16CE7661E012CAD
:1005380006D19B1A5A0100D465E79B019E0975E014
:10054800FF2C00D15FE701211B2E07DC2020801B38
:1005580011008240F140501E824111435B1AE9E7C5
:10056800FF2C00D14FE78021C9040A43EBE7002E96
:1005780025D0051B002C0DD1002B08D06E1E012D97
:1005880003D10D00D31A0134D4E7FF2D08D113008D
:100598002C0021E0FF286CD080242E00E4042343A3
:1005A80001241B2E07DC2025AD1B1C00AB40F440AA
:1005B8005D1EAB411C43131B0D000400BAE7FE2669
:1005C800601C30422DD1002C14D1002B06D12500FF
:1005D8002600131E00D13EE70D0014E7002A00D1C3
:1005E80011E79E1AD31A7001F6D4331E00D00AE719
:1005F800350030E7002B05D1002A49D013000D0043
:10060800FF2400E7FF24002A00D1FCE68023DB0357
:100618009F4200D27BE79C4500D378E767460D00F0
:1006280075E79E1A700115D50D00D61A3000FFF730
:1006380067FE330005388340844210DC2022001B0B
:100648000130121A19009340C1405A1E93410024E8
:100658000B43D8E6002EE9D135003400FBE6104AFA
:10066800241A1340CFE6130042E7130021E71300D2
:10067800C9E613000400AFE7DE08FF2C00D0EAE665
:10068800002E00D1E7E68023DB03FF241E43E2E6C9
:1006980080261500F603F6E7FFFF7F1FFFFFFF7DAB
:1006A800FFFFFFFBF0B5C30F85B0440245000F1CE8
:1006B800640A2D0E039302930AD0FF2D3BD08023AA
:1006C800E400DB041C4300237F3D019500930EE00A
:1006D800012301940093002C09D02000FFF710FE9D
:1006E800431F9C4076235B421B1A019300957D02B1
:1006F8007E006D0A360EFF0F002E23D0FF2E2ED05F
:100708008023ED00DB041D4333007F3B002201986A
:100718000399C31A009879408000104301380E28C5
:1007280023D8FFF747FD4D9973999299734D4D92D0
:10073800736161615300022301950093002CD6D0A8
:100748000133C3E72B000122002DE0D02800FFF77A
:10075800D7FD431F9D4076235B421B1AD6E7330023
:100768000222002DD3D00132D1E764016D01AC42E1
:1007780028D31A200122641B012627005200640096
:10078800002F01DBA54201D8641B32430138002841
:10079800F3D1601E8441144318007F30002838DDEF
:1007A800620704D00F222240042A00D00434220118
:1007B80003D5803318002B4A1440E508FE281DDDB8
:1007C80000250FE01B200022013BD5E78023DB0337
:1007D8001C4203D01D4201D12C00029780250299AA
:1007E800ED032543FF2009E00399009A022AE7D088
:1007F800032A2FD000252800012ACDD16D026D0AC9
:10080800C0052843C907084305B0F0BD2C003900CE
:10081800ECE701220025121A28001B2AEEDC9E3381
:1008280025009C40D540631E9C4125436B0704D09E
:100838000F232B40042B00D0043580232800DB0431
:1008480018401D420BD1ED08D8E780240023E403AB
:100858000293C3E70291C1E700252800CEE70025EF
:100868000120CBE7FFFFFFF7F0B5C30F85B04702C4
:10087800440002917F0A240E03930AD0FF2C71D002
:1008880080227F3C26000023FF00D20417430193F7
:100898000CE001233E1E019308D03800FFF730FD1D
:1008A8007626431F9F407642361A0194029B5C02CB
:1008B8005D00DB0F640A2D0E02935AD0FF2D64D021
:1008C80080232800E400DB041C437F3800230299BE
:1008D800039A4A40811901988C46850001311D43CD
:1008E8000A2D00DD78E0022D55DC013D012D63D98C
:1008F800250CA4B226003B0CB8B246435C436843BF
:100908006B4300191F00330C1B189C4202D980202E
:1009180040023F181804B6B28619B401601E84411B
:100928001B0CB60EDB1934439B011C431B0168D515
:10093800012360081C40044308007F30002862DD62
:10094800630704D00F232340042B00D00434230171
:1009580003D5803108003E4B1C40E508FE2833DDF6
:1009680000254CE0022326000193002F9ED001337E
:100978008DE720000123002CA9D0FFF7C1FC431FFD
:100988009C4076235B42181AA0E728000223002C1B
:100998009DD001339BE70120A840A6250600ED0065
:1009A8002E4028421DD19025AD00284247D1B93D9F
:1009B800FF3D28429CD0029A022BD1D0032B42D073
:1009C80000252800012BB7D16D026D0AC005284308
:1009D800D207104305B0F0BD039A0F2D04D00B2D9C
:1009E800E9D03C00019BE7E78023DB031F4203D0EB
:1009F8001C4201D12700029A8025ED033D43FF20C8
:100A0800E2E7614698E7012300251B1A28001B2B03
:100A1800DADC9E3125008C40DD40631E9C41254375
:100A28006B0704D00F232B40042B00D00435802300
:100A38002800DB0418401D4207D1ED08C4E78027D1
:100A48003200FF03D8E72700D6E700250120BBE7DF
:100A5800FFFFFFF741024300C20F490A00201B0EA7
:100A68007E2B03DD9D2B02DD084BD01870478020BC
:100A780000040843952B05DD963B9840002AF5D0E5
:100A88004042F3E79621CB1AD840F7E7FFFFFF7FF4
:100A9800002370B50400984209D0FFF731FC9E236B
:100AA8001B1A962B08DC082829D0083884406402D1
:100AB800D805640A204370BD992B1BDD0200210074
:100AC8001B3291400A00511E8A410521091ACC4067
:100AD800144322000B4D2A40610704D00F21214006
:100AE800042900D00432510102D59F232A401B1A41
:100AF800D408DCE7421F0528EBD09440E9E79623A9
:100B0800D5E7C046FFFFFFFBD0400B00D1409C4615
:100B1800203AD340184352426346934018437047E3
:100B28009140030090409C46203A9340194352421A
:100B38006346D3401943704710B5002903D1FFF726
:100B4800DFFB203002E00800FFF7DAFB10BDC046EB
:100B5800F0B506000F0015001C0085B08B4263D865
:100B680001D1824260D821002800FFF7E5FF390053
:100B780000903000FFF7E0FF009B21001B1A1A00CD
:100B880028000393FFF7CCFF00900191B94245D8A4
:100B980001D1B04242D8009B019C01200021039A58
:100BA800F61AA741FFF7BCFF04000D00039B002BBA
:100BB8002BD0019B009ADB0750081843019B59086A
:100BC800039B9C46B9422CD801D1B04229D83200A7
:100BD8003B00121A8B41012692185B410027B61878
:100BE8005F4101235B429C446346002BEAD13000FD
:100BF8003900039AFFF788FF039AA4197D4106007C
:100C08000F00FFF78DFF241A8D410A9B002B01D09E
:100C18001E605F602000290005B0F0BD002400259B
:100C2800C4E7B6197F41DCE700240025EDE700237F
:100C3800C25C0133002AFBD1581E704710B5002052
:100C480001F0E8FD0B4805F097FE0B4C032120004E
:100C58000A4A06F0EDF9002006F0D1FF002805D178
:100C680001212000064A06F0E3F910BD00239B6825
:100C7800FFDEC046EC8600109C830010038700103E
:100C880019870010F0B597B0059304230B921A400A
:100C98000B9B0A92DA0807231A40013207001C9CB2
:100CA80003910D92820700D0CBE1061D002804D0E5
:100CB800072909D81C20404255E1039A1A4013001D
:100CC800161D0822D31A0393059B0425013B06939E
:100CD800002309930C9304930293013B0793019516
:100CE800002F01D0059B33600D9B002B00DDF2E047
:100CF8009E4B059A9A4203D39D4B9A4200D2EAE052
:100D08000B99F21B9308890700D50EE1049A0F2A64
:100D180000D9BCE0002F00D10FE104990EAA53546A
:100D28000A00079912AB99540C9B01330C93F5E018
:100D380008250195069B01330693069B98780028A1
:100D480000D106E1029B002B08D12528F2D1079B90
:100D580001330793012302930425EAE77A284AD846
:100D68004B280ED8472846D829282CD825283FD0E4
:100D780041D82028DED0233843425841C3B20293D9
:100D8800D8E74C382E2836D8FFF70AFAD435353547
:100D980035353535353535353735353535353535F9
:100DA8003561353737616161D437D235D435183775
:100DB8001835357AE63735353735E6000023089398
:100DC8000425029327E0012213002A38C0B2834089
:100DD80068490B42AED1E2211800890508400B4250
:100DE80035D11900114002911342A3D0089013E0A5
:100DF800079B013B07930023C1E70022069B08924B
:100E08005B7802926C2B07D10425069B01951B7811
:100E18006C2B01D16D190195013E70192900FFF75E
:100E2800D3F968430600002F3CD0019B039ADB1BD3
:100E38001B18934200D93DE7089B002B42D1019B28
:100E4800042B21D108CC03600423043616E00722C2
:100E580007349443B318934303CC002F08D00132CE
:100E6800D21B039ED218B24200D923E718605960FA
:100E780008331E000825002302932B00019359E72D
:100E8800029B089300239BE7019B082B01D01620A7
:100E980011E7072307349C430CCC02604360082306
:100EA8000836EBE7089B002B0CD1019B042B01D1E2
:100EB8000434C9E7019B082BE9D10734013B9C4363
:100EC8000834ECE7069B023306930D9B013B0D9318
:100ED80008CC059304E70B9B9B0722D50121F21B45
:100EE8009308802080008242D1D2049A0F2ACED85B
:100EF800002F1CD00498DBB20EAA13549C46079B03
:100F080012AA1354002900D10EE7802263465242E8
:100F180013430EAA1354099B01330993049B01330D
:100F28000493069B0436013B06E70021D9E7002914
:100F380003D0039B01330393F0E7039B023303932E
:100F48000A9B002BEAD10598FFF771FE039B1B183B
:100F5800F1E78022F31BD200934298D2002F0BD1E5
:100F680003980838C01817B0F0BDC046D8810010E3
:100F7800DC900010DAFF00009B08302238603B70DC
:100F88006B469B180A9A1B78002A0BD0FB70099BAA
:100F9800BB70002B1BD100240EAD049BA3421BD1B8
:100FA800F01BE0E77B70F2E70EACE4560EA9595C43
:100FB800002C07DA039DB4180140AC4200D979E649
:100FC80031700136013304999942EDD1E3E70122EA
:100FD80000237F20D21BF6E7099B002B02D02B7839
:100FE8007F2B1ED80A9B002B1ED012ABE35C3370FC
:100FF8000023013601930123019ADB1B9B18039AF6
:10100800F318934200D955E6731C02932B78019A82
:1010180033700599029807F01BF8029B019E9C46C5
:10102800664401340135B8E72B789B00FB181A6831
:1010380005920A9A05981A60FFF7F9FD431C019377
:10104800D9E70E2037E6C046F0B59BB000AF3B624B
:101058008023FB181B6806001B07DB0F7B61837866
:10106800F9623A63BB6300290AD10478BB6BA40018
:10107800E41845780419FB6A9D421BD8A31BFB6240
:10108800F378BB61BB6B002B04D08023FB181B6873
:10109800DB0719D4BB69002B47D13B6B002B03D06E
:1010A80030003A6AF96A9847FB6AFB63BD46F86BF9
:1010B8001BB0F0BD01342000FFF7B9FDFB6A013019
:1010C80001332418FB62D6E73378FB619B007B620F
:1010D8007368BB627B6AF5183B6B002B00D029E173
:1010E800FB6AFB63BB6BEC180023BB63A54232D0E1
:1010F8002B789B009859FFF79AFD84217B181B6871
:101108000130002B0CD08822BA18BB6B12689342AE
:1011180006D27A1812685B009852BB6B0133BB6326
:10112800FB6B01351B18FB63E0E78023FB181B688A
:101138009B07B2D53378FB619B007B627368BB6207
:101148007B6AF5183B6B002B77D1FB6AFB63BB6BA3
:10115800EC183B6BBB6380220523BA181268250084
:1011680013405A4253410133FB62BB695B00E318E9
:101178003B633B6BAB4299D02B787B636B789B00CE
:101188009C59B44B9C4202D3B34B9C4223D37B69FA
:10119800002B33D0796BB86A05F0C7FB00282DD037
:1011A8006C468AB06A46AD4B5361BB6A93617B6BF0
:1011B800D36180239B001384A94B136192210023E0
:1011C800A8481032890100F023FCA546FB6B023BBE
:1011D800FB630235CDE77B69002B05D0796BB86AD4
:1011E80005F0A3FB0028DBD180230122FB181B6834
:1011F800134209D1FB6BFA6A9B1AE9E780230222A2
:10120800FB181B681342E4D02000FFF710FD84216F
:101218007B181B68002B0DD08822BA18BB6B12688C
:10122800934207D2791809685B00421C5A52BB6B7B
:101238000133BB63FB6B1B18CAE7BB6B1C1E7B63CC
:1012480015D0802104237A1812681A4014007A6392
:101258007A1812681A420AD00023BC6B7B631833D1
:1012680040229B182900BA6BD81906F0F1FEBB6B17
:10127800EB18FB60FB63BB695B003B613A69FB6889
:10128800944663447B60FB6B7A68934257D17B6BCF
:10129800757800215A198023FB181B68D2B29B0766
:1012A80000D461088020381800680023C00705D4DE
:1012B8008033FB181B685B07DB1723407270B37021
:1012C800F17030003A6A796A3B6B9847F8630028F6
:1012D80000DAEBE6FB6940203370BB6B2100B3708A
:1012E800BB693A6AF37018231B18D81975703B6BE1
:1012F8009847041E00DAA9E0FB6ABA6BF868991AE5
:101308007B6A3A6AC91A3B699C46C91A60443B6BB6
:101318009847002800DA9BE00025FB6B1C1923186E
:10132800FB637B6B9D4261D300213A6A08003B6BEB
:101338009847BBE6BB6B00247B63082390E7FB6BF5
:10134800444A1B78BB60FB6B5D78AB009B599342AA
:1013580002D3414A93420CD37B69002B30D0B96841
:10136800B86A05F0E2FA00282AD0FB6B0233FB6367
:1013780089E77B69002B05D0B968B86A05F0D5FA0A
:101388000028F2D180230122FB181B6813420AD0DF
:101398007B6B9B18073240215218796BD219DBB24C
:1013A80055547B63E1E78023FB181B685B07DCD59A
:1013B800182240215218631CD2191555DCB2D4E703
:1013C80080230222FB181B68134203D07B6B063272
:1013D8000133E0E7402118225218B968631CD2197A
:1013E8001155DBB20234E4B2D554BEE740220823DB
:1013F8009B18DB19EB5C0732BA18137084229B0028
:101408009B59BB63BB181C68002C01D06B00E45AC5
:1014180047230121F8183A6A3B6B9847002817DBE5
:10142800FB6B1B18FB63002C04D1B86BFFF7FFFBA9
:10143800013084B221003A6AB86B3B6B98470028A8
:1014480006DBFB6B01351B18FB636AE7F8632DE6C7
:10145800F8632BE6D8810010DC9000103C87001060
:10146800040000017C830010014B18607047C046DF
:10147800B0000020F7B504000D001E00019204F032
:1014880047F9030006F090FE054F32003B500199E2
:101498002800A04706F088FE385802F09DF8C0469C
:1014A80008000000F7B505000600002D01D1300046
:1014B800FEBD2800FEF742FF01238340DA430E4FAA
:1014C80004019D433B1901931B7B0092002BECD038
:1014D800E3591B69002B09D1009B3C191E40636826
:1014E80004221968019800F047FADEE7381998478E
:1014F8000028DAD1F0E7C046D4830010F0B5002206
:1015080089B00F490F4806F050FD00240026002737
:101518000E20C0220C4D03900696079728000B4B0F
:101528000B490494029401940094920003F07EFD08
:101538000849280006F082FB200009B0F0BDC0462B
:101548006115001060080020E80300202D18001025
:1015580088140020F087001010B5024804F046FAFD
:1015680010BDC046EC020020F7B500901E4801915E
:1015780005F00DFD061E33D000252800FEBD237B97
:10158800002B10D02368DB68002B01D0200098477F
:1015980023681B69002B1BD163680422200019688B
:1015A80000F0EAF901361034104B9C42E7D3009B57
:1015B800002BE2D0002DDFD02800FFF773FF019B3E
:1015C8000500002BF6D00021642004F083F8F1E731
:1015D800200098470028DFD03B00B3401D43E1E7D7
:1015E80005000127024CDFE7480B0020E4830010C8
:1015F800D4830010014B8000C05870472484001029
:10160800030010B50800002B05D0044A136000F051
:10161800C1FC002010BD16204042FBE7B4000020AA
:1016280010B5054C2378002B02D1044804F0DEF9EC
:101638000123237010BDC04670140020EC02002066
:1016480010B50400044805F0A2FC002C03D00121C9
:10165800024806F0DCFC10BD400B0020440B0020C3
:1016680010B50021014806F0DFFC10BD400B00203A
:1016780070B5FFF7F5FF0500084C094B9C4200D3F5
:1016880070BD63685B79002B06D023685B68002B0C
:1016980002D02900200098471034EEE7D4830010C8
:1016A800E483001010B5044C0449200005F067FAE3
:1016B800034B1C6010BDC04674020020108400104B
:1016C800380B00200023FA21064A10B51370064A89
:1016D80089001360054A06481360FFF791FFFFF77A
:1016E800E1FF10BD71140020400B0020440B0020C6
:1016F800A16F001010B5044C010000220023200047
:1017080005F05EFA10BDC0467402002010B502480C
:1017180005F0F0FA10BDC0467402002010B5034B66
:101728000100186805F037FB10BDC046380B0020D3
:1017380010B5024805F068FB10BDC04674020020D1
:1017480070B5204B1878002830D0FFF7DFFF051E52
:101758000AD001211C4806F05AFC1C4C1C4B9C4228
:1017680025D32800FFF7DAFF1A4B1B4C1B68002B08
:1017780011DD06F016FC0A220023FEF7FFFD2268A1
:101788006368801A9941002903D1FA239B00984283
:1017980001D9FFF76DFF22686368FA2000218000F5
:1017A80012184B4122606360FFF7C2FF70BD636887
:1017B8005B79002B04D02368290020001B68984718
:1017C8001034CBE770140020440B0020D4830010A1
:1017D800E4830010400B00205808002070B50E4D1F
:1017E800297800290CD10120FFF7BEFE0B4C0C4BC9
:1017F8009C4206D3FFF7A4FF0028FBD101232B70DE
:1018080070BD63685B79002B03D0236820009B6858
:1018180098471034EBE7C04671140020D4830010B9
:10182800E4830010F7B500210800FFF79DFE041EB1
:101838002DD0FA2700267F0006F0B6FC1C4B1D4A67
:101848001B581360002B06D01B4B1B68092B02DDAD
:101858001A4804F0CBF800230093002C07D020008E
:10186800FFF720FE041E02D101277F423E00FFF74A
:1018780067FF0190002808D1009B114D002B13D160
:101888000E483A00330004F0D3F8019BE4E701273F
:101898007F423E00D0E72B689B69002B03D00022D3
:1018A8002800110098471035064B9D42F3D3E7E70F
:1018B800080000003C0B0020440B0020EC02002034
:1018C800D4830010E483001013B5154805F05FFBBE
:1018D800144B1B78002B0AD0EFF3108472B6FFF775
:1018E8002FFF002C02D162B6BFF36F8F13BD0E4BD2
:1018F8001B68002BFAD0002809D1002200230B48CE
:101908000092019300230A4A04F0ECFBEEE7092851
:10191800ECD1064806F055FB064804F067F8E5E701
:10192800440B0020711400203C0B002060080020AC
:1019380010270000EC02002010B5064B04001B68BD
:1019480098472100A060044805F0B8F9FFF7BCFFEC
:1019580010BDC046B400002074020020044B054AA4
:1019680000209B1ADB08994201D2C90088587047A9
:10197800D48300107C830010084B10B5C31A446848
:101988001B110133237143689A710122436819605E
:1019980043685A71FFF744FE10BDC046D483001057
:1019A800F0B55E1C85B0B5000090280007231730FD
:1019B8009843033080080F000192FFF79BFE02ABAB
:1019C80004000322581D002106F04BFB03AB1E70D8
:1019D800002C0BD0039B21002361002314312A1F04
:1019E8000198C058C85004339A42F9D1E023BA018B
:1019F8005B001A406D02054B2A431A402000002361
:101A0800009905F0FCFA05B0F0BDC046C0FF0F0014
:101A1800F0B591B004AF3B600B035B0D0D0078602F
:101A28007A613B610C0D002B00D173E0BB6000268E
:101A380004237E62BE62FE6202931833FB18019390
:101A48000A231822009302339B18DB193200B96865
:101A58007869FFF7F9FA8023F8601B01984224D3CC
:101A68007B696C461A795B798AB01B0213437A69E1
:101A7800927912041A437B69DB791B06134304AA83
:101A88009361294B2949D36180239B001384284BF8
:101A98005161136192213300264810328901FFF702
:101AA800B7FFA546BD460DB0F0BDFB6817345B0512
:101AB8005A0D3A61204A1B0B15401D43FB68E0187C
:101AC8000723984303308008FFF714FE041E15D03F
:101AD800030010337B62FB68FE62BB62042302933F
:101AE8001833FB1801930A231821009302335B185B
:101AF800124AB9687869DB19FFF7A6FA3B690E4AFA
:101B08005B0215401D432A0020003B68796805F0F8
:101B180076FAC7E720000723173098430330800878
:101B2800FFF7E8FD0400E9E7FF070000058800105B
:101B38000400000184830010FF01F0FFD96F00103A
:101B4800F0B5002687B003930E9B04000F00150024
:101B5800B34209D00F9B30000593009310210E9BD0
:101B68000D9AFFF78FF80600072322001D400C9CF2
:101B78001A401349D200AD011543173472020A40C6
:101B8800A019154398430C9A033012058008154391
:101B9800FFF7B0FD041E0AD00E9B002B07D00F9B49
:101BA800310000930D9A0E9B1030FFF76BF82A0056
:101BB80039002000039B05F022FA07B0F0BDC046AB
:101BC80000FE0F000EB417B5054C05AB04CB0100A1
:101BD8002000019301F050FE1EBC08BC03B018475A
:101BE800A170001010B5CB0604D4890603D50349AB
:101BF800FFF7E8FF10BD0249FAE7C0464588001024
:101C080044880010F0B58FB0069315AB1B78070019
:101C18000C0005920493002B00D1B4E00225199B17
:101C2800199A1D4001231A400B92199A07331A403A
:101C38000792199AF8331A400892002605F0C6F957
:101C48000200B04204D038008D49FFF7BBFF060000
:101C5800002D09D04423199A1A4235D122003800A0
:101C68008849FFF7AFFF36180B9B002B0AD0049A60
:101C7800854B9200D258002A00D1844A3800844902
:101C8800FFF7A0FF089B002B5AD0079B002B77D1AA
:101C98001C00059B002B05D01A0038007D49FFF772
:101CA80091FF0400169B7C48A419002B00D0BEE0CD
:101CB800189B002B74D1199BDB0700D5DAE038009C
:101CC8001999FFF78FFFBEE00020744B1D6885420D
:101CD800C9D0734B20001968FEF776FA2900FEF781
:101CE800AFFA0C00E12109010990FEF7A9FAFA20E0
:101CF80080000A9160432900FEF7A2FA0C000C90BC
:101D08003C210A98FEF760FAE1210D900901099833
:101D1800FEF75AFA0990FA20800029006043FEF77E
:101D280053FA0C9B02903C210A980193FEF788FA1B
:101D3800380000910D9B099A5A49FFF743FF92E733
:101D4800079B089C002B08D0049A574B9200380038
:101D58005649D258FFF736FF0400059B002B05D0E3
:101D68001A0038004B49FFF72DFF2418069B002B5B
:101D780098D01A0038004E49FFF724FF241891E73D
:101D880000230693E0E7069B4A48012B00D142480E
:101D9800169B049C002B4AD1189B002B53D000247F
:101DA800189E102E00D9102638001999FFF71AFF2F
:101DB8000025AC424CDC179B38001A783E49FFF7E7
:101DC80001FF012507231D4203D138003B49FFF7D6
:101DD800F9FEAE4242D9179B38005A5D3649FFF7E3
:101DE800F1FE0135102DEDD1002538003449FFF7FB
:101DF800E9FE2B00179AD25C1300203B5E2B00D91A
:101E08002E2238002F49FFF7DDFE0135102D2AD08C
:101E180007231D4203D138002849FFF7D3FE2B00C2
:101E2800AE42E7D838002549FFF7CCFEEDE7169B10
:101E38003A00254904F045FD189B002BB0D1049BBE
:101E4800002B00D037E7380005F01AF90FB0F0BDC5
:101E580038001A49FFF7B6FE0135AAE738001B49D2
:101E6800FFF7B0FEBDE7179B9B191793189B9B1BA9
:101E78001893E2E73800054A0549FFF7A3FE1EE775
:101E88004C880010508800103484001047880010D7
:101E98007588001078880010A1700010500B002081
:101EA8004C0B002059880010488400107C880010D2
:101EB80082880010C7700010878800108F88001073
:101EC8009188001093880010813800108D880010C8
:101ED800F0B50B8889B0DB055C0F4B680F00150067
:101EE8008E680790002B0CD0134A9A1AD208002348
:101EF80011B2120405D438788006400FFFF72EFD82
:101F080003003A003968788809030009490D10323E
:101F180084465718481E814149420A400292614648
:101F280000220491079831000595039701940092C7
:101F3800FFF768FE09B0F0BD7C83001073B5114A45
:101F480004000B000568914200D91300052168467A
:101F58000D4A04F033F90600636828000B220B4988
:101F68005B6805F07FF863683200280069465B68A3
:101F780005F078F8636828001B2205495B6805F0BE
:101F880071F873BD0F27000010900010B288001080
:101F980096880010012310B500211C00074A9042C2
:101FA80007D8074A002900D101231360054B1860A0
:101FB80010BD210040085B00F1E7C04640420F0019
:101FC8004C0B0020500B002070B50D000400461883
:101FD800B44201D1280070BD2178034801348368D8
:101FE8005B689847F4E7C04670820010F7B5FF2792
:101FF8000D4B0E4C5E6A0E4B0194019CA34202D31A
:10200800862040420CE05D68B5420AD31C69002C6A
:1020180007D0AD78AC4685883D40AC4501D1A04796
:10202800FEBD2433E9E7C046780B0020E403002016
:10203800C0030020F8B505000E001700114C124B24
:102048009C4202D38620404212E0104B62685B6AD1
:102058009A4215D3A369002B12D09178FF208C46A1
:10206800A98801408C4504D13A00310028009847DE
:10207800F8BD5279012A03D13A0031002800984767
:102088002434DCE7C0030020E4030020780B0020A0
:10209800F8B505000E001700094C0A4B9C4202D304
:1020A800862040420AE06369002B01D12434F4E71A
:1020B8003A003100280098470028F7D1F8BDC046FB
:1020C800C0030020E403002010B5082200210248C4
:1020D80005F0C7FF10BDC046330C002030B50A4BD1
:1020E8000A4CA34201D3002030BD1A7F196AD200DE
:1020F8005218914201D12433F3E708310D1F2D788E
:102108008542F6D10120EFE7C0030020E403002058
:1021180010B50300034C01212000034A04F08FFF8F
:10212800002010BDC4830010F888001010B5084CBA
:1021380023785B069B0F0A339B001B59181E05D09A
:102148002000044A04499847C043C00F10BDC04648
:10215800780B0020800B0020880B0020F0B585B09C
:1021680004000191042813D0012828D1204B1B78A2
:10217800002B24D000F0C0FE1E4E1F4B9E421BD2E7
:102188000025336A0293337FAB4204D82436F4E740
:10219800FFF79AFFEAE7029BEF00DF19387905F0AD
:1021A80039F90390387904F0C3FF144A136883435C
:1021B8001360039B002B0FDA00220D4B1A700D4D94
:1021C8000D4B9D420BD30E4B1B6A002B02D02000F7
:1021D8000199984705B0F0BD0135EDB2D3E7EB683A
:1021E800002B03D021002800019A98472435E7E7FF
:1021F800310C0020C0030020E40300203C0C002028
:10220800780B0020F7B56B46C4B2DD1D0E002C70AC
:10221800630609D02000FFF761FF002811D00020D5
:102228000C4B1B7883420CD020000B4F002E09D09A
:1022380001F060FEFB69002B02D0290008209847B6
:102248000120FEBD05F0C2F8FB69002BF8D029007B
:102258000920F4E7320C0020780B002070B5050047
:1022680005F0D8F80300040078330ED102212B00C2
:102278000B4A0C4804F0E3FE280004F059FF0A4A10
:10228800002413688343136007E00028F4D0012179
:102298002B00064A034804F0D2FE200070BDC04659
:1022A80013890010C48300103C0C002034890010EE
:1022B80073B56B46040080781870637922791B0225
:1022C80013436A4653800322E37813406A46137126
:1022D80004F02EFF234B06001B68234D03420DD04C
:1022E800A478200000F0EEFD2000FFF7B7FF05F00E
:1022F8009FFC002802D1963005F072FD684605F073
:1023080055F86B4602001B7878321BD10221174A18
:10231800174804F094FE6B46187801F013FE03008A
:10232800783318D16B461B780221124A104804F002
:1023380086FE2B000120B933C43518702B6833434F
:102348002B6007E00028E6D00B4A0948012104F079
:1023580076FE002076BD0028EBD06B461B78074A36
:10236800F3E7C0463C0C0020780B0020568900108B
:10237800C48300109D89001079890010BD89001060
:10238800F0B5AB4F0600BB690C00150085B0002BFB
:1023980018D13178C806C00E012800D178E002288B
:1023A80000D1E6E0002820D12A6873787F2931D946
:1023B800062B0CD0082B28D0002B16D11370537085
:1023C800023311E198470028E3D100200FE071881B
:1023D8000A0A131FD6B2012B07D9072A05D8CBB290
:1023E80001937B6A1F78002F03D11620404205B065
:1023F800F0BD5978B14204D10199814200D1EBE096
:102408000130DB19EEE71B78EEE0BA373B78137042
:102418000123E9E0052B11D0092BE6D173887C6AEA
:10242800002B32D1FFF750FE39007388BA310B7098
:10243800FB69002BC9D003209847C6E7B07801F0A4
:102448002FFD0028C1D0D0E76378042B09D0052BD5
:1024580011D0022B07D165797388AB4203D10120D3
:1024680001E0E37801932378E4182378002BEBD17B
:102478000028BAD0D6E77388AB42F4D1019B002B71
:10248800F1D12000FFF714FFEDE7FF250195ECE7F8
:102498002B6802933B00BA331B78002BA5D0B38876
:1024A800DAB294467A6A01921578002D9DD0507858
:1024B8000390022803D11079604500D996E052199B
:1024C800F2E7029B1A705A70039B8DE001998A18F3
:1024D800019295E00B2A00D087E70024FF2503949A
:1024E80002950AE0019B5B78042B14D0052B28D0B9
:1024F800019B019A1B78D3180193019B1B78002B31
:10250800F0D1FB69002B02D0072003999847002CD3
:1025180000D05AE769E7019BDB780293019B9D781D
:10252800B3889D42E4D17388029A9A42E0D1019B14
:1025380000240393072DDBD87B19BB331A700134B1
:10254800D6E7B388AB42D3D1B378029A93420BD083
:10255800019B9C78200000F0B5FC2000FFF77EFE70
:1025680043425841C4B2C3E70198FFF7A1FE0400F3
:10257800BEE773787F2918D9002B00D035E7367964
:102588002D6873060AD03000FFF7A8FD002800D197
:102598002BE7BA373B78002B00D126E7290030001B
:1025A80004F029FF00236B700AE7012B09D0032BE5
:1025B80000D01AE77388002B00D016E70121B088F5
:1025C80004E07188002900D00FE7B088FFF71AFEF1
:1025D800002800D0F9E608E72B60022A00D012E7AD
:1025E8009A78DB781B0213432360EEE672787F2922
:1025F80000D86FE7002A00D163E70A2A00D0F4E682
:10260800019A1278002A00D1EFE601994978042945
:1026180000D05BE7019989788B4200D056E7002209
:10262800072B02D8FB18BB331A78029B1A70EFE607
:10263800780B002010B504480121044A04F0F8FC86
:102648000120404210BDC046C4830010DE8900103E
:10265800F7B505001F000426009101923B002800F1
:10266800019A009901F096FC030004000B330AD18B
:1026780002212B00054A064804F0E1FC013E02F065
:10268800A7FF002EEAD12000FEBDC046038A001035
:10269800C483001013B5154C237D002B1ED1E268AE
:1026A80001AB8020A1680192FFF7D2FF019AA368CD
:1026B8009B18A360E3689B1AE3600ED1002A0CD034
:1026C8002069E388834208DD2300C8331978FDF7C1
:1026D8000BFE002901D10123237513BD00218020A1
:1026E8000B000A00217501F055FCF6E7780B002075
:1026F800002330B585B004000D000193984261D1E4
:1027080099423BD10B000822280002A904F09FFE41
:10271800002804DA802001F0EDFB05B030BD6B46DF
:102728002D4C029ADB892260039A257562602B4A38
:102738002561A2606A46127AE56052B2002A10DB6F
:10274800802B09D90121264A264804F071FC8020F3
:1027580001F0D0FB2800DEE7002B02D02361E36004
:10276800DBE7FFF7E3FC0028D4D02269E388934233
:1027780000DD1300E360FFF78DFFCEE7164D01ABD8
:10278800EA68A968002A05DC020004F060FE002857
:10279800C3DABFE704F05BFE002804DA802001F00A
:1027A800A9FB2000B7E7019AAB689B18AB60EB6800
:1027B8009B1AEB60B1D1094BAB60FFF7B7FC00285F
:1027C800D9D1A7E78028A8D1034BDA68002AD2D14B
:1027D8001B7D002BCFD1A0E7780B0020B00B002089
:1027E8002A8A0010C4830010054B064A58629A6270
:1027F800054A0020DA62054A1A63054A9A61704759
:10280800780B002089230010F51F00109920001074
:102818003D200010F0B5454D04006F6A85B0444B6B
:102828000093009801225242D31703F067F82B0057
:10283800B8331E78002E07D002213E4A3E4804F0E5
:10284800F7FB782464423CE03C482C62E86101F0E4
:1028580021FB01F0B5FA041E33DB00F06DFB041E0A
:102868002FDB7B78012B02D1FB79002B06D10121CC
:10287800334A314804F0DCFB1624E3E72A00C83267
:10288800137002AA100053801671167004F08EFDA2
:10289800041E16DB802702AB18001F7004F086FDAB
:1028A800041E0EDB274B30001900019304F063FD72
:1028B800041E06DB3800019904F05DFD224E041E5B
:1028C8000BDA009802F0E0FF200005B0F0BD00240C
:1028D800376A337FA3421CD824361C4B9E42F6D35A
:1028E800002001F02FFB041EEBDB2E000127C4366D
:1028F800336880203B43336001F024FB041EE0DB97
:10290800802332685B021343B835002433602F708C
:10291800D7E7E300FB181879196804F02CFD0028A4
:1029280002D10134E4B2D4E701248BE7780B00200C
:10293800B0020020438A0010C483001065210010F3
:10294800668A0010F9260010C0030020E403002066
:1029580010B50A4B1C78002C0CD100F04BF800285D
:1029680002D1FFF767FE10BDFFF73EFF2000FFF71B
:1029780051FFF8E778204042F5E7C046300C0020C8
:10298800F0B58BB01122194905A805F061FB10229A
:10299800002101A805F065FB154C1222002120003A
:1029A80005F05FFB102101A804F018FF00281ADDCC
:1029B800082800DA0820083801AB1B180F2021006E
:1029C8000022844614276D46985CED190609AE5D11
:1029D800654628406D46ED19285C01320E70487036
:1029E8000231082AEED120000BB0F0BDA08A0010F9
:1029F80073140020F0B5864C8BB000AF854BBB61DB
:102A080000231E003B617B61FB612378002B07D10B
:102A1800814B02349C42F1D17D48BD460BB0F0BDDC
:102A2800607805281ED8FDF7C5FBB303F1B3205223
:102A3800202100224023781802707B84131C243242
:102A4800BA18137001F03AFA002809D008237B84D9
:102A58001833F81801F032FA002801D000237B84DB
:102A68007B8CE3712378E418CFE7E378002BF9D166
:102A7800A378002B21D07B690133DBB27B61F1E7BE
:102A8800726894421CD024369E42F9D36D4688B0B1
:102A98006A46624B9461536103231361C221002388
:102AA8005F4810324901FEF7B3FFAD465C4801218B
:102AB8005C4A04F0BDFA0020AFE75B4E5B4BE3E7EE
:102AC800B368002BD7D0200079699847D3E7002E48
:102AD8005CD1574A0121524804F0AAFAE6E7FB689C
:102AE800326ADB00D318BB60A2781B799A4208D0FF
:102AF800FB680133FB60337FFA689A42EFD34D4A93
:102B0800E8E701250322EBB27B60E378134021322A
:102B1800BA181370637922791B0213437B84A37854
:102B28007F2B25D92B00012210339A401300BA6954
:102B38001A4227D180237A6813432022B918080043
:102B48000B7001F0BBF900281CD12023FB181B785F
:102B5800BA68A37013715BB2002B10DA01227B688C
:102B68001033DBB29A401300BA691A43BA6179E7A5
:102B78000123AB40BA691A4204D1EBB2DDE7012365
:102B8800AB40F1E70135102DBCD1B1E70023B1E727
:102B98003B69032B20D1FFF7F3FE051E0AD0FEF791
:102BA80046F8021E06D0102811D00121224A1C48DE
:102BB80004F03EFA2378E2185B08E318911E121B12
:102BC800032A11D53B690133DBB23B614AE729008F
:102BD800A01C05F03DFAEDE73B69002BEAD1FB6943
:102BE800002B08D1154A75E700224A701A78013B74
:102BF8000A700A00E2E7FB69FA69E31A93709BB26C
:102C08001B0AD37013007A691A71DBE7FC6129E7A4
:102C1800FC02002001000100BF030020B18A00105F
:102C2800BC830010978B0010C0030020E403002031
:102C3800D18A0010128B00102F8B00107A8B001095
:102C4800094A0023110010B51478844205D154684C
:102C5800002C02D09B01C81810BD01334032042B50
:102C6800F2D10020F8E7C046440C0020F0B504007B
:102C78002C3C63680600257887B0103327D1E16BB8
:102C8800E2688B0735D5002A07D10423194202D000
:102C9800002363601BE00B43E36305AB2800A168D6
:102CA800FFF7D6FC031E08D00121294A29480095C0
:102CB80004F0CDF916235B42EBE7059AA3689B184D
:102CC800A360E3689B1AE36023699B182361636828
:102CD80010330CD0236967690393A369029304F046
:102CE800A7FF002828D031001B4805F02BF907B0B2
:102CF800F0BD05AB2800A16801F0ACF9031ED3D1E3
:102D0800059FA368DB19A360E368DB1BE360236905
:102D1800DB192361002FBBD0280004F0ABFB0100B6
:102D28003800FDF78DFA0029B2D1E368002BAFD047
:102D3800280001F005FACAE760613000103802F097
:102D480055FE002FD3D02800029A0399B847CEE742
:102D5800C58B0010CC830010980800204B1E73B55B
:102D680006000D00012B14D8FFF76AFF041E11D1CD
:102D7800012D0ED1694601AB01223000033101F06B
:102D880069F9019B002BF5D101210A4A0A4804F090
:102D98004FF973BD04F04CFF21002C31002801D0FD
:102DA800012D03D10800FFF761FFF2E7034805F0A2
:102DB800C9F8EEE7E28B0010CC83001098080020D9
:102DC800F0B587B0060004910292039304F0F0F97D
:102DD800002865D1EFF3108372B607000593324BD4
:102DE800019300220023019802F022FE002810D14E
:102DF8002E4BBA019C186568290010311FD101219A
:102E080033002B4A2B4804F01AF9019802F0EEFD22
:102E18000CE0019B013740330193042FE1D10121DC
:102E28000C25254A234804F003F96D42059B002B25
:102E380002D162B6BFF36F8F280007B0F0BDD65439
:102E4800049B2061A360029B3000E3600C9B6361DC
:102E5800039BE3630D9BA36110235B42636004F053
:102E680009FB00280CD0300004F004FB0100029894
:102E7800FDF7E6F9002903D00423E26B1343E3636B
:102E8800039B9B0707D50D4BB9010D48C91805F0E1
:102E980059F80025CAE7300001F052F90500C5E7E6
:102EA80010256D42C8E7C046600C0020440C002085
:102EB800178C0010CC830010FC8B0010700C0020C5
:102EC8009808002010B5EFF3108472B6FFF7B8FE2B
:102ED800011E09D04368103306D18C235B4243603E
:102EE8002C31044805F02EF8002C02D162B6BFF34D
:102EF8006F8F10BD9808002070B500250C4CEFF3BB
:102F0800108672B66368103307D18C2321005B42A8
:102F1800084863602C3105F015F8002E02D162B61E
:102F2800BFF36F8F01354034042DE8D170BDC04622
:102F3800440C00209808002070B500250126084C94
:102F48002000084904F0E6FF200032003100103864
:102F5800013504F0A3FF4034042DF1D1002070BDE9
:102F6800700C0020752C001070B506000D0001795A
:102F78001248140004F0FAF800281BD0327873784D
:102F88007F2A10D8202B03D0222B08D0862012E0CD
:102F980007222168103805F05BF8002070BD73889F
:102FA80009380370F9E7212BF0D110381A3B20605B
:102FB8002B60F2E713204042F0E7C046440D0020A2
:102FC800054B010010B5180004F0DDF8002802D008
:102FD80001230738037010BD440D002010B50169A6
:102FE80001220B004B331A700B68002B08D00B0022
:102FF80049331B78002B03D00248083104F0A2FFA4
:1030080010BDC0469808002010B5036901211A00B8
:103018004A3211701A68002A08D0190048331B7800
:103028000831002B02D0024804F08CFF10BDC046C6
:1030380098080020130070B514000D00110001223B
:1030480048331A7023680831002B07D023004A330D
:103058001B78002B02D00D4804F074FF2300903336
:103068001B689A681B699A4206D1002D0DD1210070
:103078001831FA22920004E0210000221831002DB4
:10308800F7D00023014802F03BFE70BD98080020ED
:1030980070B5046923009E331B78181E14D02300D2
:1030A80000209F331B7883420ED1230048331870C9
:1030B800986C03F0E8FE2100050000220023034875
:1030C800183102F01DFE280070BDC0469808002087
:1030D800030070B50025040048331D800722094904
:1030E800943004F0B5FF230020009C331D70013B91
:1030F8001D70033329001D809D7040224C3004F060
:10310800B0FF70BDE48300100300F0B58C331B687A
:1031180004005B6885B01B6A1E7D300004F048F827
:10312800071E23D1230086331B78002B1ED0802254
:10313800A06FD20003A903F0C5FE002816D0230013
:1031480030331F703F2303405A425341C51A2300AE
:10315800183B0193064B039900932A000223300081
:10316800FFF72EFE2900A06F03F0C8FE05B0F0BDE2
:103178003D30001010B5046900222300A433186004
:103188005A600B4A0433516800290DD1536013600B
:1031980020000849083004F0BDFE20000649183018
:1031A80004F0DCFE002010BD0B605360F0E7C04661
:1031B800440D0020E97100101131001037B56B463D
:1031C8000469DD1D2300002248331A70297023008A
:1031D800903301222900186803F055FE002803D116
:1031E80004F026FD002807D021000A220023183108
:1031F800064802F085FD37BD2300A1331B78002B5C
:10320800F2D000210A2002F065FAE0E798080020D1
:1032180073B505001400002924DD16000A002100FA
:103228008C3630684C3103F02EFE230001224933DE
:103238001A702368002B09D023004B331B78002B0E
:1032480004D021000F48083104F07CFE33685A6826
:103258005969DB69521A9B1A3F2B03D80123A03402
:10326800237073BD23009E331B78002BF9D02100F7
:10327800054B40220093280001234C310194FFF7AD
:103288009FFDEEE798080020193200101D4BF7B596
:103298000F000100180003F05EFF041E23D0050094
:1032A8000368781E5E68A43D05281CD8FCF782FFD9
:1032B8001C1B031C2024A31F1978002913D10122E9
:1032C8001A70336A2A00187B5C3CFFF7A1FF21784B
:1032D800002908D1336A0A00187D0B4B0195009329
:1032E8000223FFF76DFDF7BD2800FFF7F1FEFAE7AF
:1032F8000123053C2370F6E7053C2378002BF2D028
:103308000023F7E7440D00203D30001037B50123B6
:1033180000258022064C0749200000955B42D20018
:1033280002F0B0FC2000044904F088FC28003EBDEF
:1033380098080020881700205B8C0010F0B585B035
:1033480000AF0C1E786036D06E468AB06D460968AC
:103358006268A3682B6205231A48A9616861EA615B
:103368002B61A1212A001848103200238901BA6074
:10337800F860FEF74DFBB546E168AD462269636922
:103388002B6205231148A9616861EA612B61A121BB
:103398000023BA68F8688901FEF73AFBB546E36985
:1033A80001210B4AF86803F04AFEA3690121094A82
:1033B800F86803F044FE2100786801F0A1FCBD46DE
:1033C80005B0F0BD648C0010A4830010938C00102D
:1033D800C28C0010D18C001030BFFDE7F0B5144B43
:1033E800144C85B007001819039101382100019386
:1033F800FCF7EAFE104E114D4443701929000138BC
:10340800FCF7E2FE45432B190293029A039B0C49F1
:103418009D1A2800019A04F01BFE28193200002189
:1034280004F01FFE0298083D08307D6605B0F0BD27
:10343800000000000100000004000000040000007B
:10344800E4830010044B99685869884202D0034904
:10345800034A0A60704700003814002004ED00E0B9
:1034680000000010F0B53E4B8BB05B6800AF7B608E
:10347800DB05DB0D04003B6062B6BFF36F8F394E8E
:10348800130EFF2B08D1F33B1340082B3DD101212C
:103498003000354A03F0CCFD00252C003B68032B97
:1034A80039D1324A0121300003F0C2FDA369304A04
:1034B800934202D32F4A934205D32F4A934249D3CA
:1034C8002E4A934246D2023B1A882D4B9A4241D14A
:1034D8002368012130002B4A03F0B1FD2668082338
:1034E8002022F818210004F0B3FD7B6A002D33D0A8
:1034F800DA0502D1244A13437B6208233000F91805
:10350800FFF71CFFBD460BB0F0BD01251207C5D55E
:103518000C000025C2E7F822796852001B4B1142C3
:1035280000D01B4B6A468AB07A606A4693613B6852
:103538001849103BD36180239B001384164B5161BB
:10354800136191210023300010328901FEF760FADF
:103558007B689D460026C2E75B0A5B02CCE7C04653
:1035680000ED00E0A48300102D8D0010588D001090
:10357800A8010010D08100100000002000000020E9
:1035880002DF00006F8D0010FF010000FF8C0010AB
:10359800148D00108B8D001004000001EFF30880DB
:1035A800EFF3098101B57246FFF75CFF01BDC04624
:1035B80072B607480749401880F30988EFF314806A
:1035C8000221084380F31488BFF36F8F00F0C6F818
:1035D800881F00200008000010B50A4B9B68834232
:1035E8000DD1EFF30583002B09D08022064B52053D
:1035F80059680A435A605A6A04490A405A6204F0F0
:1036080000FC10BD3814002000ED00E0FF7FFFFF34
:103618000B21084A49429368D9669866802306496F
:103628005B05486803434B6062B6BFF36F8F9368CE
:10363800D86E70473814002000ED00E015498A68FC
:1036480015481044EFF3098CF0C043464C465546E4
:103658005E466746F8C072B6104F114E4A698A60D6
:103668003E60104C141920680F4C2060906E0023A7
:103678009366002800D162B6074C10191030F8C8BC
:103688009846A146AA46B346BC462438F0C88CF3EF
:1036980009887047381400203000000004ED00E06D
:1036A80000000008640000004C0D00200420714652
:1036B800014202D0EFF3098001D1EFF3088081695C
:1036C800023909780229FFD001B503F032FE01BDA5
:1036D80043B2000605D41F221A4001239340014A31
:1036E8001360704700E100E043B2000609D41F22CE
:1036F8001A4001239340034AD367BFF34F8FBFF3A8
:103708006F8F704704E100E030B5FF2503220B00FE
:10371800290040B20240D20091409B012B40C9438E
:10372800934000280ADBC0240A4A800880008018D9
:10373800A40002590A401343035130BD0F22104020
:103748000838054A800880008018C269114019436A
:10375800C161F2E700E100E000ED00E0FF22084B64
:1037680010B59343074A9360BFF34F8FBFF36F8F32
:1037780001F084FB02F0ECFA00F03EF801F0C4FB23
:103788000001001000ED00E010B5203A1360029B24
:1037980001245360039B06499360049BA143D360B3
:1037A80080235B04D361002391610265836610BDA9
:1037B8007D140010074B9860074B406E1860101C72
:1037C80081F30988002162B6BFF36F8F00220023BE
:1037D800FDF750FE381400204C0D0020014910223E
:1037E8000A60704710ED00E0BFF34F8F30BF62B63C
:1037F800BFF36F8F7047C046F0B5C0240022032680
:10380800FF25A40010002F003040C0008740054964
:1038180093089B005B1819590132B94319511A2AA8
:10382800F0D1F0BD00E100E001B5EFF305800549F6
:10383800401AC0000449014409C9984709BC9E467A
:103848000249084710000000AC8200104D340010F7
:1038580010B5024B1B689847002010BD500D002082
:10386800034B044A1860022391780B439370704706
:10387800500D002018010020F0B587B007000E0099
:1038880014000021102268461D0004F0EAFB6A4675
:1038980002239370054B2A00210068460193049780
:1038A800059602F0B9FC07B0F0BDC0466173001080
:1038B800072310B50449054A99430548521A02F0EE
:1038C800AAFF002010BDC0460739002000200420B0
:1038D800540D00200200802103008A4300200F2A93
:1038E80008DC5AB20448002A00DA04482C228B4328
:1038F8005343C0187047C046640D002024100020B0
:10390800F8B506000F001400FFF7E4FF036A05008E
:103918001B685B0505D502213300164A164803F0DB
:103928008EFB76B2002E1BDA402C1FD8002F11D147
:1039380084231B021C4329002831087803005A1EDF
:1039480093410122424000200A702A6A5B03234304
:103958001360F8BD22003900686A04F079FBE7E7D4
:103968008023DB001C430023AB60E4E70C204042CB
:10397800EFE7C046A28D0010B483001070B50400B4
:10398800FFF7A8FF036A05001B685B0526D566B22A
:1039980001F002F9012816D9114B64001C40F343C9
:1039A800DB0F1C430123A3400E4A0F4913664A6EDE
:1039B8001A409A42FBD1296A0C480A6802400A60F8
:1039C8000B4A136604E02A6A084913680B4013601F
:1039D800002E03DA28000C3002F008F870BDC0464B
:1039E800FEFEFFFF0020115000001150FFFBFFFFFB
:1039F80000301150F0B589B00E22524200240392D3
:103A0800002600278022114D069607972800104BA4
:103A180010490494029401940094D20001F006FB2A
:103A28000D49280004F00AF90C48072183681B682F
:103A38009847A04208DB220003210520FFF764FE17
:103A48000520FFF745FE200009B0F0BD2809002039
:103A5800A93A0010881B0020BE8D00104882001073
:103A680010B50100024C200001F06AFE10BDC046EE
:103A7800C40200201FB500246B461C710623029364
:103A88006B4600221C7301A80023FFF7E9FF024BD5
:103A9800024A9C541FBDC046600D00208B050000E3
:103AA800F0B5802501267642F71785B06D001148DC
:103AB8003B0001A9320001F091FE6B4619790029FB
:103AC80010D01C7B2000FFF705FF0299002902D1C6
:103AD800094B0A4A9D524368002BE8D02000C9B21E
:103AE8009847E4E7044B1B68002BE0D00298C0B26B
:103AF8009847DCE7C4020020600D00208405000020
:103B080010B50300044C01212000044A03F097FA81
:103B18001620404210BDC046B4830010C68D001068
:103B2800F0B5944B89B01F68934B1F4206D0934B56
:103B3800934A9B5C002B01D0FFF79CFF10233C00AD
:103B48001C401F420BD0002501268E4B9B6D019314
:103B5800019B002B02D0202D00D0D9E01024802317
:103B68005B021F4226D080221C43874B92021A65B3
:103B78008020FFF703FF814D6B6A1B685B0507D543
:103B88000020FFF7FBFE0221804A814803F0EFFB8B
:103B98000123804A02A9AB54BB229200AB540022F5
:103BA8002C350A752B70069205A80B73002200238A
:103BB800FFF756FF80239B011F4214D080221C432D
:103BC800714B52021A65002302A90B720B706D4BE0
:103BD800196D0223114200D0DB1803930022002341
:103BE80002A8FFF73DFF80256D012F4223D06A4AC6
:103BF8000221674803F0BBFB80222C430025B02636
:103C0800614B12031A655F4BB6001D60634B01934D
:103C1800019B58192C3501F0E9FEB542F8D1002373
:103C280002AA13720122039202AA137002A80022A8
:103C38000023FFF715FF8023DB011F420FD010225E
:103C48001C43514B05A81A65002302AA13730522C9
:103C5800069202AA137500220023FFF701FF8023B2
:103C68001B021F4206D080221C43474B12011A65D3
:103C7800FFF700FF20252F4209D0494A0221444876
:103C880003F075FB8022404B12061A652C43402531
:103C98002F4209D0434A02213D4803F068FB8022A5
:103CA800394B12051A652C4380252F4209D03E4A0C
:103CB8000221374803F05BFB8022334BD2041A659C
:103CC8002C4380256D002F4209D0384A0221304804
:103CD80003F04DFB80222C4B92041A652C4380255F
:103CE800AD002F4209D0324A0121294803F03FFB99
:103CF8008022254B52041A652C43A74206D03B006C
:103D080001212C4A2248634003F099F909B0F0BD1B
:103D1800019B33422AD01C4B6C109E650123E4B2F0
:103D28001D4216D1002D09D1144B234A995C002954
:103D380004D09D54214A9B5C124A136080235B4245
:103D48001C43E4B22000FFF7C5FD0C3001F04EFE25
:103D58000223012102AA1475117305A806930022F3
:103D68000023FFF77DFE019BB343019376000135E5
:103D7800EEE6C0469800115010000100600D0020CA
:103D88008B0500000000115000301150D88D001034
:103D9800B483001084050000058E00103010002048
:103DA8000F8E0010188E0010238E00102F8E00101A
:103DB8003F8E0010498E0010860500008A0500001D
:103DC800F8B58023264A5B041360264A2649136007
:103DD8001C008A689443FBD1244D9C2221002800B2
:103DE80004F03FF9802221005201214804F039F9FA
:103DF80009236B670333AB670B3B2B6480239B055D
:103E0800EB641C4A1C4B1D4E1D4D1E4F1A603B1F78
:103E180077626B61002C1BD07C3B33621A4A043BEF
:103E28002B61E3019A18B262184A9B18AB61012210
:103E380028001100013404F031F808372C362C35ED
:103E4800102CE4D18022124B52020020DA64F8BD13
:103E5800BA210E4B094A890093625350E7E7C046DE
:103E680000E0004000F0004000C000400000115099
:103E780000001050F0F3010090001150600D002078
:103E880030100020840010504001105000011050E4
:103E980000201150014B18607047C046600D00208B
:103EA8000121034B034A9954034A98540020704750
:103EB800600D0020860500008A05000010B5027913
:103EC8000378002A09D15A0607D0074A0748012172
:103ED80003F04DFA0120404210BD70220020134229
:103EE800FAD0034AF2E7C0465D8E0010B483001092
:103EF8007C8E001070B50400FFF7ECFC051E1CD08A
:103F080080231B01620613D164B20D4A002C07DB23
:103F180002219166026A136001230020EB7070BDD4
:103F280001219166026A13600020FFF727FDF3E77D
:103F3800026A1360802CEFD1F6E716204042EEE7C4
:103F48000020115010B50400FFF7C4FC00281BD056
:103F58000023026A1360020028321370C169994273
:103F680009D0426A0A4B5340827892061343A02232
:103F7800120613430B60002063B2834203DD402125
:103F8800200003F004FA10BD16204042FBE7C046AB
:103F980000001050F7B5050014001E000191FFF74E
:103FA80099FC002802D06BB2002B08DB01212B0002
:103FB800244A254803F043F816256D420AE0802D6F
:103FC8000DD1224B224A9B5C002B05D0002E00D03D
:103FD800346000252800FEBD4027BC4203D807886E
:103FE800A74200D927000C3004000022002301F06A
:103FF8001FFD002824D103F01BFE002802D1053044
:10400800FFF772FB28003A000199FFF779FC051EBB
:104018000ADB03F00DFE002802D10530FFF758FB3C
:10402800002ED7D03760D5E7200001F0DFFC03F081
:10403800FFFD002802D10530FFF74AFB0525BCE744
:104048000B25BAE7C68D0010B4830010600D002060
:1040580084050000F0B585B00500140002910393B3
:10406800FFF738FC061E09D12D4A2E482B000121E6
:1040780002F0E5FF1620404205B0F0BD6BB2002B00
:1040880001DA294AF1E7002D2BD1284B284A9B5CFD
:10409800002B26D0082C16D1029B2700002B35D0E8
:1040A800224B234A9B5C002B28D022002149270061
:1040B800029803F0CDFFB3681B19B360039B002B74
:1040C8002AD10020D8E7082302211B4A154800946A
:1040D80002F0BDFF029B002B15D0082CE0D9082464
:1040E800DEE7280003F0ABF9B768029BC71B002B7B
:1040F8000AD0BC4200D93C00002DD1D0716AB36807
:104108002200C918D3E70827002CD7D001210B4A71
:10411800044803F02CF9D1E7039B1F60D1E7C046A0
:10412800A08E0010B4830010B48E0010600D002023
:104138008505000000001050D58E0010248F001057
:10414800F8B50400FFF7C6FB061E02D063B2002BC9
:1041580008DA1C48230001211B4A02F070FF1620D0
:104168004042F8BD002C26D1184D194B194FEA5C76
:10417800002A0ED0FA88002A08D0B122D200AC5208
:10418800EC544021200003F002F9EAE7EA54002049
:10419800E7E7200003F053F93B787F2BF7D8B122EB
:1041A800D200B168AB5AFE885B18B342EFD288429E
:1041B800EDD1AB52E5E7200003F041F9B368834243
:1041C800E5D1DEE7B4830010348F0010600D0020C5
:1041D8008505000000001050802310B5084A5B04D4
:1041E8001360084A94691C4202D01620404210BD50
:1041F80001609269100018401A42F8D0F5E7C046ED
:104208001830064000000640CBB210B5032B08D882
:104218000C234B4302689B58194ADB051B0FD056E9
:104228000AE0081F072805D8FBF7C4FF07151D215A
:10423800212128280120404210BD124A0E2013686F
:10424800116803220C0014401142F5D00E4A0238BE
:10425800022CE2D1F0E70D4A042013681268920795
:10426800EAD00B4AD9E70B4B0B4A1B68D5E70C235E
:104278004B430A4A9B181B68094ACEE70C20DBE728
:104288006B8F001030800040688F00103C80004029
:10429800628F0010488000405B8F00100080004053
:1042A800558F0010F8B505000C006E68210030002D
:1042B8002F6903F00FF9002800D16EE00E2C00D909
:1042C8006BE02000FBF776FF0808080808082A08B2
:1042D800080831316B636700210030003768FFF749
:1042E80093FF01002800FFF7DDFF0C236343FB1851
:1042F8005E68051C5868C0B2FCF7CAFB2949FCF780
:10430800D1F9041C300AFCF7C3FB011C201CFCF784
:1043180055F8011C281CFCF7C5F9F8BD224B234AA7
:104328001B68DB051B0FD456BFE70A2C2DD1B768D5
:1043380021003000FFF768FF01002800FFF7B2FFF7
:10434800061CB868FCF7A4FB311CFCF78DFA061CA8
:104358003F203D68FC682840FCF79AFB011C301C94
:10436800FCF7A0F90725061C200C2840FCF790FB59
:10437800011C301CFCF796F9FF68041C380B284018
:10438800FCF786FB011C201CC5E7F768D0E73868F6
:10439800FCF77EFBC1E77868FAE70020BDE7044830
:1043A800BBE7C04600007F43488000405B8F001099
:1043B800001B374BF0B544688FB0A36822220393E3
:1043C800E3685F4905A804932568276903F040FE60
:1043D8005C4B5D4A1A605D4B5D4A13601E005D4A86
:1043E80092689643FAD183225B4B9200DA62AE67F9
:1043F80000F0BEFB0321594BDA6B8A43DA635A6C2F
:10440800012AFCD103211A6B8A431A639A6B012A89
:10441800FCD1E269524B03985A43636A0093236ABA
:10442800A16900F03FFBE26A4D4B04985A43636B65
:104438000093A16A236B00F035FB112105A803F056
:1044480093F8730005AA9956C8B2092868D90136A5
:10445800112EF6D1C0239B01190080222943120195
:104468000A6029000C3119430A60290024351831E3
:1044780019432B430A601A602300AA253800D83351
:1044880019682D0129431430FFF7A6FE002853DBD5
:104498002300DC331B68334938001943FFF79CFEBF
:1044A800002849DB2300E0331B68002B46D0290095
:1044B8001F2B00D8591938001030FFF78DFE00283F
:1044C8003ADB2600E4363168274D89B22943381D86
:1044D800FFF782FE00282FDB380031680830090C0E
:1044E8002943FFF779FE002826DB204B184A136082
:1044F800184B9B68DB43DB01DD09002BF8D1290051
:10450800606902AA03F082F9002805DB029B2A00F1
:104518001979186803F08DF900280DDD00200BE0EB
:10452800090161180B6C00934B6CCA6B896B00F026
:1045380045FA00288BD116380FB0F0BD0C49BAE700
:10454800EB83001000E00040BFCDFBFEFE3F3C00C7
:1045580000F0004000C0004000800540008000409E
:10456800001BB70000B0FA0000009696FFFFFF019D
:10457800A10A000010B5084803F041FB002808D044
:10458800064C2000FFF76CF92000FCF76DFF0020B7
:1045980010BD13204042FBE770820010A9450010AF
:1045A80070B50400074D0A2804D1AB680D21280016
:1045B8005B689847AB6828005B68E1B298472000C1
:1045C80070BDC04670820010F7B50600002403696C
:1045D8000193E308144A08339B009B5807222240A2
:1045E8009200D3400F22134203D101341E2CF0D184
:1045F800F7BD0F21200000F037FB019B5968002907
:10460800F3D00127A7400D680029EED08B681A0067
:104618003A403B4202D030004B6898472B1E00D0EE
:104628002B6829001D00EFE700410140436803495A
:104638001A68936B0B4093637047C0463FF8FFFFBF
:10464800F7B503000F0016000568002902D11620EF
:104658004042FEBD006959698368DB68002BF6D0CB
:1046680001AA98470028F2DB019C002CEFD0390002
:10467800E000FBF7A9FD0F49C3095F1E00228F4226
:1046880003D87F32104001304208802149028B4212
:104698000CD3094B6B62AA62E96AA000E96299012E
:1046A8008918FBF791FD30600020D2E7002BF1D18B
:1046B8000133EFE7FDFF0000FFFF0000F7B5466894
:1046C800050007690021706801AA346803F09EF8A4
:1046D80000284EDB019B00221979186803F0A9F81D
:1046E800002846DB3069716983681B689847002891
:1046F8003FDBB068F1688368DB68002B3AD09847E5
:10470800002836DB3968686801AAFFF799FF002896
:104718002FDBBB797A793979686803F009FA1022B6
:10472800164B00212363E36A1343E3620323F03249
:10473800A364BA80BB71FF3A686803F0F9F92300F3
:104748002C331A00C0239B01134310221A60002344
:104758002360FB79012B08D1C022236B12029A43F4
:10476800802330345B0123431A602800B3699847DB
:104778000020FEBD58204042FBE7C0460103000070
:1047880070B580251049114B8C681B680E6810485D
:104798008A686D02002C08D1002A11D11A002E4215
:1047A80009D100681818801A70BD002A0AD02E4254
:1047B80001D1A242F5D90468E41804600968F0E759
:1047C8001C00F4E71A00F2E710E000E008130020EC
:1047D800041300200020094A136A1B021B0A1362F3
:1047E800074B084A1A60084B084A1860084B5A6079
:1047F8000722986019680A431A60704700ED00E0C4
:1048080008130020D430000004130020D330000027
:1048180010E000E0F8B50024FFF7B2FF0F4E2300C8
:1048280031680F4D0A002868696880185941286066
:1048380069600C4D34600C492E686F68801BFBF76B
:10484800C3FC0949230041430A0092197B412A60AD
:104858006B6001F04FFBFEF7F5FDF8BD0413002077
:10486800A009002098090020D4300000F0B53B4B87
:104878003B4D87B000295FD0421C08D101212A682E
:104888008A432A60FF2212061A6007B0F0BD1B682F
:10489800039300230293012853DCEFF3108372B6CD
:1048A8000593FFF76DFF00221100AB6804932D4BB1
:1048B8001E685F6836184F4130003900186059602B
:1048C800294B009601971A60284B1C68009B1B1BFC
:1048D80093423DDB264F0298264A78438018C01839
:1048E8003900FBF771FC009B7843E41A80232018F9
:1048F800DB00984200D218001F4B984200D91800DC
:10490800164B184918600138AB6868600020A86029
:10491800049AD41A9A421ED2039D621903000C68A5
:104928004D6812196B410A604B60059B002BACD196
:1049380062B6BFF36F8FA8E71B680393431CA8D127
:104948000E480F4B984200DD1800431E0293A4E75F
:104958008020C000D4E72200E0E7C046081300200A
:1049680010E000E0A00900200413002098090020AE
:10497800D4300000D330000084C6FF003D0500009D
:104988003E05000070B5EFF3108572B6084A094B72
:1049980014681B68E41AFFF7F3FE0019002D02D112
:1049A80062B6BFF36F8F0449FBF70EFC70BDC046BB
:1049B800A009002098090020D4300000F0B585B087
:1049C80001920A9A05000F00934201D202F0CFFC2F
:1049D8000C241A0E1B02039202930A9A00230298CF
:1049E8000399FBF7CBFC6C432C4B0600E418636877
:1049F800834200D260602B1FDBB20093C023009A71
:104A08009B012343012A1BD8012F19D103221A60C5
:104A1800A3683B42FCD0019A236852015A40E02324
:104A28001A4080235B0123431A60032122687A40DD
:104A38000A401A600123BB40A2681342FCD01AE066
:104A4800802212011A60164BAA00D158002905D0FD
:104A58005869FBF7B9FB01300138FDD1019A236889
:104A680052015A40E0231A4080235B0123431A6015
:104A7800009A012AD9D9802380229B01234312015D
:104A88001A6002986660320000230399FBF776FCEF
:104A9800034CAD006051012005B0F0BD008000401E
:104AA8000C130020F8B5170004000C201E000D00A0
:104AB800FBF78AFB274BFA18274B9A4201D902F0D9
:104AC80056FC264941433800FBF77EFB0200982339
:104AD800103A5B009A42F2D8731E062BEFD8069B59
:104AE800013B062BEBD8069B32041E0323681643B2
:104AF800002B0FDA3F2223681340AB420AD1A36888
:104B08001B051B0D834205D1EE22E368D202134038
:104B1800B3421BD0124B9C4219D080235B01114A2F
:104B280011491360114A13601F008A689743FBD12B
:104B3800C023221D9B01134321222560A0601A6017
:104B48002268002AFCDA0822E6601A60F8BD802391
:104B58009B01E4E780E84BD380F8A93240420F007C
:104B680000C0024000E0004000C0004000F00040EB
:104B7800AA22064B12011A602F220549DA60054A5B
:104B880011605A68002AFCDA7047C04600400240AB
:104B980000B0FA0000600240802310B5DB051868F9
:104BA8000649030B02059BB2120D8A4201D002F09E
:104BB800DEFB022BFBD1000F10BDC0462709000009
:104BC800084B8200D218402310B51468C000634017
:104BD800C02423408024640122431360024BC01880
:104BE800416010BD04C0014000400140074B8000F7
:104BF800C0180368C90092000A435A400C231A409F
:104C080080235B0103431A607047C04604C001401B
:104C1800054B8000C01802228023002900D1C02340
:104C28009B0103431A60704704C00140054B800094
:104C3800C018036859400123194080235B010343CE
:104C48001960704704C00140064B8000C018036813
:104C5800090159403023194080235B01034319603F
:104C68007047C04604C001400722C30810408000B6
:104C78008140024A3C339B009950704700400140F4
:104C8800F8B5D0231B061C68050063425C412F233E
:104C980064429C430A4B0F00E4181600FFF7E4FF38
:104CA80007232B40ED089B00AD009F40641980232B
:104CB800002E00D1C0239B0123431F60F8BDC046CE
:104CC80030410140054B8000C01840228023002954
:104CD80000D1C0239B0103431A60704704C0014000
:104CE80010B50400FCF77AFD03480121034A02F0DD
:104CF8009FF9200002F090FFA4830010C68F0010D7
:104D0800F0B585B005000C0000AFEFF3108372B664
:104D18002D4A7B609368FB602C4B042802D82C4BEF
:104D28008100CB586E468AB0117C6A46D361294B04
:104D380029489384294B5061956111621361B1210F
:104D4800274B1032BB60B86800238901FCF760FE6E
:104D5800B546002C07D0E369DB0504D00121214AC0
:104D6800B86802F065F9FB68002B07D0180002F05C
:104D780068FF002802D00378002B00D11A486E463D
:104D88008AB06A46194BD0615361FB689361114B35
:104D98001384174B136191210023114810328901A4
:104DA800FCF736FE2100B5462800FFF799FF7B681F
:104DB800002B02D162B6BFF36F8FF868FEF70CFCC8
:104DC800BD4605B0F0BDC04638140020D58F001090
:104DD800C086001001030000EB8F001005000001E1
:104DE800A483001013900010E38F0010349000107B
:104DF80004000001F7B50127124E830001309C59C9
:104E080083000193019BF358A34200D8F7BD65685E
:104E18002368002D13D0002B0BD0280098470028BA
:104E280007D0C2178018EB685040FF2800DDFF202C
:104E38001870EA6853783B4353700834E2E79847A0
:104E4800FBE7C046D486001010B50124094B0320A7
:104E58001C70FFF7CFFF01F07DF90420FFF7CAFFB0
:104E680000F010F9FBF7EAFE034A137BA343137320
:104E780010BDC04686140020180A002010B5034A49
:104E880003480021121A02F0CBFE10BD881400203E
:104E9800E8030020F0B570270F25040047430102FE
:104EA8001348012609180020802287B0039505358C
:104EB8006543104B0590029001900F48FF182D187C
:104EC800B24038000D4B0496009500F077F80422A4
:104ED8007B7B2C7493437B73A419094BE402E4187D
:104EE800EF606C600748310003F084F807B0F0BD4C
:104EF80088270020A809002038140020817E00108F
:104F0800881F002034140020F0B50020A3B0FFF75C
:104F180071FF224B83F308882149224B0A6A002536
:104F28001A40C0231B0413430B6202F00EFAFEF76B
:104F380055FCFCF7C7FB02221B4E06ABFF329A81D9
:104F4800B3601E9502F05AFE0120FFF753FF0220BE
:104F5800FFF750FF00F032FB144C154B74618022B0
:104F680005930123134E14490493D2003300200003
:104F7800039502950195009500F020F8042207009A
:104F8800637B20009343637302F09DFE2800FFF7C4
:104F980081FF320039002000FEF70CFC8827002032
:104FA80000ED00E0FFFF00FF38140020180A002081
:104FB80037870010514E001088280020F0B587B0C0
:104FC8000593030058338365C365109B0727037354
:104FD80004230025437307320F9BBA4383738B184E
:104FE8000E0085601900C5738561C56104000493CE
:104FF800FEF7F4F9049BC019B8431F1A0E9B3A0038
:1050080002930D9B310001930C9B20000093059B9C
:10501800FEF7BAFB044B65659B68AB4200D01B6E7C
:105028003800236607B0F0BD3814002070B50400BE
:10503800002086B005900E98119D04900D98109E42
:1050480003900C9802900B9801900A980090200009
:10505800FFF7B4FF2B00721C01D1013305D02B00E0
:10506800334305D1200000F053FA200006B070BD8C
:10507800200032002B000249183000F0CDFEF4E782
:10508800737D001070B51B4C86B026001A4DAC42DB
:1050980007D300F06DFAAE4219D300F079FA06B0E2
:1050A80070BD636A0593236A0493E3690393A36954
:1050B80002936369019323690093E368A2686168B6
:1050C8002068FFF77BFF23685C653034DEE7B26A4F
:1050D800F36A511C01D1591C05D0110030681943DD
:1050E80003D100F015FA3036D5E70449183000F03E
:1050F80093FEF8E77C8300107C830010737D00101A
:10510800C289030000207F2A11D80A4A10680028A3
:105118000DD00E21084A595612680020914206DB2C
:105128005A7BD20603D10548181A431E9841012319
:1051380018407047601400205C140020A809002063
:105148000121044B044AC01A044BC0104343D154F4
:105158007047C046880A002087140020ABAAAAAA74
:1051680070B518240C4B05001E7C0C4B7443E418D6
:10517800200002F0FFFE0022094B28009A55FFF795
:10518800BFFF002807D0074B20001A680649013ADC
:10519800D31700F041FE70BD38140020880A0020A3
:1051A80087140020601400204951001070B50E4D7E
:1051B8000E4BAC699C4201D0002C00D1EC68AB6866
:1051C800002808D15A7BD20605D1A269002A02D14B
:1051D800DA897F2A05D89C4202D02000FFF7C0FF59
:1051E80023006B6170BDC0463814002050140020A5
:1051F8000D2270B582560400437B002A04DA7F2210
:105208001340437302F023FD8023627B5B42134308
:10521800134A637393691348834200D10023D16909
:10522800002B04D1206061600C60D4610CE00E2575
:105238000E2665579E57B5420DD0AE420BDD596814
:10524800236061600C605C609068001B43425841B9
:10525800FFF7ACFF70BD9942E4D01B68E0E7C04699
:1052680038140020501400200D2370B5C356417B1C
:10527800002B26DBCB0624D18369002B21D1802289
:1052880052420A434273114A114C9169A14200D01B
:105298000B00D169002B04D1046041600860D06123
:1052A8000CE00E250E2645579E57B5420AD0AE4251
:1052B80008DD5A6803604260106058600020FFF7FC
:1052C80075FF70BD8B42E7D01B68E3E738140020F8
:1052D800501400200D2210B582560400437B002A8A
:1052E80004DA7F221340437302F0B1FC034B986841
:1052F800001B43425841FFF759FF10BD38140020E6
:1053080070B51D001600040002F0B4FC2B00721CDE
:1053180001D1013306D0200032002B000249183099
:1053280000F07AFD70BDC046737D001070B50400B2
:105338000D001026002A00D0083E637B33420DD1B1
:1053480033436022190091430A0049B2002911DB56
:105358006273082E15D00120FFF728FF1B4B9B68AE
:10536800A3422CD1EFF30583002B28D12800FEF7A8
:105378004FF970BD1F2213402000637302F067FCD1
:10538800E7E7A368002B02D0200002F068FC2000A9
:10539800183002F0EFFD2300A66D58339E42DAD094
:1053A800002ED8D0300002F05AFC3000183002F03D
:1053B800E1FD00233000F366FFF756FFEBE7002D11
:1053C800D7D162B6BFF36F8FD3E7C0463814002039
:1053D80070B5EFF3108572B6104A114B94681868CF
:1053E800A04207D1FFF7BCFE002D02D162B6BFF381
:1053F8006F8F70BD00211960127C0A4B9B5C8B4239
:10540800F2D02000FFF77CFE0028EDD0637BDB069E
:1054180002D12000FFF7ECFE2000E3E7381400205B
:10542800581400208714002010B509480C00094BB7
:10543800110082681A60EFF3108372B6029A039B18
:105448008068FFF75DFF2000FEF7E2F810BDC04658
:105458003814002058140020F8B50400EFF3108722
:1054680072B6437B4EB2DA061BD18569002D18D17E
:105478007F221340437302F0EAFB8023627B5B4286
:1054880013436373154BA6739A6915498A4200D072
:105498001500DA69002D0CD1216062601460DC61AE
:1054A80012E00020A673002F02D162B6BFF36F8FFF
:1054B800F8BD0E20285686420BD0B04209DD6B6835
:1054C800256063601C606C600120FFF76FFE01209F
:1054D800E9E7AA42E0D02D68DCE7C046381400208E
:1054E8005014002010B500290AD1EFF305800028D8
:1054F80007D1064B9A685B699A4202D0FEF788F892
:1055080010BD62B6BFF36F8FFAE7C04638140020AB
:1055180010B5EFF3108472B60422437B134205D111
:10552800002C02D162B6BFF36F8F10BD9343437353
:10553800FFF79AFE21000248FFF7D4FFF5E7C046BF
:105548008814002010B500280AD1EFF30580002840
:1055580007D1064B5A699B689A4202D0FEF758F861
:1055680010BD62B6BFF36F8FFAE7C046381400204B
:10557800EFF3108172B6054B9A68D37B013BD37366
:10558800002902D162B6BFF36F8F7047381400202C
:1055980010B5EFF3108472B6074B00209A68D37BDE
:1055A8000133D373FFF702FE002C02D162B6BFF3BA
:1055B8006F8F02F00EFC10BD38140020024B034A16
:1055C8009A61DA617047C0463814002050140020F0
:1055D800F8B5EFF3108572B67F22194CA068437BAB
:1055E8001340437302F033FB8022A3685242597B75
:1055F80014480A435A73A269824200D10022E16921
:10560800002A04D1186059600B60E3610CE00E2693
:105618000E279E57D757BE420DD0B7420BDD5168B3
:105628001A6059600B6053600120FFF7BFFD280026
:10563800FDF7EEFFF8BD8A42E4D01268E0E7C04605
:1056480038140020501400200300F7B50B43040061
:105658000D00002B03D1FFF7BBFF0020FEBD4B1C44
:105668002EDB4B1C01D1831C2AD302F096FC271891
:10567800EFF3108372B6144E0193B068134B1860A1
:10568800FFF728FEB06822002B001149183000F0FF
:10569800C3FB1023B2680198517B0B435373FDF78A
:1056A800B7FF02F07AFC00233A0004001D00121B29
:1056B800AB41AB4202DCD0D1AA42CED01000CDE73C
:1056C80002277F423F1BD3E73814002058140020DC
:1056D800737D001010B50B000C00421C07D101337C
:1056E80005D10A4B986802F0FAFA200010BD210093
:1056F800FFF7AAFF00210200C317092080185941AB
:105708000A220023FAF73AFEF0E7C04638140020D0
:10571800014B98687047C0463814002073B5069D41
:10572800079E089C00950196FFF77EFE002C03D08B
:10573800024B9B685B69236076BDC0463814002025
:10574800F0B50F00010085B0083104000391EFF3B4
:10575800108672B6006AE16888422CD2200002F0F6
:105768001FFBA268051E0FD000243900406902F013
:105778006FFC2800EC6602F0A6FA03983100FFF7E8
:10578800B1FE200005B0F0BD3900E06902F060FC10
:10579800E369A2689B186269E361934201D12369B6
:1057A800E3610020236A01332362002EEAD162B646
:1057B800BFF36F8FE6E7110019430AD00649039833
:1057C80089684F610092310022000193FFF72CFE97
:1057D800D8E723204042E8E738140020F7B5040052
:1057E800270008000837EFF3108672B6216A0029EF
:1057F80032D0A268A16902F02BFCA369A2689B18A9
:105808006269A361934201D12369A361236A2000DD
:10581800013B236202F0C4FA0500002085422BD028
:10582800A268E069696902F013FCE369A2689B1841
:105838006269E361934201D12369E361236A280025
:10584800013323620024EC6602F03DFA380031008F
:10585800FFF748FE2000FEBD110019430AD0094990
:105868008968486100923100220038000193FFF7EF
:10587800DBFDF0E723204042002EECD162B6BFF3F7
:105888006F8FE8E73814002070B583680400002B98
:105898002AD0184A9268934229D1C368012B03D9A8
:1058A800013BC360002070BDEFF3108572B601693B
:1058B800806802F0E8FA200002F072FAA06000287E
:1058C8000BD00E23C35623610023C36602F0FBF9F5
:1058D80029000948FFF706FEE4E7E060002DE1D162
:1058E80062B6BFF36F8FDDE716204042DBE7012089
:1058F800FBE7C0463814002088140020F0B585B0B6
:1059080004001F000392EFF3108672B6C368354A8D
:10591800002B0ED080689168884217D0039B3B43C8
:105928001AD1002E02D162B6BFF36F8F1020404209
:105938000AE09168897B49B20133E3609368216189
:10594800A360002E04D0002005B0F0BD2169F3E764
:1059580062B6BFF36F8FF6E70E23897BC35649B251
:10596800994200DD19000A007F3201DA7F2149429D
:1059780000258B4202DD02F086FA05001A4B220050
:105988000293039B3100029800930197FFF74CFDA7
:105998000028D8D0EFF3108672B6A068002819D076
:1059A800236821699C420BD0002B09D09B7B5BB2FA
:1059B800994200DD19000B007F3301DA7F2149424B
:1059C80002F061FA002805D031000298FFF78AFD3D
:1059D8000B20ACE7002DF7D1002EF9D162B6BFF34A
:1059E8006F8FF5E7381400208814002070B5040084
:1059F800EFF3108572B602F0D3F9002808D000231F
:105A0800C36602F060F929000848FFF76BFD70BD16
:105A1800A268E3689B1A591E8B419B18A360002D4E
:105A2800F5D162B6BFF36F8FF1E7C0468814002046
:105A380013B50400EFF3108172B68068002808D00F
:105A48000138A060002902D162B6BFF36F8F002031
:105A580016BD1000184307D1002902D162B6BFF362
:105A68006F8F10204042F3E7009201932200024812
:105A7800FFF7DAFCECE7C04688140020F0B5050013
:105A880087B0EFF3108772B62E002C6F8836002C83
:105A980013D10221300002F00EFA00283FD1002372
:105AA8002A00029301235B42DC173900009301941A
:105AB80078323E48FFF732FEE3E723686A6F2B67C8
:105AC800944200D16B670222336813433360042386
