:020000041000EA
:1000000000B5324B212058609868022188439860DF
:10001000D860186158612E4B002199600221596106
:100020000121F02299502B49196001219960352056
:1000300000F044F80222904214D00621196600F024
:1000400034F8196E01211966002018661A6600F04E
:100050002CF8196E196E196E052000F02FF8012189
:100060000842F9D1002199601B49196000215960AB
:100070001A491B48016001219960EB211966A021F2
:10008000196600F012F800219960164914480160C1
:100090000121996001BC002800D000471248134993
:1000A000086003C880F30888084703B5996A0420EC
:1000B0000142FBD001200142F8D103BD02B5186610
:1000C0001866FFF7F2FF186E186E02BD00000240BE
:1000D000000000180000070000035F00212200005C
:1000E000F4000018222000A00001001008ED00E03C
:1000F00000000000000000000000000074B24E7A12
:1001000000200420F7010010C3010010C5010010F9
:10011000C1010010C1010010C1010010C101001097
:10012000C1010010C1010010C1010010C701001081
:10013000C1010010C1010010C9010010CB01001065
:10014000CD010010CD010010CD010010CD01001037
:10015000CD010010CD010010CD010010CD01001027
:10016000CD010010CD010010CD010010CD01001017
:10017000CD010010CD010010CD010010CD01001007
:10018000CD010010CD010010CD010010CD010010F7
:10019000CD010010CD010010CD010010CD010010E7
:1001A000CD010010CD010010CD010010CD010010D7
:1001B000CD010010CD010010CD010010CD010010C7
:1001C00000BE00BE00BE00BE00BE00BEEFF3058054
:1001D000103800BEF2EB8871086900103069001019
:1001E0003802001090A31AE71E481F49086006C88D
:1001F00081F3088810471D480068002801D019487D
:10020000F3E70DA40ECC002902D000F012F8F9E7B4
:100210001749184A002000E001C19142FCD116495B
:100220008847164988471649884700BEFDE701C937
:1002300001C29A42FBD3704730690010C000002011
:1002400050020020C06A00100000042000000420BA
:10025000C06A0010001004200010042000000000FC
:10026000704700000000000008ED00E0000000D032
:100270005002002084060020E95200103D070010C3
:10028000E1520010F8B5C04606480749091A8B101C
:10029000C90FC91810B5491003D0044B002B00D06A
:1002A000984710BD500200205002002000000000BE
:1002B000054B10B5002B03D00449054800E000BFF2
:1002C000FFF7E2FF10BDC046000000003806002026
:1002D000F05C001010B505F045F9FA20C00001F0FF
:1002E00035FF192001F064FAD02380221B06920406
:1002F0005A620B490B4805F033FC0321042001F03E
:1003000015FA0321052001F011FA00220121042031
:1003100001F026FA00220121052001F021FA10BD8A
:10032000A086010040020020F0B5CE46474680B5C9
:1003300087B003A801F078F9002837D0039803F0BC
:10034000DBFA02000B002A4805F0E0F9042304ADB3
:100350002B70039B28006B6001F054F802F00CF83E
:10036000244B1A685B68121A8B41002B32DD22483D
:1003700005F048F9D0239946CF3B762498461F4F85
:100380004B462B704346E6B200932A00012331000E
:10039000380005F00DFC01280DD0631C7724782B64
:1003A000EED107B0C0BCB946B046F0BD144805F068
:1003B00029F904ADDBE700232A000093310038005F
:1003C000013305F0FFFB0128E7D121000D4805F0BE
:1003D0009DF9E2E7002B01D1002AC8D1039803F070
:1003E0008BFA02000B00084805F090F9BFE7C04601
:1003F000585D0010D0030020B85D001038020020C6
:10040000945D0010D85D0010785D0010F0B5CE4608
:1004100047460E2380B589B06B44180004A900F04C
:10042000CFFB002800D078E0A84B984600F0EEFC07
:10043000A749041C03F02CFA002826D0A54DA44996
:10044000286803F017FA002800D0EFE02C6001F0D4
:1004500093FF43461A685B68121A8B41002B00DC3D
:10046000BCE09D4800F004FD002800D1AFE012235D
:100470006B44180000F02AFD002825D1FFF754FF37
:1004800009B0C0BCB946B046F0BD9449201C03F089
:10049000F7F9904D0028D9D09049286803F000FA68
:1004A0000028D3D08D4A211C032000F01DFE201C03
:1004B00003F022FA00268A4F02000B0000960197F3
:1004C000884805F023F9C1E705A800F039FD0028A8
:1004D000D4D06B469625588A6D00A84200D9B7E063
:1004E000814C2388AB4200D9DFE0208001F044FF3B
:1004F00043461A685B68121A8B41002BBEDC01D19F
:10050000002ABBD1059803F0F7F90B0069460200F9
:10051000498A764805F0FAF8B0E76B46198AD88917
:10052000451A00F0E5FB0123041C05A803706B4687
:10053000DB89ADB243806B461B8AC58083808460B3
:1005400000F04CFD6A49201C03F0A2F9002853D1A9
:100550006849201C03F094F9674E002806D06549CD
:10056000306803F09DF9002800D08BE0346001F082
:1005700003FF564B98461A685B68121A8B41002B92
:1005800000DD53E702D1002A00D04FE76B461B8AFB
:10059000201C99466B46DF8903F0AEF9574E2B00BD
:1005A0004A46009001913900300005F0AFF801F0A3
:1005B000E3FE0023524A8018594102000B1E02DA62
:1005C0000122504B524241460A604B602EE74E4892
:1005D00005F018F84D4805F015F848E7002B02D152
:1005E000002A00D03DE7201C03F086F902000B0032
:1005F000474805F08BF834E73F4E3D49306803F03B
:1006000039F90028B2D03A4A211C022000F06CFDD2
:10061000201C03F071F9020000200B003D4F3E4901
:1006200000900191380005F071F89FE7284A211CDD
:10063000042000F059FD201C03F05EF90026374F1E
:1006400002000B0000960197354805F05FF8FDE6C3
:10065000AF25254CAD00A84200D246E72388AB4227
:1006600000D342E703F021F92E4A011C062000F0D6
:100670003BFD6B462A00598A2B4805F047F86B462C
:10068000588A32E71B4A211C012000F02DFD201C56
:1006900003F032F9020000200B00244F244900909F
:1006A0000191380005F032F860E703F0FEF8214AC6
:1006B000011C052000F018FD6B462A00598A1E48CF
:1006C00005F024F86B46588A0FE7C046D003002097
:1006D0000000F0416406002040020020000020419C
:1006E00000002440E05E00107C060020D85F00106F
:1006F00000007A4400004842600600206C5E001052
:1007000080841E00FFFFFF7F305F00105C5F0010E1
:10071000185F0010F45D001000408F4000003E4064
:10072000A85E001000002F44B45F0010305E00107F
:100730000000494000009643905F0010F0B5DE468F
:1007400057464E464546E0B58DB0FFF7C3FD864C93
:100750008649200005F004FA0321022000F0E6FF9C
:100760000321032000F0E2FF00220121022000F01B
:10077000F7FF03200022012100F0F2FF200000F02B
:10078000BDFE002800D0DAE0794804F03BFF79484C
:1007900004F038FF784804F035FF784804F032FF61
:1007A000774804F02FFF774804F02CFF764C2000A8
:1007B00000F0AEF9002800D1C5E0744804F022FF33
:1007C0001A2000F0F9FA002800D1C8E0704804F0BF
:1007D00019FF200000F04CFB002800D1BBE06D4861
:1007E00004F010FFE121092308226B48490200F0C0
:1007F000D5FB002800D1AAE0684804F003FF01F00F
:10080000BBFD0023664A674C8018594102000B1E4D
:1008100002DA0122644B52422260636001F0ACFDB7
:100820000023624A624D8018594102000B1E02DA11
:1008300001225D4B52422A606B6001F09DFD002356
:100840005C4A5D4E8018594102000B1E02DA0122FB
:10085000554B524280270CC603AB9846574B584E17
:100860009946584B3F069A46574B9B4625E001F068
:1008700083FD22686368121A8B41002B1ADC53D067
:1008800033785A425A413270002B31D1D023802222
:100890001B0692045A6101F06FFD0023404A801844
:1008A000594102000B00B94202D301223E4B524291
:1008B000226063600A2001F049FC01F05DFD2A68B6
:1008C0006B68121A8B41002B18DD00F085FC0028A4
:1008D000CDD0404600F08CFC0028C8D04346597863
:1008E000022928D0062922D0584604F00FFFBEE77F
:1008F000D02380221B0692049A61CCE7002B01D101
:10090000002AE2D1FFF782FD01F036FD0023274ADD
:100910008018594102000B00B94202D30122224B38
:1009200052422A606B60D0E7002AA9D0C2E7504645
:1009300004F068FE9BE7484604F064FE97E723480E
:1009400004F060FE23E7224804F05CFE35E721480E
:1009500004F058FE50E7204804F054FE3FE71F48DB
:1009600004F050FE32E7C04638020020A0860100A5
:10097000086000105460001084600010A86000102F
:10098000D8600010F06000104002002044610010A8
:10099000A461001004620010008003404C6200104B
:1009A00020A10700D8030020FFFFFF7F40420F0077
:1009B000E003002080841E00D0030020F05C0010C3
:1009C00081060020185D0010345D00102C600010BE
:1009D0001861001028620010D061001070610010D2
:1009E000F0B5C64600B588B06B46A1261E7401233B
:1009F000204D04002921286804AA009305F0D8F8A6
:100A0000012804D0002008B080BCB846F0BD0F27F4
:100A100000236F44984628683A0000932921013347
:100A200005F0D0F80128EDD130223B7828689343B7
:100A30006A46234353743B7043461674292100933E
:100A400004AA023305F0B4F80228DBD10A4B04AA49
:100A50001C700A4B240923CB23C21B68A40013601B
:100A600010226B469B181959054804F04FFE0120CF
:100A7000C9E7C046280600207E06002094660010C4
:100A800060620010F0B5C64600B584B06B46A12682
:100A90001E7301231B4D04002921286803AA00931B
:100AA00005F086F8012804D0002004B080BCB846C8
:100AB000F0BD0B2700236F44984628683A00009346
:100AC0002921013305F07EF80128EDD107223B787A
:100AD000286893436A46234353733B704346167317
:100AE0002921009303AA023305F062F80228DBD122
:100AF0006421054B05481C700134614304F006FE77
:100B00000120D2E7280600207F0600207C6200102A
:100B100070B584B0B2236A46244C1373B13B206095
:100B20002921009303AA05F043F8012805D02048A5
:100B300004F068FD002004B070BD0B2500266D4454
:100B4000206801232A002921009605F03BF801289E
:100B5000EDD12978502903D0164804F0D7FDE9E7F4
:100B6000E8236A469B00938120680223292100968E
:100B700003AA05F01DF8022814D11020FFF730FF5A
:100B80000220FFF77FFFA0236A4629219381206876
:100B90009E3B03AA009605F00BF8074804F032FDCF
:100BA0000120C8E7054804F02DFDC3E72806002012
:100BB000A4620010C862001014630010F0620010FC
:100BC000F0B5C64600B5E82384B06A460027464C17
:100BD0009B00938106000D002068022329210097C5
:100BE00003AA04F0E5FF022804D0002004B080BC72
:100BF000B846F0BD3D4B62301B785843963001F04B
:100C0000A5FAB4236A461373B33B206829210093E5
:100C100003AA04F0CDFF0128E7D101232068292190
:100C2000009702AA04F0CEFF03000128DDD1B5220F
:100C3000694620680A732921009303AA04F0B8FFCB
:100C40000128D2D1092201232068292100976A4472
:100C500004F0B8FF03000128C7D1B6226946206816
:100C60000A732921009303AA04F0A2FF0128BCD132
:100C70000A2201232068292100976A4404F0A2FF78
:100C800003000128B1D1B722694620680A732921DF
:100C9000009303AA04F08CFF0128A6D10B236B4418
:100CA00098462068012342462921009704F08AFFD4
:100CB00001289AD1A0236A462068938129219E3B6E
:100CC00003AA009704F074FF6B465A7A1B7A12024B
:100CD0001343338043461A786B469B7A12021343C0
:100CE00001202B8082E7C046280600207F060020D6
:100CF000274B70B504000D00984235D0994233D08F
:100D0000244B1878013002F0CBF90022224B02F07C
:100D100058F9224B002202F036F902F009FA204B72
:100D2000061C1B78202B28D0302B2BD0102B1FD04B
:100D3000200002F0BAFD041C280002F0B6FD011CE0
:100D4000201C02F04EFD1749041C301C02F04FFD20
:100D5000011C201C02F04BFD0021041C02F08AFD46
:100D6000002803D1201C70BD0F48FCE70020FAE7E3
:100D70000E4902F050FD061CDAE70D4902F04BFD6A
:100D8000061CD5E70B4902F046FD061CD0E7C0461D
:100D9000FFFF00007F0600200000594000408F4008
:100DA0007E0600200000CC43000080BF0000C84148
:100DB0000000D64300501A4670B505001A3D0400E5
:100DC000032D17D804F008FF1F21200000F0AEFC0F
:100DD00000220021200000F0C3FC0021200000F0D0
:100DE000D3FC074B2200290006481D6004F08EFC4E
:100DF000012070BD044804F005FC0020F9E7C0465E
:100E0000E80500208063001050630010124B134A65
:100E10001B6811681B034B40E021C9010B401049BE
:100E200010B50B6004210F4B1960FC3113680B42A5
:100E3000FCD0506880B202F038FD0B4902F0EBFCA8
:100E4000E621890502F0E7FCFC21890502F0C9FCD6
:100E5000064902F0CCFC10BDE805002000C00440AB
:100E600000D0044000E00440333353400AD7233C11
:100E700070B584B06B4600240B22DC720123104D48
:100E8000362128606A44009304F092FE012805D0C0
:100E90000C4804F0B7FB002004B070BD03AE286816
:100EA000022332003621009404F08CFE0228EFD198
:100EB0003188054849BA89B204F028FC0120EBE7E3
:100EC0002C060020C0630010E863001070B584B0E9
:100ED0000F236A46D3720B22184D0E3B04003621B5
:100EE00028686A44009304F063FE012802D00020C1
:100EF00004B070BD002303AE286832000093362191
:100F0000023304F05FFE0228F1D1FA223388D200C6
:100F10005BBA9BB293420DD91300E121C83B580143
:100F2000C01A8000C018C000C90001F0B7FD2080C1
:100F30000120DDE7C82BF0D2C823EEE72C06002005
:100F400070B584B013236A46D3720B22114D123B45
:100F50000400362128686A44009304F029FE012821
:100F600002D0002004B070BD002303AE2868320018
:100F700000933621023304F025FE0228F1D1338894
:100F80005BBA98B202F096FC034902F030FC206094
:100F90000120E7E72C06002000002041F8B51500ED
:100FA0001E000C000B4F386001F034FA28000221BB
:100FB00000F0BCFB3000022100F0B8FB38680121D2
:100FC00001F0B8FA33002A002100034804F09EFB28
:100FD0000120F8BD740600201C640010F0B56026E6
:100FE00042888BB001A952BA8A808288037852BAAB
:100FF000CA80C288CB7052BA0A810398029A76429C
:101000004240087B497B4140100E41404B40110457
:101010005340090E12024B40120E53405E402F4BBC
:101020002F4A1B682F499A18504242415200555E80
:10103000F6B2AA2D4BD020219A691142FCD1AA22E6
:101040001A60012D3CD020219A691142FCD1012265
:101050001A600B2D2DD020219A691142FCD10B2250
:101060001A606A46D01D0D221227202194466F4433
:101070000478A54210D09A691142FCD101301C605D
:10108000B842F5D1B5420DD020219A691142FCD168
:1010900001201E600BB0F0BD9A691142FCD162467E
:1010A0001A60E8E720219A691142FCD10D221A60EA
:1010B000EAE720219A691142FCD10D221A60CAE7A1
:1010C00020219A691142FCD10D221A60BBE7202130
:1010D0009A691142FCD10D221A60ACE77406002017
:1010E0000080FCBF70060020F0B560268BB001AB1D
:1010F000D870039A029B764253401A0E5A405040D1
:101100001A04120E1B0250401B0E58402F4B304A3F
:101110001B6846409A18504242412E495200555E83
:10112000F6B2AA2D4AD020219A691142FCD1AA22F6
:101130001A60032D3BD020219A691142FCD1032271
:101140001A60092D2CD020219A691142FCD1092264
:101150001A606A46D01D0D222021944604AF0478FF
:10116000A54210D09A691142FCD101301C60B842EE
:10117000F5D1B5420DD020219A691142FCD1012050
:101180001E600BB0F0BD9A691142FCD162461A6034
:10119000E8E720219A691142FCD10D221A60EAE7A2
:1011A00020219A691142FCD10D221A60CBE720213F
:1011B0009A691142FCD10D221A60BCE720219A697C
:1011C0001142FCD10D221A60ADE7C0467406002022
:1011D0000080FCBF70060020044B1B689869012347
:1011E000C006C00F5840C0B27047C0467406002009
:1011F000F8B5CE464746824D040028681022836920
:1012000080B5DB0600D5A1E083691A4207D1836966
:101210001A42FCD10368DBB2AA2BF5D12370FA2164
:10122000890001F0B5F9002800D18FE0102228686C
:1012300083691A42FCD1FA2103688900637001F0C6
:10124000A7F9002800D181E01022286883691A429A
:10125000FCD10368DBB2A370202B77D8002B12D00F
:1012600027001026FA21890001F092F900286DD09C
:10127000286883691E42FCD103680137BB70A278DD
:101280003B1B9A42EEDCFA21890001F081F900282B
:101290005CD010212A6893691942FCD1136823227B
:1012A000DBB2A35422789946AA2A4FD1A578202DE3
:1012B0004CD8617869405140002D41D00320E21C98
:1012C00052426E1E1040092E00D897E0002800D12F
:1012D00092E0E6787140920700D48BE02279514089
:1012E000032800D084E00326627951402B1A033092
:1012F00020184268076898467A409B08022B2AD03B
:1013000087687A40032B26D0C7687A40042B22D006
:1013100007697A40052B1ED047697A40062B1AD000
:1013200087697A40082B16D1C06942401004000E2C
:10133000504041401002000E4140120E5140C9B2CF
:101340004B46581A43425841C0B200E00020C0BC8E
:10135000B946B046F8BD1004000E5040414010029E
:10136000000E4140120E5140032042464346824344
:10137000C9B292191842E3D0A018C0784140501C5D
:10138000A842DDDA2018C0784140901CC9B28542DD
:10139000D6DD2018C0784140D01C8542D0DD201811
:1013A000C0784140101D8542CADD2018C0784140F8
:1013B000501D8542C4DD2018C0784140901D8542F3
:1013C000BEDD2018C0784140D01D8542B8DD201810
:1013D000C0784140100008308542B1DD2018C07847
:1013E000093241409542ABDDA418E2785140A7E7AD
:1013F00002267BE7012679E7002677E70022BBE794
:1014000074060020F0B58BB06B4601AC01000822D9
:10141000D81D02F0E3FA2178A57AE3784D405D40CB
:101420002379334A5D40637932485D40A3795D405A
:10143000E3795D40237A5D40637A5D4009235D4036
:101440002D4B1B689A18564272415200165E8E420E
:1014500047D020209A691042FCD11960012E39D062
:1014600020219A691142FCD101221A60082E2AD04B
:1014700020219A691142FCD108221A60053220000D
:101480002021944603AFC478A6420FD09A69114236
:10149000FCD101301C60B842F5D1AE420CD0202105
:1014A0009A691142FCD11D600BB0F0BD9A691142DE
:1014B000FCD162461A60E9E720219A691142FCD109
:1014C0000D221A60EBE720219A691142FCD10D220E
:1014D0001A60CDE720219A691142FCD10D221A60D1
:1014E000BEE720209A691042FCD10D221A60B0E7B5
:1014F0000080FCBF700600207406002070B5A0B00C
:10150000D0236A463C4C937220603C4804F07AF841
:1015100001230A222068772100936A4404F048FBE3
:1015200001280BD10026092220680123772100968B
:101530006A4404F047FB0500012806D077213048B3
:1015400004F0E4F8002020B070BD6B462D48597AB5
:1015500004F0DCF86A462C4B206893817721022343
:10156000009603AA04F024FB022803D0274804F0C5
:1015700049F8E7E70A2000F0E9FD6A46244B2068B5
:10158000138277210223009604AA04F011FB02289B
:101590000FD16A461F4B2068938277210223009661
:1015A00005AA04F005FB022807D01B4804F02AF81E
:1015B000C8E71A4804F026F8C4E78A236A46D372BB
:1015C0000B22206877210095893B6A4404F0F0FAE9
:1015D000012808D1206865237721009606AA04F027
:1015E000F1FA652803D00E4804F00CF8AAE70D487C
:1015F00004F008F80120A6E7300600205C64001023
:10160000746400109C640010E0B6FFFFC06400101A
:10161000720200007425000004650010D8640010F8
:101620002C6500104C650010F0B5CE46474680B5DD
:1016300087B06A4673239373364B374D138200236A
:1016400081467721286804AA0093023304F0B0FA97
:101650000A24022841D100230D26012798466E4412
:10166000322000F073FD0E222868012377210097B5
:101670006A4404F09DFA012833D1434628683200B9
:1016800000937721012304F09DFA012829D13378B2
:101690007F2B02D8013C002CE2D125236A46D3736C
:1016A0000F22243B2868772100936A4404F080FAD3
:1016B000012809D1002328687721009305AA023365
:1016C00004F080FA022810D0144803F09BFF002099
:1016D00007B0C0BCB946B046F0BD114803F092FF58
:1016E000F5E7104803F08EFFF1E76B46988A40BAA1
:1016F00080B202F0DAF8EA21890502F08CF84B4654
:10170000186002F0F9F802000B00074803F0FEFF32
:101710000120DDE774250000300600209C650010E4
:101720006C65001088650010BC650010094A8300D4
:101730009A1810B514684022544080322240064C5A
:10174000C000A44663441A60044B9C466044416058
:1017500010BDC04604C0014004D00140004001401B
:10176000074B8000C3181B68C90092000A435A4007
:101770000C231340034A9446604403607047C046FC
:1017800004C0014004D001408000002905D0064B70
:101790009C464023604403607047044B9C464023B2
:1017A00060440360F8E7C04604E0014004F00140F3
:1017B0000123D0228340120693629361094A830079
:1017C0009A1811684022514080320A400649C000F0
:1017D0008C4663441A60054B9C4605236044436075
:1017E0007047C04604C0014004D0014000400140A1
:1017F0000FB400B5084883B003F004FF049B002B2E
:1018000007D005A91800019103F050FD034803F02B
:10181000F9FE012003F062FDD0650010745D001038
:1018200070B5EFF3108C72B60D4D2B68002BFCD009
:10183000BFF35F8F0724CB08C618C05C01230C40A0
:10184000A3401C000440034207D118433070BFF38B
:101850005F8F2C608CF3108870BD1000FFF7C8FFFD
:101860002C0100D0044A1078431CDBB2172B00D99E
:10187000102313707047C046980100200021044BCC
:10188000044ABFF35F8F02C39342FAD17047C04648
:10189000000100D0800100D0054B064A1360064AC3
:1018A000136053609360D360136153619361704719
:1018B0008080808000E400E004E400E01F23184002
:1018C0001E3B8340002905D0C021044A49005350E3
:1018D00013607047802201498B50FAE700E100E075
:1018E00070B50D00EFF3108672B60F4A1368002B27
:1018F000FCD0BFF35F8F0D4B10309B6884001B59E9
:101900000B4A934203D09D4201D000F0E9FF074B00
:101910009B681D51BFF35F8FBFF35F8F0022024BA7
:101920001A6086F3108870BD240100D000ED00E03D
:10193000CD010010F0B5DE4657464E464546E0B5AF
:101940000C0083B0EFF3108872B6634A1368002B63
:10195000FCD0BFF35F8F614B61499A68030010337D
:101960009F00D55901938D4243D0A54254D05D4E7E
:10197000AA1B2F2A3DD85C4B9B461B689946012326
:101980001A009C4682404B4613401F2299466346EC
:10199000024093409A4680225B4650469850BFF3DF
:1019A0005F8FEFF305839B46002B37D0019B5B4590
:1019B00001D000F095FF01232A009A4390688442E9
:1019C00008D176E04B005B189B00F31898688442BE
:1019D00036D01A00062151560029F3DA844254D039
:1019E0004B46002B27D0C02251463F4B5200995006
:1019F00019603A4B9B68DD51BFF35F8FBFF35F8F78
:101A00000022354B1A6088F3108803B0F0BCBB4647
:101A1000B246A946A046F0BD0D00EAE72A0063469B
:101A20009A4390688442D5D10620105613000028AE
:101A30000ADA0D0031E0802351462B4AD150D8E715
:101A400006201856002821DB42001118890074185E
:101A50008B46A1689960E179D97106216156997127
:101A6000002924DBA488F11A640524155C440919B3
:101A700009051E4C490D2143998013181C4A9B00EF
:101A80001178F31899711070AAE7130059460029CC
:101A900014D1FF3191711749918015490A789A71D3
:101AA000154A9B1B5B415A43120D0A7098E7114976
:101AB000E2E70620105613000028C5DA0F4A104945
:101AC000D21A083A5002400D014399800D4952083C
:101AD0000A43DA8084E7C046240100D000ED00E02C
:101AE000CD0100109C01002000E100E000E0FFFFBC
:101AF0008006002001BDFFFFAAAA0000D601002039
:101B000000F0FFFF00F8FFFF70B501240443EFF37E
:101B10000581EFF3108C72B6214A1368002BFCD0BC
:101B2000BFF35F8F1F4B05001F4AED1A6D416A43DB
:101B3000120D1E4D8900AE6852B27658A6421CD0D6
:101B40000621595691421CD012215956914222D059
:101B50001E215956914220D02A21595603249142E0
:101B600010D0134B19781A708171BFF35F8F002268
:101B70000B4B1A608CF3108870BDAB680D4C5C5039
:101B8000EFE700246100091989005B18FF219971B2
:101B900009499980E5E70124F4E70224F2E7C04609
:101BA000240100D09C010020AAAA000000ED00E062
:101BB00080060020CD01001001BDFFFF024B9C46B6
:101BC00061448900016070474000003470B5114CD9
:101BD000114DAC420FD2FF262368002B0CD0FFF72B
:101BE00041FE01002000FFF7E9FFA680BFF35F8FF1
:101BF0000834AC42F0D370BDFFF734FE0100200082
:101C0000FFF7DCFF2671BFF35F8F0834AC42E3D3EC
:101C1000F1E7C04648020020500200200A4B196834
:101C2000EFF3108072B60A68002AFCD0BFF35F8F12
:101C30001B68BFF35F8F00221A6080F3108840BFDB
:101C4000002000217047C0466C060020F0B5DE463B
:101C500057464E464546E0B587B0EFF3058303226D
:101C600001251A40954091008846A946B34B03923E
:101C70005C58B34B1D60B34B04934B46B24843636F
:101C80000823E55E002D37DAA3881BB2002B00DBAA
:101C9000ADE0A379002B00D0EEE00823E05E002841
:101CA00020DB430062691B18DB00D3189E68DD68E7
:101CB000731C00D111E1A44801004144826A0B6900
:101CC000B71A9B1A9F4215D30123026A03988340D7
:101CD0001A420FD09C4800F047FB8D4202DCCCD169
:101CE0008642CAD940BF07B0F0BCBB46B246A9463F
:101CF000A046F0BD0E61EDE762696B0092465B198C
:101D0000DB009A4453469E68DF6800F02DFB8F424B
:101D1000BADC00D103E1002F00DAE8E05246534676
:101D200052691B699346049A934200D1D9E0524606
:101D30000821605E5288000459461043984700907D
:101D400001910099019A0B001000134300D1CEE0DD
:101D500013000A00B61A9F41002806DB7A4800F0FB
:101D600003FB009E019F36184F4153469E60DF6083
:101D700000229A5E002A00DA86E75300991860690B
:101D8000C900411802938B68C9689B46B94200DDBF
:101D90007AE702D1B34200D976E708239C46A444EF
:101DA000059565462281A446029B2C0006E053005F
:101DB0009918C90041188D68C968AB469B18DB00AB
:101DC000C318B94206DC00D1B3E01C000023E25E78
:101DD000002AECDA230064469C4653461A80634688
:101DE000059D1D80A3881BB2002B00DA51E72269F4
:101DF000EFF3108172B61368002BFCD0BFF35F8F36
:101E00000123A7885B42A3803FB22369BFF35F8FA2
:101E100000221A6081F31088002F00DA39E72300CE
:101E2000083322009A4666697B00DB19DB00F31851
:101E3000996850468C460824115FDD68002910DB44
:101E4000029306E0AB4244D00023E15E200000296B
:101E500006DB4C006418E4003419E368AB42F1DDA2
:101E6000029B078000201F5E1980002FDCDA14001F
:101E7000A379002B00D110E70023A37126000823CB
:101E8000E15E08364B1C00D12CE70800A2466569CC
:101E900002E03E004B1C1AD04B005B18DB00EF1831
:101EA0000A008C46E95E7B881BB2002BF1DA012325
:101EB0005B42DC17BB60FC60824205D05346318038
:101EC0001B893B8053461A8160464B1CE4D1544623
:101ED000E5E6A3686345B7D9C2E76B1C00D0EAE624
:101EE000F8E65B4658461B69984700281BD15346C5
:101EF0001B8822692381EFF3108372B611680029D1
:101F0000FCD0BFF35F8F514662880A8022696580EA
:101F1000BFF35F8F0021116083F31088B4E686421F
:101F200000D8F8E6B0E65B461A685B680092019359
:101F300007E7B34500D848E74CE7C0465006002005
:101F40003C7005404D1C00100040054070B52E4C03
:101F50002569002D04D00A212C48FFF72FFE70BD03
:101F60002B4E0321300000F0F5F9E660FFF77AFC14
:101F7000284B03229C46D02322701B061B6801219C
:101F80006370254B6044A3600F2380002061022012
:101F9000638063694942A180198002311986473103
:101FA0001D83585218315A5275325C399952183281
:101FB0000131995218320131995218320131995236
:101FC000083518329D5202311832995218320131B7
:101FD00099521832013199521832013199521832FE
:101FE000013199521832013199520C4B0C49DC6085
:101FF00001303562FFF774FC01210320FFF75EFC1E
:10200000084B1D60A7E7C046E40100206C060020D5
:102010000040054040000034FFFF10005006002043
:102020004D1C00103860054070B501000469EFF3E5
:10203000108C72B620680028FCD0BFF35F8F02209E
:102040000D5E4C6968004019C00024180869002D15
:1020500036DB26884E80BFF35F8F002606608CF348
:102060001088E36063880498013320615B0405985D
:102070005B0CA26060611A1C002B1FD093B2280475
:10208000628018430A69EFF3108C72B61368002B54
:10209000FCD0BFF35F8F8B8823808D800B69BFF3EB
:1020A0005F8F00221A608CF310880B7801329A40FF
:1020B000CB6808498C4663441A6070BD0122DDE795
:1020C000BFF35F8F002303608CF310880120404230
:1020D000F3E7C0463C20000010B543890A14934240
:1020E0001ADD53009B184269DB00D3180469EFF333
:1020F000108C72B62268002AFCD0BFF35F8F5A881A
:10210000090494B2090C8A4208D00369BFF35F8FB7
:1021100000221A608CF31088002010BD8022120269
:1021200014435C80012302698371BFF35F8F002138
:1021300011608CF31088044902788C469340C26881
:10214000012062441360E8E73C200000F0B5C64679
:1021500000B582B0040000F00FF9FA2206000F006B
:10216000200000230021920001F01EFB801979411C
:1021700004000D1E02DA01242E4D6442062676422A
:10218000F71736196F41AF4214D811D000F0F4F8A8
:1021900032003B00121A8B41002B15DC002B46D07D
:1021A0002000290000F026F902B080BCB846F0BD3E
:1021B000A642EBD90026002700F0DEF832003B00F3
:1021C000121A8B41002BE9DD00F0D6F832003B00FB
:1021D000121A8B41002B0ADB00230193164B3200AD
:1021E000009316483B00FFF71FFF0130D8D00023B3
:1021F0003900B0469C46124A1248536A994204D8A4
:10220000966A4645CCD29942CAD10668EFF3108748
:1022100072B63368002BFCD0BFF35F8F0368BFF347
:102220005F8F66461E6087F3108820BFE5E7002AAF
:10223000B6D0C9E7FFFFFF7F1D1C0010E40100209E
:10224000004005406C060020F0B557464E46DE467D
:102250004546E0B506000F0085B0EFF305839946CB
:102260008B46002B12D0384900204B6ABB4206D364
:102270008A6ADB1B591E8B41B2424041184305B0AC
:10228000F0BCBB46B246A946A046F0BD2F4B9A46CD
:10229000DB68984653461B784046039300F064F889
:1022A0004246039B040004339B009B580D001B1AFD
:1022B00039003000001BA941894510DC0DD020BF3A
:1022C000214A0020536A5B45D9D3926ADB1B591E11
:1022D0008B41B24240411843D1E78342EFD900F02D
:1022E0004BF832003B00121A8B41002B1ADB002303
:1022F0000193174B3200009350463B00FFF794FECA
:10230000011E0FDD104B5A6A5A451BD39B6AB3421C
:1023100016D35046FFF7E0FE0B4A0020536A5B4598
:10232000ADD3D2E7084A0020536A5B45A7D300200B
:10233000926ADB1BB24240415A1E934118439EE70A
:102340005A45E6D120BFE4E700400540E401002003
:102350001D1C001010B5024A0248FFF761FA10BDBB
:10236000E0650010F40500200300416A0A00986A45
:10237000596A8A42FAD17047034B596A0A00986A2F
:10238000596A9142FAD170470040054070B5040087
:102390000D00174A536A1900966A536A8B42FAD1A4
:1023A0003000190024184D41AB4216D813D0104B01
:1023B0002A005B6A9D4203D90D494B6A9342FCD3C4
:1023C000934207D10A4A02E0516A994202D1916AC6
:1023D000A142F9D370BDA642E9D9054B5B6A1C0046
:1023E0005A1CEFD0012201246442E5175242E3E770
:1023F00000400540064A536A9942FCD807D1044B75
:1024000002E05A6A914202D19A6A9042F9D8704722
:1024100000400540F8B5040006200D0000F0B8F9B2
:10242000002844D0374B3849E3185A1E9341802284
:10243000120494465B429B0D344A9B05634413602F
:10244000334A136018000A689043FBD12D4B314A80
:10245000E31859424B4180215B0049000620995204
:1024600000F096F92900C00000F040FB0130C309DC
:102470001ED1402701226262A362266BF30722D499
:10248000E36A254B0620E51800232B60266300F045
:102490007FF93900800000F029FB7023E26A5A407E
:1024A0000E3313402B601D4B23630323A364F8BD3D
:1024B0001B4A93421ED900231A4A1B4F6262A36231
:1024C000266BF307DCD5194B144AE3181A60656ACA
:1024D000A36A0620AD01ED1800F05AF9144900F086
:1024E00005FBAD020100280000F000FB0021FFF712
:1024F0004DFFC5E74006800E9F011A003F180300FC
:10250000B9E7C0460080FCBF08C0004000E00040C2
:1025100000F00040700600202C10000001030000B5
:10252000FEFF0000FFFF0000C0FF3F003030000052
:102530004E0E0000F8B5066B04000D01F30708D439
:10254000E36A5D4010231D400D4BE3181D602663B8
:10255000F8BD0C4B0C4AC3181A60476A836ABF0166
:102560000620FF1800F014F9084900F0BFFABF0276
:102570000100380000F0BAFA0021FFF707FFDFE79B
:102580002C10000030300000010300004E0E00004F
:10259000074A30B51024956A03E0936A5B1B8B42AF
:1025A00004D883691C42F8D1012030BD0020FCE72B
:1025B00000400540F8B5DE464E4657464546E0B574
:1025C0008B4605000A991800160000F08FFA0A9B46
:1025D0006C001F02324B64199C46A400644463687B
:1025E00081469F4200D967602B1FDBB29846012BC2
:1025F00030D9C02380229B01E31812011A60294BB5
:10260000AD0059599A4600291BD17301E026226872
:1026100053401E40802342465B01E3181E60012A9E
:1026200030D9802380229B01E31812011A6053469F
:102630004A4667605A51F0BCBB46B246A946A0461E
:10264000F8BD586900F052FA013043001B18033BF3
:10265000FDD2DAE75B46012BCBD1C02303229B01DD
:10266000E3181A60023AA3681A42FCD07301E0260C
:102670002268AD0053401E4080230A4A5B01924607
:10268000E3181E605A462168514003220A401A602E
:1026900001225B469A40A3681A42FCD0C1E7C046BB
:1026A00000800040F8050020F0B546464F46D6466B
:1026B000C0B51F00344B44009C462418A400644459
:1026C000636888461600FF2B02D880235B00636096
:1026D000031FDBB29A46012B30D9C02380229B0115
:1026E000E31812011A60294B8500595999460029AF
:1026F0001BD17301E026226853401E4080235246BE
:102700005B01E3181E60012A30D9802380229B01DF
:10271000E31812011A6080235B0063604B465F512F
:10272000E0BCBA46B146A846F0BD586900F0DEF9F3
:10273000013043001B18033BFDD2DAE74346012B6F
:10274000CBD1C02303229B01E3181A60023AA3688D
:102750001A42FCD07301E0262268850053401E40D7
:1027600080230A4A5B019146E3181E6042462168B5
:10277000514003220A401A60012342469340A26856
:102780001342FCD0C1E7C04600800040F80500209D
:10279000014B8000C0587047F8050020F8B50400D0
:1027A00021481E0017000D0000F0A0F901003800BC
:1027B00000F09CF9069B36041B031E432368002B84
:1027C00020DB1A4B1A49E3185A1E934180229201CA
:1027D00094465B421B0B174A1B0363441360164A63
:1027E00013601F000A689743FBD1144B2560E21861
:1027F0002123A06013602368002BFCDA0823E66025
:102800001360F8BD3F2322681340AB42D9D1A368BF
:102810001B051B0D8342D4D1EE22E368D202134084
:10282000B342CED1EDE7C046001BB7000040FDBF6C
:1028300008C0004000E0004000F00040043000000C
:102840008023024A9B000B43D362704700800540FF
:10285000002310B50100988A1B8B984710BDC04615
:10286000162310B50100188802331B88984710BD45
:10287000F8B54746CE4680B50F1E18D014239946AA
:10288000043304000025012698464B461888434629
:1028900021681B88984701C4431E984101350640B2
:1028A000AF42F2D13000C0BCB946B046F8BD0126F7
:1028B000F8E7C046AA23064A1B0113608D235B007C
:1028C000D3600449044B19605368002BFCDA70474D
:1028D0000040024000B0FA00006002407047C0466D
:1028E00010B50148FEF784FF0466001070B5074D6F
:1028F000074EB54209D20024013E761BB60808CD2A
:10290000984723000134B342F9D170BDB05C001088
:10291000EC5C0010054B064A06491A60064A074B54
:102920001A6010000B689843FBD1704700E000402C
:10293000BFCDFBFE08C00040FE7F3C0000F0004021
:10294000044BDB6C002B03D18022034BD2021A60B4
:102950007047C046000011504C201150044A054BEE
:102960001A60054A1368DB018033FBD17047C0460B
:10297000FFFFFF0100F0004008C000404022034B71
:102980009A675A671A67DA667047C04600F00140D6
:1029900010B5FEF773FF10BD70B5044D044CA96867
:1029A000C022200001F01AF8AC6070BD00ED00E01C
:1029B00000000020002310B5294C82B0A367FFF768
:1029C00079FF0122274B1A60636C012BFCD1032293
:1029D000254B1A60224A936B012BFCD101330093E3
:1029E0000121224A22480433FFF7D8FE05230121A2
:1029F0000093204A2048FFF7D1FE00220221042044
:102A00001E4BFFF751FE0022012105201C4BFFF752
:102A10004BFE0022002107201A4BFFF745FE002243
:102A200000210820174BFFF73FFE8023DB000093B7
:102A3000002200210920134BFFF7BCFD0022104BA0
:102A400000210620FFF730FE0420FFF7A1FE0E490B
:102A500000F04CF801000020FFF7F2FE02B010BDBC
:102A6000008000403CB0004030B00040002F68596A
:102A700000800240008C864700C00240001BB70067
:102A800040597307006CDC0240420F0001480421EA
:102A9000014B18470002002071280010124A936F62
:102AA0009B0815D29066D166002905D0FFE7FFE7A5
:102AB000FFE7516F106F704704B580210906C217F8
:102AC0005140002800D0C84303F0E2F8002104BDC3
:102AD000F0B5146E556E576F166FFFF7E3FF14666F
:102AE000556657671667F0BD000000D0114A936F16
:102AF0009B0813D210665166002905D0FFE7FFE757
:102B0000FFE7516F106F704704B5002801D0002017
:102B1000C04303F0BDF8002104BDC046F0B5146EFB
:102B2000556E576F166FFFF7E5FF146655665767CA
:102B30001667F0BD000000D094464A4A926F920892
:102B4000624601D228E0C046F0B5464E346E756E3E
:102B5000776F366F00F020F89446424A1466556647
:102B6000576716676246F0BD94463E4A926F9208D8
:102B7000624601D254E0C046F0B53A4E346E756EEE
:102B8000776F366F00F04CF89446364A14665566F7
:102B9000576716676246F0BD002B24DB11D0002971
:102BA0003EDA00B5C943404200D1013100F038F8A7
:102BB000C943404200D10131DB43524200D10133CD
:102BC00000BD002AEBD1002801D1002905D000204A
:102BD000C90FC90701D1C043410800B503F050F83F
:102BE0000022002300BD00B500290ADBDB4352426E
:102BF00000D1013300F014F8C943404200D1013143
:102C000000BDC943404200D10131DB43524200D1F3
:102C1000013300F005F8DB43524200D1013300BD1F
:102C2000002923D1002B18D1002A0CD0BC460D4F0F
:102C300038667A6600210023FFE7FFE7FFE77A6F37
:102C4000386F67467047002801D00748010000B57B
:102C500003F016F80022002300BD02000B00002044
:102C600000217047000000D0FFFFFFFF002B00D0C5
:102C7000BFE0130C28D1002AE7D080B4114F396689
:102C80007A66FFE7FFE730B4040C7B6F396F1B04F3
:102C900023433B667A66FFE7FFE7FFE7C04684B25F
:102CA0007B6F3D6F1B0423433B667A66FFE7FFE7BC
:102CB000C04600232C042D0C7A6F386F001969412F
:102CC000B0BC7047000000D0F0B594460025140E4B
:102CD00001D112020835140F01D112010435940FED
:102CE00001D192000235D40F01D152000135D40B2D
:102CF0000134254F7C66254C3C660E0C93B2FFE7F1
:102D0000FFE7FFE73C6F6643360C7703BE4673432D
:102D1000DF0B5B04C01AB941130C7343DB18C91AEB
:102D2000CE086643360CB64493B273431F0F1B01A3
:102D3000C01AB941130C73431F0B1B05C01AB941CC
:102D4000860D8F023E436643360C092D24DB520A62
:102D50007243801A7703460A6643360C16235B1BC0
:102D6000DE40DF40BF1964466643821B704604356F
:102D700006330100D940A840C01900D30131A24256
:102D800006D20023F0BD0000000000D0FFFFFFFFCF
:102D9000121B0130F3D3F1E709277F1BFE40644685
:102DA000A2B27243801A00D20139220C7243130C72
:102DB0001204821A99410B00704604351337010042
:102DC000F940A840801900D30131002B02D1A24262
:102DD0000AD2F0BD013000D30131121BFAD2013BFF
:102DE000F8D1A24200D2F0BD013000D30131121B54
:102DF000F7E7F0B51C0C00D080E00CB400251C0AED
:102E000004D11B02160E3343120208351C0B04D1E9
:102E10001B01160F3343120104359C0B04D19B0098
:102E2000960F334392000235DC0B02D192185B41BE
:102E300001351C00971864410134464F7C66464CAE
:102E40003C660E0CFFE7FFE7FFE7C0463C6F6643BA
:102E5000360C7703BE4697B27743C01B00D20139C8
:102E6000C01B00D201399FB27743C91BC91B170C85
:102E700077437E04FF0B801BB941CE086643360CB6
:102E80000C2D33DBB644120B1F053A431B0B97B2D4
:102E90007743C01B00D201399FB27743C91B170C7F
:102EA00077433E043F0C801BB941860D8F023E43A1
:102EB000664329277F1BFE400C3D7746AF40BF1974
:102EC00030BCA2B2ABB272437343801A9941220C58
:102ED0007243130C1204801A994102000B0001374F
:102EE000001BA941F9D2781E0021F0BD0C277F1BE1
:102EF000FE4077467F0BAF40FF19E0E700245D1CE2
:102F000007D0144F7D663966FFE7FFE7FFE7FFE76D
:102F10003C6F95B29EB265436643401BB141150CB0
:102F20001E0C6543664336042F0C3E432D04401BA4
:102F3000B141994204D202000B0020000021F0BDF3
:102F400001D19042F7D3801A994101349942F2D3CA
:102F5000F6E70000000000D0FFFFFFFF48404140BF
:102F6000484018B41B4B5B68FC46019308BD04DF66
:102F70001F32001018B4174B1B68FC46019308BDA4
:102F800000DF293200109446134A926F920809D24A
:102F9000624618B40F4BDB68FC46019308BD0CDF9A
:102FA000E13400100C4AF0B5146E556E576F166F71
:102FB0006246FFF7EEFF084A1466556657671667C4
:102FC000F0BD18B4034B9B68FC46019308BD08DFB5
:102FD00085330010E8030020000000D0FFB550400A
:102FE0004240504059404B40594000E0FFB5154F1A
:102FF0004C00640D03D0BC4204D10C0314D8002053
:10300000090D09055C00640D03D0BC4204D11C030A
:103010000AD800221B0D1B0501264B4009D44B404A
:1030200003D58B4200D18242FFBD9942FCD1904230
:10303000FFBD0B43DB1803431343F5D0C9434918C5
:10304000FFBD0000FF07000000B5FFF7CFFF804184
:1030500000BDC04600B5FFF7C9FF01D9002000BD83
:10306000012000BD00B5FFF7B9FF01D9002000BD68
:10307000012000BD00B5FFF7B1FF804100BD012078
:1030800040054A00121804D85A00121801D800202E
:1030900070470120704700000021002805D17047CB
:1030A000C1174840401AFAD0C90713B5064B1B6830
:1030B00098470CBC441CA2401005120B0349091B85
:1030C00009051943114310BD680600201F040000C4
:1030D00010B54C00620D8023D218DB00D21A5B05BC
:1030E0007E2A10DD9E3A13DACC17090349081943EA
:1030F0005242D140640001341532202A05DAD04012
:103100000843604310BD002010BD0846604310BD59
:10311000C80FC018013810BD18B4044B5B6AFC46D8
:10312000019308BD24DF913600100000E803002061
:1031300018B4044BDB6FFC46019308BD7CDF1137EC
:1031400000100000E8030020132370B51D78012D46
:1031500019D014DD1F48FFF783FB06001E48FFF758
:103160007FFB1E4C80223100200000F037FC022D36
:103170002DD01B48FFF76CFB1A4B186070BD1A4B23
:10318000164CA364F5E7184B144C23606360A360EE
:10319000E36023616361A361E36123626362A3620D
:1031A000E36223636363A363E36323646364A364ED
:1031B000E36423656365A365E36523666366A366CD
:1031C000E36623676367A367E367A364D1E7064BFE
:1031D000A364CEE75344000053460000E8030020F8
:1031E0004C33000068060020ED31001007B5604642
:1031F00001880A0A0230DF2AFAD1C9B2820804D350
:10320000028840880004104300E00068014A5050E2
:10321000039007BDE80300200FB403BC0CBCF0B55D
:103220000124E407634000E0F0B50C0DCF0F661EEB
:103230003605891B640503D3C943404200D30131DD
:10324000640D03D0661CF60A07D0E41B00207F0043
:10325000791C89078912803C24031D0DDF0F6E1E27
:1032600036059B1B6D0503D3DB43524200D301336C
:103270006D0D03D06E1CF60A07D0ED1B00227F00F7
:103280007B1C9B079B12803D2D032F1B661B58D474
:10329000A446202E46DA20371400BC401D00BD4055
:1032A000F24033412A4380185941CB0F05D0C9431E
:1032B000C043002264425041514162464D0D28D125
:1032C0000D0D07D100281FD0241940414941013A72
:1032D0000D0DF9D0640006D3013000D30131002C6C
:1032E00001D140084000013A0BD4941CE40A04D1F7
:1032F00012051144DB071944F0BDD907204B1943CF
:1033000000E0D9070020F0BD0029DDD1002CDBD181
:10331000F0BD0132C6074008CD0728434908002EFA
:10332000E1D0D9E73C2E29DA203E40371400BC40DA
:1033300000D00124F24014431A00BB401C43D317B1
:10334000ACE7AC46202F08DA20360400B4400D006C
:10335000B540F84039412843A5E73C2F0CDA203F1F
:1033600040360400B44000D00124F8400443080073
:10337000B1400C43C117EAE710001900002494E79C
:103380000000F07FF0B50C0D661E3605891BE60ABD
:103390006405640D02D0651CED0A04D000200121F3
:1033A0000905803C2403A4461C0D671E3F05DB1B5A
:1033B000E70A6405640D02D0651CED0A04D0002202
:1033C00001231B05803C24037740644497B484B2F6
:1033D00096B27443070C7E43150C6F4380B268436A
:1033E000361802D3012000043F183004350C0019B0
:1033F0007D41844688B29AB250430C0C62431F0C44
:103400007C438EB27E43921902D301263604A4195E
:103410001604170C3618674101BC81B29AB25143A9
:10342000040C62431B0C5C4380B25843121802D355
:103430000120000424181004130C401863412D18B7
:103440005E410020474106BC88B293B258430C0C41
:103450006343120C544389B251435B1802D30121D8
:103460000904641819041A0C091862416D185641B0
:103470000020474118BCF902720D1143F0026A0D99
:103480001043ED020A0D03D16D1940414941013B42
:10349000124E9B1B7600B3420ED26D0007D3013053
:1034A000002671416646354301D1400840001B05A6
:1034B000C918E4072144F0BD0BDA013306D101300D
:1034C00004D101314F0D01D04908F2E7E107002096
:1034D000F0BD013631050020EBE70000FF030000DE
:1034E000F0B51C0D671E3F05DB1BE70A6405640D84
:1034F00002D0661CF60A04D0002201231B05803C82
:103500002403D0252D060026F6432E661E096E667E
:10351000CE0FF619B44649004F0D02D07E1CF60AB4
:1035200003D000200021403F3F033E1BB600B444BF
:10353000013F7F05C91B49082E6F013676089C02A2
:10354000950D25437543ED137543AD1301356D108E
:10355000F603761B0CB4CC02450D2C43A2B2B3B2D9
:103560005A43270C7B43350C6F43A4B26C431B19A1
:1035700002D3012424043F191C041D0CA4187D410E
:1035800024196D41009A91B2ACB26143170C7C438F
:103590002B0C5F4392B25A43A41802D301221204A7
:1035A000BF182204230C52187B41019C6C431B1949
:1035B000520ED9010A434401A01A81B2B2B251435A
:1035C00003145A43360C734387B27743D617D21984
:1035D00000277E4136049B191704160C7F185E41A4
:1035E0007316ED18F301002680337541A90F06D13B
:1035F0006400690AE8055B0A184309D22FE0042237
:10360000944480337541A90AA8059B0A184326D320
:10361000404149412404009A019B0D005543641B1D
:103620004343E41A95B286B27543170C7E43030CEC
:103630005F4392B25A43B61802D301221204BF1854
:103640003204330C52197B4152429C41002C02D46B
:103650000022013051414008CA071043490802B016
:103660006246D7079210084BD218084B9A4203D2F1
:1036700012058918C919F0BD0020002A01DC3900A3
:10368000F0BD01331905F5E7FD030000FE0700005A
:10369000002200B5203200F004F8080000BD000050
:1036A00000220B150AD410B5944600F05FF81414EC
:1036B000013400DA0021CB17144C204700200021F0
:1036C00070476244343A0CD40C2A07DA0400914063
:1036D000904052422032D440214310BDD843D943B8
:1036E00010BD203207D40C46944052422032114182
:1036F000D040204310BD0800C917203203D45242E5
:103700002032104110BD1800190010BDC336001042
:103710004A00520D144BD21A13DDFF2A1EDAD205CD
:10372000CB0FDB071A43C300400F0903490A0843C4
:1037300010435B0001D301D0013070474308FBD236
:10374000704702D0C80FC00770470A031213013236
:10375000F8D1420F072AF5D1012200E0FF22C80F5D
:1037600000028018C0057047800300000A0DCC0FCE
:10377000531E1B05C91A520503D3C943404200D347
:103780000131520D03D0531CDB0A07D0121B00205D
:103790006400611C89078912803A1203014BD21A16
:1037A00070470000FF03000051434343C9188C4693
:1037B000110C83B24B4310B4040C614392B280B23B
:1037C000504362431C041B0C001910BC59411304E4
:1037D000120CC018514161447047000048404140FC
:1037E00048400E4B5B6818470C4B1B6818470C4A47
:1037F000936F9B0802D2094BDB681847F0B5146E33
:10380000556E576F166FFFF7F6FF054A146655663B
:1038100057671667F0BD014B9B681847E804002006
:10382000000000D007B548404140484001E0C04694
:1038300007B54200120E03D0FF2A03D1420218D866
:10384000C00DC0054A00120E03D0FF2A03D14A0260
:103850000FD8C90DC9050122414005D4414001D509
:10386000814207BD884207BD0143491801D0C043CA
:10387000001807BD00B5FFF7DBFF804100BDC04663
:1038800000B5FFF7D5FF01D9002000BD012000BD24
:1038900000B5FFF7C7FF01D9002000BD012000BD22
:1038A00000B5FFF7BFFF804100BD491A002807D1CE
:1038B00008467047C10FC90700D54042002817D0FD
:1038C000F44603B40B4B1B68984706BC81409E38F6
:1038D0004042803107D20B0607D04900490AC00593
:1038E0001043084360470130F8E7490A8902F5E7C9
:1038F0007047000068060020034BDB6FFC4618474A
:103900007CDF9D3900100000E8040020132310B56F
:1039100012481C78FEF7A4FF0100012C0AD003DD39
:1039200080220F4800F05AF80E48FEF791FF0E4B28
:10393000186010BD0A4C5422200000F04FF80B4BC9
:103940006365A365E36523666366A366E366236731
:103950006367A367E3672362E361E5E7534600001B
:10396000E80400204C330000680600207139001084
:1039700007B5604601880A0A0230DF2AFAD1C9B2C7
:10398000820804D3028840880004104300E00068E5
:10399000014A5050039007BDE8040020C30FDB0725
:1039A00041000A0E07D0FF2A08D00909054A8918E4
:1039B0001943400770471900002070470249C91891
:1039C000FAE70000000000380000F07F0148042101
:1039D000014B18471002002071280010014B5B6852
:1039E00018470000100200207047C046F8B557463F
:1039F000DE464E464546E0B599460A9B07009A4684
:103A00000D9B884693460B9C9B073BD10C9B9C428D
:103A10003DD21E1B0B9415000C005E442A004B4641
:103A2000013521002020B847B542F7D1A0460B9CB4
:103A3000002C20D0454636195346321B013C185DF8
:103A400029004B46B847002CF6D12B00350098468C
:103A50000D9B9B070FD55B46EC1A0C9BA3420AD922
:103A6000464698462A004B46310020200134B8478C
:103A700001354445F6D32800F0BCBB46B246A94602
:103A8000A046F8BD16001500002CD3D1E0E71600C3
:103A90001500002CCED1EEE7F0B54546DE46574680
:103AA0004E46E0B585B09C4610AB1B78149F9346FC
:103AB00098460F9C129E139DBB074CD4002D42D1FB
:103AC000B44248D201233B4099460E9B013B9A46A3
:103AD000302304E0524601341355A64201D9202C6C
:103AE000F8D14B46002B00D183E00E9B013B994659
:103AF0003023A54205D82EE04A4601341355AC4286
:103B000029D0202CF8D1FB060CD57B0554D4A64235
:103B100063D0A54261D0119B102B50D0022B57D0FF
:103B2000202C32D1202301930E9B5A4600930397F9
:103B300063460295FFF75AFF05B0F0BCBB46B2469C
:103B4000A946A046F0BD01233B40994601233B42D4
:103B50002AD1B442B9D3FB061CD57B05DBD4002C9B
:103B6000D5D1119B102B5BD0119B022B6BD0302336
:103B700001240E9A13704346002B10D17B073ED5CB
:103B80002B260E9A631C1655CDE7230001343026F0
:103B90000E9AD654202CC5D04346002BEED02D26AD
:103BA0000E9A631C1655BEE74346002B2FD0013DED
:103BB000B44200D289E798E7119B102BB2D1BB0623
:103BC00037D5202CAED058230E9A13550134A7E7D1
:103BD000202CA7D02300013407E0631E012CC0D0A5
:103BE000119A102A31D0022AD1D162260E9AD654C7
:103BF00096E7FB06CED57B0500D488E78BE723004C
:103C00003E0790D520260E9A013316558BE70C23DC
:103C10003B405A1E9341ED1AB44200D255E764E787
:103C2000BB060ED478230E9A0224137030235370EF
:103C3000A1E7202C00D175E778230E9A13550134A3
:103C40006EE75823EFE76033EDE70E9AA61E914624
:103C50004E44BA0602D55822327098E77822327064
:103C600095E7C04610B5002800D110BD01F080FCDA
:103C7000FBE7C0460B0010B5002802D049681B685E
:103C8000984710BDF0B55746DE464E464546E0B56E
:103C900095B083460F00924698461E9A1F9B1000CF
:103CA0001900209EFFF7EBF9002800D0EAE11E98EA
:103CB0001F990122C54B5242FFF7C6F9002800D0D8
:103CC00014E11E981F990122C14B5242FFF7D2F90D
:103CD000002800D0E9E01E981F990022BD4BFFF795
:103CE000C9F9002800D0C8E01E981F990022BA4BDD
:103CF000FFF7AAF9002800D0BFE01E981F99002204
:103D00000023FFF7A1F9002800D0E4E000230B9383
:103D1000229B5B0500D406260024302307E01721F0
:103D200006AA013452181355013E202C01D0092E49
:103D3000F5D81E981F99FFF7CBF9A84BF2009B18F6
:103D40001A685B68050008920993FFF7A9F9020059
:103D50000B001E981F99FFF704F9089A099BFFF7BB
:103D600030F906900791FFF7D7F98146FFF794F9EC
:103D700002000B0006980799FFF7F3F80022984B12
:103D800006900791FFF776F9002800D10DE1012395
:103D90009C46E1444846FFF77FF902000B00089873
:103DA0000999FFF757F9002802D0002399460135F9
:103DB000002E00D1D9E006954D46B94614E006AA7A
:103DC000944617230A216344280001341F19FEF783
:103DD0008DFE3031397028000A21013EFEF786FE43
:103DE000092D00D817E10500202CE8D14F46069D8B
:103DF00020240CAE06AA17239446634499465B46DA
:103E0000B34606930FE04B4628000A210134E6181A
:103E1000FEF744FE3031280031700A21FEF73EFEE5
:103E2000051E00D1E4E0202CEDD1069B5E469B46AA
:103E30000323229A1340012B18D1219B002B15D06C
:103E40000B9B002B00D1FDE0219B013B2193202BFC
:103E50000CD93023219A07E0172006A9013409184C
:103E60000B55944200D3CCE0202CF5D1229B019439
:103E70000393219B0096029322E0229B52460493D7
:103E8000219B3900039358461E9B1F9C029600936A
:103E90000194434600F04AF90400200015B0F0BC3C
:103EA000BB46B246A946A046F0BD229B5B070FD495
:103EB00003224C4B22990192039121990093029184
:103EC0004346524639005846FFF790FD0400E4E7A8
:103ED0000422454BEEE71E9A1F9B00200021FFF7AE
:103EE00040F801231E901F910B9311E7229B54462B
:103EF0009B0711D1219B042B0ED9219B55469C4633
:103F00005E46043C64442A004346013539002020C3
:103F1000B047A542F7D1B346344D26002B1F994632
:103F20005B46A3461C003200E87843463900013D59
:103F3000A04701364D45F6D123005C469B46229BA7
:103F400004349B07A9D55346219AE31A9A42A4D96F
:103F50005E4615002200434639002020B0475346F4
:103F60000134E31A9D42F5D897E72800FFF798F847
:103F700002000B001E981F99FEF7F3FF0022184B5A
:103F800006900791FFF760F80CAE002800D031E7EB
:103F9000069807990022124BFFF76CF8002800D012
:103FA00028E7012301359D4324E70022069807995D
:103FB0000B4BFFF749F8002800D0F9E64B46002BE1
:103FC0005CD101239C46E144F2E6C046FFFFEFFFCF
:103FD000FFFFEF7F65CDCD4165CDCDC19868001065
:103FE0000000E03F58660010506600106066001048
:103FF000069B5E469B460323229A1340012B00D169
:1040000081E0202C00D131E70B9B002B27D02D2302
:10401000335501342AE74F46069D202C00D1E7E6B0
:104020003022331907E0172006A9013409180A5570
:10403000202C00D1DCE6A342F5D12E220CAE0134B7
:10404000F254D7E60C23229A134257D0219B013B0E
:104050002193A34200D9FCE6202C00D106E7229B45
:104060005B0703D52B2333550134FFE6229B1B0747
:1040700000D4FBE6202333550134F7E6DB0700D4F8
:1040800096E69EE7229B55469B0711D1219B032B69
:104090000ED9219B54469C465E46033D6544220052
:1040A0004346013439002020B047AC42F7D1B34633
:1040B000B9465F461C4EEC1C2A00B0784346494680
:1040C0000135B847013EAC42F6D1229BBB464F4674
:1040D0009B0700D4E1E65346219AE31A9A4200D89E
:1040E000DBE65E4615002200434639002020B0473B
:1040F00053460134E31AAB42F5D3CEE6219BA342EB
:1041000000D9A6E6B2E6219B002B00D179E70B9BF4
:10411000002B97D0219B013B21939C4200D298E633
:10412000202C00D073E7A1E65C660010F0B5DE46F7
:1041300057464E464546E0B599B081468B46924675
:104140009846229A239B10001900FEF798FF00283A
:1041500000D0CAE0229823990122824B5242FEF7F6
:1041600089FF002800D0C0E02298239901227E4BCD
:104170005242FEF769FF002800D0B6E0229823994A
:1041800000220023FEF760FF002800D0C9E1229B37
:10419000239C08930994089809998023269ADB00A8
:1041A0001A400D928022269C1201144022000B948A
:1041B000269C07000E001C4200D0ADE00B0003431C
:1041C00000D0D5E0002A00D00AE222000633249372
:1041D000022313400C930223134200D002E2259BDA
:1041E000042B00D20FE2043B0B93002304250A9317
:1041F0000022229823990023FEF726FF002800D0F2
:1042000003E25A4B269A134004930B9B0393249B7F
:104210000293089B099C00930194594643465246D9
:104220004846FFF72FFD02002020269B1F27034052
:1042300059424B415B421840531C08935946434630
:104240004530C8470A9AD317D4185C40D30F0A9355
:104250006B1E0B9308AB9C460025674401E0202DA4
:104260000FD020000A21FEF741FC01357E193031C4
:10427000317020000A21FEF739FC26000400092EC7
:10428000EDD8052306930B9B594605930023049311
:104290000A3303930A9B4846029310AB0093089A93
:1042A00043460195FFF7F8FB0C9B002B2DD053469E
:1042B000C41A259BA34228D94D465F4681461E005D
:1042C000534639001A19202043460134A847A64214
:1042D000F6D8534648462599C21A01320023914226
:1042E00000D386E1013018180FE0269B0493259B2C
:1042F0000393249B0293229B239C009301944346A7
:10430000524659464846FFF7BDFC19B0F0BCBB46C3
:10431000B246A946A046F0BD01432BD10B9B22001B
:10432000002B00D154E700230A93249B0A9A00240F
:10433000934200DD85E12298239900220023FEF7B5
:1043400083FE002800D035E1269B084A02941A40DB
:104350008023DB0013430493259B0393089B099C54
:10436000CBE7C046FFFFEF7FFFFFEFFFFFF7FFFF49
:1043700006232493B44B70009C46400D6044FEF726
:104380008FFEB24AB24BFEF71CFEB24AB24BFEF7AA
:10439000F1FD3603B14B360B334304000D003800FA
:1043A00019000022AE4BFEF7DCFDAE4AAE4BFEF725
:1043B00008FE02000B0020002900FEF7DBFDFEF7DF
:1043C00087FE0A90FEF76CFEA84AA94B04000D0078
:1043D000FEF7F7FD0022A74BFEF7CCFDFEF778FEB7
:1043E000A54A0600A54B20002900FEF7EAFD0400BF
:1043F00030000D000C96FEF753FEA14AA14BFEF7CC
:10440000E0FD02000B0020002900FEF7AAFD0200DB
:104410000B0006000F00FEF7D4FD320004000D0073
:104420003B0030003900FEF7A5FD00220E900F91F1
:10443000954B20002900FEF7A6FD0022934BFEF7C6
:1044400099FD02000B0020002900FEF79CFD0022D0
:104450008F4BFEF78FFD02000B0020002900FEF7B6
:1044600092FD0D008021040032003B000020C905B0
:10447000FEF777FD02000B0020002900FEF77AFD11
:1044800002000B000E980F99FEF77DFD0022734B82
:10449000FEF770FD7F4B0C9C9C4664440022230574
:1044A000FEF78FFD06000F0002000B000898099927
:1044B000FEF7CAFD00280AD00A9B3000013B3900F4
:1044C0000A930022714BFEF75EFD06000F000A9A68
:1044D000330063323900C62A12D8022226980425F6
:1044E00010400B9A0C90002A25D1259B042B05D94E
:1044F000002800D0A1E0259B043B0B93042541E05C
:104500000222269810400B9A0C90002A12D1259B6B
:10451000052B76D9002872D1259B0525053B0B93E9
:1045200034E0802212069446229B0893239B634426
:10453000099330E605250B4300D1F6E60898099962
:10454000554A564BFEF78EFD002808D00898099969
:104550000022534BFEF778FD002800D0E5E6249BAF
:10456000002B1CD00D9B002B19D0249B013B2493C6
:10457000259BAB4204D90C9B002B5AD002230C93F1
:1045800000230B930A9B002B00D131E60898099970
:1045900032003B00FEF7F7FC0890099128E6259BC6
:1045A000AB42EDD90C9B002B43D000230B9302337D
:1045B0000C93E7E78020269B3A4A00061A408023A6
:1045C00084460294089C099D2900DB001343049350
:1045D000259B6144220003930B00009201938EE619
:1045E0000524A8E600230B930A93023304250C93B9
:1045F000FEE553468C46013B63441B1A72E60223D8
:104600000C930525C2E70423EDE58020089E099F51
:10461000000639008446269A224B614413400493D5
:104620000B9B32000393249B02930B000092019397
:10463000F3E5259B5B1B0B93A4E7022304250C9356
:10464000A0E79C1A013C76E601FCFFFFFB799F5036
:104650001344D33FB3C8608B288AC63F0000F03FA5
:104660000000F83F61436F63A787D23F71A37909C8
:104670004F930A400000E03F1655B5BBB16B0240B6
:10468000EF39FAFE422EE63F00002C4000002440A5
:1046900000001840FF0300002D431CEBE2361A3FD8
:1046A00080842E41FFF7FFFFF0B5DE4657464E46A9
:1046B0004546E0B5A5B01E002E9B92460C93CD4A10
:1046C000CD4B80468B461A60002900D1EAE10023D9
:1046D00030789946002800D1ECE1C84B4C460B934A
:1046E000C74B454657460E930AE0631C9846220086
:1046F0003B005946A84744463078002800D187E05F
:1047000001362528F1D108239A46043B9946023BFD
:104710009846013B00229C460D943078711C0300A2
:10472000203BDBB2102B03D80B9C9B00E3589F4629
:104730000300303B89460D9C092B3AD9002398464B
:104740002A2800D1C1E000239A462E284BD003002E
:10475000683BDBB2122B1ED80E999B00CB589F46AC
:1047600063460E001A43D8E743460E001A43D4E7C7
:104770004B460E001A43D0E710230E001A43CCE735
:1047800053460E001A43C8E780235B001A43FF3BE1
:104790009C467078E1444E4667284FD82428A4D917
:1047A0000300253BDBB2422B9FD896499B00CB5898
:1047B0009F46002394461E0000E00131B3009B1980
:1047C0005B001E180878303E0300303B092BF4D9FB
:1047D0000123624689469C460023B0469A460E0055
:1047E000E1442E28B3D13021802049428C46C000BC
:1047F000024370784B4684446146092900D86CE135
:104800002A2800D17AE101239C464E46E1449EE7E6
:10481000A146A846BA46CA4503D801235B42534481
:10482000994653464A4659460020C047200025B0C5
:10483000F0BCBB46B246A946A046F0BD0300693BAA
:10484000DBB20D930F2B00D94FE7012199408C4625
:104850006D49894661464B4619400F91634649466A
:104860000B4200D028E10D9B0A2B3AD0072B00D039
:104870003BE70C9B190008C98846002B00D14BE18F
:1048800021200243914614A98C461F220F21624425
:104890008C4651460D950C91A24615000F9902E0E9
:1048A00020290CD0130064461C4020003730092C0E
:1048B00000D80738013168541A090F2BF0D80C9B27
:1048C00054460D9D9A460F9133E10C9B02CB8846CE
:1048D000002947DB0C9301239C4670784E46E14447
:1048E00031E70C9B02CB14935346002B00D138E1E7
:1048F0009C4608780B000C908C44002801D100F0F5
:1049000098FC89466146944603E05A780133002AB0
:1049100001D08B42F9D1494662465B1A0C900F9345
:10492000530500D520E10223180010400D901342DA
:1049300000D1CBE30D930B1BB1469A465E460C9813
:1049400022003B003100A84753460134185D00287F
:10495000F6D1B3464E460D9B002B00D0C7E1149B09
:104960000C93C9E60C9301239C4628384942024324
:10497000884670784E46E144E5E670786C2800D1B0
:104980007FE180235B001A43FF3B9C46E14402E742
:1049900080239B001A4301239C467078E144FAE689
:1049A0007078682800D173E180231A437F3B9C46CE
:1049B000E144F0E6672800D103E1472800D15AE13D
:1049C000452800D15AE10492072142460C9B0392EC
:1049D000073352468B43190002920CC928000092FB
:1049E00001930C9122003B005946FFF79FFB040006
:1049F00082E6C046A946001034060020F866001082
:104A00003C6700108867001041900000462800D1E4
:104A1000DBE00492072142460C9B03920733524687
:104A20008B43190002920CC92800009201930C914B
:104A300022003B005946FFF725F904005CE6631CA1
:104A4000984622003B0059462520A847444653E695
:104A50000C9B04330D93631C9946920700D422E10A
:104A60000C9B2200187859463B00A8474346444413
:104A7000012B00D885E23300B8462E005F462500A2
:104A80004C46994622004346013439002020B04765
:104A9000AC42F7D12C00BB46350047464E460D9B35
:104AA0000C9329E6DB4B3078984600239946002882
:104AB00000D012E60024AEE66F2800D188E000D8CE
:104AC0000BE31023782800D1CFE09A430A239C46B9
:104AD00000230F930A330D9380E05646B1008919E5
:104AE000490001330E181878303E01003039092989
:104AF000F4D9B2461E000133994628E60C9B0236D3
:104B000002CB8A46C9435046C917084082460C93D7
:104B10003078731C99461AE610231000984311331D
:104B20001843814680201300C0000340024200D198
:104B3000A9E64B4606930823059353460493102396
:104B40000393002302930F9B220001931CAB00935D
:104B500059463B002800FEF79FFF434604000C9394
:104B6000CAE501235B42C3E60F9B534501D9534677
:104B70000F930223180010400D90134200D1B7E1AB
:104B80000D93D1460B1B9A463300A1442E00220000
:104B90004D460C98B9465F469B4608E04B463900A7
:104BA000541CB0475346185D002877D02200954228
:104BB000F4D15B46BB464F46A94635004C461E0025
:104BC000C9E680231B011A43FDE620231A4320E790
:104BD00008239C4600230F9308330D938023110074
:104BE000DB0019401A4200D116E10D239A43100050
:104BF000802302009B001A401492184200D0C2E1A8
:104C0000802302005B001A4091460C9A04320F92F6
:104C1000184200D0B7E2430600D59FE1030600D456
:104C200019E30C9B1B880993002B00D0FCE1103387
:104C30009843002900D1F7E10023994643460593A4
:104C4000534604930D9B069003930023D2E058280B
:104C500008D0622867D102239C4600230F930233B9
:104C60000D93BBE720231A43103B9C4600230F9370
:104C700010330D93B2E780231B011A4320231A43FC
:104C8000A1E6C0239B001A43F31C9946B07882E545
:104C9000C0231A43F31C9946B0787CE535005E4684
:104CA000BB464F4657E64346012B00D863E1631EDF
:104CB00043449A463300B9462E005F4655469B460C
:104CC000A24622004B46013439002020B047AC42B6
:104CD000F7D135005E46BB464F46A14654460C9B75
:104CE0004A46187859463B004444A847D7E6A146AF
:104CF0000F9B984500D832E64444E41A3300B84686
:104D00002E005F4625004C4699462200434601345A
:104D100039002020B047AC42F7D12C00BB4635000B
:104D200047464E461BE680231000DB0018401A421F
:104D300000D10FE1112118008A430D920D9A8023B2
:104D400011009B0019408C461A4269D18023110042
:104D50005B00194089460C9904310F911A4200D02A
:104D6000CAE113005B0600D5F0E013001B0600D477
:104D700059E20C9B00229B5ED9175A184A4092B206
:104D8000D90F0C91002B00D1F9E1100014AA944620
:104D900042461F23149252466344A84616944D4639
:104DA0000400B946B2461F00159201E0202D0FD035
:104DB00020000A21FDF79AFE01357E19303131704D
:104DC00020000A21FDF792FE26000400092EEDD8EE
:104DD000149B4F46A94645469846159B56469A460B
:104DE000169C0D9B069343460593534604930A2352
:104DF00003930C9B02934B4601931CAB2200009340
:104E000059463B002800FEF747FE0F9B04000C9319
:104E100072E4C046E93900100C239A431000E7E61B
:104E200007220C9B07339343013294469C4462460D
:104E30000C920CCBD90F0F911100194300D191E0C6
:104E4000D917139112915140109113995940119112
:104E500010981199129A139B801A994110901191F0
:104E600014AA0023944642469946149252461F3390
:104E70006344A846B24616944E46109C119DB9460E
:104E800015921F0001E0202E10D0200029000A22D8
:104E90000023FDF769FE013630322B00BA550D00B4
:104EA00022000400002BEED1092AECD8149B1094A8
:104EB000119545469846159B4F46B14656469A462B
:104EC000169C0D9B069343460593534604930A2371
:104ED00003930F9B02934B4601931CAB220000935C
:104EE00059463B002800FEF7D7FD0400FFF704FCFD
:104EF0000F9B984500D8C1E18023DB000D9343460A
:104F00000F9A1B199B1A994633002E004D46B9463D
:104F10005F469B460C9122004B460134390020200D
:104F2000B047AC42F7D143460C9901330F930B784D
:104F300035000C935E46BB464F46002B00D10EE574
:104F40000D9B002B00D1F6E4002319E60C9B1B7887
:104F50001A0015E710239A430D92EFE60C9B1B787D
:104F6000099361E6002399460028AAD10022002374
:104F70001092119374E70C9B2200187859463B005D
:104F8000A8474C468BE50C9AFA3BFF3B07329A4305
:104F90000133994691444B460C931368526815921D
:104FA0001A4306D11032904300220992002900D002
:104FB00081E06122810600D54122D2B20A9214AA70
:104FC00091460A9A00210A3A149242461792524692
:104FD00018925A460991B3461F311E000F9B49444F
:104FE000BA4619941A950024674698468946159D35
:104FF00016901B920AE03032D2B24B4601341A5559
:10500000A8454AD0202C4AD006000D003A000023C3
:1050100030002900FDF7A8FDD2B2092AEBD9149B74
:105020009C466244D2B2E8E76123820600D5412360
:10503000DBB20A3B0C93434614A91F228C461593FE
:1050400053466244A046B2464C461797A9461700FD
:10505000099D0D9E1490169308E03033DBB20134A5
:105060003B55B5420ED3202C0CD005003100280052
:10507000FDF73CFDCBB20929EFD90C9A9446634465
:10508000DBB2ECE7159B4D46A14644469846169B7D
:10509000564614989A46179FD0E5B742B2D9179B47
:1050A00057469846189B5E469A461B9B09949B461A
:1050B0001698199C1A9D43460593534604930D9BDD
:1050C0000690039300230293099B05E70F9B9845E5
:1050D00000D914E701330F932DE4102311009943F5
:1050E0000D91692800D0BAE080231000DB00184041
:1050F0001A4200D122E61DE60C9B1B68DA0F110054
:10510000002B00D18CE0DA179818504014AA914671
:1051100042461F23149252464B44A046A946169776
:1051200004006546B2461F000C91159201E0202D47
:105130000FD020000A21FDF7D9FC01357E1930314E
:10514000317020000A21FDF7D1FC26000400092E51
:10515000EDD8149B444698460C9BAC461900159B11
:1051600056464D469A46169F0D9B0291069343461E
:105170000593534604930A23039363463CE60028B1
:1051800000D02EE602E60C9B1B689946002B03D14B
:1051900010339843002938D16123820600D541237A
:1051A000DBB20A3B0C9343461693534614A91F22C5
:1051B0008C4617932B006244A0464D46B246189782
:1051C00099461700149C0D9E159008E03033DBB211
:1051D00001343B55B5420ED3202C0CD005003100D4
:1051E0002800FDF783FCCBB20929EFD90C9A94462D
:1051F0006344DBB2ECE7169B149444469846179B35
:1052000056464D469A461598189F43460593534671
:1052100004930D9B0690039300230293149BEBE5EC
:105220000028A1D172E70C9B1B68D9175A184A4075
:10523000A6E580231000DB0018409C460F901A4220
:105240000FD00220030013400F93104219D0002307
:10525000A1460F934CE50C9B1B680993E4E40A00FC
:1052600034E40223180010400D90134200D03EE5B4
:105270004346002B00D042E6FFF771FB01330F934A
:105280007FE463460D93F3E710B50C0084B00394FC
:10529000012402A902900093034813006242FFF721
:1052A00003FA04B010BDC046753C001010B5094AA1
:1052B0000300146884B0002C08D001220091064835
:1052C000524203A9A047012004B010BD00F09AF992
:1052D0000020F9E734060020653C001000BEFDE721
:1052E00010B5FFF7FBFFC04670B5FDF7FFFA074D9D
:1052F000074EB54209D20024013E761BB60808CD00
:10530000984723000134B342F9D170BDEC5C001022
:10531000F05C0010030010B5080011001B689847EE
:1053200010BDC046F0B5C64600B5437D07000C0071
:105330001600002B46D0002A17DD0B780A2B24D04C
:1053400000239846012E13D001252900635C013506
:105350000A2B26D0B542F8D1464509DCA419013CF8
:1053600023780D3B5A4253413B7580BCB846F0BD93
:105370004346E018A419F11A013C3B68984723788A
:105380000D3B5A4253413B75EFE7037D002BD7D1CC
:1053900002210F483B689847012EDFD00123984631
:1053A000D2E7631E5B5C0D2BD4D0884504DA4346FC
:1053B000C91AE0183B689847022105483B68A8468F
:1053C0009847C7E70368110020009847CDE7C0461B
:1053D000E8680010F0B5C6460B6806000C0000B582
:1053E000802B06D05A1C2260E418267180BCB84677
:1053F000F0BD0F4B1D68002D16D00B1D98460D4FAC
:1054000002E02D69002D0FD02B68002BF9D03B68EE
:10541000002B01D0AB42F4D1280041462268FFF7AF
:1054200081FF2D69002DEFD101220023DBE7C0466B
:105430002006002024060020F0B54546DE464E46F4
:105440005746E0B583B091461C0080460D00FCF73E
:1054500093FF0023304A12184B41002B02DA01223D
:105460002E4B52422E4908008A4600F019FC0700D4
:105470006B1C03D1404600F0CBFB0500002C27D06D
:10548000284E294B1C68002C18D04B46002B21D1EC
:10549000264B994602E02469002C0FD02368002B8C
:1054A000F9D04B461B68002B01D09C42F3D1200061
:1054B0002A004146B0472469002CEFD1002F26D1A5
:1054C000280003B0F0BCBB46B246A946A046F0BDDA
:1054D000174ED6E7154B99460A239B4602E02469EE
:1054E000002CEBD02368002BF9D04B461B68002B17
:1054F00001D0A342F3D12A0041462000B0476B46B9
:105500005A462000DA71D91D0122B047E7E750461C
:1055100000F0AEFBD4E7C04640420F00FFFFFF7F24
:1055200048020020255300102006002024060020F9
:10553000155300100A4A1368002B05D10CE01A001D
:105540001B691032002B07D08342F8D1002902D109
:1055500018691060196170470029FCD01060FAE7E3
:105560002006002010B500F0ABF9012010BDC046A8
:10557000F0B5CE46474680B583B06B460600DD1DCC
:105580002870FCF7F9FE0023194A12184B41002B32
:1055900002DA0122174B524217490800884600F0F0
:1055A0007FFB164B81461C68002C14D0144F02E080
:1055B0002469002C0FD02368002BF9D03B68002B06
:1055C00001D09C42F4D1200001222900FFF7AAFE5D
:1055D0002469002CEFD14B46002B05D1300003B0DD
:1055E000C0BCB946B046F0BD404600F041FBF5E70F
:1055F00040420F00FFFFFF7F4802002020060020EE
:105600002406002070B5040000F002FB0123010015
:10561000050001222000FFF70FFF084B1C68002C3B
:1056200006D06368002B05D098472469002CF8D178
:10563000280070BD2469002CF3D1F9E72006002072
:10564000F0B5CE46474680B5A3B004000D00FCF788
:1056500093FE0023274A12184B41002B02DA012245
:10566000254B5242254E300000F01AFB0023220049
:10567000019307002B00224801A9FFF705FE214BEB
:10568000804699461C68019B002B1AD0002C2FD015
:105690001D4D02E02469002C0FD02368002BF9D0A7
:1056A0002B68002B01D0A342F4D12000019A02A95B
:1056B000FFF738FE2469002CEFD14B461C6800230D
:1056C0000193002C06D06368002B0BD09847246907
:1056D000002CF8D1002F07D1404623B0C0BCB946FA
:1056E000B046F0BD2469ECE7300000F0C1FAF3E702
:1056F0000194EFE740420F00FFFFFF7F48020020C8
:10570000D553001020060020240600200FB400B559
:1057100083B004A901C90191FFF792FF03B008BC4F
:1057200004B01847F0B5002915DD0E4B0D271A6897
:105730000D4B0E4CD3185D426B41451820215B0088
:105740001E5F0478A64207D093691942FCD101304C
:105750001460A842F5D1F0BD93691942FCD11760DD
:10576000F2E7C046780600200080FCBF70060020EB
:10577000204B70B504000D1E1E682ADD002010218C
:105780001D4B013C1A689369194214D10130936989
:105790001942FCD1136823548542F4D1002E08D05D
:1057A00050239363516B183B0B4014498C46624461
:1057B0001360280070BD002E08D050239363516BF6
:1057C000183B0B400D498C46624413600028F1D110
:1057D0000CE0002E0AD05022074B1B689A63596BCD
:1057E000183A0A4005498C4663441A600320404237
:1057F000E0E7C046EC0500207806002034100000E9
:10580000064B10B51B68002B06D00021044A126815
:105810009163044A1068984710BDC046EC0500200B
:1058200078060020F00500200822034B19688B69D8
:105830001A42FCD17047C04678060020F8B51A4FCE
:105840001A4B3A680500D31858424341184E143396
:105850001C003368002D02D0002B0FD0F8BD002BA8
:10586000FCD0002120009563FCF728F820001149A6
:10587000FCF760F8104B35601D60EFE70E4B200021
:1058800019600C493560FCF72BF801212000FCF76A
:1058900015F850223B689A63596B183A0A40074939
:1058A0008C4663441A60D9E7780600200080FCBF6C
:1058B000EC05002001580010F00500203410000015
:1058C0000D4B10B51B780D4B0D4C1B780D4B022169
:1058D0001B780D4B00202360FBF728FF02210120DD
:1058E000FBF724FFE12120684902FCF793FD012129
:1058F0000648FFF71FFE10BD2C6900102869001034
:105900007806002024690010004003402002002097
:10591000F0B5DE4657464E464546E0B5070083B033
:105920000CA80192027800203C689B46E06661600A
:1059300001219146E166002B34DD5A1E90468022FB
:105940005200944680264025616F1029FCD000212A
:10595000002801D13979890240451DD062461143A2
:105960002161A159616B0D420BD00120636D404252
:105970004B463B7103B0F0BCBB46B246A946A046BD
:10598000F0BDA16F0029ECD02169019B19540130B1
:105990008345EDD03C68D7E74B4601225A4053027D
:1059A0001943DBE70020E3E7F0B5DE4657464E46F5
:1059B000454690460022E0B585B01E000EAB1B7830
:1059C00007009B460368DA6601325960DA66002EEA
:1059D00060DD027959469202924601224A40520203
:1059E0009446802291465A46802403926246BB46E2
:1059F000002010214746B446751EA4000192421BA8
:105A0000160072427241019E5242164002963E5C5E
:105A1000B0465646424616433200029E16431E6169
:105A2000019E5A6B1142FCD04A469A580196924602
:105A3000002A0AD1A84228D000220130924684458B
:105A4000DDD1039B5F469B4616E05A6D01229046CE
:105A50005A6B2242FCD01A6E42460196002AEBD0C5
:105A6000039B5F469B465346002B15D05346DB07EE
:105A700012D453461B070FD55B463B7105B0F0BCF3
:105A8000BB46B246A946A046F0BD039A002AD3D130
:105A90009046DDE70020EFE701204042ECE7C046FA
:105AA000F8B5DE4657464E4645468346E0B50520E6
:105AB0000C00FCF76DFE0600600821008019FDF760
:105AC00015F8430098468044070005214046FDF73D
:105AD0000DF83B1A9A461E4B8146700080199C4275
